{
	"contracts/Bias.sol": {
		"BiasProtocol": {
			"abi": [
				{
					"inputs": [],
					"stateMutability": "nonpayable",
					"type": "constructor"
				},
				{
					"inputs": [
						{
							"internalType": "address",
							"name": "spender",
							"type": "address"
						},
						{
							"internalType": "uint256",
							"name": "allowance",
							"type": "uint256"
						},
						{
							"internalType": "uint256",
							"name": "needed",
							"type": "uint256"
						}
					],
					"name": "ERC20InsufficientAllowance",
					"type": "error"
				},
				{
					"inputs": [
						{
							"internalType": "address",
							"name": "sender",
							"type": "address"
						},
						{
							"internalType": "uint256",
							"name": "balance",
							"type": "uint256"
						},
						{
							"internalType": "uint256",
							"name": "needed",
							"type": "uint256"
						}
					],
					"name": "ERC20InsufficientBalance",
					"type": "error"
				},
				{
					"inputs": [
						{
							"internalType": "address",
							"name": "approver",
							"type": "address"
						}
					],
					"name": "ERC20InvalidApprover",
					"type": "error"
				},
				{
					"inputs": [
						{
							"internalType": "address",
							"name": "receiver",
							"type": "address"
						}
					],
					"name": "ERC20InvalidReceiver",
					"type": "error"
				},
				{
					"inputs": [
						{
							"internalType": "address",
							"name": "sender",
							"type": "address"
						}
					],
					"name": "ERC20InvalidSender",
					"type": "error"
				},
				{
					"inputs": [
						{
							"internalType": "address",
							"name": "spender",
							"type": "address"
						}
					],
					"name": "ERC20InvalidSpender",
					"type": "error"
				},
				{
					"inputs": [
						{
							"internalType": "address",
							"name": "owner",
							"type": "address"
						}
					],
					"name": "OwnableInvalidOwner",
					"type": "error"
				},
				{
					"inputs": [
						{
							"internalType": "address",
							"name": "account",
							"type": "address"
						}
					],
					"name": "OwnableUnauthorizedAccount",
					"type": "error"
				},
				{
					"anonymous": false,
					"inputs": [
						{
							"indexed": true,
							"internalType": "address",
							"name": "owner",
							"type": "address"
						},
						{
							"indexed": true,
							"internalType": "address",
							"name": "spender",
							"type": "address"
						},
						{
							"indexed": false,
							"internalType": "uint256",
							"name": "value",
							"type": "uint256"
						}
					],
					"name": "Approval",
					"type": "event"
				},
				{
					"anonymous": false,
					"inputs": [
						{
							"indexed": true,
							"internalType": "address",
							"name": "previousOwner",
							"type": "address"
						},
						{
							"indexed": true,
							"internalType": "address",
							"name": "newOwner",
							"type": "address"
						}
					],
					"name": "OwnershipTransferred",
					"type": "event"
				},
				{
					"anonymous": false,
					"inputs": [
						{
							"indexed": true,
							"internalType": "address",
							"name": "from",
							"type": "address"
						},
						{
							"indexed": true,
							"internalType": "address",
							"name": "to",
							"type": "address"
						},
						{
							"indexed": false,
							"internalType": "uint256",
							"name": "value",
							"type": "uint256"
						}
					],
					"name": "Transfer",
					"type": "event"
				},
				{
					"anonymous": false,
					"inputs": [
						{
							"indexed": true,
							"internalType": "address",
							"name": "voter",
							"type": "address"
						},
						{
							"indexed": true,
							"internalType": "uint256",
							"name": "topicId",
							"type": "uint256"
						},
						{
							"indexed": false,
							"internalType": "uint256",
							"name": "choice",
							"type": "uint256"
						},
						{
							"indexed": false,
							"internalType": "uint256",
							"name": "weight",
							"type": "uint256"
						}
					],
					"name": "Vote",
					"type": "event"
				},
				{
					"inputs": [
						{
							"internalType": "address",
							"name": "",
							"type": "address"
						}
					],
					"name": "_lastJoinTime",
					"outputs": [
						{
							"internalType": "uint256",
							"name": "",
							"type": "uint256"
						}
					],
					"stateMutability": "view",
					"type": "function"
				},
				{
					"inputs": [],
					"name": "_rewards",
					"outputs": [
						{
							"internalType": "uint256",
							"name": "",
							"type": "uint256"
						}
					],
					"stateMutability": "view",
					"type": "function"
				},
				{
					"inputs": [
						{
							"internalType": "uint256",
							"name": "",
							"type": "uint256"
						}
					],
					"name": "_topics",
					"outputs": [
						{
							"internalType": "address",
							"name": "creator",
							"type": "address"
						},
						{
							"internalType": "uint256",
							"name": "createdAt",
							"type": "uint256"
						},
						{
							"internalType": "string",
							"name": "title",
							"type": "string"
						},
						{
							"internalType": "string",
							"name": "content",
							"type": "string"
						},
						{
							"internalType": "uint256",
							"name": "funds",
							"type": "uint256"
						},
						{
							"internalType": "uint256",
							"name": "max",
							"type": "uint256"
						}
					],
					"stateMutability": "view",
					"type": "function"
				},
				{
					"inputs": [
						{
							"internalType": "uint256",
							"name": "",
							"type": "uint256"
						}
					],
					"name": "_voterCounts",
					"outputs": [
						{
							"internalType": "uint256",
							"name": "",
							"type": "uint256"
						}
					],
					"stateMutability": "view",
					"type": "function"
				},
				{
					"inputs": [
						{
							"internalType": "uint256",
							"name": "",
							"type": "uint256"
						},
						{
							"internalType": "uint256",
							"name": "",
							"type": "uint256"
						}
					],
					"name": "_votes",
					"outputs": [
						{
							"internalType": "uint256",
							"name": "",
							"type": "uint256"
						}
					],
					"stateMutability": "view",
					"type": "function"
				},
				{
					"inputs": [
						{
							"internalType": "address",
							"name": "owner",
							"type": "address"
						},
						{
							"internalType": "address",
							"name": "spender",
							"type": "address"
						}
					],
					"name": "allowance",
					"outputs": [
						{
							"internalType": "uint256",
							"name": "",
							"type": "uint256"
						}
					],
					"stateMutability": "view",
					"type": "function"
				},
				{
					"inputs": [
						{
							"internalType": "address",
							"name": "spender",
							"type": "address"
						},
						{
							"internalType": "uint256",
							"name": "value",
							"type": "uint256"
						}
					],
					"name": "approve",
					"outputs": [
						{
							"internalType": "bool",
							"name": "",
							"type": "bool"
						}
					],
					"stateMutability": "nonpayable",
					"type": "function"
				},
				{
					"inputs": [
						{
							"internalType": "address",
							"name": "account",
							"type": "address"
						}
					],
					"name": "balanceOf",
					"outputs": [
						{
							"internalType": "uint256",
							"name": "",
							"type": "uint256"
						}
					],
					"stateMutability": "view",
					"type": "function"
				},
				{
					"inputs": [
						{
							"internalType": "uint256",
							"name": "topicId",
							"type": "uint256"
						}
					],
					"name": "claimRewards",
					"outputs": [],
					"stateMutability": "nonpayable",
					"type": "function"
				},
				{
					"inputs": [
						{
							"internalType": "string",
							"name": "title",
							"type": "string"
						},
						{
							"internalType": "string",
							"name": "content",
							"type": "string"
						},
						{
							"internalType": "uint256",
							"name": "funds",
							"type": "uint256"
						},
						{
							"internalType": "uint256",
							"name": "max",
							"type": "uint256"
						},
						{
							"internalType": "bytes32",
							"name": "gitcoinPassUid",
							"type": "bytes32"
						}
					],
					"name": "create",
					"outputs": [],
					"stateMutability": "nonpayable",
					"type": "function"
				},
				{
					"inputs": [],
					"name": "decimals",
					"outputs": [
						{
							"internalType": "uint8",
							"name": "",
							"type": "uint8"
						}
					],
					"stateMutability": "view",
					"type": "function"
				},
				{
					"inputs": [],
					"name": "name",
					"outputs": [
						{
							"internalType": "string",
							"name": "",
							"type": "string"
						}
					],
					"stateMutability": "view",
					"type": "function"
				},
				{
					"inputs": [],
					"name": "owner",
					"outputs": [
						{
							"internalType": "address",
							"name": "",
							"type": "address"
						}
					],
					"stateMutability": "view",
					"type": "function"
				},
				{
					"inputs": [],
					"name": "renounceOwnership",
					"outputs": [],
					"stateMutability": "nonpayable",
					"type": "function"
				},
				{
					"inputs": [],
					"name": "symbol",
					"outputs": [
						{
							"internalType": "string",
							"name": "",
							"type": "string"
						}
					],
					"stateMutability": "view",
					"type": "function"
				},
				{
					"inputs": [
						{
							"internalType": "uint256",
							"name": "index",
							"type": "uint256"
						}
					],
					"name": "topicAt",
					"outputs": [
						{
							"components": [
								{
									"internalType": "address",
									"name": "creator",
									"type": "address"
								},
								{
									"internalType": "uint256",
									"name": "createdAt",
									"type": "uint256"
								},
								{
									"internalType": "string",
									"name": "title",
									"type": "string"
								},
								{
									"internalType": "string",
									"name": "content",
									"type": "string"
								},
								{
									"internalType": "uint256",
									"name": "funds",
									"type": "uint256"
								},
								{
									"internalType": "uint256",
									"name": "max",
									"type": "uint256"
								}
							],
							"internalType": "struct BiasProtocol.Topic",
							"name": "",
							"type": "tuple"
						}
					],
					"stateMutability": "nonpayable",
					"type": "function"
				},
				{
					"inputs": [],
					"name": "topicTotal",
					"outputs": [
						{
							"internalType": "uint256",
							"name": "",
							"type": "uint256"
						}
					],
					"stateMutability": "view",
					"type": "function"
				},
				{
					"inputs": [
						{
							"internalType": "uint256",
							"name": "start",
							"type": "uint256"
						},
						{
							"internalType": "uint256",
							"name": "number",
							"type": "uint256"
						}
					],
					"name": "topics",
					"outputs": [
						{
							"components": [
								{
									"internalType": "address",
									"name": "creator",
									"type": "address"
								},
								{
									"internalType": "uint256",
									"name": "createdAt",
									"type": "uint256"
								},
								{
									"internalType": "string",
									"name": "title",
									"type": "string"
								},
								{
									"internalType": "string",
									"name": "content",
									"type": "string"
								},
								{
									"internalType": "uint256",
									"name": "funds",
									"type": "uint256"
								},
								{
									"internalType": "uint256",
									"name": "max",
									"type": "uint256"
								}
							],
							"internalType": "struct BiasProtocol.Topic[]",
							"name": "result",
							"type": "tuple[]"
						}
					],
					"stateMutability": "view",
					"type": "function"
				},
				{
					"inputs": [],
					"name": "totalSupply",
					"outputs": [
						{
							"internalType": "uint256",
							"name": "",
							"type": "uint256"
						}
					],
					"stateMutability": "view",
					"type": "function"
				},
				{
					"inputs": [
						{
							"internalType": "address",
							"name": "to",
							"type": "address"
						},
						{
							"internalType": "uint256",
							"name": "value",
							"type": "uint256"
						}
					],
					"name": "transfer",
					"outputs": [
						{
							"internalType": "bool",
							"name": "",
							"type": "bool"
						}
					],
					"stateMutability": "nonpayable",
					"type": "function"
				},
				{
					"inputs": [
						{
							"internalType": "address",
							"name": "from",
							"type": "address"
						},
						{
							"internalType": "address",
							"name": "to",
							"type": "address"
						},
						{
							"internalType": "uint256",
							"name": "value",
							"type": "uint256"
						}
					],
					"name": "transferFrom",
					"outputs": [
						{
							"internalType": "bool",
							"name": "",
							"type": "bool"
						}
					],
					"stateMutability": "nonpayable",
					"type": "function"
				},
				{
					"inputs": [
						{
							"internalType": "address",
							"name": "newOwner",
							"type": "address"
						}
					],
					"name": "transferOwnership",
					"outputs": [],
					"stateMutability": "nonpayable",
					"type": "function"
				},
				{
					"inputs": [
						{
							"internalType": "uint256",
							"name": "rewards_",
							"type": "uint256"
						}
					],
					"name": "updateRewards",
					"outputs": [],
					"stateMutability": "nonpayable",
					"type": "function"
				},
				{
					"inputs": [
						{
							"internalType": "uint256",
							"name": "topicId",
							"type": "uint256"
						},
						{
							"internalType": "uint256",
							"name": "voteFor",
							"type": "uint256"
						},
						{
							"internalType": "bytes32",
							"name": "gitcoinPassUid",
							"type": "bytes32"
						}
					],
					"name": "vote",
					"outputs": [],
					"stateMutability": "nonpayable",
					"type": "function"
				}
			],
			"devdoc": {
				"errors": {
					"ERC20InsufficientAllowance(address,uint256,uint256)": [
						{
							"details": "Indicates a failure with the `spender`’s `allowance`. Used in transfers.",
							"params": {
								"allowance": "Amount of tokens a `spender` is allowed to operate with.",
								"needed": "Minimum amount required to perform a transfer.",
								"spender": "Address that may be allowed to operate on tokens without being their owner."
							}
						}
					],
					"ERC20InsufficientBalance(address,uint256,uint256)": [
						{
							"details": "Indicates an error related to the current `balance` of a `sender`. Used in transfers.",
							"params": {
								"balance": "Current balance for the interacting account.",
								"needed": "Minimum amount required to perform a transfer.",
								"sender": "Address whose tokens are being transferred."
							}
						}
					],
					"ERC20InvalidApprover(address)": [
						{
							"details": "Indicates a failure with the `approver` of a token to be approved. Used in approvals.",
							"params": {
								"approver": "Address initiating an approval operation."
							}
						}
					],
					"ERC20InvalidReceiver(address)": [
						{
							"details": "Indicates a failure with the token `receiver`. Used in transfers.",
							"params": {
								"receiver": "Address to which tokens are being transferred."
							}
						}
					],
					"ERC20InvalidSender(address)": [
						{
							"details": "Indicates a failure with the token `sender`. Used in transfers.",
							"params": {
								"sender": "Address whose tokens are being transferred."
							}
						}
					],
					"ERC20InvalidSpender(address)": [
						{
							"details": "Indicates a failure with the `spender` to be approved. Used in approvals.",
							"params": {
								"spender": "Address that may be allowed to operate on tokens without being their owner."
							}
						}
					],
					"OwnableInvalidOwner(address)": [
						{
							"details": "The owner is not a valid owner account. (eg. `address(0)`)"
						}
					],
					"OwnableUnauthorizedAccount(address)": [
						{
							"details": "The caller account is not authorized to perform an operation."
						}
					]
				},
				"events": {
					"Approval(address,address,uint256)": {
						"details": "Emitted when the allowance of a `spender` for an `owner` is set by a call to {approve}. `value` is the new allowance."
					},
					"Transfer(address,address,uint256)": {
						"details": "Emitted when `value` tokens are moved from one account (`from`) to another (`to`). Note that `value` may be zero."
					}
				},
				"kind": "dev",
				"methods": {
					"allowance(address,address)": {
						"details": "See {IERC20-allowance}."
					},
					"approve(address,uint256)": {
						"details": "See {IERC20-approve}. NOTE: If `value` is the maximum `uint256`, the allowance is not updated on `transferFrom`. This is semantically equivalent to an infinite approval. Requirements: - `spender` cannot be the zero address."
					},
					"balanceOf(address)": {
						"details": "See {IERC20-balanceOf}."
					},
					"claimRewards(uint256)": {
						"details": "A successful votings could redeem the funds and receive a 10% bonus"
					},
					"create(string,string,uint256,uint256,bytes32)": {
						"details": "The fund must be more than 10% voter rewards; The creators could get refunds when the topic is fulfilled. It is designed to decrease outdated topics and the creators should choose the participants numebr wisely."
					},
					"decimals()": {
						"details": "Returns the number of decimals used to get its user representation. For example, if `decimals` equals `2`, a balance of `505` tokens should be displayed to a user as `5.05` (`505 / 10 ** 2`). Tokens usually opt for a value of 18, imitating the relationship between Ether and Wei. This is the default value returned by this function, unless it's overridden. NOTE: This information is only used for _display_ purposes: it in no way affects any of the arithmetic of the contract, including {IERC20-balanceOf} and {IERC20-transfer}."
					},
					"name()": {
						"details": "Returns the name of the token."
					},
					"owner()": {
						"details": "Returns the address of the current owner."
					},
					"renounceOwnership()": {
						"details": "Leaves the contract without owner. It will not be possible to call `onlyOwner` functions. Can only be called by the current owner. NOTE: Renouncing ownership will leave the contract without an owner, thereby disabling any functionality that is only available to the owner."
					},
					"symbol()": {
						"details": "Returns the symbol of the token, usually a shorter version of the name."
					},
					"totalSupply()": {
						"details": "See {IERC20-totalSupply}."
					},
					"transfer(address,uint256)": {
						"details": "See {IERC20-transfer}. Requirements: - `to` cannot be the zero address. - the caller must have a balance of at least `value`."
					},
					"transferFrom(address,address,uint256)": {
						"details": "See {IERC20-transferFrom}. Emits an {Approval} event indicating the updated allowance. This is not required by the EIP. See the note at the beginning of {ERC20}. NOTE: Does not update the allowance if the current allowance is the maximum `uint256`. Requirements: - `from` and `to` cannot be the zero address. - `from` must have a balance of at least `value`. - the caller must have allowance for ``from``'s tokens of at least `value`."
					},
					"transferOwnership(address)": {
						"details": "Transfers ownership of the contract to a new account (`newOwner`). Can only be called by the current owner."
					},
					"updateRewards(uint256)": {
						"details": "the owner could be migrated to the relayer of inflation control"
					},
					"vote(uint256,uint256,bytes32)": {
						"details": "Each single user could vote once per day."
					}
				},
				"stateVariables": {
					"_living": {
						"details": "Each user is allowed to create one live topic at the time. Once the topic is fulfilled the user could create the next topic. The purpose is to decrease verbose topics."
					},
					"_rewards": {
						"details": "Earnings each vote"
					},
					"_voterCounts": {
						"details": "Voter counts storage"
					},
					"_votes": {
						"details": "Votes result storage"
					}
				},
				"version": 1
			},
			"evm": {
				"assembly": "    /* \"contracts/Bias.sol\":209:4638  contract BiasProtocol is ERC20, Ownable{... */\n  mstore(0x40, 0x80)\n    /* \"contracts/Bias.sol\":681:690  10 * 1e18 */\n  0x8ac7230489e80000\n    /* \"contracts/Bias.sol\":658:690  uint public _rewards = 10 * 1e18 */\n  0x06\n  sstore\n    /* \"contracts/Bias.sol\":1347:1524  constructor() ERC20(\"BIAS\", \"BIAS\") Ownable(msg.sender){... */\n  callvalue\n  dup1\n  iszero\n  tag_1\n  jumpi\n  0x00\n  dup1\n  revert\ntag_1:\n  pop\n    /* \"@openzeppelin/contracts/token/ERC20/ERC20.sol\":1896:2009  constructor(string memory name_, string memory symbol_) {... */\n  0x40\n  dup1\n  mload\n  dup1\n  dup3\n  add\n  dup3\n  mstore\n  0x04\n  dup1\n  dup3\n  mstore\n  shl(0xe0, 0x42494153)\n  0x20\n  dup1\n  dup5\n  add\n  dup3\n  swap1\n  mstore\n  dup5\n  mload\n  dup1\n  dup7\n  add\n  swap1\n  swap6\n  mstore\n  swap2\n  dup5\n  mstore\n  swap1\n  dup4\n  add\n  mstore\n    /* \"contracts/Bias.sol\":1391:1401  msg.sender */\n  caller\n  swap2\n    /* \"@openzeppelin/contracts/token/ERC20/ERC20.sol\":1962:1967  _name */\n  0x03\n    /* \"@openzeppelin/contracts/token/ERC20/ERC20.sol\":1962:1975  _name = name_ */\n  tag_6\n    /* \"@openzeppelin/contracts/token/ERC20/ERC20.sol\":1896:2009  constructor(string memory name_, string memory symbol_) {... */\n  dup4\n    /* \"@openzeppelin/contracts/token/ERC20/ERC20.sol\":1962:1967  _name */\n  dup3\n    /* \"@openzeppelin/contracts/token/ERC20/ERC20.sol\":1962:1975  _name = name_ */\n  tag_7\n  jump\t// in\ntag_6:\n  pop\n    /* \"@openzeppelin/contracts/token/ERC20/ERC20.sol\":1985:1992  _symbol */\n  0x04\n    /* \"@openzeppelin/contracts/token/ERC20/ERC20.sol\":1985:2002  _symbol = symbol_ */\n  tag_8\n    /* \"@openzeppelin/contracts/token/ERC20/ERC20.sol\":1995:2002  symbol_ */\n  dup3\n    /* \"@openzeppelin/contracts/token/ERC20/ERC20.sol\":1985:1992  _symbol */\n  dup3\n    /* \"@openzeppelin/contracts/token/ERC20/ERC20.sol\":1985:2002  _symbol = symbol_ */\n  tag_7\n  jump\t// in\ntag_8:\n  pop\n  pop\n  pop\n  sub(shl(0xa0, 0x01), 0x01)\n    /* \"@openzeppelin/contracts/access/Ownable.sol\":1273:1299  initialOwner == address(0) */\n  dup2\n  and\n    /* \"@openzeppelin/contracts/access/Ownable.sol\":1269:1364  if (initialOwner == address(0)) {... */\n  tag_10\n  jumpi\n    /* \"@openzeppelin/contracts/access/Ownable.sol\":1322:1353  OwnableInvalidOwner(address(0)) */\n  mload(0x40)\n  shl(0xe0, 0x1e4fbdf7)\n  dup2\n  mstore\n    /* \"@openzeppelin/contracts/access/Ownable.sol\":1350:1351  0 */\n  0x00\n    /* \"@openzeppelin/contracts/access/Ownable.sol\":1322:1353  OwnableInvalidOwner(address(0)) */\n  0x04\n  dup3\n  add\n    /* \"#utility.yul\":2881:2932   */\n  mstore\n    /* \"#utility.yul\":2854:2872   */\n  0x24\n  add\n    /* \"@openzeppelin/contracts/access/Ownable.sol\":1322:1353  OwnableInvalidOwner(address(0)) */\n  mload(0x40)\n  dup1\n  swap2\n  sub\n  swap1\n  revert\n    /* \"@openzeppelin/contracts/access/Ownable.sol\":1269:1364  if (initialOwner == address(0)) {... */\ntag_10:\n    /* \"@openzeppelin/contracts/access/Ownable.sol\":1373:1405  _transferOwnership(initialOwner) */\n  tag_13\n    /* \"@openzeppelin/contracts/access/Ownable.sol\":1392:1404  initialOwner */\n  dup2\n    /* \"@openzeppelin/contracts/access/Ownable.sol\":1373:1391  _transferOwnership */\n  tag_14\n    /* \"@openzeppelin/contracts/access/Ownable.sol\":1373:1405  _transferOwnership(initialOwner) */\n  jump\t// in\ntag_13:\n    /* \"@openzeppelin/contracts/access/Ownable.sol\":1225:1412  constructor(address initialOwner) {... */\n  pop\n    /* \"contracts/Bias.sol\":1473:1515  0xc94aBf0292Ac04AAC18C251d9C8169a8dd2BBbDC */\n  0xc94abf0292ac04aac18c251d9c8169a8dd2bbbdc\n    /* \"contracts/Bias.sol\":1450:1516  new CredentialVerifier(0xc94aBf0292Ac04AAC18C251d9C8169a8dd2BBbDC) */\n  mload(0x40)\n  tag_16\n  swap1\n  tag_17\n  jump\t// in\ntag_16:\n  sub(shl(0xa0, 0x01), 0x01)\n    /* \"#utility.yul\":2899:2931   */\n  swap1\n  swap2\n  and\n    /* \"#utility.yul\":2881:2932   */\n  dup2\n  mstore\n    /* \"#utility.yul\":2869:2871   */\n  0x20\n    /* \"#utility.yul\":2854:2872   */\n  add\n    /* \"contracts/Bias.sol\":1450:1516  new CredentialVerifier(0xc94aBf0292Ac04AAC18C251d9C8169a8dd2BBbDC) */\n  mload(0x40)\n  dup1\n  swap2\n  sub\n  swap1\n  0x00\n  create\n  dup1\n  iszero\n  dup1\n  iszero\n  tag_19\n  jumpi\n  returndatasize\n  0x00\n  dup1\n  returndatacopy\n  revert(0x00, returndatasize)\ntag_19:\n  pop\n    /* \"contracts/Bias.sol\":1428:1447  _credentialVerifier */\n  0x0b\n    /* \"contracts/Bias.sol\":1428:1516  _credentialVerifier = new CredentialVerifier(0xc94aBf0292Ac04AAC18C251d9C8169a8dd2BBbDC) */\n  dup1\n  sload\n  not(sub(shl(0xa0, 0x01), 0x01))\n  and\n  sub(shl(0xa0, 0x01), 0x01)\n  swap3\n  swap1\n  swap3\n  and\n  swap2\n  swap1\n  swap2\n  or\n  swap1\n  sstore\n    /* \"contracts/Bias.sol\":209:4638  contract BiasProtocol is ERC20, Ownable{... */\n  jump(tag_27)\n    /* \"@openzeppelin/contracts/access/Ownable.sol\":2912:3099  function _transferOwnership(address newOwner) internal virtual {... */\ntag_14:\n    /* \"@openzeppelin/contracts/access/Ownable.sol\":3004:3010  _owner */\n  0x05\n  dup1\n  sload\n  sub(shl(0xa0, 0x01), 0x01)\n    /* \"@openzeppelin/contracts/access/Ownable.sol\":3020:3037  _owner = newOwner */\n  dup4\n  dup2\n  and\n  not(sub(shl(0xa0, 0x01), 0x01))\n  dup4\n  and\n  dup2\n  or\n  swap1\n  swap4\n  sstore\n    /* \"@openzeppelin/contracts/access/Ownable.sol\":3052:3092  OwnershipTransferred(oldOwner, newOwner) */\n  mload(0x40)\n    /* \"@openzeppelin/contracts/access/Ownable.sol\":3004:3010  _owner */\n  swap2\n  and\n  swap2\n    /* \"@openzeppelin/contracts/access/Ownable.sol\":3020:3037  _owner = newOwner */\n  swap1\n    /* \"@openzeppelin/contracts/access/Ownable.sol\":3004:3010  _owner */\n  dup3\n  swap1\n    /* \"@openzeppelin/contracts/access/Ownable.sol\":3052:3092  OwnershipTransferred(oldOwner, newOwner) */\n  0x8be0079c531659141344cd1fd0a4f28419497f9722a3daafe3b4186f6b6457e0\n  swap1\n    /* \"@openzeppelin/contracts/access/Ownable.sol\":2985:3001  address oldOwner */\n  0x00\n  swap1\n    /* \"@openzeppelin/contracts/access/Ownable.sol\":3052:3092  OwnershipTransferred(oldOwner, newOwner) */\n  log3\n    /* \"@openzeppelin/contracts/access/Ownable.sol\":2975:3099  {... */\n  pop\n    /* \"@openzeppelin/contracts/access/Ownable.sol\":2912:3099  function _transferOwnership(address newOwner) internal virtual {... */\n  pop\n  jump\t// out\n    /* \"contracts/Bias.sol\":209:4638  contract BiasProtocol is ERC20, Ownable{... */\ntag_17:\n  dataSize(sub_1)\n  dup1\n  dataOffset(sub_1)\n  dup4\n  codecopy\n  add\n  swap1\n  jump\t// out\n    /* \"#utility.yul\":14:141   */\ntag_22:\n    /* \"#utility.yul\":75:85   */\n  0x4e487b71\n    /* \"#utility.yul\":70:73   */\n  0xe0\n    /* \"#utility.yul\":66:86   */\n  shl\n    /* \"#utility.yul\":63:64   */\n  0x00\n    /* \"#utility.yul\":56:87   */\n  mstore\n    /* \"#utility.yul\":106:110   */\n  0x41\n    /* \"#utility.yul\":103:104   */\n  0x04\n    /* \"#utility.yul\":96:111   */\n  mstore\n    /* \"#utility.yul\":130:134   */\n  0x24\n    /* \"#utility.yul\":127:128   */\n  0x00\n    /* \"#utility.yul\":120:135   */\n  revert\n    /* \"#utility.yul\":146:526   */\ntag_23:\n    /* \"#utility.yul\":225:226   */\n  0x01\n    /* \"#utility.yul\":221:233   */\n  dup2\n  dup2\n  shr\n  swap1\n    /* \"#utility.yul\":268:280   */\n  dup3\n  and\n  dup1\n    /* \"#utility.yul\":289:350   */\n  tag_30\n  jumpi\n    /* \"#utility.yul\":343:347   */\n  0x7f\n    /* \"#utility.yul\":335:341   */\n  dup3\n    /* \"#utility.yul\":331:348   */\n  and\n    /* \"#utility.yul\":321:348   */\n  swap2\n  pop\n    /* \"#utility.yul\":289:350   */\ntag_30:\n    /* \"#utility.yul\":396:398   */\n  0x20\n    /* \"#utility.yul\":388:394   */\n  dup3\n    /* \"#utility.yul\":385:399   */\n  lt\n    /* \"#utility.yul\":365:383   */\n  dup2\n    /* \"#utility.yul\":362:400   */\n  sub\n    /* \"#utility.yul\":359:520   */\n  tag_31\n  jumpi\n    /* \"#utility.yul\":442:452   */\n  0x4e487b71\n    /* \"#utility.yul\":437:440   */\n  0xe0\n    /* \"#utility.yul\":433:453   */\n  shl\n    /* \"#utility.yul\":430:431   */\n  0x00\n    /* \"#utility.yul\":423:454   */\n  mstore\n    /* \"#utility.yul\":477:481   */\n  0x22\n    /* \"#utility.yul\":474:475   */\n  0x04\n    /* \"#utility.yul\":467:482   */\n  mstore\n    /* \"#utility.yul\":505:509   */\n  0x24\n    /* \"#utility.yul\":502:503   */\n  0x00\n    /* \"#utility.yul\":495:510   */\n  revert\n    /* \"#utility.yul\":359:520   */\ntag_31:\n  pop\n    /* \"#utility.yul\":146:526   */\n  swap2\n  swap1\n  pop\n  jump\t// out\n    /* \"#utility.yul\":657:1202   */\ntag_25:\n    /* \"#utility.yul\":759:761   */\n  0x1f\n    /* \"#utility.yul\":754:757   */\n  dup3\n    /* \"#utility.yul\":751:762   */\n  gt\n    /* \"#utility.yul\":748:1196   */\n  iszero\n  tag_34\n  jumpi\n    /* \"#utility.yul\":795:796   */\n  0x00\n    /* \"#utility.yul\":820:825   */\n  dup2\n    /* \"#utility.yul\":816:818   */\n  dup2\n    /* \"#utility.yul\":809:826   */\n  mstore\n    /* \"#utility.yul\":865:869   */\n  0x20\n    /* \"#utility.yul\":861:863   */\n  dup2\n    /* \"#utility.yul\":851:870   */\n  keccak256\n    /* \"#utility.yul\":935:937   */\n  0x1f\n    /* \"#utility.yul\":923:933   */\n  dup6\n    /* \"#utility.yul\":919:938   */\n  add\n    /* \"#utility.yul\":916:917   */\n  0x05\n    /* \"#utility.yul\":912:939   */\n  shr\n    /* \"#utility.yul\":906:910   */\n  dup2\n    /* \"#utility.yul\":902:940   */\n  add\n    /* \"#utility.yul\":971:975   */\n  0x20\n    /* \"#utility.yul\":959:969   */\n  dup7\n    /* \"#utility.yul\":956:976   */\n  lt\n    /* \"#utility.yul\":953:1000   */\n  iszero\n  tag_35\n  jumpi\n  pop\n    /* \"#utility.yul\":994:998   */\n  dup1\n    /* \"#utility.yul\":953:1000   */\ntag_35:\n    /* \"#utility.yul\":1049:1051   */\n  0x1f\n    /* \"#utility.yul\":1044:1047   */\n  dup6\n    /* \"#utility.yul\":1040:1052   */\n  add\n    /* \"#utility.yul\":1037:1038   */\n  0x05\n    /* \"#utility.yul\":1033:1053   */\n  shr\n    /* \"#utility.yul\":1027:1031   */\n  dup3\n    /* \"#utility.yul\":1023:1054   */\n  add\n    /* \"#utility.yul\":1013:1054   */\n  swap2\n  pop\n    /* \"#utility.yul\":1104:1186   */\ntag_36:\n    /* \"#utility.yul\":1122:1124   */\n  dup2\n    /* \"#utility.yul\":1115:1120   */\n  dup2\n    /* \"#utility.yul\":1112:1125   */\n  lt\n    /* \"#utility.yul\":1104:1186   */\n  iszero\n  tag_38\n  jumpi\n    /* \"#utility.yul\":1167:1184   */\n  dup3\n  dup2\n  sstore\n    /* \"#utility.yul\":1148:1149   */\n  0x01\n    /* \"#utility.yul\":1137:1150   */\n  add\n    /* \"#utility.yul\":1104:1186   */\n  jump(tag_36)\ntag_38:\n    /* \"#utility.yul\":1108:1111   */\n  pop\n  pop\n  pop\n    /* \"#utility.yul\":748:1196   */\ntag_34:\n    /* \"#utility.yul\":657:1202   */\n  pop\n  pop\n  pop\n  jump\t// out\n    /* \"#utility.yul\":1378:2730   */\ntag_7:\n    /* \"#utility.yul\":1498:1508   */\n  dup2\n  mload\n  sub(shl(0x40, 0x01), 0x01)\n    /* \"#utility.yul\":1520:1550   */\n  dup2\n  gt\n    /* \"#utility.yul\":1517:1573   */\n  iszero\n  tag_42\n  jumpi\n    /* \"#utility.yul\":1553:1571   */\n  tag_42\n  tag_22\n  jump\t// in\ntag_42:\n    /* \"#utility.yul\":1582:1679   */\n  tag_43\n    /* \"#utility.yul\":1672:1678   */\n  dup2\n    /* \"#utility.yul\":1632:1670   */\n  tag_44\n    /* \"#utility.yul\":1664:1668   */\n  dup5\n    /* \"#utility.yul\":1658:1669   */\n  sload\n    /* \"#utility.yul\":1632:1670   */\n  tag_23\n  jump\t// in\ntag_44:\n    /* \"#utility.yul\":1626:1630   */\n  dup5\n    /* \"#utility.yul\":1582:1679   */\n  tag_25\n  jump\t// in\ntag_43:\n    /* \"#utility.yul\":1734:1738   */\n  0x20\n  dup1\n    /* \"#utility.yul\":1798:1800   */\n  0x1f\n    /* \"#utility.yul\":1787:1801   */\n  dup4\n  gt\n    /* \"#utility.yul\":1815:1816   */\n  0x01\n    /* \"#utility.yul\":1810:2473   */\n  dup2\n  eq\n  tag_46\n  jumpi\n    /* \"#utility.yul\":2517:2518   */\n  0x00\n    /* \"#utility.yul\":2534:2540   */\n  dup5\n    /* \"#utility.yul\":2531:2620   */\n  iszero\n  tag_47\n  jumpi\n  pop\n    /* \"#utility.yul\":2586:2605   */\n  dup6\n  dup4\n  add\n    /* \"#utility.yul\":2580:2606   */\n  mload\n    /* \"#utility.yul\":2531:2620   */\ntag_47:\n  not(0x00)\n    /* \"#utility.yul\":1335:1336   */\n  0x03\n    /* \"#utility.yul\":1331:1342   */\n  dup7\n  swap1\n  shl\n    /* \"#utility.yul\":1327:1351   */\n  shr\n    /* \"#utility.yul\":1323:1352   */\n  not\n    /* \"#utility.yul\":1313:1353   */\n  and\n    /* \"#utility.yul\":1359:1360   */\n  0x01\n    /* \"#utility.yul\":1355:1366   */\n  dup6\n  swap1\n  shl\n    /* \"#utility.yul\":1310:1367   */\n  or\n    /* \"#utility.yul\":2633:2714   */\n  dup6\n  sstore\n    /* \"#utility.yul\":1780:2724   */\n  jump(tag_38)\n    /* \"#utility.yul\":1810:2473   */\ntag_46:\n    /* \"#utility.yul\":604:605   */\n  0x00\n    /* \"#utility.yul\":597:611   */\n  dup6\n  dup2\n  mstore\n    /* \"#utility.yul\":641:645   */\n  0x20\n    /* \"#utility.yul\":628:646   */\n  dup2\n  keccak256\n  not(0x1f)\n    /* \"#utility.yul\":1846:1866   */\n  dup7\n  and\n  swap2\n    /* \"#utility.yul\":1964:2200   */\ntag_50:\n    /* \"#utility.yul\":1978:1985   */\n  dup3\n    /* \"#utility.yul\":1975:1976   */\n  dup2\n    /* \"#utility.yul\":1972:1986   */\n  lt\n    /* \"#utility.yul\":1964:2200   */\n  iszero\n  tag_52\n  jumpi\n    /* \"#utility.yul\":2067:2086   */\n  dup9\n  dup7\n  add\n    /* \"#utility.yul\":2061:2087   */\n  mload\n    /* \"#utility.yul\":2046:2088   */\n  dup3\n  sstore\n    /* \"#utility.yul\":2159:2186   */\n  swap5\n  dup5\n  add\n  swap5\n    /* \"#utility.yul\":2127:2128   */\n  0x01\n    /* \"#utility.yul\":2115:2129   */\n  swap1\n  swap2\n  add\n  swap1\n    /* \"#utility.yul\":1994:2013   */\n  dup5\n  add\n    /* \"#utility.yul\":1964:2200   */\n  jump(tag_50)\ntag_52:\n    /* \"#utility.yul\":1968:1971   */\n  pop\n    /* \"#utility.yul\":2228:2234   */\n  dup6\n    /* \"#utility.yul\":2219:2226   */\n  dup3\n    /* \"#utility.yul\":2216:2235   */\n  lt\n    /* \"#utility.yul\":2213:2414   */\n  iszero\n  tag_53\n  jumpi\n    /* \"#utility.yul\":2289:2308   */\n  dup8\n  dup6\n  add\n    /* \"#utility.yul\":2283:2309   */\n  mload\n  not(0x00)\n    /* \"#utility.yul\":2372:2373   */\n  0x03\n    /* \"#utility.yul\":2368:2382   */\n  dup9\n  swap1\n  shl\n    /* \"#utility.yul\":2384:2387   */\n  0xf8\n    /* \"#utility.yul\":2364:2388   */\n  and\n    /* \"#utility.yul\":2360:2397   */\n  shr\n    /* \"#utility.yul\":2356:2398   */\n  not\n    /* \"#utility.yul\":2341:2399   */\n  and\n    /* \"#utility.yul\":2326:2400   */\n  dup2\n  sstore\n    /* \"#utility.yul\":2213:2414   */\ntag_53:\n  pop\n  pop\n  pop\n  pop\n  pop\n    /* \"#utility.yul\":2460:2461   */\n  0x01\n    /* \"#utility.yul\":2444:2458   */\n  swap1\n  dup2\n  shl\n    /* \"#utility.yul\":2440:2462   */\n  add\n    /* \"#utility.yul\":2427:2463   */\n  swap1\n  sstore\n  pop\n    /* \"#utility.yul\":1378:2730   */\n  jump\t// out\n    /* \"#utility.yul\":2735:2938   */\ntag_27:\n    /* \"contracts/Bias.sol\":209:4638  contract BiasProtocol is ERC20, Ownable{... */\n  dataSize(sub_0)\n  dup1\n  dataOffset(sub_0)\n  0x00\n  codecopy\n  0x00\n  return\nstop\n\nsub_0: assembly {\n        /* \"contracts/Bias.sol\":209:4638  contract BiasProtocol is ERC20, Ownable{... */\n      mstore(0x40, 0x80)\n      callvalue\n      dup1\n      iszero\n      tag_1\n      jumpi\n      0x00\n      dup1\n      revert\n    tag_1:\n      pop\n      jumpi(tag_2, lt(calldatasize, 0x04))\n      shr(0xe0, calldataload(0x00))\n      dup1\n      0x8da5cb5b\n      gt\n      tag_27\n      jumpi\n      dup1\n      0xb1e95e94\n      gt\n      tag_28\n      jumpi\n      dup1\n      0xb1e95e94\n      eq\n      tag_21\n      jumpi\n      dup1\n      0xcda411be\n      eq\n      tag_22\n      jumpi\n      dup1\n      0xdd62ed3e\n      eq\n      tag_23\n      jumpi\n      dup1\n      0xed2e39a7\n      eq\n      tag_24\n      jumpi\n      dup1\n      0xf2fde38b\n      eq\n      tag_25\n      jumpi\n      dup1\n      0xf7cb2657\n      eq\n      tag_26\n      jumpi\n      0x00\n      dup1\n      revert\n    tag_28:\n      dup1\n      0x8da5cb5b\n      eq\n      tag_15\n      jumpi\n      dup1\n      0x93ad4aca\n      eq\n      tag_16\n      jumpi\n      dup1\n      0x95d89b41\n      eq\n      tag_17\n      jumpi\n      dup1\n      0x9a383dfd\n      eq\n      tag_18\n      jumpi\n      dup1\n      0xa6c2da4c\n      eq\n      tag_19\n      jumpi\n      dup1\n      0xa9059cbb\n      eq\n      tag_20\n      jumpi\n      0x00\n      dup1\n      revert\n    tag_27:\n      dup1\n      0x313ce567\n      gt\n      tag_29\n      jumpi\n      dup1\n      0x313ce567\n      eq\n      tag_9\n      jumpi\n      dup1\n      0x63b6ad97\n      eq\n      tag_10\n      jumpi\n      dup1\n      0x68229099\n      eq\n      tag_11\n      jumpi\n      dup1\n      0x70a08231\n      eq\n      tag_12\n      jumpi\n      dup1\n      0x715018a6\n      eq\n      tag_13\n      jumpi\n      dup1\n      0x8c881eeb\n      eq\n      tag_14\n      jumpi\n      0x00\n      dup1\n      revert\n    tag_29:\n      dup1\n      0x06fdde03\n      eq\n      tag_3\n      jumpi\n      dup1\n      0x095ea7b3\n      eq\n      tag_4\n      jumpi\n      dup1\n      0x0962ef79\n      eq\n      tag_5\n      jumpi\n      dup1\n      0x0a05b17f\n      eq\n      tag_6\n      jumpi\n      dup1\n      0x18160ddd\n      eq\n      tag_7\n      jumpi\n      dup1\n      0x23b872dd\n      eq\n      tag_8\n      jumpi\n    tag_2:\n      0x00\n      dup1\n      revert\n        /* \"@openzeppelin/contracts/token/ERC20/ERC20.sol\":2074:2163  function name() public view virtual returns (string memory) {... */\n    tag_3:\n      tag_30\n      tag_31\n      jump\t// in\n    tag_30:\n      mload(0x40)\n      tag_32\n      swap2\n      swap1\n      tag_33\n      jump\t// in\n    tag_32:\n      mload(0x40)\n      dup1\n      swap2\n      sub\n      swap1\n      return\n        /* \"@openzeppelin/contracts/token/ERC20/ERC20.sol\":4293:4479  function approve(address spender, uint256 value) public virtual returns (bool) {... */\n    tag_4:\n      tag_34\n      tag_35\n      calldatasize\n      0x04\n      tag_36\n      jump\t// in\n    tag_35:\n      tag_37\n      jump\t// in\n    tag_34:\n      mload(0x40)\n        /* \"#utility.yul\":1269:1283   */\n      swap1\n      iszero\n        /* \"#utility.yul\":1262:1284   */\n      iszero\n        /* \"#utility.yul\":1244:1285   */\n      dup2\n      mstore\n        /* \"#utility.yul\":1232:1234   */\n      0x20\n        /* \"#utility.yul\":1217:1235   */\n      add\n        /* \"@openzeppelin/contracts/token/ERC20/ERC20.sol\":4293:4479  function approve(address spender, uint256 value) public virtual returns (bool) {... */\n      tag_32\n        /* \"#utility.yul\":1104:1291   */\n      jump\n        /* \"contracts/Bias.sol\":3850:4112  function claimRewards(uint topicId) public {... */\n    tag_5:\n      tag_40\n      tag_41\n      calldatasize\n      0x04\n      tag_42\n      jump\t// in\n    tag_41:\n      tag_43\n      jump\t// in\n    tag_40:\n      stop\n        /* \"contracts/Bias.sol\":1775:2640  function create(... */\n    tag_6:\n      tag_40\n      tag_45\n      calldatasize\n      0x04\n      tag_46\n      jump\t// in\n    tag_45:\n      tag_47\n      jump\t// in\n        /* \"@openzeppelin/contracts/token/ERC20/ERC20.sol\":3144:3241  function totalSupply() public view virtual returns (uint256) {... */\n    tag_7:\n        /* \"@openzeppelin/contracts/token/ERC20/ERC20.sol\":3222:3234  _totalSupply */\n      sload(0x02)\n        /* \"@openzeppelin/contracts/token/ERC20/ERC20.sol\":3144:3241  function totalSupply() public view virtual returns (uint256) {... */\n    tag_48:\n      mload(0x40)\n        /* \"#utility.yul\":3237:3262   */\n      swap1\n      dup2\n      mstore\n        /* \"#utility.yul\":3225:3227   */\n      0x20\n        /* \"#utility.yul\":3210:3228   */\n      add\n        /* \"@openzeppelin/contracts/token/ERC20/ERC20.sol\":3144:3241  function totalSupply() public view virtual returns (uint256) {... */\n      tag_32\n        /* \"#utility.yul\":3091:3268   */\n      jump\n        /* \"@openzeppelin/contracts/token/ERC20/ERC20.sol\":5039:5283  function transferFrom(address from, address to, uint256 value) public virtual returns (bool) {... */\n    tag_8:\n      tag_34\n      tag_53\n      calldatasize\n      0x04\n      tag_54\n      jump\t// in\n    tag_53:\n      tag_55\n      jump\t// in\n        /* \"@openzeppelin/contracts/token/ERC20/ERC20.sol\":3002:3084  function decimals() public view virtual returns (uint8) {... */\n    tag_9:\n      mload(0x40)\n        /* \"@openzeppelin/contracts/token/ERC20/ERC20.sol\":3075:3077  18 */\n      0x12\n        /* \"#utility.yul\":3748:3784   */\n      dup2\n      mstore\n        /* \"#utility.yul\":3736:3738   */\n      0x20\n        /* \"#utility.yul\":3721:3739   */\n      add\n        /* \"@openzeppelin/contracts/token/ERC20/ERC20.sol\":3002:3084  function decimals() public view virtual returns (uint8) {... */\n      tag_32\n        /* \"#utility.yul\":3606:3790   */\n      jump\n        /* \"contracts/Bias.sol\":780:832  mapping(uint => mapping(uint => uint)) public _votes */\n    tag_10:\n      tag_48\n      tag_62\n      calldatasize\n      0x04\n      tag_63\n      jump\t// in\n    tag_62:\n      0x08\n      0x20\n      swap1\n      dup2\n      mstore\n      0x00\n      swap3\n      dup4\n      mstore\n      0x40\n      dup1\n      dup5\n      keccak256\n      swap1\n      swap2\n      mstore\n      swap1\n      dup3\n      mstore\n      swap1\n      keccak256\n      sload\n      dup2\n      jump\n        /* \"contracts/Bias.sol\":1244:1292  mapping(address => uint256) public _lastJoinTime */\n    tag_11:\n      tag_48\n      tag_67\n      calldatasize\n      0x04\n      tag_68\n      jump\t// in\n    tag_67:\n      mstore(0x20, 0x0c)\n      0x00\n      swap1\n      dup2\n      mstore\n      0x40\n      swap1\n      keccak256\n      sload\n      dup2\n      jump\n        /* \"@openzeppelin/contracts/token/ERC20/ERC20.sol\":3299:3415  function balanceOf(address account) public view virtual returns (uint256) {... */\n    tag_12:\n      tag_48\n      tag_72\n      calldatasize\n      0x04\n      tag_68\n      jump\t// in\n    tag_72:\n      sub(shl(0xa0, 0x01), 0x01)\n        /* \"@openzeppelin/contracts/token/ERC20/ERC20.sol\":3390:3408  _balances[account] */\n      and\n        /* \"@openzeppelin/contracts/token/ERC20/ERC20.sol\":3364:3371  uint256 */\n      0x00\n        /* \"@openzeppelin/contracts/token/ERC20/ERC20.sol\":3390:3408  _balances[account] */\n      swap1\n      dup2\n      mstore\n      0x20\n      dup2\n      swap1\n      mstore\n      0x40\n      swap1\n      keccak256\n      sload\n      swap1\n        /* \"@openzeppelin/contracts/token/ERC20/ERC20.sol\":3299:3415  function balanceOf(address account) public view virtual returns (uint256) {... */\n      jump\n        /* \"@openzeppelin/contracts/access/Ownable.sol\":2293:2394  function renounceOwnership() public virtual onlyOwner {... */\n    tag_13:\n      tag_40\n      tag_76\n      jump\t// in\n        /* \"contracts/Bias.sol\":2829:3743  function vote(uint topicId, uint voteFor, bytes32 gitcoinPassUid) public {... */\n    tag_14:\n      tag_40\n      tag_78\n      calldatasize\n      0x04\n      tag_79\n      jump\t// in\n    tag_78:\n      tag_80\n      jump\t// in\n        /* \"@openzeppelin/contracts/access/Ownable.sol\":1638:1723  function owner() public view virtual returns (address) {... */\n    tag_15:\n        /* \"@openzeppelin/contracts/access/Ownable.sol\":1710:1716  _owner */\n      sload(0x05)\n        /* \"@openzeppelin/contracts/access/Ownable.sol\":1638:1723  function owner() public view virtual returns (address) {... */\n      mload(0x40)\n      sub(shl(0xa0, 0x01), 0x01)\n        /* \"@openzeppelin/contracts/access/Ownable.sol\":1710:1716  _owner */\n      swap1\n      swap2\n      and\n        /* \"#utility.yul\":4706:4757   */\n      dup2\n      mstore\n        /* \"#utility.yul\":4694:4696   */\n      0x20\n        /* \"#utility.yul\":4679:4697   */\n      add\n        /* \"@openzeppelin/contracts/access/Ownable.sol\":1638:1723  function owner() public view virtual returns (address) {... */\n      tag_32\n        /* \"#utility.yul\":4560:4763   */\n      jump\n        /* \"contracts/Bias.sol\":893:934  mapping(uint => uint) public _voterCounts */\n    tag_16:\n      tag_48\n      tag_86\n      calldatasize\n      0x04\n      tag_42\n      jump\t// in\n    tag_86:\n      mstore(0x20, 0x09)\n      0x00\n      swap1\n      dup2\n      mstore\n      0x40\n      swap1\n      keccak256\n      sload\n      dup2\n      jump\n        /* \"@openzeppelin/contracts/token/ERC20/ERC20.sol\":2276:2369  function symbol() public view virtual returns (string memory) {... */\n    tag_17:\n      tag_30\n      tag_90\n      jump\t// in\n        /* \"contracts/Bias.sol\":699:721  Topic[] public _topics */\n    tag_18:\n      tag_92\n      tag_93\n      calldatasize\n      0x04\n      tag_42\n      jump\t// in\n    tag_93:\n      tag_94\n      jump\t// in\n    tag_92:\n      mload(0x40)\n      tag_32\n      swap7\n      swap6\n      swap5\n      swap4\n      swap3\n      swap2\n      swap1\n      tag_96\n      jump\t// in\n        /* \"contracts/Bias.sol\":658:690  uint public _rewards = 10 * 1e18 */\n    tag_19:\n      tag_48\n      sload(0x06)\n      dup2\n      jump\n        /* \"@openzeppelin/contracts/token/ERC20/ERC20.sol\":3610:3788  function transfer(address to, uint256 value) public virtual returns (bool) {... */\n    tag_20:\n      tag_34\n      tag_101\n      calldatasize\n      0x04\n      tag_36\n      jump\t// in\n    tag_101:\n      tag_102\n      jump\t// in\n        /* \"contracts/Bias.sol\":4215:4308  function updateRewards(uint rewards_) public onlyOwner {... */\n    tag_21:\n      tag_40\n      tag_105\n      calldatasize\n      0x04\n      tag_42\n      jump\t// in\n    tag_105:\n      tag_106\n      jump\t// in\n        /* \"contracts/Bias.sol\":2648:2748  function topicAt(uint index) public returns (Topic memory ) {... */\n    tag_22:\n      tag_107\n      tag_108\n      calldatasize\n      0x04\n      tag_42\n      jump\t// in\n    tag_108:\n      tag_109\n      jump\t// in\n    tag_107:\n      mload(0x40)\n      tag_32\n      swap2\n      swap1\n      tag_111\n      jump\t// in\n        /* \"@openzeppelin/contracts/token/ERC20/ERC20.sol\":3846:3986  function allowance(address owner, address spender) public view virtual returns (uint256) {... */\n    tag_23:\n      tag_48\n      tag_113\n      calldatasize\n      0x04\n      tag_114\n      jump\t// in\n    tag_113:\n      sub(shl(0xa0, 0x01), 0x01)\n        /* \"@openzeppelin/contracts/token/ERC20/ERC20.sol\":3952:3970  _allowances[owner] */\n      swap2\n      dup3\n      and\n        /* \"@openzeppelin/contracts/token/ERC20/ERC20.sol\":3926:3933  uint256 */\n      0x00\n        /* \"@openzeppelin/contracts/token/ERC20/ERC20.sol\":3952:3970  _allowances[owner] */\n      swap1\n      dup2\n      mstore\n        /* \"@openzeppelin/contracts/token/ERC20/ERC20.sol\":3952:3963  _allowances */\n      0x01\n        /* \"@openzeppelin/contracts/token/ERC20/ERC20.sol\":3952:3970  _allowances[owner] */\n      0x20\n      swap1\n      dup2\n      mstore\n      0x40\n      dup1\n      dup4\n      keccak256\n        /* \"@openzeppelin/contracts/token/ERC20/ERC20.sol\":3952:3979  _allowances[owner][spender] */\n      swap4\n      swap1\n      swap5\n      and\n      dup3\n      mstore\n      swap2\n      swap1\n      swap2\n      mstore\n      keccak256\n      sload\n      swap1\n        /* \"@openzeppelin/contracts/token/ERC20/ERC20.sol\":3846:3986  function allowance(address owner, address spender) public view virtual returns (uint256) {... */\n      jump\n        /* \"contracts/Bias.sol\":4316:4539  function topics(uint start, uint number) public view returns (Topic[] memory result) {... */\n    tag_24:\n      tag_117\n      tag_118\n      calldatasize\n      0x04\n      tag_63\n      jump\t// in\n    tag_118:\n      tag_119\n      jump\t// in\n    tag_117:\n      mload(0x40)\n      tag_32\n      swap2\n      swap1\n      tag_121\n      jump\t// in\n        /* \"@openzeppelin/contracts/access/Ownable.sol\":2543:2758  function transferOwnership(address newOwner) public virtual onlyOwner {... */\n    tag_25:\n      tag_40\n      tag_123\n      calldatasize\n      0x04\n      tag_68\n      jump\t// in\n    tag_123:\n      tag_124\n      jump\t// in\n        /* \"contracts/Bias.sol\":4547:4635  function topicTotal() public view returns (uint){... */\n    tag_26:\n        /* \"contracts/Bias.sol\":4613:4620  _topics */\n      0x07\n        /* \"contracts/Bias.sol\":4613:4627  _topics.length */\n      sload\n        /* \"contracts/Bias.sol\":4547:4635  function topicTotal() public view returns (uint){... */\n      jump(tag_48)\n        /* \"@openzeppelin/contracts/token/ERC20/ERC20.sol\":2074:2163  function name() public view virtual returns (string memory) {... */\n    tag_31:\n        /* \"@openzeppelin/contracts/token/ERC20/ERC20.sol\":2119:2132  string memory */\n      0x60\n        /* \"@openzeppelin/contracts/token/ERC20/ERC20.sol\":2151:2156  _name */\n      0x03\n        /* \"@openzeppelin/contracts/token/ERC20/ERC20.sol\":2144:2156  return _name */\n      dup1\n      sload\n      tag_129\n      swap1\n      tag_130\n      jump\t// in\n    tag_129:\n      dup1\n      0x1f\n      add\n      0x20\n      dup1\n      swap2\n      div\n      mul\n      0x20\n      add\n      mload(0x40)\n      swap1\n      dup2\n      add\n      0x40\n      mstore\n      dup1\n      swap3\n      swap2\n      swap1\n      dup2\n      dup2\n      mstore\n      0x20\n      add\n      dup3\n      dup1\n      sload\n      tag_131\n      swap1\n      tag_130\n      jump\t// in\n    tag_131:\n      dup1\n      iszero\n      tag_132\n      jumpi\n      dup1\n      0x1f\n      lt\n      tag_133\n      jumpi\n      0x0100\n      dup1\n      dup4\n      sload\n      div\n      mul\n      dup4\n      mstore\n      swap2\n      0x20\n      add\n      swap2\n      jump(tag_132)\n    tag_133:\n      dup3\n      add\n      swap2\n      swap1\n      0x00\n      mstore\n      keccak256(0x00, 0x20)\n      swap1\n    tag_134:\n      dup2\n      sload\n      dup2\n      mstore\n      swap1\n      0x01\n      add\n      swap1\n      0x20\n      add\n      dup1\n      dup4\n      gt\n      tag_134\n      jumpi\n      dup3\n      swap1\n      sub\n      0x1f\n      and\n      dup3\n      add\n      swap2\n    tag_132:\n      pop\n      pop\n      pop\n      pop\n      pop\n      swap1\n      pop\n        /* \"@openzeppelin/contracts/token/ERC20/ERC20.sol\":2074:2163  function name() public view virtual returns (string memory) {... */\n      swap1\n      jump\t// out\n        /* \"@openzeppelin/contracts/token/ERC20/ERC20.sol\":4293:4479  function approve(address spender, uint256 value) public virtual returns (bool) {... */\n    tag_37:\n        /* \"@openzeppelin/contracts/token/ERC20/ERC20.sol\":4366:4370  bool */\n      0x00\n        /* \"@openzeppelin/contracts/utils/Context.sol\":735:745  msg.sender */\n      caller\n        /* \"@openzeppelin/contracts/token/ERC20/ERC20.sol\":4420:4451  _approve(owner, spender, value) */\n      tag_138\n        /* \"@openzeppelin/contracts/utils/Context.sol\":735:745  msg.sender */\n      dup2\n        /* \"@openzeppelin/contracts/token/ERC20/ERC20.sol\":4436:4443  spender */\n      dup6\n        /* \"@openzeppelin/contracts/token/ERC20/ERC20.sol\":4445:4450  value */\n      dup6\n        /* \"@openzeppelin/contracts/token/ERC20/ERC20.sol\":4420:4428  _approve */\n      tag_139\n        /* \"@openzeppelin/contracts/token/ERC20/ERC20.sol\":4420:4451  _approve(owner, spender, value) */\n      jump\t// in\n    tag_138:\n        /* \"@openzeppelin/contracts/token/ERC20/ERC20.sol\":4468:4472  true */\n      0x01\n        /* \"@openzeppelin/contracts/token/ERC20/ERC20.sol\":4461:4472  return true */\n      swap2\n      pop\n      pop\n        /* \"@openzeppelin/contracts/token/ERC20/ERC20.sol\":4293:4479  function approve(address spender, uint256 value) public virtual returns (bool) {... */\n    tag_135:\n      swap3\n      swap2\n      pop\n      pop\n      jump\t// out\n        /* \"contracts/Bias.sol\":3850:4112  function claimRewards(uint topicId) public {... */\n    tag_43:\n        /* \"contracts/Bias.sol\":3937:3944  _topics */\n      0x07\n        /* \"contracts/Bias.sol\":3945:3952  topicId */\n      dup2\n        /* \"contracts/Bias.sol\":3937:3953  _topics[topicId] */\n      dup2\n      sload\n      dup2\n      lt\n      tag_142\n      jumpi\n      tag_142\n      tag_143\n      jump\t// in\n    tag_142:\n      swap1\n      0x00\n      mstore\n      keccak256(0x00, 0x20)\n      swap1\n      0x06\n      mul\n      add\n        /* \"contracts/Bias.sol\":3937:3957  _topics[topicId].max */\n      0x05\n      add\n      sload\n        /* \"contracts/Bias.sol\":3912:3924  _voterCounts */\n      0x09\n        /* \"contracts/Bias.sol\":3912:3933  _voterCounts[topicId] */\n      0x00\n        /* \"contracts/Bias.sol\":3925:3932  topicId */\n      dup4\n        /* \"contracts/Bias.sol\":3912:3933  _voterCounts[topicId] */\n      dup2\n      mstore\n      0x20\n      add\n      swap1\n      dup2\n      mstore\n      0x20\n      add\n      0x00\n      keccak256\n      sload\n        /* \"contracts/Bias.sol\":3912:3957  _voterCounts[topicId] >= _topics[topicId].max */\n      lt\n      iszero\n        /* \"contracts/Bias.sol\":3904:3974  require(_voterCounts[topicId] >= _topics[topicId].max, \"not finished\") */\n      tag_145\n      jumpi\n      mload(0x40)\n      shl(0xe5, 0x461bcd)\n      dup2\n      mstore\n        /* \"#utility.yul\":8185:8187   */\n      0x20\n        /* \"contracts/Bias.sol\":3904:3974  require(_voterCounts[topicId] >= _topics[topicId].max, \"not finished\") */\n      0x04\n      dup3\n      add\n        /* \"#utility.yul\":8167:8188   */\n      mstore\n        /* \"#utility.yul\":8224:8226   */\n      0x0c\n        /* \"#utility.yul\":8204:8222   */\n      0x24\n      dup3\n      add\n        /* \"#utility.yul\":8197:8227   */\n      mstore\n      shl(0xa2, 0x1b9bdd08199a5b9a5cda1959)\n        /* \"#utility.yul\":8243:8261   */\n      0x44\n      dup3\n      add\n        /* \"#utility.yul\":8236:8278   */\n      mstore\n        /* \"#utility.yul\":8295:8313   */\n      0x64\n      add\n        /* \"contracts/Bias.sol\":3904:3974  require(_voterCounts[topicId] >= _topics[topicId].max, \"not finished\") */\n    tag_146:\n      mload(0x40)\n      dup1\n      swap2\n      sub\n      swap1\n      revert\n    tag_145:\n        /* \"contracts/Bias.sol\":4021:4031  msg.sender */\n      caller\n      sub(shl(0xa0, 0x01), 0x01)\n        /* \"contracts/Bias.sol\":3993:4031  _topics[topicId].creator == msg.sender */\n      and\n        /* \"contracts/Bias.sol\":3993:4000  _topics */\n      0x07\n        /* \"contracts/Bias.sol\":4001:4008  topicId */\n      dup3\n        /* \"contracts/Bias.sol\":3993:4009  _topics[topicId] */\n      dup2\n      sload\n      dup2\n      lt\n      tag_149\n      jumpi\n      tag_149\n      tag_143\n      jump\t// in\n    tag_149:\n      0x00\n      swap2\n      dup3\n      mstore\n      0x20\n      swap1\n      swap2\n      keccak256\n      0x06\n      swap1\n      swap2\n      mul\n      add\n        /* \"contracts/Bias.sol\":3993:4017  _topics[topicId].creator */\n      sload\n      sub(shl(0xa0, 0x01), 0x01)\n      and\n        /* \"contracts/Bias.sol\":3993:4031  _topics[topicId].creator == msg.sender */\n      eq\n        /* \"contracts/Bias.sol\":3985:4048  require(_topics[topicId].creator == msg.sender, \"only creator\") */\n      tag_151\n      jumpi\n      mload(0x40)\n      shl(0xe5, 0x461bcd)\n      dup2\n      mstore\n        /* \"#utility.yul\":8526:8528   */\n      0x20\n        /* \"contracts/Bias.sol\":3985:4048  require(_topics[topicId].creator == msg.sender, \"only creator\") */\n      0x04\n      dup3\n      add\n        /* \"#utility.yul\":8508:8529   */\n      mstore\n        /* \"#utility.yul\":8565:8567   */\n      0x0c\n        /* \"#utility.yul\":8545:8563   */\n      0x24\n      dup3\n      add\n        /* \"#utility.yul\":8538:8568   */\n      mstore\n      shl(0xa1, 0x37b7363c9031b932b0ba37b9)\n        /* \"#utility.yul\":8584:8602   */\n      0x44\n      dup3\n      add\n        /* \"#utility.yul\":8577:8619   */\n      mstore\n        /* \"#utility.yul\":8636:8654   */\n      0x64\n      add\n        /* \"contracts/Bias.sol\":3985:4048  require(_topics[topicId].creator == msg.sender, \"only creator\") */\n      tag_146\n        /* \"#utility.yul\":8324:8660   */\n      jump\n        /* \"contracts/Bias.sol\":3985:4048  require(_topics[topicId].creator == msg.sender, \"only creator\") */\n    tag_151:\n        /* \"contracts/Bias.sol\":4059:4104  _mint(msg.sender, _topics[topicId].funds / 5) */\n      tag_154\n        /* \"contracts/Bias.sol\":4065:4075  msg.sender */\n      caller\n        /* \"contracts/Bias.sol\":4102:4103  5 */\n      0x05\n        /* \"contracts/Bias.sol\":4077:4084  _topics */\n      0x07\n        /* \"contracts/Bias.sol\":4085:4092  topicId */\n      dup5\n        /* \"contracts/Bias.sol\":4077:4093  _topics[topicId] */\n      dup2\n      sload\n      dup2\n      lt\n      tag_156\n      jumpi\n      tag_156\n      tag_143\n      jump\t// in\n    tag_156:\n      swap1\n      0x00\n      mstore\n      keccak256(0x00, 0x20)\n      swap1\n      0x06\n      mul\n      add\n        /* \"contracts/Bias.sol\":4077:4099  _topics[topicId].funds */\n      0x04\n      add\n      sload\n        /* \"contracts/Bias.sol\":4077:4103  _topics[topicId].funds / 5 */\n      tag_158\n      swap2\n      swap1\n      tag_159\n      jump\t// in\n    tag_158:\n        /* \"contracts/Bias.sol\":4059:4064  _mint */\n      tag_160\n        /* \"contracts/Bias.sol\":4059:4104  _mint(msg.sender, _topics[topicId].funds / 5) */\n      jump\t// in\n    tag_154:\n        /* \"contracts/Bias.sol\":3850:4112  function claimRewards(uint topicId) public {... */\n      pop\n      jump\t// out\n        /* \"contracts/Bias.sol\":1775:2640  function create(... */\n    tag_47:\n        /* \"contracts/Bias.sol\":1973:1992  _credentialVerifier */\n      sload(0x0b)\n        /* \"contracts/Bias.sol\":1973:2038  _credentialVerifier.verifyGitcionPass(msg.sender, gitcoinPassUid) */\n      mload(0x40)\n      shl(0xe3, 0x059506b5)\n      dup2\n      mstore\n        /* \"contracts/Bias.sol\":2011:2021  msg.sender */\n      caller\n        /* \"contracts/Bias.sol\":1973:2038  _credentialVerifier.verifyGitcionPass(msg.sender, gitcoinPassUid) */\n      0x04\n      dup3\n      add\n        /* \"#utility.yul\":9193:9244   */\n      mstore\n        /* \"#utility.yul\":9260:9278   */\n      0x24\n      dup2\n      add\n        /* \"#utility.yul\":9253:9287   */\n      dup4\n      swap1\n      mstore\n      sub(shl(0xa0, 0x01), 0x01)\n        /* \"contracts/Bias.sol\":1973:1992  _credentialVerifier */\n      swap1\n      swap2\n      and\n      swap1\n        /* \"contracts/Bias.sol\":1973:2010  _credentialVerifier.verifyGitcionPass */\n      0x2ca835a8\n      swap1\n        /* \"#utility.yul\":9166:9184   */\n      0x44\n      add\n        /* \"contracts/Bias.sol\":1973:2038  _credentialVerifier.verifyGitcionPass(msg.sender, gitcoinPassUid) */\n      0x20\n      mload(0x40)\n      dup1\n      dup4\n      sub\n      dup2\n      0x00\n      dup8\n      gas\n      call\n      iszero\n      dup1\n      iszero\n      tag_165\n      jumpi\n      returndatasize\n      0x00\n      dup1\n      returndatacopy\n      revert(0x00, returndatasize)\n    tag_165:\n      pop\n      pop\n      pop\n      pop\n      mload(0x40)\n      returndatasize\n      not(0x1f)\n      0x1f\n      dup3\n      add\n      and\n      dup3\n      add\n      dup1\n      0x40\n      mstore\n      pop\n      dup2\n      add\n      swap1\n      tag_166\n      swap2\n      swap1\n      tag_167\n      jump\t// in\n    tag_166:\n        /* \"contracts/Bias.sol\":1951:2080  require(... */\n      tag_168\n      jumpi\n      mload(0x40)\n      shl(0xe5, 0x461bcd)\n      dup2\n      mstore\n        /* \"#utility.yul\":9782:9784   */\n      0x20\n        /* \"contracts/Bias.sol\":1951:2080  require(... */\n      0x04\n      dup3\n      add\n        /* \"#utility.yul\":9764:9785   */\n      mstore\n        /* \"#utility.yul\":9821:9823   */\n      0x0e\n        /* \"#utility.yul\":9801:9819   */\n      0x24\n      dup3\n      add\n        /* \"#utility.yul\":9794:9824   */\n      mstore\n      shl(0x92, 0x1b9bdd08185d5d1a1bdc9a5e9959)\n        /* \"#utility.yul\":9840:9858   */\n      0x44\n      dup3\n      add\n        /* \"#utility.yul\":9833:9877   */\n      mstore\n        /* \"#utility.yul\":9894:9912   */\n      0x64\n      add\n        /* \"contracts/Bias.sol\":1951:2080  require(... */\n      tag_146\n        /* \"#utility.yul\":9580:9918   */\n      jump\n        /* \"contracts/Bias.sol\":1951:2080  require(... */\n    tag_168:\n        /* \"contracts/Bias.sol\":4613:4620  _topics */\n      0x07\n        /* \"contracts/Bias.sol\":4613:4627  _topics.length */\n      sload\n        /* \"contracts/Bias.sol\":2113:2128  topicTotal()==0 */\n      iszero\n      dup1\n        /* \"contracts/Bias.sol\":2113:2199  topicTotal()==0 || ( balanceOf(msg.sender) >= funds && funds >= (max * _rewards) / 10) */\n      tag_174\n      jumpi\n      pop\n        /* \"contracts/Bias.sol\":2144:2154  msg.sender */\n      caller\n        /* \"@openzeppelin/contracts/token/ERC20/ERC20.sol\":3364:3371  uint256 */\n      0x00\n        /* \"@openzeppelin/contracts/token/ERC20/ERC20.sol\":3390:3408  _balances[account] */\n      swap1\n      dup2\n      mstore\n      0x20\n      dup2\n      swap1\n      mstore\n      0x40\n      swap1\n      keccak256\n      sload\n        /* \"contracts/Bias.sol\":2159:2164  funds */\n      dup4\n      gt\n        /* \"contracts/Bias.sol\":2134:2164  balanceOf(msg.sender) >= funds */\n      iszero\n        /* \"contracts/Bias.sol\":2134:2198  balanceOf(msg.sender) >= funds && funds >= (max * _rewards) / 10 */\n      dup1\n      iszero\n      tag_174\n      jumpi\n      pop\n        /* \"contracts/Bias.sol\":2196:2198  10 */\n      0x0a\n        /* \"contracts/Bias.sol\":2184:2192  _rewards */\n      sload(0x06)\n        /* \"contracts/Bias.sol\":2178:2181  max */\n      dup4\n        /* \"contracts/Bias.sol\":2178:2192  max * _rewards */\n      tag_175\n      swap2\n      swap1\n      tag_176\n      jump\t// in\n    tag_175:\n        /* \"contracts/Bias.sol\":2177:2198  (max * _rewards) / 10 */\n      tag_177\n      swap2\n      swap1\n      tag_159\n      jump\t// in\n    tag_177:\n        /* \"contracts/Bias.sol\":2168:2173  funds */\n      dup4\n        /* \"contracts/Bias.sol\":2168:2198  funds >= (max * _rewards) / 10 */\n      lt\n      iszero\n        /* \"contracts/Bias.sol\":2134:2198  balanceOf(msg.sender) >= funds && funds >= (max * _rewards) / 10 */\n    tag_174:\n        /* \"contracts/Bias.sol\":2091:2245  require(... */\n      tag_178\n      jumpi\n      mload(0x40)\n      shl(0xe5, 0x461bcd)\n      dup2\n      mstore\n        /* \"#utility.yul\":10298:10300   */\n      0x20\n        /* \"contracts/Bias.sol\":2091:2245  require(... */\n      0x04\n      dup3\n      add\n        /* \"#utility.yul\":10280:10301   */\n      mstore\n        /* \"#utility.yul\":10337:10339   */\n      0x12\n        /* \"#utility.yul\":10317:10335   */\n      0x24\n      dup3\n      add\n        /* \"#utility.yul\":10310:10340   */\n      mstore\n      shl(0x70, 0x696e73756666696369656e742066756e6473)\n        /* \"#utility.yul\":10356:10374   */\n      0x44\n      dup3\n      add\n        /* \"#utility.yul\":10349:10397   */\n      mstore\n        /* \"#utility.yul\":10414:10432   */\n      0x64\n      add\n        /* \"contracts/Bias.sol\":2091:2245  require(... */\n      tag_146\n        /* \"#utility.yul\":10096:10438   */\n      jump\n        /* \"contracts/Bias.sol\":2091:2245  require(... */\n    tag_178:\n        /* \"contracts/Bias.sol\":2270:2271  0 */\n      0x00\n        /* \"contracts/Bias.sol\":2264:2267  max */\n      dup3\n        /* \"contracts/Bias.sol\":2264:2271  max > 0 */\n      gt\n        /* \"contracts/Bias.sol\":2256:2290  require(max > 0, \"invalid params\") */\n      tag_181\n      jumpi\n      mload(0x40)\n      shl(0xe5, 0x461bcd)\n      dup2\n      mstore\n        /* \"#utility.yul\":10645:10647   */\n      0x20\n        /* \"contracts/Bias.sol\":2256:2290  require(max > 0, \"invalid params\") */\n      0x04\n      dup3\n      add\n        /* \"#utility.yul\":10627:10648   */\n      mstore\n        /* \"#utility.yul\":10684:10686   */\n      0x0e\n        /* \"#utility.yul\":10664:10682   */\n      0x24\n      dup3\n      add\n        /* \"#utility.yul\":10657:10687   */\n      mstore\n      shl(0x90, 0x696e76616c696420706172616d73)\n        /* \"#utility.yul\":10703:10721   */\n      0x44\n      dup3\n      add\n        /* \"#utility.yul\":10696:10740   */\n      mstore\n        /* \"#utility.yul\":10757:10775   */\n      0x64\n      add\n        /* \"contracts/Bias.sol\":2256:2290  require(max > 0, \"invalid params\") */\n      tag_146\n        /* \"#utility.yul\":10443:10781   */\n      jump\n        /* \"contracts/Bias.sol\":2256:2290  require(max > 0, \"invalid params\") */\n    tag_181:\n        /* \"contracts/Bias.sol\":2317:2327  msg.sender */\n      caller\n        /* \"contracts/Bias.sol\":2309:2328  _living[msg.sender] */\n      0x00\n      swap1\n      dup2\n      mstore\n        /* \"contracts/Bias.sol\":2309:2316  _living */\n      0x0a\n        /* \"contracts/Bias.sol\":2309:2328  _living[msg.sender] */\n      0x20\n      mstore\n      0x40\n      swap1\n      keccak256\n      sload\n        /* \"contracts/Bias.sol\":2309:2333  _living[msg.sender] == 0 */\n      iszero\n        /* \"contracts/Bias.sol\":2301:2363  require(_living[msg.sender] == 0, \"only allow one live topic\") */\n      tag_184\n      jumpi\n      mload(0x40)\n      shl(0xe5, 0x461bcd)\n      dup2\n      mstore\n        /* \"#utility.yul\":10988:10990   */\n      0x20\n        /* \"contracts/Bias.sol\":2301:2363  require(_living[msg.sender] == 0, \"only allow one live topic\") */\n      0x04\n      dup3\n      add\n        /* \"#utility.yul\":10970:10991   */\n      mstore\n        /* \"#utility.yul\":11027:11029   */\n      0x19\n        /* \"#utility.yul\":11007:11025   */\n      0x24\n      dup3\n      add\n        /* \"#utility.yul\":11000:11030   */\n      mstore\n        /* \"#utility.yul\":11066:11093   */\n      0x6f6e6c7920616c6c6f77206f6e65206c69766520746f70696300000000000000\n        /* \"#utility.yul\":11046:11064   */\n      0x44\n      dup3\n      add\n        /* \"#utility.yul\":11039:11094   */\n      mstore\n        /* \"#utility.yul\":11111:11129   */\n      0x64\n      add\n        /* \"contracts/Bias.sol\":2301:2363  require(_living[msg.sender] == 0, \"only allow one live topic\") */\n      tag_146\n        /* \"#utility.yul\":10786:11135   */\n      jump\n        /* \"contracts/Bias.sol\":2301:2363  require(_living[msg.sender] == 0, \"only allow one live topic\") */\n    tag_184:\n        /* \"contracts/Bias.sol\":2390:2391  0 */\n      0x00\n        /* \"contracts/Bias.sol\":2377:2389  topicTotal() */\n      tag_187\n        /* \"contracts/Bias.sol\":4613:4620  _topics */\n      0x07\n        /* \"contracts/Bias.sol\":4613:4627  _topics.length */\n      sload\n      swap1\n        /* \"contracts/Bias.sol\":4547:4635  function topicTotal() public view returns (uint){... */\n      jump\n        /* \"contracts/Bias.sol\":2377:2389  topicTotal() */\n    tag_187:\n        /* \"contracts/Bias.sol\":2377:2391  topicTotal()>0 */\n      gt\n        /* \"contracts/Bias.sol\":2374:2471  if(topicTotal()>0){... */\n      iszero\n      tag_189\n      jumpi\n        /* \"contracts/Bias.sol\":2435:2459  _burn(msg.sender, funds) */\n      tag_189\n        /* \"contracts/Bias.sol\":2441:2451  msg.sender */\n      caller\n        /* \"contracts/Bias.sol\":2453:2458  funds */\n      dup5\n        /* \"contracts/Bias.sol\":2435:2440  _burn */\n      tag_190\n        /* \"contracts/Bias.sol\":2435:2459  _burn(msg.sender, funds) */\n      jump\t// in\n    tag_189:\n        /* \"contracts/Bias.sol\":2508:2570  Topic(msg.sender, block.timestamp, title, content, funds, max) */\n      0x40\n      dup1\n      mload\n      0xc0\n      dup2\n      add\n      dup3\n      mstore\n        /* \"contracts/Bias.sol\":2514:2524  msg.sender */\n      caller\n        /* \"contracts/Bias.sol\":2508:2570  Topic(msg.sender, block.timestamp, title, content, funds, max) */\n      dup2\n      mstore\n        /* \"contracts/Bias.sol\":2526:2541  block.timestamp */\n      timestamp\n        /* \"contracts/Bias.sol\":2508:2570  Topic(msg.sender, block.timestamp, title, content, funds, max) */\n      0x20\n      dup3\n      add\n      swap1\n      dup2\n      mstore\n      swap2\n      dup2\n      add\n      dup8\n      dup2\n      mstore\n      0x60\n      dup3\n      add\n      dup8\n      swap1\n      mstore\n      0x80\n      dup3\n      add\n      dup7\n      swap1\n      mstore\n      0xa0\n      dup3\n      add\n      dup6\n      swap1\n      mstore\n        /* \"contracts/Bias.sol\":2481:2488  _topics */\n      0x07\n        /* \"contracts/Bias.sol\":2481:2581  _topics.push(... */\n      dup1\n      sload\n      0x01\n      dup2\n      add\n      dup3\n      sstore\n      0x00\n      swap2\n      swap1\n      swap2\n      mstore\n      dup3\n      mload\n      0xa66cc928b5edb82af9bd49922954155ab7b0942694bea4ce44661d9a8736c688\n      0x06\n      swap1\n      swap3\n      mul\n      swap2\n      dup3\n      add\n      dup1\n      sload\n      not(sub(shl(0xa0, 0x01), 0x01))\n      and\n      sub(shl(0xa0, 0x01), 0x01)\n      swap1\n      swap3\n      and\n      swap2\n      swap1\n      swap2\n      or\n      dup2\n      sstore\n      swap4\n      mload\n      0xa66cc928b5edb82af9bd49922954155ab7b0942694bea4ce44661d9a8736c689\n      dup3\n      add\n      sstore\n      swap1\n      mload\n        /* \"contracts/Bias.sol\":2508:2570  Topic(msg.sender, block.timestamp, title, content, funds, max) */\n      swap2\n      swap3\n        /* \"contracts/Bias.sol\":2481:2581  _topics.push(... */\n      swap2\n      0xa66cc928b5edb82af9bd49922954155ab7b0942694bea4ce44661d9a8736c68a\n      swap1\n      swap2\n      add\n      swap1\n      tag_192\n      swap1\n      dup3\n      tag_193\n      jump\t// in\n    tag_192:\n      pop\n      0x60\n      dup3\n      add\n      mload\n      0x03\n      dup3\n      add\n      swap1\n      tag_194\n      swap1\n      dup3\n      tag_193\n      jump\t// in\n    tag_194:\n      pop\n      0x80\n      dup3\n      add\n      mload\n      0x04\n      dup3\n      add\n      sstore\n      0xa0\n      swap1\n      swap2\n      add\n      mload\n      0x05\n      swap1\n      swap2\n      add\n      sstore\n        /* \"contracts/Bias.sol\":2614:2621  _topics */\n      0x07\n        /* \"contracts/Bias.sol\":2614:2628  _topics.length */\n      sload\n        /* \"contracts/Bias.sol\":2614:2632  _topics.length - 1 */\n      tag_195\n      swap1\n        /* \"contracts/Bias.sol\":2631:2632  1 */\n      0x01\n      swap1\n        /* \"contracts/Bias.sol\":2614:2632  _topics.length - 1 */\n      tag_196\n      jump\t// in\n    tag_195:\n        /* \"contracts/Bias.sol\":2600:2610  msg.sender */\n      caller\n        /* \"contracts/Bias.sol\":2592:2611  _living[msg.sender] */\n      0x00\n      swap1\n      dup2\n      mstore\n        /* \"contracts/Bias.sol\":2592:2599  _living */\n      0x0a\n        /* \"contracts/Bias.sol\":2592:2611  _living[msg.sender] */\n      0x20\n      mstore\n      0x40\n      swap1\n      keccak256\n        /* \"contracts/Bias.sol\":2592:2632  _living[msg.sender] = _topics.length - 1 */\n      sstore\n      pop\n      pop\n      pop\n      pop\n      pop\n        /* \"contracts/Bias.sol\":1775:2640  function create(... */\n      jump\t// out\n        /* \"@openzeppelin/contracts/token/ERC20/ERC20.sol\":5039:5283  function transferFrom(address from, address to, uint256 value) public virtual returns (bool) {... */\n    tag_55:\n        /* \"@openzeppelin/contracts/token/ERC20/ERC20.sol\":5126:5130  bool */\n      0x00\n        /* \"@openzeppelin/contracts/utils/Context.sol\":735:745  msg.sender */\n      caller\n        /* \"@openzeppelin/contracts/token/ERC20/ERC20.sol\":5182:5219  _spendAllowance(from, spender, value) */\n      tag_200\n        /* \"@openzeppelin/contracts/token/ERC20/ERC20.sol\":5198:5202  from */\n      dup6\n        /* \"@openzeppelin/contracts/utils/Context.sol\":735:745  msg.sender */\n      dup3\n        /* \"@openzeppelin/contracts/token/ERC20/ERC20.sol\":5213:5218  value */\n      dup6\n        /* \"@openzeppelin/contracts/token/ERC20/ERC20.sol\":5182:5197  _spendAllowance */\n      tag_201\n        /* \"@openzeppelin/contracts/token/ERC20/ERC20.sol\":5182:5219  _spendAllowance(from, spender, value) */\n      jump\t// in\n    tag_200:\n        /* \"@openzeppelin/contracts/token/ERC20/ERC20.sol\":5229:5255  _transfer(from, to, value) */\n      tag_202\n        /* \"@openzeppelin/contracts/token/ERC20/ERC20.sol\":5239:5243  from */\n      dup6\n        /* \"@openzeppelin/contracts/token/ERC20/ERC20.sol\":5245:5247  to */\n      dup6\n        /* \"@openzeppelin/contracts/token/ERC20/ERC20.sol\":5249:5254  value */\n      dup6\n        /* \"@openzeppelin/contracts/token/ERC20/ERC20.sol\":5229:5238  _transfer */\n      tag_203\n        /* \"@openzeppelin/contracts/token/ERC20/ERC20.sol\":5229:5255  _transfer(from, to, value) */\n      jump\t// in\n    tag_202:\n      pop\n        /* \"@openzeppelin/contracts/token/ERC20/ERC20.sol\":5272:5276  true */\n      0x01\n      swap5\n        /* \"@openzeppelin/contracts/token/ERC20/ERC20.sol\":5039:5283  function transferFrom(address from, address to, uint256 value) public virtual returns (bool) {... */\n      swap4\n      pop\n      pop\n      pop\n      pop\n      jump\t// out\n        /* \"@openzeppelin/contracts/access/Ownable.sol\":2293:2394  function renounceOwnership() public virtual onlyOwner {... */\n    tag_76:\n        /* \"@openzeppelin/contracts/access/Ownable.sol\":1531:1544  _checkOwner() */\n      tag_207\n        /* \"@openzeppelin/contracts/access/Ownable.sol\":1531:1542  _checkOwner */\n      tag_208\n        /* \"@openzeppelin/contracts/access/Ownable.sol\":1531:1544  _checkOwner() */\n      jump\t// in\n    tag_207:\n        /* \"@openzeppelin/contracts/access/Ownable.sol\":2357:2387  _transferOwnership(address(0)) */\n      tag_210\n        /* \"@openzeppelin/contracts/access/Ownable.sol\":2384:2385  0 */\n      0x00\n        /* \"@openzeppelin/contracts/access/Ownable.sol\":2357:2375  _transferOwnership */\n      tag_211\n        /* \"@openzeppelin/contracts/access/Ownable.sol\":2357:2387  _transferOwnership(address(0)) */\n      jump\t// in\n    tag_210:\n        /* \"@openzeppelin/contracts/access/Ownable.sol\":2293:2394  function renounceOwnership() public virtual onlyOwner {... */\n      jump\t// out\n        /* \"contracts/Bias.sol\":2829:3743  function vote(uint topicId, uint voteFor, bytes32 gitcoinPassUid) public {... */\n    tag_80:\n        /* \"contracts/Bias.sol\":2927:2946  _credentialVerifier */\n      sload(0x0b)\n        /* \"contracts/Bias.sol\":2927:3022  _credentialVerifier.calcWeight(... */\n      mload(0x40)\n      shl(0xe3, 0x17aeb55d)\n      dup2\n      mstore\n        /* \"contracts/Bias.sol\":2972:2982  msg.sender */\n      caller\n        /* \"contracts/Bias.sol\":2927:3022  _credentialVerifier.calcWeight(... */\n      0x04\n      dup3\n      add\n        /* \"#utility.yul\":9193:9244   */\n      mstore\n        /* \"#utility.yul\":9260:9278   */\n      0x24\n      dup2\n      add\n        /* \"#utility.yul\":9253:9287   */\n      dup4\n      swap1\n      mstore\n        /* \"contracts/Bias.sol\":2913:2924  uint weight */\n      0x00\n      swap2\n      sub(shl(0xa0, 0x01), 0x01)\n        /* \"contracts/Bias.sol\":2927:2946  _credentialVerifier */\n      and\n      swap1\n        /* \"contracts/Bias.sol\":2927:2957  _credentialVerifier.calcWeight */\n      0xbd75aae8\n      swap1\n        /* \"#utility.yul\":9166:9184   */\n      0x44\n      add\n        /* \"contracts/Bias.sol\":2927:3022  _credentialVerifier.calcWeight(... */\n      0x20\n      mload(0x40)\n      dup1\n      dup4\n      sub\n      dup2\n      0x00\n      dup8\n      gas\n      call\n      iszero\n      dup1\n      iszero\n      tag_215\n      jumpi\n      returndatasize\n      0x00\n      dup1\n      returndatacopy\n      revert(0x00, returndatasize)\n    tag_215:\n      pop\n      pop\n      pop\n      pop\n      mload(0x40)\n      returndatasize\n      not(0x1f)\n      0x1f\n      dup3\n      add\n      and\n      dup3\n      add\n      dup1\n      0x40\n      mstore\n      pop\n      dup2\n      add\n      swap1\n      tag_216\n      swap2\n      swap1\n      tag_217\n      jump\t// in\n    tag_216:\n        /* \"contracts/Bias.sol\":2913:3022  uint weight = _credentialVerifier.calcWeight(... */\n      swap1\n      pop\n        /* \"contracts/Bias.sol\":3050:3051  0 */\n      0x00\n        /* \"contracts/Bias.sol\":3041:3047  weight */\n      dup2\n        /* \"contracts/Bias.sol\":3041:3051  weight > 0 */\n      gt\n        /* \"contracts/Bias.sol\":3033:3070  require(weight > 0, \"not authorized\") */\n      tag_218\n      jumpi\n      mload(0x40)\n      shl(0xe5, 0x461bcd)\n      dup2\n      mstore\n        /* \"#utility.yul\":9782:9784   */\n      0x20\n        /* \"contracts/Bias.sol\":3033:3070  require(weight > 0, \"not authorized\") */\n      0x04\n      dup3\n      add\n        /* \"#utility.yul\":9764:9785   */\n      mstore\n        /* \"#utility.yul\":9821:9823   */\n      0x0e\n        /* \"#utility.yul\":9801:9819   */\n      0x24\n      dup3\n      add\n        /* \"#utility.yul\":9794:9824   */\n      mstore\n      shl(0x92, 0x1b9bdd08185d5d1a1bdc9a5e9959)\n        /* \"#utility.yul\":9840:9858   */\n      0x44\n      dup3\n      add\n        /* \"#utility.yul\":9833:9877   */\n      mstore\n        /* \"#utility.yul\":9894:9912   */\n      0x64\n      add\n        /* \"contracts/Bias.sol\":3033:3070  require(weight > 0, \"not authorized\") */\n      tag_146\n        /* \"#utility.yul\":9580:9918   */\n      jump\n        /* \"contracts/Bias.sol\":3033:3070  require(weight > 0, \"not authorized\") */\n    tag_218:\n        /* \"contracts/Bias.sol\":3113:3120  _topics */\n      0x07\n        /* \"contracts/Bias.sol\":3121:3128  topicId */\n      dup5\n        /* \"contracts/Bias.sol\":3113:3129  _topics[topicId] */\n      dup2\n      sload\n      dup2\n      lt\n      tag_221\n      jumpi\n      tag_221\n      tag_143\n      jump\t// in\n    tag_221:\n      swap1\n      0x00\n      mstore\n      keccak256(0x00, 0x20)\n      swap1\n      0x06\n      mul\n      add\n        /* \"contracts/Bias.sol\":3113:3133  _topics[topicId].max */\n      0x05\n      add\n      sload\n        /* \"contracts/Bias.sol\":3089:3101  _voterCounts */\n      0x09\n        /* \"contracts/Bias.sol\":3089:3110  _voterCounts[topicId] */\n      0x00\n        /* \"contracts/Bias.sol\":3102:3109  topicId */\n      dup7\n        /* \"contracts/Bias.sol\":3089:3110  _voterCounts[topicId] */\n      dup2\n      mstore\n      0x20\n      add\n      swap1\n      dup2\n      mstore\n      0x20\n      add\n      0x00\n      keccak256\n      sload\n        /* \"contracts/Bias.sol\":3089:3133  _voterCounts[topicId] < _topics[topicId].max */\n      lt\n        /* \"contracts/Bias.sol\":3081:3146  require(_voterCounts[topicId] < _topics[topicId].max, \"finished\") */\n      tag_223\n      jumpi\n      mload(0x40)\n      shl(0xe5, 0x461bcd)\n      dup2\n      mstore\n        /* \"#utility.yul\":13868:13870   */\n      0x20\n        /* \"contracts/Bias.sol\":3081:3146  require(_voterCounts[topicId] < _topics[topicId].max, \"finished\") */\n      0x04\n      dup3\n      add\n        /* \"#utility.yul\":13850:13871   */\n      mstore\n        /* \"#utility.yul\":13907:13908   */\n      0x08\n        /* \"#utility.yul\":13887:13905   */\n      0x24\n      dup3\n      add\n        /* \"#utility.yul\":13880:13909   */\n      mstore\n      shl(0xc2, 0x199a5b9a5cda1959)\n        /* \"#utility.yul\":13925:13943   */\n      0x44\n      dup3\n      add\n        /* \"#utility.yul\":13918:13956   */\n      mstore\n        /* \"#utility.yul\":13973:13991   */\n      0x64\n      add\n        /* \"contracts/Bias.sol\":3081:3146  require(_voterCounts[topicId] < _topics[topicId].max, \"finished\") */\n      tag_146\n        /* \"#utility.yul\":13666:13997   */\n      jump\n        /* \"contracts/Bias.sol\":3081:3146  require(_voterCounts[topicId] < _topics[topicId].max, \"finished\") */\n    tag_223:\n        /* \"contracts/Bias.sol\":3212:3222  msg.sender */\n      caller\n        /* \"contracts/Bias.sol\":3198:3223  _lastJoinTime[msg.sender] */\n      0x00\n      swap1\n      dup2\n      mstore\n        /* \"contracts/Bias.sol\":3198:3211  _lastJoinTime */\n      0x0c\n        /* \"contracts/Bias.sol\":3198:3223  _lastJoinTime[msg.sender] */\n      0x20\n      mstore\n      0x40\n      swap1\n      keccak256\n      sload\n        /* \"contracts/Bias.sol\":3198:3240  _lastJoinTime[msg.sender] + DAY_IN_SECONDS */\n      tag_226\n      swap1\n        /* \"contracts/Bias.sol\":1333:1338  86400 */\n      0x015180\n      swap1\n        /* \"contracts/Bias.sol\":3198:3240  _lastJoinTime[msg.sender] + DAY_IN_SECONDS */\n      tag_227\n      jump\t// in\n    tag_226:\n        /* \"contracts/Bias.sol\":3179:3194  block.timestamp */\n      timestamp\n        /* \"contracts/Bias.sol\":3179:3240  block.timestamp >= _lastJoinTime[msg.sender] + DAY_IN_SECONDS */\n      lt\n      iszero\n        /* \"contracts/Bias.sol\":3157:3280  require(... */\n      tag_228\n      jumpi\n      mload(0x40)\n      shl(0xe5, 0x461bcd)\n      dup2\n      mstore\n        /* \"#utility.yul\":14334:14336   */\n      0x20\n        /* \"contracts/Bias.sol\":3157:3280  require(... */\n      0x04\n      dup3\n      add\n        /* \"#utility.yul\":14316:14337   */\n      mstore\n        /* \"#utility.yul\":14373:14375   */\n      0x0c\n        /* \"#utility.yul\":14353:14371   */\n      0x24\n      dup3\n      add\n        /* \"#utility.yul\":14346:14376   */\n      mstore\n      shl(0xa0, 0x6f6e63652070657220646179)\n        /* \"#utility.yul\":14392:14410   */\n      0x44\n      dup3\n      add\n        /* \"#utility.yul\":14385:14427   */\n      mstore\n        /* \"#utility.yul\":14444:14462   */\n      0x64\n      add\n        /* \"contracts/Bias.sol\":3157:3280  require(... */\n      tag_146\n        /* \"#utility.yul\":14132:14468   */\n      jump\n        /* \"contracts/Bias.sol\":3157:3280  require(... */\n    tag_228:\n        /* \"contracts/Bias.sol\":3305:3315  msg.sender */\n      caller\n        /* \"contracts/Bias.sol\":3291:3316  _lastJoinTime[msg.sender] */\n      0x00\n      dup2\n      dup2\n      mstore\n        /* \"contracts/Bias.sol\":3291:3304  _lastJoinTime */\n      0x0c\n        /* \"contracts/Bias.sol\":3291:3316  _lastJoinTime[msg.sender] */\n      0x20\n      mstore\n      0x40\n      swap1\n      keccak256\n        /* \"contracts/Bias.sol\":3319:3334  block.timestamp */\n      timestamp\n        /* \"contracts/Bias.sol\":3291:3334  _lastJoinTime[msg.sender] = block.timestamp */\n      swap1\n      sstore\n        /* \"contracts/Bias.sol\":3437:3444  _topics */\n      0x07\n        /* \"contracts/Bias.sol\":3437:3453  _topics[topicId] */\n      dup1\n      sload\n        /* \"contracts/Bias.sol\":3347:3468  _mint(... */\n      tag_231\n      swap3\n        /* \"contracts/Bias.sol\":3305:3315  msg.sender */\n      swap2\n        /* \"contracts/Bias.sol\":3437:3444  _topics */\n      swap1\n        /* \"contracts/Bias.sol\":3445:3452  topicId */\n      dup8\n      swap1\n        /* \"contracts/Bias.sol\":3437:3453  _topics[topicId] */\n      dup2\n      lt\n      tag_233\n      jumpi\n      tag_233\n      tag_143\n      jump\t// in\n    tag_233:\n      swap1\n      0x00\n      mstore\n      keccak256(0x00, 0x20)\n      swap1\n      0x06\n      mul\n      add\n        /* \"contracts/Bias.sol\":3437:3457  _topics[topicId].max */\n      0x05\n      add\n      sload\n        /* \"contracts/Bias.sol\":3412:3419  _topics */\n      0x07\n        /* \"contracts/Bias.sol\":3420:3427  topicId */\n      dup8\n        /* \"contracts/Bias.sol\":3412:3428  _topics[topicId] */\n      dup2\n      sload\n      dup2\n      lt\n      tag_236\n      jumpi\n      tag_236\n      tag_143\n      jump\t// in\n    tag_236:\n      swap1\n      0x00\n      mstore\n      keccak256(0x00, 0x20)\n      swap1\n      0x06\n      mul\n      add\n        /* \"contracts/Bias.sol\":3412:3434  _topics[topicId].funds */\n      0x04\n      add\n      sload\n        /* \"contracts/Bias.sol\":3412:3457  _topics[topicId].funds / _topics[topicId].max */\n      tag_238\n      swap2\n      swap1\n      tag_159\n      jump\t// in\n    tag_238:\n        /* \"contracts/Bias.sol\":3403:3409  weight */\n      dup4\n        /* \"contracts/Bias.sol\":3392:3400  _rewards */\n      sload(0x06)\n        /* \"contracts/Bias.sol\":3392:3409  _rewards * weight */\n      tag_239\n      swap2\n      swap1\n      tag_176\n      jump\t// in\n    tag_239:\n        /* \"contracts/Bias.sol\":3392:3457  _rewards * weight + _topics[topicId].funds / _topics[topicId].max */\n      tag_158\n      swap2\n      swap1\n      tag_227\n      jump\t// in\n        /* \"contracts/Bias.sol\":3347:3468  _mint(... */\n    tag_231:\n        /* \"contracts/Bias.sol\":3479:3500  _voterCounts[topicId] */\n      0x00\n      dup5\n      dup2\n      mstore\n        /* \"contracts/Bias.sol\":3479:3491  _voterCounts */\n      0x09\n        /* \"contracts/Bias.sol\":3479:3500  _voterCounts[topicId] */\n      0x20\n      mstore\n      0x40\n      dup2\n      keccak256\n        /* \"contracts/Bias.sol\":3479:3505  _voterCounts[topicId] += 1 */\n      dup1\n      sload\n        /* \"contracts/Bias.sol\":3504:3505  1 */\n      0x01\n      swap3\n        /* \"contracts/Bias.sol\":3479:3500  _voterCounts[topicId] */\n      swap1\n        /* \"contracts/Bias.sol\":3479:3505  _voterCounts[topicId] += 1 */\n      tag_241\n      swap1\n        /* \"contracts/Bias.sol\":3504:3505  1 */\n      dup5\n      swap1\n        /* \"contracts/Bias.sol\":3479:3505  _voterCounts[topicId] += 1 */\n      tag_227\n      jump\t// in\n    tag_241:\n      swap1\n      swap2\n      sstore\n      pop\n      pop\n        /* \"contracts/Bias.sol\":3516:3531  _votes[topicId] */\n      0x00\n      dup5\n      dup2\n      mstore\n        /* \"contracts/Bias.sol\":3516:3522  _votes */\n      0x08\n        /* \"contracts/Bias.sol\":3516:3531  _votes[topicId] */\n      0x20\n      swap1\n      dup2\n      mstore\n      0x40\n      dup1\n      dup4\n      keccak256\n        /* \"contracts/Bias.sol\":3516:3540  _votes[topicId][voteFor] */\n      dup7\n      dup5\n      mstore\n      swap1\n      swap2\n      mstore\n      dup2\n      keccak256\n        /* \"contracts/Bias.sol\":3516:3550  _votes[topicId][voteFor] += weight */\n      dup1\n      sload\n        /* \"contracts/Bias.sol\":3544:3550  weight */\n      dup4\n      swap3\n        /* \"contracts/Bias.sol\":3516:3531  _votes[topicId] */\n      swap1\n        /* \"contracts/Bias.sol\":3516:3550  _votes[topicId][voteFor] += weight */\n      tag_242\n      swap1\n        /* \"contracts/Bias.sol\":3544:3550  weight */\n      dup5\n      swap1\n        /* \"contracts/Bias.sol\":3516:3550  _votes[topicId][voteFor] += weight */\n      tag_227\n      jump\t// in\n    tag_242:\n      swap1\n      swap2\n      sstore\n      pop\n      pop\n        /* \"contracts/Bias.sol\":3566:3608  Vote(msg.sender, topicId, voteFor, weight) */\n      0x40\n      dup1\n      mload\n        /* \"#utility.yul\":14647:14672   */\n      dup5\n      dup2\n      mstore\n        /* \"#utility.yul\":14703:14705   */\n      0x20\n        /* \"#utility.yul\":14688:14706   */\n      dup2\n      add\n        /* \"#utility.yul\":14681:14715   */\n      dup4\n      swap1\n      mstore\n        /* \"contracts/Bias.sol\":3583:3590  topicId */\n      dup6\n      swap2\n        /* \"contracts/Bias.sol\":3571:3581  msg.sender */\n      caller\n      swap2\n        /* \"contracts/Bias.sol\":3566:3608  Vote(msg.sender, topicId, voteFor, weight) */\n      0x6c7eb2743ec28489909706ea440d909129004996be657d36c6e9add778546abf\n      swap2\n        /* \"#utility.yul\":14620:14638   */\n      add\n        /* \"contracts/Bias.sol\":3566:3608  Vote(msg.sender, topicId, voteFor, weight) */\n      mload(0x40)\n      dup1\n      swap2\n      sub\n      swap1\n      log3\n        /* \"contracts/Bias.sol\":3650:3657  _topics */\n      0x07\n        /* \"contracts/Bias.sol\":3658:3665  topicId */\n      dup5\n        /* \"contracts/Bias.sol\":3650:3666  _topics[topicId] */\n      dup2\n      sload\n      dup2\n      lt\n      tag_246\n      jumpi\n      tag_246\n      tag_143\n      jump\t// in\n    tag_246:\n      swap1\n      0x00\n      mstore\n      keccak256(0x00, 0x20)\n      swap1\n      0x06\n      mul\n      add\n        /* \"contracts/Bias.sol\":3650:3670  _topics[topicId].max */\n      0x05\n      add\n      sload\n        /* \"contracts/Bias.sol\":3625:3637  _voterCounts */\n      0x09\n        /* \"contracts/Bias.sol\":3625:3646  _voterCounts[topicId] */\n      0x00\n        /* \"contracts/Bias.sol\":3638:3645  topicId */\n      dup7\n        /* \"contracts/Bias.sol\":3625:3646  _voterCounts[topicId] */\n      dup2\n      mstore\n      0x20\n      add\n      swap1\n      dup2\n      mstore\n      0x20\n      add\n      0x00\n      keccak256\n      sload\n        /* \"contracts/Bias.sol\":3625:3670  _voterCounts[topicId] == _topics[topicId].max */\n      sub\n        /* \"contracts/Bias.sol\":3621:3736  if (_voterCounts[topicId] == _topics[topicId].max) {... */\n      tag_248\n      jumpi\n        /* \"contracts/Bias.sol\":3723:3724  0 */\n      0x00\n        /* \"contracts/Bias.sol\":3687:3694  _living */\n      0x0a\n        /* \"contracts/Bias.sol\":3687:3720  _living[_topics[topicId].creator] */\n      0x00\n        /* \"contracts/Bias.sol\":3695:3702  _topics */\n      0x07\n        /* \"contracts/Bias.sol\":3703:3710  topicId */\n      dup8\n        /* \"contracts/Bias.sol\":3695:3711  _topics[topicId] */\n      dup2\n      sload\n      dup2\n      lt\n      tag_250\n      jumpi\n      tag_250\n      tag_143\n      jump\t// in\n    tag_250:\n      0x00\n      swap2\n      dup3\n      mstore\n      0x20\n      dup1\n      dup4\n      keccak256\n      0x06\n      swap1\n      swap3\n      mul\n      swap1\n      swap2\n      add\n        /* \"contracts/Bias.sol\":3695:3719  _topics[topicId].creator */\n      sload\n      sub(shl(0xa0, 0x01), 0x01)\n      and\n        /* \"contracts/Bias.sol\":3687:3720  _living[_topics[topicId].creator] */\n      dup4\n      mstore\n      dup3\n      add\n      swap3\n      swap1\n      swap3\n      mstore\n      0x40\n      add\n      swap1\n      keccak256\n        /* \"contracts/Bias.sol\":3687:3724  _living[_topics[topicId].creator] = 0 */\n      sstore\n        /* \"contracts/Bias.sol\":3621:3736  if (_voterCounts[topicId] == _topics[topicId].max) {... */\n    tag_248:\n        /* \"contracts/Bias.sol\":2902:3743  {... */\n      pop\n        /* \"contracts/Bias.sol\":2829:3743  function vote(uint topicId, uint voteFor, bytes32 gitcoinPassUid) public {... */\n      pop\n      pop\n      pop\n      jump\t// out\n        /* \"@openzeppelin/contracts/token/ERC20/ERC20.sol\":2276:2369  function symbol() public view virtual returns (string memory) {... */\n    tag_90:\n        /* \"@openzeppelin/contracts/token/ERC20/ERC20.sol\":2323:2336  string memory */\n      0x60\n        /* \"@openzeppelin/contracts/token/ERC20/ERC20.sol\":2355:2362  _symbol */\n      0x04\n        /* \"@openzeppelin/contracts/token/ERC20/ERC20.sol\":2348:2362  return _symbol */\n      dup1\n      sload\n      tag_129\n      swap1\n      tag_130\n      jump\t// in\n        /* \"contracts/Bias.sol\":699:721  Topic[] public _topics */\n    tag_94:\n      0x07\n      dup2\n      dup2\n      sload\n      dup2\n      lt\n      tag_259\n      jumpi\n      0x00\n      dup1\n      revert\n    tag_259:\n      0x00\n      swap2\n      dup3\n      mstore\n      0x20\n      swap1\n      swap2\n      keccak256\n      0x06\n      swap1\n      swap2\n      mul\n      add\n      dup1\n      sload\n      0x01\n      dup3\n      add\n      sload\n      0x02\n      dup4\n      add\n      dup1\n      sload\n      sub(shl(0xa0, 0x01), 0x01)\n      swap1\n      swap4\n      and\n      swap5\n      pop\n      swap1\n      swap3\n      swap2\n      tag_261\n      swap1\n      tag_130\n      jump\t// in\n    tag_261:\n      dup1\n      0x1f\n      add\n      0x20\n      dup1\n      swap2\n      div\n      mul\n      0x20\n      add\n      mload(0x40)\n      swap1\n      dup2\n      add\n      0x40\n      mstore\n      dup1\n      swap3\n      swap2\n      swap1\n      dup2\n      dup2\n      mstore\n      0x20\n      add\n      dup3\n      dup1\n      sload\n      tag_262\n      swap1\n      tag_130\n      jump\t// in\n    tag_262:\n      dup1\n      iszero\n      tag_263\n      jumpi\n      dup1\n      0x1f\n      lt\n      tag_264\n      jumpi\n      0x0100\n      dup1\n      dup4\n      sload\n      div\n      mul\n      dup4\n      mstore\n      swap2\n      0x20\n      add\n      swap2\n      jump(tag_263)\n    tag_264:\n      dup3\n      add\n      swap2\n      swap1\n      0x00\n      mstore\n      keccak256(0x00, 0x20)\n      swap1\n    tag_265:\n      dup2\n      sload\n      dup2\n      mstore\n      swap1\n      0x01\n      add\n      swap1\n      0x20\n      add\n      dup1\n      dup4\n      gt\n      tag_265\n      jumpi\n      dup3\n      swap1\n      sub\n      0x1f\n      and\n      dup3\n      add\n      swap2\n    tag_263:\n      pop\n      pop\n      pop\n      pop\n      pop\n      swap1\n      dup1\n      0x03\n      add\n      dup1\n      sload\n      tag_266\n      swap1\n      tag_130\n      jump\t// in\n    tag_266:\n      dup1\n      0x1f\n      add\n      0x20\n      dup1\n      swap2\n      div\n      mul\n      0x20\n      add\n      mload(0x40)\n      swap1\n      dup2\n      add\n      0x40\n      mstore\n      dup1\n      swap3\n      swap2\n      swap1\n      dup2\n      dup2\n      mstore\n      0x20\n      add\n      dup3\n      dup1\n      sload\n      tag_267\n      swap1\n      tag_130\n      jump\t// in\n    tag_267:\n      dup1\n      iszero\n      tag_268\n      jumpi\n      dup1\n      0x1f\n      lt\n      tag_269\n      jumpi\n      0x0100\n      dup1\n      dup4\n      sload\n      div\n      mul\n      dup4\n      mstore\n      swap2\n      0x20\n      add\n      swap2\n      jump(tag_268)\n    tag_269:\n      dup3\n      add\n      swap2\n      swap1\n      0x00\n      mstore\n      keccak256(0x00, 0x20)\n      swap1\n    tag_270:\n      dup2\n      sload\n      dup2\n      mstore\n      swap1\n      0x01\n      add\n      swap1\n      0x20\n      add\n      dup1\n      dup4\n      gt\n      tag_270\n      jumpi\n      dup3\n      swap1\n      sub\n      0x1f\n      and\n      dup3\n      add\n      swap2\n    tag_268:\n      pop\n      pop\n      pop\n      pop\n      pop\n      swap1\n      dup1\n      0x04\n      add\n      sload\n      swap1\n      dup1\n      0x05\n      add\n      sload\n      swap1\n      pop\n      dup7\n      jump\t// out\n        /* \"@openzeppelin/contracts/token/ERC20/ERC20.sol\":3610:3788  function transfer(address to, uint256 value) public virtual returns (bool) {... */\n    tag_102:\n        /* \"@openzeppelin/contracts/token/ERC20/ERC20.sol\":3679:3683  bool */\n      0x00\n        /* \"@openzeppelin/contracts/utils/Context.sol\":735:745  msg.sender */\n      caller\n        /* \"@openzeppelin/contracts/token/ERC20/ERC20.sol\":3733:3760  _transfer(owner, to, value) */\n      tag_138\n        /* \"@openzeppelin/contracts/utils/Context.sol\":735:745  msg.sender */\n      dup2\n        /* \"@openzeppelin/contracts/token/ERC20/ERC20.sol\":3750:3752  to */\n      dup6\n        /* \"@openzeppelin/contracts/token/ERC20/ERC20.sol\":3754:3759  value */\n      dup6\n        /* \"@openzeppelin/contracts/token/ERC20/ERC20.sol\":3733:3742  _transfer */\n      tag_203\n        /* \"@openzeppelin/contracts/token/ERC20/ERC20.sol\":3733:3760  _transfer(owner, to, value) */\n      jump\t// in\n        /* \"contracts/Bias.sol\":4215:4308  function updateRewards(uint rewards_) public onlyOwner {... */\n    tag_106:\n        /* \"@openzeppelin/contracts/access/Ownable.sol\":1531:1544  _checkOwner() */\n      tag_275\n        /* \"@openzeppelin/contracts/access/Ownable.sol\":1531:1542  _checkOwner */\n      tag_208\n        /* \"@openzeppelin/contracts/access/Ownable.sol\":1531:1544  _checkOwner() */\n      jump\t// in\n    tag_275:\n        /* \"contracts/Bias.sol\":4281:4289  _rewards */\n      0x06\n        /* \"contracts/Bias.sol\":4281:4300  _rewards = rewards_ */\n      sstore\n        /* \"contracts/Bias.sol\":4215:4308  function updateRewards(uint rewards_) public onlyOwner {... */\n      jump\t// out\n        /* \"contracts/Bias.sol\":2648:2748  function topicAt(uint index) public returns (Topic memory ) {... */\n    tag_109:\n        /* \"contracts/Bias.sol\":2693:2705  Topic memory */\n      tag_277\n      tag_278\n      jump\t// in\n    tag_277:\n        /* \"contracts/Bias.sol\":2726:2733  _topics */\n      0x07\n        /* \"contracts/Bias.sol\":2734:2739  index */\n      dup3\n        /* \"contracts/Bias.sol\":2726:2740  _topics[index] */\n      dup2\n      sload\n      dup2\n      lt\n      tag_281\n      jumpi\n      tag_281\n      tag_143\n      jump\t// in\n    tag_281:\n      swap1\n      0x00\n      mstore\n      keccak256(0x00, 0x20)\n      swap1\n      0x06\n      mul\n      add\n        /* \"contracts/Bias.sol\":2719:2740  return _topics[index] */\n      mload(0x40)\n      dup1\n      0xc0\n      add\n      0x40\n      mstore\n      swap1\n      dup2\n      0x00\n      dup3\n      add\n      0x00\n      swap1\n      sload\n      swap1\n      0x0100\n      exp\n      swap1\n      div\n      sub(shl(0xa0, 0x01), 0x01)\n      and\n      sub(shl(0xa0, 0x01), 0x01)\n      and\n      sub(shl(0xa0, 0x01), 0x01)\n      and\n      dup2\n      mstore\n      0x20\n      add\n      0x01\n      dup3\n      add\n      sload\n      dup2\n      mstore\n      0x20\n      add\n      0x02\n      dup3\n      add\n      dup1\n      sload\n      tag_283\n      swap1\n      tag_130\n      jump\t// in\n    tag_283:\n      dup1\n      0x1f\n      add\n      0x20\n      dup1\n      swap2\n      div\n      mul\n      0x20\n      add\n      mload(0x40)\n      swap1\n      dup2\n      add\n      0x40\n      mstore\n      dup1\n      swap3\n      swap2\n      swap1\n      dup2\n      dup2\n      mstore\n      0x20\n      add\n      dup3\n      dup1\n      sload\n      tag_284\n      swap1\n      tag_130\n      jump\t// in\n    tag_284:\n      dup1\n      iszero\n      tag_285\n      jumpi\n      dup1\n      0x1f\n      lt\n      tag_286\n      jumpi\n      0x0100\n      dup1\n      dup4\n      sload\n      div\n      mul\n      dup4\n      mstore\n      swap2\n      0x20\n      add\n      swap2\n      jump(tag_285)\n    tag_286:\n      dup3\n      add\n      swap2\n      swap1\n      0x00\n      mstore\n      keccak256(0x00, 0x20)\n      swap1\n    tag_287:\n      dup2\n      sload\n      dup2\n      mstore\n      swap1\n      0x01\n      add\n      swap1\n      0x20\n      add\n      dup1\n      dup4\n      gt\n      tag_287\n      jumpi\n      dup3\n      swap1\n      sub\n      0x1f\n      and\n      dup3\n      add\n      swap2\n    tag_285:\n      pop\n      pop\n      pop\n      pop\n      pop\n      dup2\n      mstore\n      0x20\n      add\n      0x03\n      dup3\n      add\n      dup1\n      sload\n      tag_288\n      swap1\n      tag_130\n      jump\t// in\n    tag_288:\n      dup1\n      0x1f\n      add\n      0x20\n      dup1\n      swap2\n      div\n      mul\n      0x20\n      add\n      mload(0x40)\n      swap1\n      dup2\n      add\n      0x40\n      mstore\n      dup1\n      swap3\n      swap2\n      swap1\n      dup2\n      dup2\n      mstore\n      0x20\n      add\n      dup3\n      dup1\n      sload\n      tag_289\n      swap1\n      tag_130\n      jump\t// in\n    tag_289:\n      dup1\n      iszero\n      tag_290\n      jumpi\n      dup1\n      0x1f\n      lt\n      tag_291\n      jumpi\n      0x0100\n      dup1\n      dup4\n      sload\n      div\n      mul\n      dup4\n      mstore\n      swap2\n      0x20\n      add\n      swap2\n      jump(tag_290)\n    tag_291:\n      dup3\n      add\n      swap2\n      swap1\n      0x00\n      mstore\n      keccak256(0x00, 0x20)\n      swap1\n    tag_292:\n      dup2\n      sload\n      dup2\n      mstore\n      swap1\n      0x01\n      add\n      swap1\n      0x20\n      add\n      dup1\n      dup4\n      gt\n      tag_292\n      jumpi\n      dup3\n      swap1\n      sub\n      0x1f\n      and\n      dup3\n      add\n      swap2\n    tag_290:\n      pop\n      pop\n      pop\n      pop\n      pop\n      dup2\n      mstore\n      0x20\n      add\n      0x04\n      dup3\n      add\n      sload\n      dup2\n      mstore\n      0x20\n      add\n      0x05\n      dup3\n      add\n      sload\n      dup2\n      mstore\n      pop\n      pop\n      swap1\n      pop\n        /* \"contracts/Bias.sol\":2648:2748  function topicAt(uint index) public returns (Topic memory ) {... */\n      swap2\n      swap1\n      pop\n      jump\t// out\n        /* \"contracts/Bias.sol\":4316:4539  function topics(uint start, uint number) public view returns (Topic[] memory result) {... */\n    tag_119:\n        /* \"contracts/Bias.sol\":4378:4399  Topic[] memory result */\n      0x60\n        /* \"contracts/Bias.sol\":4433:4439  number */\n      dup2\n        /* \"contracts/Bias.sol\":4421:4440  new Topic[](number) */\n      0xffffffffffffffff\n      dup2\n      gt\n      iszero\n      tag_296\n      jumpi\n      tag_296\n      tag_297\n      jump\t// in\n    tag_296:\n      mload(0x40)\n      swap1\n      dup1\n      dup3\n      mstore\n      dup1\n      0x20\n      mul\n      0x20\n      add\n      dup3\n      add\n      0x40\n      mstore\n      dup1\n      iszero\n      tag_298\n      jumpi\n      dup2\n      0x20\n      add\n    tag_299:\n      tag_300\n      tag_278\n      jump\t// in\n    tag_300:\n      dup2\n      mstore\n      0x20\n      add\n      swap1\n      0x01\n      swap1\n      sub\n      swap1\n      dup2\n      tag_299\n      jumpi\n      swap1\n      pop\n    tag_298:\n      pop\n        /* \"contracts/Bias.sol\":4412:4440  result = new Topic[](number) */\n      swap1\n      pop\n        /* \"contracts/Bias.sol\":4455:4461  uint i */\n      0x00\n        /* \"contracts/Bias.sol\":4451:4532  for(uint i=0;i<number;i++){... */\n    tag_301:\n        /* \"contracts/Bias.sol\":4466:4472  number */\n      dup3\n        /* \"contracts/Bias.sol\":4464:4465  i */\n      dup2\n        /* \"contracts/Bias.sol\":4464:4472  i<number */\n      lt\n        /* \"contracts/Bias.sol\":4451:4532  for(uint i=0;i<number;i++){... */\n      iszero\n      tag_302\n      jumpi\n        /* \"contracts/Bias.sol\":4504:4511  _topics */\n      0x07\n        /* \"contracts/Bias.sol\":4512:4519  i+start */\n      tag_304\n        /* \"contracts/Bias.sol\":4514:4519  start */\n      dup6\n        /* \"contracts/Bias.sol\":4512:4513  i */\n      dup4\n        /* \"contracts/Bias.sol\":4512:4519  i+start */\n      tag_227\n      jump\t// in\n    tag_304:\n        /* \"contracts/Bias.sol\":4504:4520  _topics[i+start] */\n      dup2\n      sload\n      dup2\n      lt\n      tag_306\n      jumpi\n      tag_306\n      tag_143\n      jump\t// in\n    tag_306:\n      swap1\n      0x00\n      mstore\n      keccak256(0x00, 0x20)\n      swap1\n      0x06\n      mul\n      add\n        /* \"contracts/Bias.sol\":4492:4520  result[i] = _topics[i+start] */\n      mload(0x40)\n      dup1\n      0xc0\n      add\n      0x40\n      mstore\n      swap1\n      dup2\n      0x00\n      dup3\n      add\n      0x00\n      swap1\n      sload\n      swap1\n      0x0100\n      exp\n      swap1\n      div\n      sub(shl(0xa0, 0x01), 0x01)\n      and\n      sub(shl(0xa0, 0x01), 0x01)\n      and\n      sub(shl(0xa0, 0x01), 0x01)\n      and\n      dup2\n      mstore\n      0x20\n      add\n      0x01\n      dup3\n      add\n      sload\n      dup2\n      mstore\n      0x20\n      add\n      0x02\n      dup3\n      add\n      dup1\n      sload\n      tag_308\n      swap1\n      tag_130\n      jump\t// in\n    tag_308:\n      dup1\n      0x1f\n      add\n      0x20\n      dup1\n      swap2\n      div\n      mul\n      0x20\n      add\n      mload(0x40)\n      swap1\n      dup2\n      add\n      0x40\n      mstore\n      dup1\n      swap3\n      swap2\n      swap1\n      dup2\n      dup2\n      mstore\n      0x20\n      add\n      dup3\n      dup1\n      sload\n      tag_309\n      swap1\n      tag_130\n      jump\t// in\n    tag_309:\n      dup1\n      iszero\n      tag_310\n      jumpi\n      dup1\n      0x1f\n      lt\n      tag_311\n      jumpi\n      0x0100\n      dup1\n      dup4\n      sload\n      div\n      mul\n      dup4\n      mstore\n      swap2\n      0x20\n      add\n      swap2\n      jump(tag_310)\n    tag_311:\n      dup3\n      add\n      swap2\n      swap1\n      0x00\n      mstore\n      keccak256(0x00, 0x20)\n      swap1\n    tag_312:\n      dup2\n      sload\n      dup2\n      mstore\n      swap1\n      0x01\n      add\n      swap1\n      0x20\n      add\n      dup1\n      dup4\n      gt\n      tag_312\n      jumpi\n      dup3\n      swap1\n      sub\n      0x1f\n      and\n      dup3\n      add\n      swap2\n    tag_310:\n      pop\n      pop\n      pop\n      pop\n      pop\n      dup2\n      mstore\n      0x20\n      add\n      0x03\n      dup3\n      add\n      dup1\n      sload\n      tag_313\n      swap1\n      tag_130\n      jump\t// in\n    tag_313:\n      dup1\n      0x1f\n      add\n      0x20\n      dup1\n      swap2\n      div\n      mul\n      0x20\n      add\n      mload(0x40)\n      swap1\n      dup2\n      add\n      0x40\n      mstore\n      dup1\n      swap3\n      swap2\n      swap1\n      dup2\n      dup2\n      mstore\n      0x20\n      add\n      dup3\n      dup1\n      sload\n      tag_314\n      swap1\n      tag_130\n      jump\t// in\n    tag_314:\n      dup1\n      iszero\n      tag_315\n      jumpi\n      dup1\n      0x1f\n      lt\n      tag_316\n      jumpi\n      0x0100\n      dup1\n      dup4\n      sload\n      div\n      mul\n      dup4\n      mstore\n      swap2\n      0x20\n      add\n      swap2\n      jump(tag_315)\n    tag_316:\n      dup3\n      add\n      swap2\n      swap1\n      0x00\n      mstore\n      keccak256(0x00, 0x20)\n      swap1\n    tag_317:\n      dup2\n      sload\n      dup2\n      mstore\n      swap1\n      0x01\n      add\n      swap1\n      0x20\n      add\n      dup1\n      dup4\n      gt\n      tag_317\n      jumpi\n      dup3\n      swap1\n      sub\n      0x1f\n      and\n      dup3\n      add\n      swap2\n    tag_315:\n      pop\n      pop\n      pop\n      pop\n      pop\n      dup2\n      mstore\n      0x20\n      add\n      0x04\n      dup3\n      add\n      sload\n      dup2\n      mstore\n      0x20\n      add\n      0x05\n      dup3\n      add\n      sload\n      dup2\n      mstore\n      pop\n      pop\n        /* \"contracts/Bias.sol\":4492:4498  result */\n      dup3\n        /* \"contracts/Bias.sol\":4499:4500  i */\n      dup3\n        /* \"contracts/Bias.sol\":4492:4501  result[i] */\n      dup2\n      mload\n      dup2\n      lt\n      tag_319\n      jumpi\n      tag_319\n      tag_143\n      jump\t// in\n    tag_319:\n      0x20\n      mul\n      0x20\n      add\n      add\n        /* \"contracts/Bias.sol\":4492:4520  result[i] = _topics[i+start] */\n      dup2\n      swap1\n      mstore\n      pop\n        /* \"contracts/Bias.sol\":4473:4476  i++ */\n      dup1\n      dup1\n      tag_320\n      swap1\n      tag_321\n      jump\t// in\n    tag_320:\n      swap2\n      pop\n      pop\n        /* \"contracts/Bias.sol\":4451:4532  for(uint i=0;i<number;i++){... */\n      jump(tag_301)\n    tag_302:\n      pop\n        /* \"contracts/Bias.sol\":4316:4539  function topics(uint start, uint number) public view returns (Topic[] memory result) {... */\n      swap3\n      swap2\n      pop\n      pop\n      jump\t// out\n        /* \"@openzeppelin/contracts/access/Ownable.sol\":2543:2758  function transferOwnership(address newOwner) public virtual onlyOwner {... */\n    tag_124:\n        /* \"@openzeppelin/contracts/access/Ownable.sol\":1531:1544  _checkOwner() */\n      tag_323\n        /* \"@openzeppelin/contracts/access/Ownable.sol\":1531:1542  _checkOwner */\n      tag_208\n        /* \"@openzeppelin/contracts/access/Ownable.sol\":1531:1544  _checkOwner() */\n      jump\t// in\n    tag_323:\n      sub(shl(0xa0, 0x01), 0x01)\n        /* \"@openzeppelin/contracts/access/Ownable.sol\":2627:2649  newOwner == address(0) */\n      dup2\n      and\n        /* \"@openzeppelin/contracts/access/Ownable.sol\":2623:2714  if (newOwner == address(0)) {... */\n      tag_325\n      jumpi\n        /* \"@openzeppelin/contracts/access/Ownable.sol\":2672:2703  OwnableInvalidOwner(address(0)) */\n      mload(0x40)\n      shl(0xe0, 0x1e4fbdf7)\n      dup2\n      mstore\n        /* \"@openzeppelin/contracts/access/Ownable.sol\":2700:2701  0 */\n      0x00\n        /* \"@openzeppelin/contracts/access/Ownable.sol\":2672:2703  OwnableInvalidOwner(address(0)) */\n      0x04\n      dup3\n      add\n        /* \"#utility.yul\":4706:4757   */\n      mstore\n        /* \"#utility.yul\":4679:4697   */\n      0x24\n      add\n        /* \"@openzeppelin/contracts/access/Ownable.sol\":2672:2703  OwnableInvalidOwner(address(0)) */\n      tag_146\n        /* \"#utility.yul\":4560:4763   */\n      jump\n        /* \"@openzeppelin/contracts/access/Ownable.sol\":2623:2714  if (newOwner == address(0)) {... */\n    tag_325:\n        /* \"@openzeppelin/contracts/access/Ownable.sol\":2723:2751  _transferOwnership(newOwner) */\n      tag_154\n        /* \"@openzeppelin/contracts/access/Ownable.sol\":2742:2750  newOwner */\n      dup2\n        /* \"@openzeppelin/contracts/access/Ownable.sol\":2723:2741  _transferOwnership */\n      tag_211\n        /* \"@openzeppelin/contracts/access/Ownable.sol\":2723:2751  _transferOwnership(newOwner) */\n      jump\t// in\n        /* \"@openzeppelin/contracts/token/ERC20/ERC20.sol\":8989:9117  function _approve(address owner, address spender, uint256 value) internal {... */\n    tag_139:\n        /* \"@openzeppelin/contracts/token/ERC20/ERC20.sol\":9073:9110  _approve(owner, spender, value, true) */\n      tag_331\n        /* \"@openzeppelin/contracts/token/ERC20/ERC20.sol\":9082:9087  owner */\n      dup4\n        /* \"@openzeppelin/contracts/token/ERC20/ERC20.sol\":9089:9096  spender */\n      dup4\n        /* \"@openzeppelin/contracts/token/ERC20/ERC20.sol\":9098:9103  value */\n      dup4\n        /* \"@openzeppelin/contracts/token/ERC20/ERC20.sol\":9105:9109  true */\n      0x01\n        /* \"@openzeppelin/contracts/token/ERC20/ERC20.sol\":9073:9081  _approve */\n      tag_332\n        /* \"@openzeppelin/contracts/token/ERC20/ERC20.sol\":9073:9110  _approve(owner, spender, value, true) */\n      jump\t// in\n    tag_331:\n        /* \"@openzeppelin/contracts/token/ERC20/ERC20.sol\":8989:9117  function _approve(address owner, address spender, uint256 value) internal {... */\n      pop\n      pop\n      pop\n      jump\t// out\n        /* \"@openzeppelin/contracts/token/ERC20/ERC20.sol\":7721:7929  function _mint(address account, uint256 value) internal {... */\n    tag_160:\n      sub(shl(0xa0, 0x01), 0x01)\n        /* \"@openzeppelin/contracts/token/ERC20/ERC20.sol\":7791:7812  account == address(0) */\n      dup3\n      and\n        /* \"@openzeppelin/contracts/token/ERC20/ERC20.sol\":7787:7878  if (account == address(0)) {... */\n      tag_334\n      jumpi\n        /* \"@openzeppelin/contracts/token/ERC20/ERC20.sol\":7835:7867  ERC20InvalidReceiver(address(0)) */\n      mload(0x40)\n      shl(0xe0, 0xec442f05)\n      dup2\n      mstore\n        /* \"@openzeppelin/contracts/token/ERC20/ERC20.sol\":7864:7865  0 */\n      0x00\n        /* \"@openzeppelin/contracts/token/ERC20/ERC20.sol\":7835:7867  ERC20InvalidReceiver(address(0)) */\n      0x04\n      dup3\n      add\n        /* \"#utility.yul\":4706:4757   */\n      mstore\n        /* \"#utility.yul\":4679:4697   */\n      0x24\n      add\n        /* \"@openzeppelin/contracts/token/ERC20/ERC20.sol\":7835:7867  ERC20InvalidReceiver(address(0)) */\n      tag_146\n        /* \"#utility.yul\":4560:4763   */\n      jump\n        /* \"@openzeppelin/contracts/token/ERC20/ERC20.sol\":7787:7878  if (account == address(0)) {... */\n    tag_334:\n        /* \"@openzeppelin/contracts/token/ERC20/ERC20.sol\":7887:7922  _update(address(0), account, value) */\n      tag_336\n        /* \"@openzeppelin/contracts/token/ERC20/ERC20.sol\":7903:7904  0 */\n      0x00\n        /* \"@openzeppelin/contracts/token/ERC20/ERC20.sol\":7907:7914  account */\n      dup4\n        /* \"@openzeppelin/contracts/token/ERC20/ERC20.sol\":7916:7921  value */\n      dup4\n        /* \"@openzeppelin/contracts/token/ERC20/ERC20.sol\":7887:7894  _update */\n      tag_337\n        /* \"@openzeppelin/contracts/token/ERC20/ERC20.sol\":7887:7922  _update(address(0), account, value) */\n      jump\t// in\n    tag_336:\n        /* \"@openzeppelin/contracts/token/ERC20/ERC20.sol\":7721:7929  function _mint(address account, uint256 value) internal {... */\n      pop\n      pop\n      jump\t// out\n        /* \"@openzeppelin/contracts/token/ERC20/ERC20.sol\":8247:8453  function _burn(address account, uint256 value) internal {... */\n    tag_190:\n      sub(shl(0xa0, 0x01), 0x01)\n        /* \"@openzeppelin/contracts/token/ERC20/ERC20.sol\":8317:8338  account == address(0) */\n      dup3\n      and\n        /* \"@openzeppelin/contracts/token/ERC20/ERC20.sol\":8313:8402  if (account == address(0)) {... */\n      tag_339\n      jumpi\n        /* \"@openzeppelin/contracts/token/ERC20/ERC20.sol\":8361:8391  ERC20InvalidSender(address(0)) */\n      mload(0x40)\n      shl(0xe1, 0x4b637e8f)\n      dup2\n      mstore\n        /* \"@openzeppelin/contracts/token/ERC20/ERC20.sol\":8388:8389  0 */\n      0x00\n        /* \"@openzeppelin/contracts/token/ERC20/ERC20.sol\":8361:8391  ERC20InvalidSender(address(0)) */\n      0x04\n      dup3\n      add\n        /* \"#utility.yul\":4706:4757   */\n      mstore\n        /* \"#utility.yul\":4679:4697   */\n      0x24\n      add\n        /* \"@openzeppelin/contracts/token/ERC20/ERC20.sol\":8361:8391  ERC20InvalidSender(address(0)) */\n      tag_146\n        /* \"#utility.yul\":4560:4763   */\n      jump\n        /* \"@openzeppelin/contracts/token/ERC20/ERC20.sol\":8313:8402  if (account == address(0)) {... */\n    tag_339:\n        /* \"@openzeppelin/contracts/token/ERC20/ERC20.sol\":8411:8446  _update(account, address(0), value) */\n      tag_336\n        /* \"@openzeppelin/contracts/token/ERC20/ERC20.sol\":8419:8426  account */\n      dup3\n        /* \"@openzeppelin/contracts/token/ERC20/ERC20.sol\":8436:8437  0 */\n      0x00\n        /* \"@openzeppelin/contracts/token/ERC20/ERC20.sol\":8440:8445  value */\n      dup4\n        /* \"@openzeppelin/contracts/token/ERC20/ERC20.sol\":8411:8418  _update */\n      tag_337\n        /* \"@openzeppelin/contracts/token/ERC20/ERC20.sol\":8411:8446  _update(account, address(0), value) */\n      jump\t// in\n        /* \"@openzeppelin/contracts/token/ERC20/ERC20.sol\":10663:11140  function _spendAllowance(address owner, address spender, uint256 value) internal virtual {... */\n    tag_201:\n      sub(shl(0xa0, 0x01), 0x01)\n        /* \"@openzeppelin/contracts/token/ERC20/ERC20.sol\":3952:3970  _allowances[owner] */\n      dup4\n      dup2\n      and\n        /* \"@openzeppelin/contracts/token/ERC20/ERC20.sol\":10762:10786  uint256 currentAllowance */\n      0x00\n        /* \"@openzeppelin/contracts/token/ERC20/ERC20.sol\":3952:3970  _allowances[owner] */\n      swap1\n      dup2\n      mstore\n        /* \"@openzeppelin/contracts/token/ERC20/ERC20.sol\":3952:3963  _allowances */\n      0x01\n        /* \"@openzeppelin/contracts/token/ERC20/ERC20.sol\":3952:3970  _allowances[owner] */\n      0x20\n      swap1\n      dup2\n      mstore\n      0x40\n      dup1\n      dup4\n      keccak256\n        /* \"@openzeppelin/contracts/token/ERC20/ERC20.sol\":3952:3979  _allowances[owner][spender] */\n      swap4\n      dup7\n      and\n      dup4\n      mstore\n      swap3\n      swap1\n      mstore\n      keccak256\n      sload\n      not(0x00)\n        /* \"@openzeppelin/contracts/token/ERC20/ERC20.sol\":10828:10865  currentAllowance != type(uint256).max */\n      dup2\n      eq\n        /* \"@openzeppelin/contracts/token/ERC20/ERC20.sol\":10824:11134  if (currentAllowance != type(uint256).max) {... */\n      tag_248\n      jumpi\n        /* \"@openzeppelin/contracts/token/ERC20/ERC20.sol\":10904:10909  value */\n      dup2\n        /* \"@openzeppelin/contracts/token/ERC20/ERC20.sol\":10885:10901  currentAllowance */\n      dup2\n        /* \"@openzeppelin/contracts/token/ERC20/ERC20.sol\":10885:10909  currentAllowance < value */\n      lt\n        /* \"@openzeppelin/contracts/token/ERC20/ERC20.sol\":10881:11011  if (currentAllowance < value) {... */\n      iszero\n      tag_345\n      jumpi\n        /* \"@openzeppelin/contracts/token/ERC20/ERC20.sol\":10936:10996  ERC20InsufficientAllowance(spender, currentAllowance, value) */\n      mload(0x40)\n      shl(0xe1, 0x7dc7a0d9)\n      dup2\n      mstore\n      sub(shl(0xa0, 0x01), 0x01)\n        /* \"#utility.yul\":15086:15118   */\n      dup5\n      and\n        /* \"@openzeppelin/contracts/token/ERC20/ERC20.sol\":10936:10996  ERC20InsufficientAllowance(spender, currentAllowance, value) */\n      0x04\n      dup3\n      add\n        /* \"#utility.yul\":15068:15119   */\n      mstore\n        /* \"#utility.yul\":15135:15153   */\n      0x24\n      dup2\n      add\n        /* \"#utility.yul\":15128:15162   */\n      dup3\n      swap1\n      mstore\n        /* \"#utility.yul\":15178:15196   */\n      0x44\n      dup2\n      add\n        /* \"#utility.yul\":15171:15205   */\n      dup4\n      swap1\n      mstore\n        /* \"#utility.yul\":15041:15059   */\n      0x64\n      add\n        /* \"@openzeppelin/contracts/token/ERC20/ERC20.sol\":10936:10996  ERC20InsufficientAllowance(spender, currentAllowance, value) */\n      tag_146\n        /* \"#utility.yul\":14866:15211   */\n      jump\n        /* \"@openzeppelin/contracts/token/ERC20/ERC20.sol\":10881:11011  if (currentAllowance < value) {... */\n    tag_345:\n        /* \"@openzeppelin/contracts/token/ERC20/ERC20.sol\":11052:11109  _approve(owner, spender, currentAllowance - value, false) */\n      tag_248\n        /* \"@openzeppelin/contracts/token/ERC20/ERC20.sol\":11061:11066  owner */\n      dup5\n        /* \"@openzeppelin/contracts/token/ERC20/ERC20.sol\":11068:11075  spender */\n      dup5\n        /* \"@openzeppelin/contracts/token/ERC20/ERC20.sol\":11096:11101  value */\n      dup5\n        /* \"@openzeppelin/contracts/token/ERC20/ERC20.sol\":11077:11093  currentAllowance */\n      dup5\n        /* \"@openzeppelin/contracts/token/ERC20/ERC20.sol\":11077:11101  currentAllowance - value */\n      sub\n        /* \"@openzeppelin/contracts/token/ERC20/ERC20.sol\":11103:11108  false */\n      0x00\n        /* \"@openzeppelin/contracts/token/ERC20/ERC20.sol\":11052:11060  _approve */\n      tag_332\n        /* \"@openzeppelin/contracts/token/ERC20/ERC20.sol\":11052:11109  _approve(owner, spender, currentAllowance - value, false) */\n      jump\t// in\n        /* \"@openzeppelin/contracts/token/ERC20/ERC20.sol\":5656:5956  function _transfer(address from, address to, uint256 value) internal {... */\n    tag_203:\n      sub(shl(0xa0, 0x01), 0x01)\n        /* \"@openzeppelin/contracts/token/ERC20/ERC20.sol\":5739:5757  from == address(0) */\n      dup4\n      and\n        /* \"@openzeppelin/contracts/token/ERC20/ERC20.sol\":5735:5821  if (from == address(0)) {... */\n      tag_350\n      jumpi\n        /* \"@openzeppelin/contracts/token/ERC20/ERC20.sol\":5780:5810  ERC20InvalidSender(address(0)) */\n      mload(0x40)\n      shl(0xe1, 0x4b637e8f)\n      dup2\n      mstore\n        /* \"@openzeppelin/contracts/token/ERC20/ERC20.sol\":5807:5808  0 */\n      0x00\n        /* \"@openzeppelin/contracts/token/ERC20/ERC20.sol\":5780:5810  ERC20InvalidSender(address(0)) */\n      0x04\n      dup3\n      add\n        /* \"#utility.yul\":4706:4757   */\n      mstore\n        /* \"#utility.yul\":4679:4697   */\n      0x24\n      add\n        /* \"@openzeppelin/contracts/token/ERC20/ERC20.sol\":5780:5810  ERC20InvalidSender(address(0)) */\n      tag_146\n        /* \"#utility.yul\":4560:4763   */\n      jump\n        /* \"@openzeppelin/contracts/token/ERC20/ERC20.sol\":5735:5821  if (from == address(0)) {... */\n    tag_350:\n      sub(shl(0xa0, 0x01), 0x01)\n        /* \"@openzeppelin/contracts/token/ERC20/ERC20.sol\":5834:5850  to == address(0) */\n      dup3\n      and\n        /* \"@openzeppelin/contracts/token/ERC20/ERC20.sol\":5830:5916  if (to == address(0)) {... */\n      tag_352\n      jumpi\n        /* \"@openzeppelin/contracts/token/ERC20/ERC20.sol\":5873:5905  ERC20InvalidReceiver(address(0)) */\n      mload(0x40)\n      shl(0xe0, 0xec442f05)\n      dup2\n      mstore\n        /* \"@openzeppelin/contracts/token/ERC20/ERC20.sol\":5902:5903  0 */\n      0x00\n        /* \"@openzeppelin/contracts/token/ERC20/ERC20.sol\":5873:5905  ERC20InvalidReceiver(address(0)) */\n      0x04\n      dup3\n      add\n        /* \"#utility.yul\":4706:4757   */\n      mstore\n        /* \"#utility.yul\":4679:4697   */\n      0x24\n      add\n        /* \"@openzeppelin/contracts/token/ERC20/ERC20.sol\":5873:5905  ERC20InvalidReceiver(address(0)) */\n      tag_146\n        /* \"#utility.yul\":4560:4763   */\n      jump\n        /* \"@openzeppelin/contracts/token/ERC20/ERC20.sol\":5830:5916  if (to == address(0)) {... */\n    tag_352:\n        /* \"@openzeppelin/contracts/token/ERC20/ERC20.sol\":5925:5949  _update(from, to, value) */\n      tag_331\n        /* \"@openzeppelin/contracts/token/ERC20/ERC20.sol\":5933:5937  from */\n      dup4\n        /* \"@openzeppelin/contracts/token/ERC20/ERC20.sol\":5939:5941  to */\n      dup4\n        /* \"@openzeppelin/contracts/token/ERC20/ERC20.sol\":5943:5948  value */\n      dup4\n        /* \"@openzeppelin/contracts/token/ERC20/ERC20.sol\":5925:5932  _update */\n      tag_337\n        /* \"@openzeppelin/contracts/token/ERC20/ERC20.sol\":5925:5949  _update(from, to, value) */\n      jump\t// in\n        /* \"@openzeppelin/contracts/access/Ownable.sol\":1796:1958  function _checkOwner() internal view virtual {... */\n    tag_208:\n        /* \"@openzeppelin/contracts/access/Ownable.sol\":1710:1716  _owner */\n      and(sub(shl(0xa0, 0x01), 0x01), sload(0x05))\n        /* \"@openzeppelin/contracts/utils/Context.sol\":735:745  msg.sender */\n      caller\n        /* \"@openzeppelin/contracts/access/Ownable.sol\":1855:1878  owner() != _msgSender() */\n      eq\n        /* \"@openzeppelin/contracts/access/Ownable.sol\":1851:1952  if (owner() != _msgSender()) {... */\n      tag_210\n      jumpi\n        /* \"@openzeppelin/contracts/access/Ownable.sol\":1901:1941  OwnableUnauthorizedAccount(_msgSender()) */\n      mload(0x40)\n      shl(0xe0, 0x118cdaa7)\n      dup2\n      mstore\n        /* \"@openzeppelin/contracts/utils/Context.sol\":735:745  msg.sender */\n      caller\n        /* \"@openzeppelin/contracts/access/Ownable.sol\":1901:1941  OwnableUnauthorizedAccount(_msgSender()) */\n      0x04\n      dup3\n      add\n        /* \"#utility.yul\":4706:4757   */\n      mstore\n        /* \"#utility.yul\":4679:4697   */\n      0x24\n      add\n        /* \"@openzeppelin/contracts/access/Ownable.sol\":1901:1941  OwnableUnauthorizedAccount(_msgSender()) */\n      tag_146\n        /* \"#utility.yul\":4560:4763   */\n      jump\n        /* \"@openzeppelin/contracts/access/Ownable.sol\":2912:3099  function _transferOwnership(address newOwner) internal virtual {... */\n    tag_211:\n        /* \"@openzeppelin/contracts/access/Ownable.sol\":3004:3010  _owner */\n      0x05\n      dup1\n      sload\n      sub(shl(0xa0, 0x01), 0x01)\n        /* \"@openzeppelin/contracts/access/Ownable.sol\":3020:3037  _owner = newOwner */\n      dup4\n      dup2\n      and\n      not(sub(shl(0xa0, 0x01), 0x01))\n      dup4\n      and\n      dup2\n      or\n      swap1\n      swap4\n      sstore\n        /* \"@openzeppelin/contracts/access/Ownable.sol\":3052:3092  OwnershipTransferred(oldOwner, newOwner) */\n      mload(0x40)\n        /* \"@openzeppelin/contracts/access/Ownable.sol\":3004:3010  _owner */\n      swap2\n      and\n      swap2\n        /* \"@openzeppelin/contracts/access/Ownable.sol\":3020:3037  _owner = newOwner */\n      swap1\n        /* \"@openzeppelin/contracts/access/Ownable.sol\":3004:3010  _owner */\n      dup3\n      swap1\n        /* \"@openzeppelin/contracts/access/Ownable.sol\":3052:3092  OwnershipTransferred(oldOwner, newOwner) */\n      0x8be0079c531659141344cd1fd0a4f28419497f9722a3daafe3b4186f6b6457e0\n      swap1\n        /* \"@openzeppelin/contracts/access/Ownable.sol\":2985:3001  address oldOwner */\n      0x00\n      swap1\n        /* \"@openzeppelin/contracts/access/Ownable.sol\":3052:3092  OwnershipTransferred(oldOwner, newOwner) */\n      log3\n        /* \"@openzeppelin/contracts/access/Ownable.sol\":2975:3099  {... */\n      pop\n        /* \"@openzeppelin/contracts/access/Ownable.sol\":2912:3099  function _transferOwnership(address newOwner) internal virtual {... */\n      pop\n      jump\t// out\n        /* \"@openzeppelin/contracts/token/ERC20/ERC20.sol\":9949:10381  function _approve(address owner, address spender, uint256 value, bool emitEvent) internal virtual {... */\n    tag_332:\n      sub(shl(0xa0, 0x01), 0x01)\n        /* \"@openzeppelin/contracts/token/ERC20/ERC20.sol\":10061:10080  owner == address(0) */\n      dup5\n      and\n        /* \"@openzeppelin/contracts/token/ERC20/ERC20.sol\":10057:10146  if (owner == address(0)) {... */\n      tag_363\n      jumpi\n        /* \"@openzeppelin/contracts/token/ERC20/ERC20.sol\":10103:10135  ERC20InvalidApprover(address(0)) */\n      mload(0x40)\n      shl(0xe0, 0xe602df05)\n      dup2\n      mstore\n        /* \"@openzeppelin/contracts/token/ERC20/ERC20.sol\":10132:10133  0 */\n      0x00\n        /* \"@openzeppelin/contracts/token/ERC20/ERC20.sol\":10103:10135  ERC20InvalidApprover(address(0)) */\n      0x04\n      dup3\n      add\n        /* \"#utility.yul\":4706:4757   */\n      mstore\n        /* \"#utility.yul\":4679:4697   */\n      0x24\n      add\n        /* \"@openzeppelin/contracts/token/ERC20/ERC20.sol\":10103:10135  ERC20InvalidApprover(address(0)) */\n      tag_146\n        /* \"#utility.yul\":4560:4763   */\n      jump\n        /* \"@openzeppelin/contracts/token/ERC20/ERC20.sol\":10057:10146  if (owner == address(0)) {... */\n    tag_363:\n      sub(shl(0xa0, 0x01), 0x01)\n        /* \"@openzeppelin/contracts/token/ERC20/ERC20.sol\":10159:10180  spender == address(0) */\n      dup4\n      and\n        /* \"@openzeppelin/contracts/token/ERC20/ERC20.sol\":10155:10245  if (spender == address(0)) {... */\n      tag_365\n      jumpi\n        /* \"@openzeppelin/contracts/token/ERC20/ERC20.sol\":10203:10234  ERC20InvalidSpender(address(0)) */\n      mload(0x40)\n      shl(0xe1, 0x4a1406b1)\n      dup2\n      mstore\n        /* \"@openzeppelin/contracts/token/ERC20/ERC20.sol\":10231:10232  0 */\n      0x00\n        /* \"@openzeppelin/contracts/token/ERC20/ERC20.sol\":10203:10234  ERC20InvalidSpender(address(0)) */\n      0x04\n      dup3\n      add\n        /* \"#utility.yul\":4706:4757   */\n      mstore\n        /* \"#utility.yul\":4679:4697   */\n      0x24\n      add\n        /* \"@openzeppelin/contracts/token/ERC20/ERC20.sol\":10203:10234  ERC20InvalidSpender(address(0)) */\n      tag_146\n        /* \"#utility.yul\":4560:4763   */\n      jump\n        /* \"@openzeppelin/contracts/token/ERC20/ERC20.sol\":10155:10245  if (spender == address(0)) {... */\n    tag_365:\n      sub(shl(0xa0, 0x01), 0x01)\n        /* \"@openzeppelin/contracts/token/ERC20/ERC20.sol\":10254:10272  _allowances[owner] */\n      dup1\n      dup6\n      and\n      0x00\n      swap1\n      dup2\n      mstore\n        /* \"@openzeppelin/contracts/token/ERC20/ERC20.sol\":10254:10265  _allowances */\n      0x01\n        /* \"@openzeppelin/contracts/token/ERC20/ERC20.sol\":10254:10272  _allowances[owner] */\n      0x20\n      swap1\n      dup2\n      mstore\n      0x40\n      dup1\n      dup4\n      keccak256\n        /* \"@openzeppelin/contracts/token/ERC20/ERC20.sol\":10254:10281  _allowances[owner][spender] */\n      swap4\n      dup8\n      and\n      dup4\n      mstore\n      swap3\n      swap1\n      mstore\n      keccak256\n        /* \"@openzeppelin/contracts/token/ERC20/ERC20.sol\":10254:10289  _allowances[owner][spender] = value */\n      dup3\n      swap1\n      sstore\n        /* \"@openzeppelin/contracts/token/ERC20/ERC20.sol\":10299:10375  if (emitEvent) {... */\n      dup1\n      iszero\n      tag_248\n      jumpi\n        /* \"@openzeppelin/contracts/token/ERC20/ERC20.sol\":10349:10356  spender */\n      dup3\n      sub(shl(0xa0, 0x01), 0x01)\n        /* \"@openzeppelin/contracts/token/ERC20/ERC20.sol\":10333:10364  Approval(owner, spender, value) */\n      and\n        /* \"@openzeppelin/contracts/token/ERC20/ERC20.sol\":10342:10347  owner */\n      dup5\n      sub(shl(0xa0, 0x01), 0x01)\n        /* \"@openzeppelin/contracts/token/ERC20/ERC20.sol\":10333:10364  Approval(owner, spender, value) */\n      and\n      0x8c5be1e5ebec7d5bd14f71427d1e84f3dd0314c0f7b2291e5b200ac8c7c3b925\n        /* \"@openzeppelin/contracts/token/ERC20/ERC20.sol\":10358:10363  value */\n      dup5\n        /* \"@openzeppelin/contracts/token/ERC20/ERC20.sol\":10333:10364  Approval(owner, spender, value) */\n      mload(0x40)\n      tag_368\n      swap2\n        /* \"#utility.yul\":3237:3262   */\n      dup2\n      mstore\n        /* \"#utility.yul\":3225:3227   */\n      0x20\n        /* \"#utility.yul\":3210:3228   */\n      add\n      swap1\n        /* \"#utility.yul\":3091:3268   */\n      jump\n        /* \"@openzeppelin/contracts/token/ERC20/ERC20.sol\":10333:10364  Approval(owner, spender, value) */\n    tag_368:\n      mload(0x40)\n      dup1\n      swap2\n      sub\n      swap1\n      log3\n        /* \"@openzeppelin/contracts/token/ERC20/ERC20.sol\":9949:10381  function _approve(address owner, address spender, uint256 value, bool emitEvent) internal virtual {... */\n      pop\n      pop\n      pop\n      pop\n      jump\t// out\n        /* \"@openzeppelin/contracts/token/ERC20/ERC20.sol\":6271:7378  function _update(address from, address to, uint256 value) internal virtual {... */\n    tag_337:\n      sub(shl(0xa0, 0x01), 0x01)\n        /* \"@openzeppelin/contracts/token/ERC20/ERC20.sol\":6360:6378  from == address(0) */\n      dup4\n      and\n        /* \"@openzeppelin/contracts/token/ERC20/ERC20.sol\":6356:6896  if (from == address(0)) {... */\n      tag_370\n      jumpi\n        /* \"@openzeppelin/contracts/token/ERC20/ERC20.sol\":6512:6517  value */\n      dup1\n        /* \"@openzeppelin/contracts/token/ERC20/ERC20.sol\":6496:6508  _totalSupply */\n      0x02\n      0x00\n        /* \"@openzeppelin/contracts/token/ERC20/ERC20.sol\":6496:6517  _totalSupply += value */\n      dup3\n      dup3\n      sload\n      tag_371\n      swap2\n      swap1\n      tag_227\n      jump\t// in\n    tag_371:\n      swap1\n      swap2\n      sstore\n      pop\n        /* \"@openzeppelin/contracts/token/ERC20/ERC20.sol\":6356:6896  if (from == address(0)) {... */\n      tag_372\n      swap1\n      pop\n      jump\n    tag_370:\n      sub(shl(0xa0, 0x01), 0x01)\n        /* \"@openzeppelin/contracts/token/ERC20/ERC20.sol\":6570:6585  _balances[from] */\n      dup4\n      and\n        /* \"@openzeppelin/contracts/token/ERC20/ERC20.sol\":6548:6567  uint256 fromBalance */\n      0x00\n        /* \"@openzeppelin/contracts/token/ERC20/ERC20.sol\":6570:6585  _balances[from] */\n      swap1\n      dup2\n      mstore\n      0x20\n      dup2\n      swap1\n      mstore\n      0x40\n      swap1\n      keccak256\n      sload\n        /* \"@openzeppelin/contracts/token/ERC20/ERC20.sol\":6603:6622  fromBalance < value */\n      dup2\n      dup2\n      lt\n        /* \"@openzeppelin/contracts/token/ERC20/ERC20.sol\":6599:6714  if (fromBalance < value) {... */\n      iszero\n      tag_373\n      jumpi\n        /* \"@openzeppelin/contracts/token/ERC20/ERC20.sol\":6649:6699  ERC20InsufficientBalance(from, fromBalance, value) */\n      mload(0x40)\n      shl(0xe2, 0x391434e3)\n      dup2\n      mstore\n      sub(shl(0xa0, 0x01), 0x01)\n        /* \"#utility.yul\":15086:15118   */\n      dup6\n      and\n        /* \"@openzeppelin/contracts/token/ERC20/ERC20.sol\":6649:6699  ERC20InsufficientBalance(from, fromBalance, value) */\n      0x04\n      dup3\n      add\n        /* \"#utility.yul\":15068:15119   */\n      mstore\n        /* \"#utility.yul\":15135:15153   */\n      0x24\n      dup2\n      add\n        /* \"#utility.yul\":15128:15162   */\n      dup3\n      swap1\n      mstore\n        /* \"#utility.yul\":15178:15196   */\n      0x44\n      dup2\n      add\n        /* \"#utility.yul\":15171:15205   */\n      dup4\n      swap1\n      mstore\n        /* \"#utility.yul\":15041:15059   */\n      0x64\n      add\n        /* \"@openzeppelin/contracts/token/ERC20/ERC20.sol\":6649:6699  ERC20InsufficientBalance(from, fromBalance, value) */\n      tag_146\n        /* \"#utility.yul\":14866:15211   */\n      jump\n        /* \"@openzeppelin/contracts/token/ERC20/ERC20.sol\":6599:6714  if (fromBalance < value) {... */\n    tag_373:\n      sub(shl(0xa0, 0x01), 0x01)\n        /* \"@openzeppelin/contracts/token/ERC20/ERC20.sol\":6834:6849  _balances[from] */\n      dup5\n      and\n        /* \"@openzeppelin/contracts/token/ERC20/ERC20.sol\":6834:6843  _balances */\n      0x00\n        /* \"@openzeppelin/contracts/token/ERC20/ERC20.sol\":6834:6849  _balances[from] */\n      swap1\n      dup2\n      mstore\n      0x20\n      dup2\n      swap1\n      mstore\n      0x40\n      swap1\n      keccak256\n        /* \"@openzeppelin/contracts/token/ERC20/ERC20.sol\":6852:6871  fromBalance - value */\n      swap1\n      dup3\n      swap1\n      sub\n        /* \"@openzeppelin/contracts/token/ERC20/ERC20.sol\":6834:6871  _balances[from] = fromBalance - value */\n      swap1\n      sstore\n        /* \"@openzeppelin/contracts/token/ERC20/ERC20.sol\":6356:6896  if (from == address(0)) {... */\n    tag_372:\n      sub(shl(0xa0, 0x01), 0x01)\n        /* \"@openzeppelin/contracts/token/ERC20/ERC20.sol\":6910:6926  to == address(0) */\n      dup3\n      and\n        /* \"@openzeppelin/contracts/token/ERC20/ERC20.sol\":6906:7331  if (to == address(0)) {... */\n      tag_375\n      jumpi\n        /* \"@openzeppelin/contracts/token/ERC20/ERC20.sol\":7073:7085  _totalSupply */\n      0x02\n        /* \"@openzeppelin/contracts/token/ERC20/ERC20.sol\":7073:7094  _totalSupply -= value */\n      dup1\n      sload\n      dup3\n      swap1\n      sub\n      swap1\n      sstore\n        /* \"@openzeppelin/contracts/token/ERC20/ERC20.sol\":6906:7331  if (to == address(0)) {... */\n      jump(tag_376)\n    tag_375:\n      sub(shl(0xa0, 0x01), 0x01)\n        /* \"@openzeppelin/contracts/token/ERC20/ERC20.sol\":7284:7297  _balances[to] */\n      dup3\n      and\n        /* \"@openzeppelin/contracts/token/ERC20/ERC20.sol\":7284:7293  _balances */\n      0x00\n        /* \"@openzeppelin/contracts/token/ERC20/ERC20.sol\":7284:7297  _balances[to] */\n      swap1\n      dup2\n      mstore\n      0x20\n      dup2\n      swap1\n      mstore\n      0x40\n      swap1\n      keccak256\n        /* \"@openzeppelin/contracts/token/ERC20/ERC20.sol\":7284:7306  _balances[to] += value */\n      dup1\n      sload\n      dup3\n      add\n      swap1\n      sstore\n        /* \"@openzeppelin/contracts/token/ERC20/ERC20.sol\":6906:7331  if (to == address(0)) {... */\n    tag_376:\n        /* \"@openzeppelin/contracts/token/ERC20/ERC20.sol\":7361:7363  to */\n      dup2\n      sub(shl(0xa0, 0x01), 0x01)\n        /* \"@openzeppelin/contracts/token/ERC20/ERC20.sol\":7346:7371  Transfer(from, to, value) */\n      and\n        /* \"@openzeppelin/contracts/token/ERC20/ERC20.sol\":7355:7359  from */\n      dup4\n      sub(shl(0xa0, 0x01), 0x01)\n        /* \"@openzeppelin/contracts/token/ERC20/ERC20.sol\":7346:7371  Transfer(from, to, value) */\n      and\n      0xddf252ad1be2c89b69c2b068fc378daa952ba7f163c4a11628f55a4df523b3ef\n        /* \"@openzeppelin/contracts/token/ERC20/ERC20.sol\":7365:7370  value */\n      dup4\n        /* \"@openzeppelin/contracts/token/ERC20/ERC20.sol\":7346:7371  Transfer(from, to, value) */\n      mload(0x40)\n      tag_377\n      swap2\n        /* \"#utility.yul\":3237:3262   */\n      dup2\n      mstore\n        /* \"#utility.yul\":3225:3227   */\n      0x20\n        /* \"#utility.yul\":3210:3228   */\n      add\n      swap1\n        /* \"#utility.yul\":3091:3268   */\n      jump\n        /* \"@openzeppelin/contracts/token/ERC20/ERC20.sol\":7346:7371  Transfer(from, to, value) */\n    tag_377:\n      mload(0x40)\n      dup1\n      swap2\n      sub\n      swap1\n      log3\n        /* \"@openzeppelin/contracts/token/ERC20/ERC20.sol\":6271:7378  function _update(address from, address to, uint256 value) internal virtual {... */\n      pop\n      pop\n      pop\n      jump\t// out\n    tag_278:\n      mload(0x40)\n      dup1\n      0xc0\n      add\n      0x40\n      mstore\n      dup1\n      and(sub(shl(0xa0, 0x01), 0x01), 0x00)\n      dup2\n      mstore\n      0x20\n      add\n      0x00\n      dup2\n      mstore\n      0x20\n      add\n      0x60\n      dup2\n      mstore\n      0x20\n      add\n      0x60\n      dup2\n      mstore\n      0x20\n      add\n      0x00\n      dup2\n      mstore\n      0x20\n      add\n      0x00\n      dup2\n      mstore\n      pop\n      swap1\n      jump\t// out\n        /* \"#utility.yul\":14:437   */\n    tag_378:\n        /* \"#utility.yul\":56:59   */\n      0x00\n        /* \"#utility.yul\":94:99   */\n      dup2\n        /* \"#utility.yul\":88:100   */\n      mload\n        /* \"#utility.yul\":121:127   */\n      dup1\n        /* \"#utility.yul\":116:119   */\n      dup5\n        /* \"#utility.yul\":109:128   */\n      mstore\n        /* \"#utility.yul\":146:147   */\n      0x00\n        /* \"#utility.yul\":156:318   */\n    tag_388:\n        /* \"#utility.yul\":170:176   */\n      dup2\n        /* \"#utility.yul\":167:168   */\n      dup2\n        /* \"#utility.yul\":164:177   */\n      lt\n        /* \"#utility.yul\":156:318   */\n      iszero\n      tag_390\n      jumpi\n        /* \"#utility.yul\":232:236   */\n      0x20\n        /* \"#utility.yul\":288:301   */\n      dup2\n      dup6\n      add\n        /* \"#utility.yul\":284:306   */\n      dup2\n      add\n        /* \"#utility.yul\":278:307   */\n      mload\n        /* \"#utility.yul\":260:271   */\n      dup7\n      dup4\n      add\n        /* \"#utility.yul\":256:276   */\n      dup3\n      add\n        /* \"#utility.yul\":249:308   */\n      mstore\n        /* \"#utility.yul\":185:197   */\n      add\n        /* \"#utility.yul\":156:318   */\n      jump(tag_388)\n    tag_390:\n        /* \"#utility.yul\":160:163   */\n      pop\n        /* \"#utility.yul\":363:364   */\n      0x00\n        /* \"#utility.yul\":356:360   */\n      0x20\n        /* \"#utility.yul\":347:353   */\n      dup3\n        /* \"#utility.yul\":342:345   */\n      dup7\n        /* \"#utility.yul\":338:354   */\n      add\n        /* \"#utility.yul\":334:361   */\n      add\n        /* \"#utility.yul\":327:365   */\n      mstore\n        /* \"#utility.yul\":426:430   */\n      0x20\n        /* \"#utility.yul\":419:421   */\n      0x1f\n        /* \"#utility.yul\":415:422   */\n      not\n        /* \"#utility.yul\":410:412   */\n      0x1f\n        /* \"#utility.yul\":402:408   */\n      dup4\n        /* \"#utility.yul\":398:413   */\n      add\n        /* \"#utility.yul\":394:423   */\n      and\n        /* \"#utility.yul\":389:392   */\n      dup6\n        /* \"#utility.yul\":385:424   */\n      add\n        /* \"#utility.yul\":381:431   */\n      add\n        /* \"#utility.yul\":374:431   */\n      swap2\n      pop\n      pop\n        /* \"#utility.yul\":14:437   */\n      swap3\n      swap2\n      pop\n      pop\n      jump\t// out\n        /* \"#utility.yul\":442:662   */\n    tag_33:\n        /* \"#utility.yul\":591:593   */\n      0x20\n        /* \"#utility.yul\":580:589   */\n      dup2\n        /* \"#utility.yul\":573:594   */\n      mstore\n        /* \"#utility.yul\":554:558   */\n      0x00\n        /* \"#utility.yul\":611:656   */\n      tag_392\n        /* \"#utility.yul\":652:654   */\n      0x20\n        /* \"#utility.yul\":641:650   */\n      dup4\n        /* \"#utility.yul\":637:655   */\n      add\n        /* \"#utility.yul\":629:635   */\n      dup5\n        /* \"#utility.yul\":611:656   */\n      tag_378\n      jump\t// in\n    tag_392:\n        /* \"#utility.yul\":603:656   */\n      swap4\n        /* \"#utility.yul\":442:662   */\n      swap3\n      pop\n      pop\n      pop\n      jump\t// out\n        /* \"#utility.yul\":667:840   */\n    tag_379:\n        /* \"#utility.yul\":735:755   */\n      dup1\n      calldataload\n      sub(shl(0xa0, 0x01), 0x01)\n        /* \"#utility.yul\":784:815   */\n      dup2\n      and\n        /* \"#utility.yul\":774:816   */\n      dup2\n      eq\n        /* \"#utility.yul\":764:834   */\n      tag_394\n      jumpi\n        /* \"#utility.yul\":830:831   */\n      0x00\n        /* \"#utility.yul\":827:828   */\n      dup1\n        /* \"#utility.yul\":820:832   */\n      revert\n        /* \"#utility.yul\":764:834   */\n    tag_394:\n        /* \"#utility.yul\":667:840   */\n      swap2\n      swap1\n      pop\n      jump\t// out\n        /* \"#utility.yul\":845:1099   */\n    tag_36:\n        /* \"#utility.yul\":913:919   */\n      0x00\n        /* \"#utility.yul\":921:927   */\n      dup1\n        /* \"#utility.yul\":974:976   */\n      0x40\n        /* \"#utility.yul\":962:971   */\n      dup4\n        /* \"#utility.yul\":953:960   */\n      dup6\n        /* \"#utility.yul\":949:972   */\n      sub\n        /* \"#utility.yul\":945:977   */\n      slt\n        /* \"#utility.yul\":942:994   */\n      iszero\n      tag_396\n      jumpi\n        /* \"#utility.yul\":990:991   */\n      0x00\n        /* \"#utility.yul\":987:988   */\n      dup1\n        /* \"#utility.yul\":980:992   */\n      revert\n        /* \"#utility.yul\":942:994   */\n    tag_396:\n        /* \"#utility.yul\":1013:1042   */\n      tag_397\n        /* \"#utility.yul\":1032:1041   */\n      dup4\n        /* \"#utility.yul\":1013:1042   */\n      tag_379\n      jump\t// in\n    tag_397:\n        /* \"#utility.yul\":1003:1042   */\n      swap5\n        /* \"#utility.yul\":1089:1091   */\n      0x20\n        /* \"#utility.yul\":1074:1092   */\n      swap4\n      swap1\n      swap4\n      add\n        /* \"#utility.yul\":1061:1093   */\n      calldataload\n      swap4\n      pop\n      pop\n      pop\n        /* \"#utility.yul\":845:1099   */\n      jump\t// out\n        /* \"#utility.yul\":1296:1476   */\n    tag_42:\n        /* \"#utility.yul\":1355:1361   */\n      0x00\n        /* \"#utility.yul\":1408:1410   */\n      0x20\n        /* \"#utility.yul\":1396:1405   */\n      dup3\n        /* \"#utility.yul\":1387:1394   */\n      dup5\n        /* \"#utility.yul\":1383:1406   */\n      sub\n        /* \"#utility.yul\":1379:1411   */\n      slt\n        /* \"#utility.yul\":1376:1428   */\n      iszero\n      tag_400\n      jumpi\n        /* \"#utility.yul\":1424:1425   */\n      0x00\n        /* \"#utility.yul\":1421:1422   */\n      dup1\n        /* \"#utility.yul\":1414:1426   */\n      revert\n        /* \"#utility.yul\":1376:1428   */\n    tag_400:\n      pop\n        /* \"#utility.yul\":1447:1470   */\n      calldataload\n      swap2\n        /* \"#utility.yul\":1296:1476   */\n      swap1\n      pop\n      jump\t// out\n        /* \"#utility.yul\":1481:1608   */\n    tag_297:\n        /* \"#utility.yul\":1542:1552   */\n      0x4e487b71\n        /* \"#utility.yul\":1537:1540   */\n      0xe0\n        /* \"#utility.yul\":1533:1553   */\n      shl\n        /* \"#utility.yul\":1530:1531   */\n      0x00\n        /* \"#utility.yul\":1523:1554   */\n      mstore\n        /* \"#utility.yul\":1573:1577   */\n      0x41\n        /* \"#utility.yul\":1570:1571   */\n      0x04\n        /* \"#utility.yul\":1563:1578   */\n      mstore\n        /* \"#utility.yul\":1597:1601   */\n      0x24\n        /* \"#utility.yul\":1594:1595   */\n      0x00\n        /* \"#utility.yul\":1587:1602   */\n      revert\n        /* \"#utility.yul\":1613:2332   */\n    tag_380:\n        /* \"#utility.yul\":1656:1661   */\n      0x00\n        /* \"#utility.yul\":1709:1712   */\n      dup3\n        /* \"#utility.yul\":1702:1706   */\n      0x1f\n        /* \"#utility.yul\":1694:1700   */\n      dup4\n        /* \"#utility.yul\":1690:1707   */\n      add\n        /* \"#utility.yul\":1686:1713   */\n      slt\n        /* \"#utility.yul\":1676:1731   */\n      tag_403\n      jumpi\n        /* \"#utility.yul\":1727:1728   */\n      0x00\n        /* \"#utility.yul\":1724:1725   */\n      dup1\n        /* \"#utility.yul\":1717:1729   */\n      revert\n        /* \"#utility.yul\":1676:1731   */\n    tag_403:\n        /* \"#utility.yul\":1763:1769   */\n      dup2\n        /* \"#utility.yul\":1750:1770   */\n      calldataload\n        /* \"#utility.yul\":1789:1807   */\n      0xffffffffffffffff\n        /* \"#utility.yul\":1826:1828   */\n      dup1\n        /* \"#utility.yul\":1822:1824   */\n      dup3\n        /* \"#utility.yul\":1819:1829   */\n      gt\n        /* \"#utility.yul\":1816:1852   */\n      iszero\n      tag_405\n      jumpi\n        /* \"#utility.yul\":1832:1850   */\n      tag_405\n      tag_297\n      jump\t// in\n    tag_405:\n        /* \"#utility.yul\":1907:1909   */\n      0x40\n        /* \"#utility.yul\":1901:1910   */\n      mload\n        /* \"#utility.yul\":1875:1877   */\n      0x1f\n        /* \"#utility.yul\":1961:1974   */\n      dup4\n      add\n      not(0x1f)\n        /* \"#utility.yul\":1957:1979   */\n      swap1\n      dup2\n      and\n        /* \"#utility.yul\":1981:1983   */\n      0x3f\n        /* \"#utility.yul\":1953:1984   */\n      add\n        /* \"#utility.yul\":1949:1989   */\n      and\n        /* \"#utility.yul\":1937:1990   */\n      dup2\n      add\n      swap1\n        /* \"#utility.yul\":2005:2023   */\n      dup3\n      dup3\n      gt\n        /* \"#utility.yul\":2025:2047   */\n      dup2\n      dup4\n      lt\n        /* \"#utility.yul\":2002:2048   */\n      or\n        /* \"#utility.yul\":1999:2071   */\n      iszero\n      tag_407\n      jumpi\n        /* \"#utility.yul\":2051:2069   */\n      tag_407\n      tag_297\n      jump\t// in\n    tag_407:\n        /* \"#utility.yul\":2091:2101   */\n      dup2\n        /* \"#utility.yul\":2087:2089   */\n      0x40\n        /* \"#utility.yul\":2080:2102   */\n      mstore\n        /* \"#utility.yul\":2126:2128   */\n      dup4\n        /* \"#utility.yul\":2118:2124   */\n      dup2\n        /* \"#utility.yul\":2111:2129   */\n      mstore\n        /* \"#utility.yul\":2172:2175   */\n      dup7\n        /* \"#utility.yul\":2165:2169   */\n      0x20\n        /* \"#utility.yul\":2160:2162   */\n      dup6\n        /* \"#utility.yul\":2152:2158   */\n      dup9\n        /* \"#utility.yul\":2148:2163   */\n      add\n        /* \"#utility.yul\":2144:2170   */\n      add\n        /* \"#utility.yul\":2141:2176   */\n      gt\n        /* \"#utility.yul\":2138:2193   */\n      iszero\n      tag_408\n      jumpi\n        /* \"#utility.yul\":2189:2190   */\n      0x00\n        /* \"#utility.yul\":2186:2187   */\n      dup1\n        /* \"#utility.yul\":2179:2191   */\n      revert\n        /* \"#utility.yul\":2138:2193   */\n    tag_408:\n        /* \"#utility.yul\":2253:2255   */\n      dup4\n        /* \"#utility.yul\":2246:2250   */\n      0x20\n        /* \"#utility.yul\":2238:2244   */\n      dup8\n        /* \"#utility.yul\":2234:2251   */\n      add\n        /* \"#utility.yul\":2227:2231   */\n      0x20\n        /* \"#utility.yul\":2219:2225   */\n      dup4\n        /* \"#utility.yul\":2215:2232   */\n      add\n        /* \"#utility.yul\":2202:2256   */\n      calldatacopy\n        /* \"#utility.yul\":2300:2301   */\n      0x00\n        /* \"#utility.yul\":2293:2297   */\n      0x20\n        /* \"#utility.yul\":2288:2290   */\n      dup6\n        /* \"#utility.yul\":2280:2286   */\n      dup4\n        /* \"#utility.yul\":2276:2291   */\n      add\n        /* \"#utility.yul\":2272:2298   */\n      add\n        /* \"#utility.yul\":2265:2302   */\n      mstore\n        /* \"#utility.yul\":2320:2326   */\n      dup1\n        /* \"#utility.yul\":2311:2326   */\n      swap5\n      pop\n      pop\n      pop\n      pop\n      pop\n        /* \"#utility.yul\":1613:2332   */\n      swap3\n      swap2\n      pop\n      pop\n      jump\t// out\n        /* \"#utility.yul\":2337:3086   */\n    tag_46:\n        /* \"#utility.yul\":2452:2458   */\n      0x00\n        /* \"#utility.yul\":2460:2466   */\n      dup1\n        /* \"#utility.yul\":2468:2474   */\n      0x00\n        /* \"#utility.yul\":2476:2482   */\n      dup1\n        /* \"#utility.yul\":2484:2490   */\n      0x00\n        /* \"#utility.yul\":2537:2540   */\n      0xa0\n        /* \"#utility.yul\":2525:2534   */\n      dup7\n        /* \"#utility.yul\":2516:2523   */\n      dup9\n        /* \"#utility.yul\":2512:2535   */\n      sub\n        /* \"#utility.yul\":2508:2541   */\n      slt\n        /* \"#utility.yul\":2505:2558   */\n      iszero\n      tag_410\n      jumpi\n        /* \"#utility.yul\":2554:2555   */\n      0x00\n        /* \"#utility.yul\":2551:2552   */\n      dup1\n        /* \"#utility.yul\":2544:2556   */\n      revert\n        /* \"#utility.yul\":2505:2558   */\n    tag_410:\n        /* \"#utility.yul\":2594:2603   */\n      dup6\n        /* \"#utility.yul\":2581:2604   */\n      calldataload\n        /* \"#utility.yul\":2623:2641   */\n      0xffffffffffffffff\n        /* \"#utility.yul\":2664:2666   */\n      dup1\n        /* \"#utility.yul\":2656:2662   */\n      dup3\n        /* \"#utility.yul\":2653:2667   */\n      gt\n        /* \"#utility.yul\":2650:2684   */\n      iszero\n      tag_411\n      jumpi\n        /* \"#utility.yul\":2680:2681   */\n      0x00\n        /* \"#utility.yul\":2677:2678   */\n      dup1\n        /* \"#utility.yul\":2670:2682   */\n      revert\n        /* \"#utility.yul\":2650:2684   */\n    tag_411:\n        /* \"#utility.yul\":2703:2753   */\n      tag_412\n        /* \"#utility.yul\":2745:2752   */\n      dup10\n        /* \"#utility.yul\":2736:2742   */\n      dup4\n        /* \"#utility.yul\":2725:2734   */\n      dup11\n        /* \"#utility.yul\":2721:2743   */\n      add\n        /* \"#utility.yul\":2703:2753   */\n      tag_380\n      jump\t// in\n    tag_412:\n        /* \"#utility.yul\":2693:2753   */\n      swap7\n      pop\n        /* \"#utility.yul\":2806:2808   */\n      0x20\n        /* \"#utility.yul\":2795:2804   */\n      dup9\n        /* \"#utility.yul\":2791:2809   */\n      add\n        /* \"#utility.yul\":2778:2810   */\n      calldataload\n        /* \"#utility.yul\":2762:2810   */\n      swap2\n      pop\n        /* \"#utility.yul\":2835:2837   */\n      dup1\n        /* \"#utility.yul\":2825:2833   */\n      dup3\n        /* \"#utility.yul\":2822:2838   */\n      gt\n        /* \"#utility.yul\":2819:2855   */\n      iszero\n      tag_413\n      jumpi\n        /* \"#utility.yul\":2851:2852   */\n      0x00\n        /* \"#utility.yul\":2848:2849   */\n      dup1\n        /* \"#utility.yul\":2841:2853   */\n      revert\n        /* \"#utility.yul\":2819:2855   */\n    tag_413:\n      pop\n        /* \"#utility.yul\":2874:2926   */\n      tag_414\n        /* \"#utility.yul\":2918:2925   */\n      dup9\n        /* \"#utility.yul\":2907:2915   */\n      dup3\n        /* \"#utility.yul\":2896:2905   */\n      dup10\n        /* \"#utility.yul\":2892:2916   */\n      add\n        /* \"#utility.yul\":2874:2926   */\n      tag_380\n      jump\t// in\n    tag_414:\n        /* \"#utility.yul\":2337:3086   */\n      swap6\n      swap9\n        /* \"#utility.yul\":2864:2926   */\n      swap6\n      swap8\n      pop\n      pop\n      pop\n      pop\n        /* \"#utility.yul\":2973:2975   */\n      0x40\n        /* \"#utility.yul\":2958:2976   */\n      dup5\n      add\n        /* \"#utility.yul\":2945:2977   */\n      calldataload\n      swap4\n        /* \"#utility.yul\":3024:3026   */\n      0x60\n        /* \"#utility.yul\":3009:3027   */\n      dup2\n      add\n        /* \"#utility.yul\":2996:3028   */\n      calldataload\n      swap4\n        /* \"#utility.yul\":3075:3078   */\n      0x80\n        /* \"#utility.yul\":3060:3079   */\n      swap1\n      swap2\n      add\n        /* \"#utility.yul\":3047:3080   */\n      calldataload\n      swap3\n      pop\n        /* \"#utility.yul\":2337:3086   */\n      swap1\n      pop\n      jump\t// out\n        /* \"#utility.yul\":3273:3601   */\n    tag_54:\n        /* \"#utility.yul\":3350:3356   */\n      0x00\n        /* \"#utility.yul\":3358:3364   */\n      dup1\n        /* \"#utility.yul\":3366:3372   */\n      0x00\n        /* \"#utility.yul\":3419:3421   */\n      0x60\n        /* \"#utility.yul\":3407:3416   */\n      dup5\n        /* \"#utility.yul\":3398:3405   */\n      dup7\n        /* \"#utility.yul\":3394:3417   */\n      sub\n        /* \"#utility.yul\":3390:3422   */\n      slt\n        /* \"#utility.yul\":3387:3439   */\n      iszero\n      tag_417\n      jumpi\n        /* \"#utility.yul\":3435:3436   */\n      0x00\n        /* \"#utility.yul\":3432:3433   */\n      dup1\n        /* \"#utility.yul\":3425:3437   */\n      revert\n        /* \"#utility.yul\":3387:3439   */\n    tag_417:\n        /* \"#utility.yul\":3458:3487   */\n      tag_418\n        /* \"#utility.yul\":3477:3486   */\n      dup5\n        /* \"#utility.yul\":3458:3487   */\n      tag_379\n      jump\t// in\n    tag_418:\n        /* \"#utility.yul\":3448:3487   */\n      swap3\n      pop\n        /* \"#utility.yul\":3506:3544   */\n      tag_419\n        /* \"#utility.yul\":3540:3542   */\n      0x20\n        /* \"#utility.yul\":3529:3538   */\n      dup6\n        /* \"#utility.yul\":3525:3543   */\n      add\n        /* \"#utility.yul\":3506:3544   */\n      tag_379\n      jump\t// in\n    tag_419:\n        /* \"#utility.yul\":3496:3544   */\n      swap2\n      pop\n        /* \"#utility.yul\":3591:3593   */\n      0x40\n        /* \"#utility.yul\":3580:3589   */\n      dup5\n        /* \"#utility.yul\":3576:3594   */\n      add\n        /* \"#utility.yul\":3563:3595   */\n      calldataload\n        /* \"#utility.yul\":3553:3595   */\n      swap1\n      pop\n        /* \"#utility.yul\":3273:3601   */\n      swap3\n      pop\n      swap3\n      pop\n      swap3\n      jump\t// out\n        /* \"#utility.yul\":3795:4043   */\n    tag_63:\n        /* \"#utility.yul\":3863:3869   */\n      0x00\n        /* \"#utility.yul\":3871:3877   */\n      dup1\n        /* \"#utility.yul\":3924:3926   */\n      0x40\n        /* \"#utility.yul\":3912:3921   */\n      dup4\n        /* \"#utility.yul\":3903:3910   */\n      dup6\n        /* \"#utility.yul\":3899:3922   */\n      sub\n        /* \"#utility.yul\":3895:3927   */\n      slt\n        /* \"#utility.yul\":3892:3944   */\n      iszero\n      tag_422\n      jumpi\n        /* \"#utility.yul\":3940:3941   */\n      0x00\n        /* \"#utility.yul\":3937:3938   */\n      dup1\n        /* \"#utility.yul\":3930:3942   */\n      revert\n        /* \"#utility.yul\":3892:3944   */\n    tag_422:\n      pop\n      pop\n        /* \"#utility.yul\":3963:3986   */\n      dup1\n      calldataload\n      swap3\n        /* \"#utility.yul\":4033:4035   */\n      0x20\n        /* \"#utility.yul\":4018:4036   */\n      swap1\n      swap2\n      add\n        /* \"#utility.yul\":4005:4037   */\n      calldataload\n      swap2\n      pop\n        /* \"#utility.yul\":3795:4043   */\n      jump\t// out\n        /* \"#utility.yul\":4048:4234   */\n    tag_68:\n        /* \"#utility.yul\":4107:4113   */\n      0x00\n        /* \"#utility.yul\":4160:4162   */\n      0x20\n        /* \"#utility.yul\":4148:4157   */\n      dup3\n        /* \"#utility.yul\":4139:4146   */\n      dup5\n        /* \"#utility.yul\":4135:4158   */\n      sub\n        /* \"#utility.yul\":4131:4163   */\n      slt\n        /* \"#utility.yul\":4128:4180   */\n      iszero\n      tag_424\n      jumpi\n        /* \"#utility.yul\":4176:4177   */\n      0x00\n        /* \"#utility.yul\":4173:4174   */\n      dup1\n        /* \"#utility.yul\":4166:4178   */\n      revert\n        /* \"#utility.yul\":4128:4180   */\n    tag_424:\n        /* \"#utility.yul\":4199:4228   */\n      tag_392\n        /* \"#utility.yul\":4218:4227   */\n      dup3\n        /* \"#utility.yul\":4199:4228   */\n      tag_379\n      jump\t// in\n        /* \"#utility.yul\":4239:4555   */\n    tag_79:\n        /* \"#utility.yul\":4316:4322   */\n      0x00\n        /* \"#utility.yul\":4324:4330   */\n      dup1\n        /* \"#utility.yul\":4332:4338   */\n      0x00\n        /* \"#utility.yul\":4385:4387   */\n      0x60\n        /* \"#utility.yul\":4373:4382   */\n      dup5\n        /* \"#utility.yul\":4364:4371   */\n      dup7\n        /* \"#utility.yul\":4360:4383   */\n      sub\n        /* \"#utility.yul\":4356:4388   */\n      slt\n        /* \"#utility.yul\":4353:4405   */\n      iszero\n      tag_427\n      jumpi\n        /* \"#utility.yul\":4401:4402   */\n      0x00\n        /* \"#utility.yul\":4398:4399   */\n      dup1\n        /* \"#utility.yul\":4391:4403   */\n      revert\n        /* \"#utility.yul\":4353:4405   */\n    tag_427:\n      pop\n      pop\n        /* \"#utility.yul\":4424:4447   */\n      dup2\n      calldataload\n      swap4\n        /* \"#utility.yul\":4494:4496   */\n      0x20\n        /* \"#utility.yul\":4479:4497   */\n      dup4\n      add\n        /* \"#utility.yul\":4466:4498   */\n      calldataload\n      swap4\n      pop\n        /* \"#utility.yul\":4545:4547   */\n      0x40\n        /* \"#utility.yul\":4530:4548   */\n      swap1\n      swap3\n      add\n        /* \"#utility.yul\":4517:4549   */\n      calldataload\n      swap2\n        /* \"#utility.yul\":4239:4555   */\n      swap1\n      pop\n      jump\t// out\n        /* \"#utility.yul\":4768:5465   */\n    tag_96:\n        /* \"#utility.yul\":5106:5107   */\n      0x01\n        /* \"#utility.yul\":5102:5103   */\n      dup1\n        /* \"#utility.yul\":5097:5100   */\n      0xa0\n        /* \"#utility.yul\":5093:5104   */\n      shl\n        /* \"#utility.yul\":5089:5108   */\n      sub\n        /* \"#utility.yul\":5081:5087   */\n      dup8\n        /* \"#utility.yul\":5077:5109   */\n      and\n        /* \"#utility.yul\":5066:5075   */\n      dup2\n        /* \"#utility.yul\":5059:5110   */\n      mstore\n        /* \"#utility.yul\":5146:5152   */\n      dup6\n        /* \"#utility.yul\":5141:5143   */\n      0x20\n        /* \"#utility.yul\":5130:5139   */\n      dup3\n        /* \"#utility.yul\":5126:5144   */\n      add\n        /* \"#utility.yul\":5119:5153   */\n      mstore\n        /* \"#utility.yul\":5189:5192   */\n      0xc0\n        /* \"#utility.yul\":5184:5186   */\n      0x40\n        /* \"#utility.yul\":5173:5182   */\n      dup3\n        /* \"#utility.yul\":5169:5187   */\n      add\n        /* \"#utility.yul\":5162:5193   */\n      mstore\n        /* \"#utility.yul\":5040:5044   */\n      0x00\n        /* \"#utility.yul\":5216:5262   */\n      tag_430\n        /* \"#utility.yul\":5257:5260   */\n      0xc0\n        /* \"#utility.yul\":5246:5255   */\n      dup4\n        /* \"#utility.yul\":5242:5261   */\n      add\n        /* \"#utility.yul\":5234:5240   */\n      dup8\n        /* \"#utility.yul\":5216:5262   */\n      tag_378\n      jump\t// in\n    tag_430:\n        /* \"#utility.yul\":5310:5319   */\n      dup3\n        /* \"#utility.yul\":5302:5308   */\n      dup2\n        /* \"#utility.yul\":5298:5320   */\n      sub\n        /* \"#utility.yul\":5293:5295   */\n      0x60\n        /* \"#utility.yul\":5282:5291   */\n      dup5\n        /* \"#utility.yul\":5278:5296   */\n      add\n        /* \"#utility.yul\":5271:5321   */\n      mstore\n        /* \"#utility.yul\":5338:5371   */\n      tag_431\n        /* \"#utility.yul\":5364:5370   */\n      dup2\n        /* \"#utility.yul\":5356:5362   */\n      dup8\n        /* \"#utility.yul\":5338:5371   */\n      tag_378\n      jump\t// in\n    tag_431:\n        /* \"#utility.yul\":5402:5405   */\n      0x80\n        /* \"#utility.yul\":5387:5406   */\n      dup5\n      add\n        /* \"#utility.yul\":5380:5415   */\n      swap6\n      swap1\n      swap6\n      mstore\n      pop\n      pop\n        /* \"#utility.yul\":5446:5449   */\n      0xa0\n        /* \"#utility.yul\":5431:5450   */\n      add\n        /* \"#utility.yul\":5424:5459   */\n      mstore\n        /* \"#utility.yul\":5330:5371   */\n      swap5\n        /* \"#utility.yul\":4768:5465   */\n      swap4\n      pop\n      pop\n      pop\n      pop\n      jump\t// out\n        /* \"#utility.yul\":5470:6103   */\n    tag_381:\n        /* \"#utility.yul\":5583:5584   */\n      0x01\n        /* \"#utility.yul\":5579:5580   */\n      dup1\n        /* \"#utility.yul\":5574:5577   */\n      0xa0\n        /* \"#utility.yul\":5570:5581   */\n      shl\n        /* \"#utility.yul\":5566:5585   */\n      sub\n        /* \"#utility.yul\":5558:5563   */\n      dup2\n        /* \"#utility.yul\":5552:5564   */\n      mload\n        /* \"#utility.yul\":5548:5586   */\n      and\n        /* \"#utility.yul\":5543:5546   */\n      dup3\n        /* \"#utility.yul\":5536:5587   */\n      mstore\n        /* \"#utility.yul\":5636:5640   */\n      0x20\n        /* \"#utility.yul\":5629:5634   */\n      dup2\n        /* \"#utility.yul\":5625:5641   */\n      add\n        /* \"#utility.yul\":5619:5642   */\n      mload\n        /* \"#utility.yul\":5612:5616   */\n      0x20\n        /* \"#utility.yul\":5607:5610   */\n      dup4\n        /* \"#utility.yul\":5603:5617   */\n      add\n        /* \"#utility.yul\":5596:5643   */\n      mstore\n        /* \"#utility.yul\":5518:5521   */\n      0x00\n        /* \"#utility.yul\":5689:5693   */\n      0x40\n        /* \"#utility.yul\":5682:5687   */\n      dup3\n        /* \"#utility.yul\":5678:5694   */\n      add\n        /* \"#utility.yul\":5672:5695   */\n      mload\n        /* \"#utility.yul\":5727:5731   */\n      0xc0\n        /* \"#utility.yul\":5720:5724   */\n      0x40\n        /* \"#utility.yul\":5715:5718   */\n      dup6\n        /* \"#utility.yul\":5711:5725   */\n      add\n        /* \"#utility.yul\":5704:5732   */\n      mstore\n        /* \"#utility.yul\":5753:5800   */\n      tag_433\n        /* \"#utility.yul\":5794:5798   */\n      0xc0\n        /* \"#utility.yul\":5789:5792   */\n      dup6\n        /* \"#utility.yul\":5785:5799   */\n      add\n        /* \"#utility.yul\":5771:5783   */\n      dup3\n        /* \"#utility.yul\":5753:5800   */\n      tag_378\n      jump\t// in\n    tag_433:\n        /* \"#utility.yul\":5741:5800   */\n      swap1\n      pop\n        /* \"#utility.yul\":5848:5852   */\n      0x60\n        /* \"#utility.yul\":5841:5846   */\n      dup4\n        /* \"#utility.yul\":5837:5853   */\n      add\n        /* \"#utility.yul\":5831:5854   */\n      mload\n        /* \"#utility.yul\":5896:5899   */\n      dup5\n        /* \"#utility.yul\":5890:5894   */\n      dup3\n        /* \"#utility.yul\":5886:5900   */\n      sub\n        /* \"#utility.yul\":5879:5883   */\n      0x60\n        /* \"#utility.yul\":5874:5877   */\n      dup7\n        /* \"#utility.yul\":5870:5884   */\n      add\n        /* \"#utility.yul\":5863:5901   */\n      mstore\n        /* \"#utility.yul\":5924:5963   */\n      tag_434\n        /* \"#utility.yul\":5958:5962   */\n      dup3\n        /* \"#utility.yul\":5942:5956   */\n      dup3\n        /* \"#utility.yul\":5924:5963   */\n      tag_378\n      jump\t// in\n    tag_434:\n        /* \"#utility.yul\":5910:5963   */\n      swap2\n      pop\n      pop\n        /* \"#utility.yul\":6012:6016   */\n      0x80\n        /* \"#utility.yul\":6005:6010   */\n      dup4\n        /* \"#utility.yul\":6001:6017   */\n      add\n        /* \"#utility.yul\":5995:6018   */\n      mload\n        /* \"#utility.yul\":5988:5992   */\n      0x80\n        /* \"#utility.yul\":5983:5986   */\n      dup6\n        /* \"#utility.yul\":5979:5993   */\n      add\n        /* \"#utility.yul\":5972:6019   */\n      mstore\n        /* \"#utility.yul\":6068:6072   */\n      0xa0\n        /* \"#utility.yul\":6061:6066   */\n      dup4\n        /* \"#utility.yul\":6057:6073   */\n      add\n        /* \"#utility.yul\":6051:6074   */\n      mload\n        /* \"#utility.yul\":6044:6048   */\n      0xa0\n        /* \"#utility.yul\":6039:6042   */\n      dup6\n        /* \"#utility.yul\":6035:6049   */\n      add\n        /* \"#utility.yul\":6028:6075   */\n      mstore\n        /* \"#utility.yul\":6091:6097   */\n      dup1\n        /* \"#utility.yul\":6084:6097   */\n      swap2\n      pop\n      pop\n        /* \"#utility.yul\":5470:6103   */\n      swap3\n      swap2\n      pop\n      pop\n      jump\t// out\n        /* \"#utility.yul\":6108:6358   */\n    tag_111:\n        /* \"#utility.yul\":6281:6283   */\n      0x20\n        /* \"#utility.yul\":6270:6279   */\n      dup2\n        /* \"#utility.yul\":6263:6284   */\n      mstore\n        /* \"#utility.yul\":6244:6248   */\n      0x00\n        /* \"#utility.yul\":6301:6352   */\n      tag_392\n        /* \"#utility.yul\":6348:6350   */\n      0x20\n        /* \"#utility.yul\":6337:6346   */\n      dup4\n        /* \"#utility.yul\":6333:6351   */\n      add\n        /* \"#utility.yul\":6325:6331   */\n      dup5\n        /* \"#utility.yul\":6301:6352   */\n      tag_381\n      jump\t// in\n        /* \"#utility.yul\":6363:6623   */\n    tag_114:\n        /* \"#utility.yul\":6431:6437   */\n      0x00\n        /* \"#utility.yul\":6439:6445   */\n      dup1\n        /* \"#utility.yul\":6492:6494   */\n      0x40\n        /* \"#utility.yul\":6480:6489   */\n      dup4\n        /* \"#utility.yul\":6471:6478   */\n      dup6\n        /* \"#utility.yul\":6467:6490   */\n      sub\n        /* \"#utility.yul\":6463:6495   */\n      slt\n        /* \"#utility.yul\":6460:6512   */\n      iszero\n      tag_438\n      jumpi\n        /* \"#utility.yul\":6508:6509   */\n      0x00\n        /* \"#utility.yul\":6505:6506   */\n      dup1\n        /* \"#utility.yul\":6498:6510   */\n      revert\n        /* \"#utility.yul\":6460:6512   */\n    tag_438:\n        /* \"#utility.yul\":6531:6560   */\n      tag_439\n        /* \"#utility.yul\":6550:6559   */\n      dup4\n        /* \"#utility.yul\":6531:6560   */\n      tag_379\n      jump\t// in\n    tag_439:\n        /* \"#utility.yul\":6521:6560   */\n      swap2\n      pop\n        /* \"#utility.yul\":6579:6617   */\n      tag_440\n        /* \"#utility.yul\":6613:6615   */\n      0x20\n        /* \"#utility.yul\":6602:6611   */\n      dup5\n        /* \"#utility.yul\":6598:6616   */\n      add\n        /* \"#utility.yul\":6579:6617   */\n      tag_379\n      jump\t// in\n    tag_440:\n        /* \"#utility.yul\":6569:6617   */\n      swap1\n      pop\n        /* \"#utility.yul\":6363:6623   */\n      swap3\n      pop\n      swap3\n      swap1\n      pop\n      jump\t// out\n        /* \"#utility.yul\":6628:7461   */\n    tag_121:\n        /* \"#utility.yul\":6814:6818   */\n      0x00\n        /* \"#utility.yul\":6843:6845   */\n      0x20\n        /* \"#utility.yul\":6883:6885   */\n      dup1\n        /* \"#utility.yul\":6872:6881   */\n      dup4\n        /* \"#utility.yul\":6868:6886   */\n      add\n        /* \"#utility.yul\":6913:6915   */\n      dup2\n        /* \"#utility.yul\":6902:6911   */\n      dup5\n        /* \"#utility.yul\":6895:6916   */\n      mstore\n        /* \"#utility.yul\":6936:6942   */\n      dup1\n        /* \"#utility.yul\":6971:6977   */\n      dup6\n        /* \"#utility.yul\":6965:6978   */\n      mload\n        /* \"#utility.yul\":7002:7008   */\n      dup1\n        /* \"#utility.yul\":6994:7000   */\n      dup4\n        /* \"#utility.yul\":6987:7009   */\n      mstore\n        /* \"#utility.yul\":7040:7042   */\n      0x40\n        /* \"#utility.yul\":7029:7038   */\n      dup7\n        /* \"#utility.yul\":7025:7043   */\n      add\n        /* \"#utility.yul\":7018:7043   */\n      swap2\n      pop\n        /* \"#utility.yul\":7102:7104   */\n      0x40\n        /* \"#utility.yul\":7092:7098   */\n      dup2\n        /* \"#utility.yul\":7089:7090   */\n      0x05\n        /* \"#utility.yul\":7085:7099   */\n      shl\n        /* \"#utility.yul\":7074:7083   */\n      dup8\n        /* \"#utility.yul\":7070:7100   */\n      add\n        /* \"#utility.yul\":7066:7105   */\n      add\n        /* \"#utility.yul\":7052:7105   */\n      swap3\n      pop\n        /* \"#utility.yul\":7140:7142   */\n      dup4\n        /* \"#utility.yul\":7132:7138   */\n      dup8\n        /* \"#utility.yul\":7128:7143   */\n      add\n        /* \"#utility.yul\":7161:7162   */\n      0x00\n        /* \"#utility.yul\":7171:7432   */\n    tag_442:\n        /* \"#utility.yul\":7185:7191   */\n      dup3\n        /* \"#utility.yul\":7182:7183   */\n      dup2\n        /* \"#utility.yul\":7179:7192   */\n      lt\n        /* \"#utility.yul\":7171:7432   */\n      iszero\n      tag_444\n      jumpi\n        /* \"#utility.yul\":7278:7280   */\n      0x3f\n        /* \"#utility.yul\":7274:7281   */\n      not\n        /* \"#utility.yul\":7262:7271   */\n      dup9\n        /* \"#utility.yul\":7254:7260   */\n      dup7\n        /* \"#utility.yul\":7250:7272   */\n      sub\n        /* \"#utility.yul\":7246:7282   */\n      add\n        /* \"#utility.yul\":7241:7244   */\n      dup5\n        /* \"#utility.yul\":7234:7283   */\n      mstore\n        /* \"#utility.yul\":7306:7352   */\n      tag_445\n        /* \"#utility.yul\":7345:7351   */\n      dup6\n        /* \"#utility.yul\":7336:7342   */\n      dup4\n        /* \"#utility.yul\":7330:7343   */\n      mload\n        /* \"#utility.yul\":7306:7352   */\n      tag_381\n      jump\t// in\n    tag_445:\n        /* \"#utility.yul\":7296:7352   */\n      swap5\n      pop\n        /* \"#utility.yul\":7410:7422   */\n      swap3\n      dup6\n      add\n      swap3\n        /* \"#utility.yul\":7375:7390   */\n      swap1\n      dup6\n      add\n      swap1\n        /* \"#utility.yul\":7207:7208   */\n      0x01\n        /* \"#utility.yul\":7200:7209   */\n      add\n        /* \"#utility.yul\":7171:7432   */\n      jump(tag_442)\n    tag_444:\n      pop\n        /* \"#utility.yul\":7449:7455   */\n      swap3\n      swap8\n        /* \"#utility.yul\":6628:7461   */\n      swap7\n      pop\n      pop\n      pop\n      pop\n      pop\n      pop\n      pop\n      jump\t// out\n        /* \"#utility.yul\":7466:7846   */\n    tag_130:\n        /* \"#utility.yul\":7545:7546   */\n      0x01\n        /* \"#utility.yul\":7541:7553   */\n      dup2\n      dup2\n      shr\n      swap1\n        /* \"#utility.yul\":7588:7600   */\n      dup3\n      and\n      dup1\n        /* \"#utility.yul\":7609:7670   */\n      tag_447\n      jumpi\n        /* \"#utility.yul\":7663:7667   */\n      0x7f\n        /* \"#utility.yul\":7655:7661   */\n      dup3\n        /* \"#utility.yul\":7651:7668   */\n      and\n        /* \"#utility.yul\":7641:7668   */\n      swap2\n      pop\n        /* \"#utility.yul\":7609:7670   */\n    tag_447:\n        /* \"#utility.yul\":7716:7718   */\n      0x20\n        /* \"#utility.yul\":7708:7714   */\n      dup3\n        /* \"#utility.yul\":7705:7719   */\n      lt\n        /* \"#utility.yul\":7685:7703   */\n      dup2\n        /* \"#utility.yul\":7682:7720   */\n      sub\n        /* \"#utility.yul\":7679:7840   */\n      tag_448\n      jumpi\n        /* \"#utility.yul\":7762:7772   */\n      0x4e487b71\n        /* \"#utility.yul\":7757:7760   */\n      0xe0\n        /* \"#utility.yul\":7753:7773   */\n      shl\n        /* \"#utility.yul\":7750:7751   */\n      0x00\n        /* \"#utility.yul\":7743:7774   */\n      mstore\n        /* \"#utility.yul\":7797:7801   */\n      0x22\n        /* \"#utility.yul\":7794:7795   */\n      0x04\n        /* \"#utility.yul\":7787:7802   */\n      mstore\n        /* \"#utility.yul\":7825:7829   */\n      0x24\n        /* \"#utility.yul\":7822:7823   */\n      0x00\n        /* \"#utility.yul\":7815:7830   */\n      revert\n        /* \"#utility.yul\":7679:7840   */\n    tag_448:\n      pop\n        /* \"#utility.yul\":7466:7846   */\n      swap2\n      swap1\n      pop\n      jump\t// out\n        /* \"#utility.yul\":7851:7978   */\n    tag_143:\n        /* \"#utility.yul\":7912:7922   */\n      0x4e487b71\n        /* \"#utility.yul\":7907:7910   */\n      0xe0\n        /* \"#utility.yul\":7903:7923   */\n      shl\n        /* \"#utility.yul\":7900:7901   */\n      0x00\n        /* \"#utility.yul\":7893:7924   */\n      mstore\n        /* \"#utility.yul\":7943:7947   */\n      0x32\n        /* \"#utility.yul\":7940:7941   */\n      0x04\n        /* \"#utility.yul\":7933:7948   */\n      mstore\n        /* \"#utility.yul\":7967:7971   */\n      0x24\n        /* \"#utility.yul\":7964:7965   */\n      0x00\n        /* \"#utility.yul\":7957:7972   */\n      revert\n        /* \"#utility.yul\":8665:8792   */\n    tag_382:\n        /* \"#utility.yul\":8726:8736   */\n      0x4e487b71\n        /* \"#utility.yul\":8721:8724   */\n      0xe0\n        /* \"#utility.yul\":8717:8737   */\n      shl\n        /* \"#utility.yul\":8714:8715   */\n      0x00\n        /* \"#utility.yul\":8707:8738   */\n      mstore\n        /* \"#utility.yul\":8757:8761   */\n      0x11\n        /* \"#utility.yul\":8754:8755   */\n      0x04\n        /* \"#utility.yul\":8747:8762   */\n      mstore\n        /* \"#utility.yul\":8781:8785   */\n      0x24\n        /* \"#utility.yul\":8778:8779   */\n      0x00\n        /* \"#utility.yul\":8771:8786   */\n      revert\n        /* \"#utility.yul\":8797:9014   */\n    tag_159:\n        /* \"#utility.yul\":8837:8838   */\n      0x00\n        /* \"#utility.yul\":8863:8864   */\n      dup3\n        /* \"#utility.yul\":8853:8985   */\n      tag_454\n      jumpi\n        /* \"#utility.yul\":8907:8917   */\n      0x4e487b71\n        /* \"#utility.yul\":8902:8905   */\n      0xe0\n        /* \"#utility.yul\":8898:8918   */\n      shl\n        /* \"#utility.yul\":8895:8896   */\n      0x00\n        /* \"#utility.yul\":8888:8919   */\n      mstore\n        /* \"#utility.yul\":8942:8946   */\n      0x12\n        /* \"#utility.yul\":8939:8940   */\n      0x04\n        /* \"#utility.yul\":8932:8947   */\n      mstore\n        /* \"#utility.yul\":8970:8974   */\n      0x24\n        /* \"#utility.yul\":8967:8968   */\n      0x00\n        /* \"#utility.yul\":8960:8975   */\n      revert\n        /* \"#utility.yul\":8853:8985   */\n    tag_454:\n      pop\n        /* \"#utility.yul\":8999:9008   */\n      div\n      swap1\n        /* \"#utility.yul\":8797:9014   */\n      jump\t// out\n        /* \"#utility.yul\":9298:9575   */\n    tag_167:\n        /* \"#utility.yul\":9365:9371   */\n      0x00\n        /* \"#utility.yul\":9418:9420   */\n      0x20\n        /* \"#utility.yul\":9406:9415   */\n      dup3\n        /* \"#utility.yul\":9397:9404   */\n      dup5\n        /* \"#utility.yul\":9393:9416   */\n      sub\n        /* \"#utility.yul\":9389:9421   */\n      slt\n        /* \"#utility.yul\":9386:9438   */\n      iszero\n      tag_457\n      jumpi\n        /* \"#utility.yul\":9434:9435   */\n      0x00\n        /* \"#utility.yul\":9431:9432   */\n      dup1\n        /* \"#utility.yul\":9424:9436   */\n      revert\n        /* \"#utility.yul\":9386:9438   */\n    tag_457:\n        /* \"#utility.yul\":9466:9475   */\n      dup2\n        /* \"#utility.yul\":9460:9476   */\n      mload\n        /* \"#utility.yul\":9519:9524   */\n      dup1\n        /* \"#utility.yul\":9512:9525   */\n      iszero\n        /* \"#utility.yul\":9505:9526   */\n      iszero\n        /* \"#utility.yul\":9498:9503   */\n      dup2\n        /* \"#utility.yul\":9495:9527   */\n      eq\n        /* \"#utility.yul\":9485:9545   */\n      tag_392\n      jumpi\n        /* \"#utility.yul\":9541:9542   */\n      0x00\n        /* \"#utility.yul\":9538:9539   */\n      dup1\n        /* \"#utility.yul\":9531:9543   */\n      revert\n        /* \"#utility.yul\":9923:10091   */\n    tag_176:\n        /* \"#utility.yul\":9996:10005   */\n      dup1\n      dup3\n      mul\n        /* \"#utility.yul\":10027:10036   */\n      dup2\n      iszero\n        /* \"#utility.yul\":10044:10059   */\n      dup3\n      dup3\n      div\n        /* \"#utility.yul\":10038:10060   */\n      dup5\n      eq\n        /* \"#utility.yul\":10024:10061   */\n      or\n        /* \"#utility.yul\":10014:10085   */\n      tag_135\n      jumpi\n        /* \"#utility.yul\":10065:10083   */\n      tag_135\n      tag_382\n      jump\t// in\n        /* \"#utility.yul\":11266:11811   */\n    tag_384:\n        /* \"#utility.yul\":11368:11370   */\n      0x1f\n        /* \"#utility.yul\":11363:11366   */\n      dup3\n        /* \"#utility.yul\":11360:11371   */\n      gt\n        /* \"#utility.yul\":11357:11805   */\n      iszero\n      tag_331\n      jumpi\n        /* \"#utility.yul\":11404:11405   */\n      0x00\n        /* \"#utility.yul\":11429:11434   */\n      dup2\n        /* \"#utility.yul\":11425:11427   */\n      dup2\n        /* \"#utility.yul\":11418:11435   */\n      mstore\n        /* \"#utility.yul\":11474:11478   */\n      0x20\n        /* \"#utility.yul\":11470:11472   */\n      dup2\n        /* \"#utility.yul\":11460:11479   */\n      keccak256\n        /* \"#utility.yul\":11544:11546   */\n      0x1f\n        /* \"#utility.yul\":11532:11542   */\n      dup6\n        /* \"#utility.yul\":11528:11547   */\n      add\n        /* \"#utility.yul\":11525:11526   */\n      0x05\n        /* \"#utility.yul\":11521:11548   */\n      shr\n        /* \"#utility.yul\":11515:11519   */\n      dup2\n        /* \"#utility.yul\":11511:11549   */\n      add\n        /* \"#utility.yul\":11580:11584   */\n      0x20\n        /* \"#utility.yul\":11568:11578   */\n      dup7\n        /* \"#utility.yul\":11565:11585   */\n      lt\n        /* \"#utility.yul\":11562:11609   */\n      iszero\n      tag_469\n      jumpi\n      pop\n        /* \"#utility.yul\":11603:11607   */\n      dup1\n        /* \"#utility.yul\":11562:11609   */\n    tag_469:\n        /* \"#utility.yul\":11658:11660   */\n      0x1f\n        /* \"#utility.yul\":11653:11656   */\n      dup6\n        /* \"#utility.yul\":11649:11661   */\n      add\n        /* \"#utility.yul\":11646:11647   */\n      0x05\n        /* \"#utility.yul\":11642:11662   */\n      shr\n        /* \"#utility.yul\":11636:11640   */\n      dup3\n        /* \"#utility.yul\":11632:11663   */\n      add\n        /* \"#utility.yul\":11622:11663   */\n      swap2\n      pop\n        /* \"#utility.yul\":11713:11795   */\n    tag_470:\n        /* \"#utility.yul\":11731:11733   */\n      dup2\n        /* \"#utility.yul\":11724:11729   */\n      dup2\n        /* \"#utility.yul\":11721:11734   */\n      lt\n        /* \"#utility.yul\":11713:11795   */\n      iszero\n      tag_472\n      jumpi\n        /* \"#utility.yul\":11776:11793   */\n      dup3\n      dup2\n      sstore\n        /* \"#utility.yul\":11757:11758   */\n      0x01\n        /* \"#utility.yul\":11746:11759   */\n      add\n        /* \"#utility.yul\":11713:11795   */\n      jump(tag_470)\n    tag_472:\n        /* \"#utility.yul\":11717:11720   */\n      pop\n      pop\n      pop\n        /* \"#utility.yul\":11266:11811   */\n      pop\n      pop\n      pop\n      jump\t// out\n        /* \"#utility.yul\":11987:13339   */\n    tag_193:\n        /* \"#utility.yul\":12113:12116   */\n      dup2\n        /* \"#utility.yul\":12107:12117   */\n      mload\n        /* \"#utility.yul\":12140:12158   */\n      0xffffffffffffffff\n        /* \"#utility.yul\":12132:12138   */\n      dup2\n        /* \"#utility.yul\":12129:12159   */\n      gt\n        /* \"#utility.yul\":12126:12182   */\n      iszero\n      tag_476\n      jumpi\n        /* \"#utility.yul\":12162:12180   */\n      tag_476\n      tag_297\n      jump\t// in\n    tag_476:\n        /* \"#utility.yul\":12191:12288   */\n      tag_477\n        /* \"#utility.yul\":12281:12287   */\n      dup2\n        /* \"#utility.yul\":12241:12279   */\n      tag_478\n        /* \"#utility.yul\":12273:12277   */\n      dup5\n        /* \"#utility.yul\":12267:12278   */\n      sload\n        /* \"#utility.yul\":12241:12279   */\n      tag_130\n      jump\t// in\n    tag_478:\n        /* \"#utility.yul\":12235:12239   */\n      dup5\n        /* \"#utility.yul\":12191:12288   */\n      tag_384\n      jump\t// in\n    tag_477:\n        /* \"#utility.yul\":12343:12347   */\n      0x20\n      dup1\n        /* \"#utility.yul\":12407:12409   */\n      0x1f\n        /* \"#utility.yul\":12396:12410   */\n      dup4\n      gt\n        /* \"#utility.yul\":12424:12425   */\n      0x01\n        /* \"#utility.yul\":12419:13082   */\n      dup2\n      eq\n      tag_480\n      jumpi\n        /* \"#utility.yul\":13126:13127   */\n      0x00\n        /* \"#utility.yul\":13143:13149   */\n      dup5\n        /* \"#utility.yul\":13140:13229   */\n      iszero\n      tag_481\n      jumpi\n      pop\n        /* \"#utility.yul\":13195:13214   */\n      dup6\n      dup4\n      add\n        /* \"#utility.yul\":13189:13215   */\n      mload\n        /* \"#utility.yul\":13140:13229   */\n    tag_481:\n      not(0x00)\n        /* \"#utility.yul\":11944:11945   */\n      0x03\n        /* \"#utility.yul\":11940:11951   */\n      dup7\n      swap1\n      shl\n        /* \"#utility.yul\":11936:11960   */\n      shr\n        /* \"#utility.yul\":11932:11961   */\n      not\n        /* \"#utility.yul\":11922:11962   */\n      and\n        /* \"#utility.yul\":11968:11969   */\n      0x01\n        /* \"#utility.yul\":11964:11975   */\n      dup6\n      swap1\n      shl\n        /* \"#utility.yul\":11919:11976   */\n      or\n        /* \"#utility.yul\":13242:13323   */\n      dup6\n      sstore\n        /* \"#utility.yul\":12389:13333   */\n      jump(tag_472)\n        /* \"#utility.yul\":12419:13082   */\n    tag_480:\n        /* \"#utility.yul\":11213:11214   */\n      0x00\n        /* \"#utility.yul\":11206:11220   */\n      dup6\n      dup2\n      mstore\n        /* \"#utility.yul\":11250:11254   */\n      0x20\n        /* \"#utility.yul\":11237:11255   */\n      dup2\n      keccak256\n      not(0x1f)\n        /* \"#utility.yul\":12455:12475   */\n      dup7\n      and\n      swap2\n        /* \"#utility.yul\":12573:12809   */\n    tag_484:\n        /* \"#utility.yul\":12587:12594   */\n      dup3\n        /* \"#utility.yul\":12584:12585   */\n      dup2\n        /* \"#utility.yul\":12581:12595   */\n      lt\n        /* \"#utility.yul\":12573:12809   */\n      iszero\n      tag_486\n      jumpi\n        /* \"#utility.yul\":12676:12695   */\n      dup9\n      dup7\n      add\n        /* \"#utility.yul\":12670:12696   */\n      mload\n        /* \"#utility.yul\":12655:12697   */\n      dup3\n      sstore\n        /* \"#utility.yul\":12768:12795   */\n      swap5\n      dup5\n      add\n      swap5\n        /* \"#utility.yul\":12736:12737   */\n      0x01\n        /* \"#utility.yul\":12724:12738   */\n      swap1\n      swap2\n      add\n      swap1\n        /* \"#utility.yul\":12603:12622   */\n      dup5\n      add\n        /* \"#utility.yul\":12573:12809   */\n      jump(tag_484)\n    tag_486:\n        /* \"#utility.yul\":12577:12580   */\n      pop\n        /* \"#utility.yul\":12837:12843   */\n      dup6\n        /* \"#utility.yul\":12828:12835   */\n      dup3\n        /* \"#utility.yul\":12825:12844   */\n      lt\n        /* \"#utility.yul\":12822:13023   */\n      iszero\n      tag_487\n      jumpi\n        /* \"#utility.yul\":12898:12917   */\n      dup8\n      dup6\n      add\n        /* \"#utility.yul\":12892:12918   */\n      mload\n      not(0x00)\n        /* \"#utility.yul\":12981:12982   */\n      0x03\n        /* \"#utility.yul\":12977:12991   */\n      dup9\n      swap1\n      shl\n        /* \"#utility.yul\":12993:12996   */\n      0xf8\n        /* \"#utility.yul\":12973:12997   */\n      and\n        /* \"#utility.yul\":12969:13006   */\n      shr\n        /* \"#utility.yul\":12965:13007   */\n      not\n        /* \"#utility.yul\":12950:13008   */\n      and\n        /* \"#utility.yul\":12935:13009   */\n      dup2\n      sstore\n        /* \"#utility.yul\":12822:13023   */\n    tag_487:\n      pop\n      pop\n      pop\n      pop\n      pop\n        /* \"#utility.yul\":13069:13070   */\n      0x01\n        /* \"#utility.yul\":13053:13067   */\n      swap1\n      dup2\n      shl\n        /* \"#utility.yul\":13049:13071   */\n      add\n        /* \"#utility.yul\":13036:13072   */\n      swap1\n      sstore\n      pop\n        /* \"#utility.yul\":11987:13339   */\n      jump\t// out\n        /* \"#utility.yul\":13344:13472   */\n    tag_196:\n        /* \"#utility.yul\":13411:13420   */\n      dup2\n      dup2\n      sub\n        /* \"#utility.yul\":13432:13443   */\n      dup2\n      dup2\n      gt\n        /* \"#utility.yul\":13429:13466   */\n      iszero\n      tag_135\n      jumpi\n        /* \"#utility.yul\":13446:13464   */\n      tag_135\n      tag_382\n      jump\t// in\n        /* \"#utility.yul\":13477:13661   */\n    tag_217:\n        /* \"#utility.yul\":13547:13553   */\n      0x00\n        /* \"#utility.yul\":13600:13602   */\n      0x20\n        /* \"#utility.yul\":13588:13597   */\n      dup3\n        /* \"#utility.yul\":13579:13586   */\n      dup5\n        /* \"#utility.yul\":13575:13598   */\n      sub\n        /* \"#utility.yul\":13571:13603   */\n      slt\n        /* \"#utility.yul\":13568:13620   */\n      iszero\n      tag_492\n      jumpi\n        /* \"#utility.yul\":13616:13617   */\n      0x00\n        /* \"#utility.yul\":13613:13614   */\n      dup1\n        /* \"#utility.yul\":13606:13618   */\n      revert\n        /* \"#utility.yul\":13568:13620   */\n    tag_492:\n      pop\n        /* \"#utility.yul\":13639:13655   */\n      mload\n      swap2\n        /* \"#utility.yul\":13477:13661   */\n      swap1\n      pop\n      jump\t// out\n        /* \"#utility.yul\":14002:14127   */\n    tag_227:\n        /* \"#utility.yul\":14067:14076   */\n      dup1\n      dup3\n      add\n        /* \"#utility.yul\":14088:14098   */\n      dup1\n      dup3\n      gt\n        /* \"#utility.yul\":14085:14121   */\n      iszero\n      tag_135\n      jumpi\n        /* \"#utility.yul\":14101:14119   */\n      tag_135\n      tag_382\n      jump\t// in\n        /* \"#utility.yul\":14726:14861   */\n    tag_321:\n        /* \"#utility.yul\":14765:14768   */\n      0x00\n        /* \"#utility.yul\":14786:14803   */\n      0x01\n      dup3\n      add\n        /* \"#utility.yul\":14783:14826   */\n      tag_501\n      jumpi\n        /* \"#utility.yul\":14806:14824   */\n      tag_501\n      tag_382\n      jump\t// in\n    tag_501:\n      pop\n        /* \"#utility.yul\":14853:14854   */\n      0x01\n        /* \"#utility.yul\":14842:14855   */\n      add\n      swap1\n        /* \"#utility.yul\":14726:14861   */\n      jump\t// out\n\n    auxdata: 0xa2646970667358221220cd76bc054f9b7286b2319f7424a569c2b00a432882652b1101de32972756f42e64736f6c63430008140033\n}\n\nsub_1: assembly {\n        /* \"contracts/CredentialVerifier.sol\":150:992  contract CredentialVerifier is Ownable {... */\n      mstore(0x40, 0x80)\n        /* \"contracts/CredentialVerifier.sol\":252:398  constructor(address gitcoinResolverAddress_) Ownable(_msgSender()) {... */\n      callvalue\n      dup1\n      iszero\n      tag_1\n      jumpi\n      0x00\n      dup1\n      revert\n    tag_1:\n      pop\n      mload(0x40)\n      sub(codesize, bytecodeSize)\n      dup1\n      bytecodeSize\n      dup4\n      codecopy\n      dup2\n      add\n      0x40\n      dup2\n      swap1\n      mstore\n      tag_2\n      swap2\n      tag_3\n      jump\t// in\n    tag_2:\n        /* \"@openzeppelin/contracts/utils/Context.sol\":735:745  msg.sender */\n      caller\n      dup1\n        /* \"@openzeppelin/contracts/access/Ownable.sol\":1269:1364  if (initialOwner == address(0)) {... */\n      tag_9\n      jumpi\n        /* \"@openzeppelin/contracts/access/Ownable.sol\":1322:1353  OwnableInvalidOwner(address(0)) */\n      mload(0x40)\n      shl(0xe0, 0x1e4fbdf7)\n      dup2\n      mstore\n        /* \"@openzeppelin/contracts/access/Ownable.sol\":1350:1351  0 */\n      0x00\n        /* \"@openzeppelin/contracts/access/Ownable.sol\":1322:1353  OwnableInvalidOwner(address(0)) */\n      0x04\n      dup3\n      add\n        /* \"#utility.yul\":455:506   */\n      mstore\n        /* \"#utility.yul\":428:446   */\n      0x24\n      add\n        /* \"@openzeppelin/contracts/access/Ownable.sol\":1322:1353  OwnableInvalidOwner(address(0)) */\n      mload(0x40)\n      dup1\n      swap2\n      sub\n      swap1\n      revert\n        /* \"@openzeppelin/contracts/access/Ownable.sol\":1269:1364  if (initialOwner == address(0)) {... */\n    tag_9:\n        /* \"@openzeppelin/contracts/access/Ownable.sol\":1373:1405  _transferOwnership(initialOwner) */\n      tag_12\n        /* \"@openzeppelin/contracts/access/Ownable.sol\":1392:1404  initialOwner */\n      dup2\n        /* \"@openzeppelin/contracts/access/Ownable.sol\":1373:1391  _transferOwnership */\n      tag_13\n        /* \"@openzeppelin/contracts/access/Ownable.sol\":1373:1405  _transferOwnership(initialOwner) */\n      jump\t// in\n    tag_12:\n      pop\n        /* \"contracts/CredentialVerifier.sol\":330:346  _gitcoinResolver */\n      0x01\n        /* \"contracts/CredentialVerifier.sol\":330:390  _gitcoinResolver = IGitcoinResolver(gitcoinResolverAddress_) */\n      dup1\n      sload\n      not(sub(shl(0xa0, 0x01), 0x01))\n      and\n      sub(shl(0xa0, 0x01), 0x01)\n      swap3\n      swap1\n      swap3\n      and\n      swap2\n      swap1\n      swap2\n      or\n      swap1\n      sstore\n        /* \"contracts/CredentialVerifier.sol\":150:992  contract CredentialVerifier is Ownable {... */\n      jump(tag_18)\n        /* \"@openzeppelin/contracts/access/Ownable.sol\":2912:3099  function _transferOwnership(address newOwner) internal virtual {... */\n    tag_13:\n        /* \"@openzeppelin/contracts/access/Ownable.sol\":2985:3001  address oldOwner */\n      0x00\n        /* \"@openzeppelin/contracts/access/Ownable.sol\":3004:3010  _owner */\n      dup1\n      sload\n      sub(shl(0xa0, 0x01), 0x01)\n        /* \"@openzeppelin/contracts/access/Ownable.sol\":3020:3037  _owner = newOwner */\n      dup4\n      dup2\n      and\n      not(sub(shl(0xa0, 0x01), 0x01))\n      dup4\n      and\n      dup2\n      or\n      dup5\n      sstore\n        /* \"@openzeppelin/contracts/access/Ownable.sol\":3052:3092  OwnershipTransferred(oldOwner, newOwner) */\n      mload(0x40)\n        /* \"@openzeppelin/contracts/access/Ownable.sol\":3004:3010  _owner */\n      swap2\n      swap1\n      swap3\n      and\n      swap3\n      dup4\n      swap2\n        /* \"@openzeppelin/contracts/access/Ownable.sol\":3052:3092  OwnershipTransferred(oldOwner, newOwner) */\n      0x8be0079c531659141344cd1fd0a4f28419497f9722a3daafe3b4186f6b6457e0\n      swap2\n        /* \"@openzeppelin/contracts/access/Ownable.sol\":2985:3001  address oldOwner */\n      swap1\n        /* \"@openzeppelin/contracts/access/Ownable.sol\":3052:3092  OwnershipTransferred(oldOwner, newOwner) */\n      log3\n        /* \"@openzeppelin/contracts/access/Ownable.sol\":2975:3099  {... */\n      pop\n        /* \"@openzeppelin/contracts/access/Ownable.sol\":2912:3099  function _transferOwnership(address newOwner) internal virtual {... */\n      pop\n      jump\t// out\n        /* \"#utility.yul\":14:304   */\n    tag_3:\n        /* \"#utility.yul\":84:90   */\n      0x00\n        /* \"#utility.yul\":137:139   */\n      0x20\n        /* \"#utility.yul\":125:134   */\n      dup3\n        /* \"#utility.yul\":116:123   */\n      dup5\n        /* \"#utility.yul\":112:135   */\n      sub\n        /* \"#utility.yul\":108:140   */\n      slt\n        /* \"#utility.yul\":105:157   */\n      iszero\n      tag_20\n      jumpi\n        /* \"#utility.yul\":153:154   */\n      0x00\n        /* \"#utility.yul\":150:151   */\n      dup1\n        /* \"#utility.yul\":143:155   */\n      revert\n        /* \"#utility.yul\":105:157   */\n    tag_20:\n        /* \"#utility.yul\":179:195   */\n      dup2\n      mload\n      sub(shl(0xa0, 0x01), 0x01)\n        /* \"#utility.yul\":224:255   */\n      dup2\n      and\n        /* \"#utility.yul\":214:256   */\n      dup2\n      eq\n        /* \"#utility.yul\":204:274   */\n      tag_21\n      jumpi\n        /* \"#utility.yul\":270:271   */\n      0x00\n        /* \"#utility.yul\":267:268   */\n      dup1\n        /* \"#utility.yul\":260:272   */\n      revert\n        /* \"#utility.yul\":204:274   */\n    tag_21:\n        /* \"#utility.yul\":293:298   */\n      swap4\n        /* \"#utility.yul\":14:304   */\n      swap3\n      pop\n      pop\n      pop\n      jump\t// out\n        /* \"#utility.yul\":309:512   */\n    tag_18:\n        /* \"contracts/CredentialVerifier.sol\":150:992  contract CredentialVerifier is Ownable {... */\n      dataSize(sub_0)\n      dup1\n      dataOffset(sub_0)\n      0x00\n      codecopy\n      0x00\n      return\n    stop\n\n    sub_0: assembly {\n            /* \"contracts/CredentialVerifier.sol\":150:992  contract CredentialVerifier is Ownable {... */\n          mstore(0x40, 0x80)\n          callvalue\n          dup1\n          iszero\n          tag_1\n          jumpi\n          0x00\n          dup1\n          revert\n        tag_1:\n          pop\n          jumpi(tag_2, lt(calldatasize, 0x04))\n          shr(0xe0, calldataload(0x00))\n          dup1\n          0x2ca835a8\n          eq\n          tag_3\n          jumpi\n          dup1\n          0x715018a6\n          eq\n          tag_4\n          jumpi\n          dup1\n          0x8da5cb5b\n          eq\n          tag_5\n          jumpi\n          dup1\n          0xbd75aae8\n          eq\n          tag_6\n          jumpi\n          dup1\n          0xf2fde38b\n          eq\n          tag_7\n          jumpi\n        tag_2:\n          0x00\n          dup1\n          revert\n            /* \"contracts/CredentialVerifier.sol\":406:609  function verifyGitcionPass(address owner, bytes32 uid) public returns (bool) {... */\n        tag_3:\n          tag_8\n          tag_9\n          calldatasize\n          0x04\n          tag_10\n          jump\t// in\n        tag_9:\n          tag_11\n          jump\t// in\n        tag_8:\n          mload(0x40)\n            /* \"#utility.yul\":616:630   */\n          swap1\n          iszero\n            /* \"#utility.yul\":609:631   */\n          iszero\n            /* \"#utility.yul\":591:632   */\n          dup2\n          mstore\n            /* \"#utility.yul\":579:581   */\n          0x20\n            /* \"#utility.yul\":564:582   */\n          add\n            /* \"contracts/CredentialVerifier.sol\":406:609  function verifyGitcionPass(address owner, bytes32 uid) public returns (bool) {... */\n        tag_12:\n          mload(0x40)\n          dup1\n          swap2\n          sub\n          swap1\n          return\n            /* \"@openzeppelin/contracts/access/Ownable.sol\":2293:2394  function renounceOwnership() public virtual onlyOwner {... */\n        tag_4:\n          tag_14\n          tag_15\n          jump\t// in\n        tag_14:\n          stop\n            /* \"@openzeppelin/contracts/access/Ownable.sol\":1638:1723  function owner() public view virtual returns (address) {... */\n        tag_5:\n            /* \"@openzeppelin/contracts/access/Ownable.sol\":1684:1691  address */\n          0x00\n            /* \"@openzeppelin/contracts/access/Ownable.sol\":1710:1716  _owner */\n          sload\n            /* \"@openzeppelin/contracts/access/Ownable.sol\":1638:1723  function owner() public view virtual returns (address) {... */\n          mload(0x40)\n          sub(shl(0xa0, 0x01), 0x01)\n            /* \"@openzeppelin/contracts/access/Ownable.sol\":1710:1716  _owner */\n          swap1\n          swap2\n          and\n            /* \"#utility.yul\":789:840   */\n          dup2\n          mstore\n            /* \"#utility.yul\":777:779   */\n          0x20\n            /* \"#utility.yul\":762:780   */\n          add\n            /* \"@openzeppelin/contracts/access/Ownable.sol\":1638:1723  function owner() public view virtual returns (address) {... */\n          tag_12\n            /* \"#utility.yul\":643:846   */\n          jump\n            /* \"contracts/CredentialVerifier.sol\":617:890  function calcWeight(address owner, bytes32 uid) public returns (uint) {... */\n        tag_6:\n          tag_20\n          tag_21\n          calldatasize\n          0x04\n          tag_10\n          jump\t// in\n        tag_21:\n          tag_22\n          jump\t// in\n        tag_20:\n          mload(0x40)\n            /* \"#utility.yul\":997:1022   */\n          swap1\n          dup2\n          mstore\n            /* \"#utility.yul\":985:987   */\n          0x20\n            /* \"#utility.yul\":970:988   */\n          add\n            /* \"contracts/CredentialVerifier.sol\":617:890  function calcWeight(address owner, bytes32 uid) public returns (uint) {... */\n          tag_12\n            /* \"#utility.yul\":851:1028   */\n          jump\n            /* \"@openzeppelin/contracts/access/Ownable.sol\":2543:2758  function transferOwnership(address newOwner) public virtual onlyOwner {... */\n        tag_7:\n          tag_14\n          tag_26\n          calldatasize\n          0x04\n          tag_27\n          jump\t// in\n        tag_26:\n          tag_28\n          jump\t// in\n            /* \"contracts/CredentialVerifier.sol\":406:609  function verifyGitcionPass(address owner, bytes32 uid) public returns (bool) {... */\n        tag_11:\n            /* \"contracts/CredentialVerifier.sol\":521:525  true */\n          0x01\n            /* \"contracts/CredentialVerifier.sol\":406:609  function verifyGitcionPass(address owner, bytes32 uid) public returns (bool) {... */\n        tag_29:\n          swap3\n          swap2\n          pop\n          pop\n          jump\t// out\n            /* \"@openzeppelin/contracts/access/Ownable.sol\":2293:2394  function renounceOwnership() public virtual onlyOwner {... */\n        tag_15:\n            /* \"@openzeppelin/contracts/access/Ownable.sol\":1531:1544  _checkOwner() */\n          tag_31\n            /* \"@openzeppelin/contracts/access/Ownable.sol\":1531:1542  _checkOwner */\n          tag_32\n            /* \"@openzeppelin/contracts/access/Ownable.sol\":1531:1544  _checkOwner() */\n          jump\t// in\n        tag_31:\n            /* \"@openzeppelin/contracts/access/Ownable.sol\":2357:2387  _transferOwnership(address(0)) */\n          tag_34\n            /* \"@openzeppelin/contracts/access/Ownable.sol\":2384:2385  0 */\n          0x00\n            /* \"@openzeppelin/contracts/access/Ownable.sol\":2357:2375  _transferOwnership */\n          tag_35\n            /* \"@openzeppelin/contracts/access/Ownable.sol\":2357:2387  _transferOwnership(address(0)) */\n          jump\t// in\n        tag_34:\n            /* \"@openzeppelin/contracts/access/Ownable.sol\":2293:2394  function renounceOwnership() public virtual onlyOwner {... */\n          jump\t// out\n            /* \"contracts/CredentialVerifier.sol\":617:890  function calcWeight(address owner, bytes32 uid) public returns (uint) {... */\n        tag_22:\n            /* \"contracts/CredentialVerifier.sol\":829:830  1 */\n          0x01\n            /* \"contracts/CredentialVerifier.sol\":822:830  return 1 */\n          jump(tag_29)\n            /* \"@openzeppelin/contracts/access/Ownable.sol\":2543:2758  function transferOwnership(address newOwner) public virtual onlyOwner {... */\n        tag_28:\n            /* \"@openzeppelin/contracts/access/Ownable.sol\":1531:1544  _checkOwner() */\n          tag_41\n            /* \"@openzeppelin/contracts/access/Ownable.sol\":1531:1542  _checkOwner */\n          tag_32\n            /* \"@openzeppelin/contracts/access/Ownable.sol\":1531:1544  _checkOwner() */\n          jump\t// in\n        tag_41:\n          sub(shl(0xa0, 0x01), 0x01)\n            /* \"@openzeppelin/contracts/access/Ownable.sol\":2627:2649  newOwner == address(0) */\n          dup2\n          and\n            /* \"@openzeppelin/contracts/access/Ownable.sol\":2623:2714  if (newOwner == address(0)) {... */\n          tag_43\n          jumpi\n            /* \"@openzeppelin/contracts/access/Ownable.sol\":2672:2703  OwnableInvalidOwner(address(0)) */\n          mload(0x40)\n          shl(0xe0, 0x1e4fbdf7)\n          dup2\n          mstore\n            /* \"@openzeppelin/contracts/access/Ownable.sol\":2700:2701  0 */\n          0x00\n            /* \"@openzeppelin/contracts/access/Ownable.sol\":2672:2703  OwnableInvalidOwner(address(0)) */\n          0x04\n          dup3\n          add\n            /* \"#utility.yul\":789:840   */\n          mstore\n            /* \"#utility.yul\":762:780   */\n          0x24\n          add\n            /* \"@openzeppelin/contracts/access/Ownable.sol\":2672:2703  OwnableInvalidOwner(address(0)) */\n        tag_44:\n          mload(0x40)\n          dup1\n          swap2\n          sub\n          swap1\n          revert\n            /* \"@openzeppelin/contracts/access/Ownable.sol\":2623:2714  if (newOwner == address(0)) {... */\n        tag_43:\n            /* \"@openzeppelin/contracts/access/Ownable.sol\":2723:2751  _transferOwnership(newOwner) */\n          tag_45\n            /* \"@openzeppelin/contracts/access/Ownable.sol\":2742:2750  newOwner */\n          dup2\n            /* \"@openzeppelin/contracts/access/Ownable.sol\":2723:2741  _transferOwnership */\n          tag_35\n            /* \"@openzeppelin/contracts/access/Ownable.sol\":2723:2751  _transferOwnership(newOwner) */\n          jump\t// in\n        tag_45:\n            /* \"@openzeppelin/contracts/access/Ownable.sol\":2543:2758  function transferOwnership(address newOwner) public virtual onlyOwner {... */\n          pop\n          jump\t// out\n            /* \"@openzeppelin/contracts/access/Ownable.sol\":1796:1958  function _checkOwner() internal view virtual {... */\n        tag_32:\n            /* \"@openzeppelin/contracts/access/Ownable.sol\":1684:1691  address */\n          0x00\n            /* \"@openzeppelin/contracts/access/Ownable.sol\":1710:1716  _owner */\n          sload\n          sub(shl(0xa0, 0x01), 0x01)\n          and\n            /* \"@openzeppelin/contracts/utils/Context.sol\":735:745  msg.sender */\n          caller\n            /* \"@openzeppelin/contracts/access/Ownable.sol\":1855:1878  owner() != _msgSender() */\n          eq\n            /* \"@openzeppelin/contracts/access/Ownable.sol\":1851:1952  if (owner() != _msgSender()) {... */\n          tag_34\n          jumpi\n            /* \"@openzeppelin/contracts/access/Ownable.sol\":1901:1941  OwnableUnauthorizedAccount(_msgSender()) */\n          mload(0x40)\n          shl(0xe0, 0x118cdaa7)\n          dup2\n          mstore\n            /* \"@openzeppelin/contracts/utils/Context.sol\":735:745  msg.sender */\n          caller\n            /* \"@openzeppelin/contracts/access/Ownable.sol\":1901:1941  OwnableUnauthorizedAccount(_msgSender()) */\n          0x04\n          dup3\n          add\n            /* \"#utility.yul\":789:840   */\n          mstore\n            /* \"#utility.yul\":762:780   */\n          0x24\n          add\n            /* \"@openzeppelin/contracts/access/Ownable.sol\":1901:1941  OwnableUnauthorizedAccount(_msgSender()) */\n          tag_44\n            /* \"#utility.yul\":643:846   */\n          jump\n            /* \"@openzeppelin/contracts/access/Ownable.sol\":2912:3099  function _transferOwnership(address newOwner) internal virtual {... */\n        tag_35:\n            /* \"@openzeppelin/contracts/access/Ownable.sol\":2985:3001  address oldOwner */\n          0x00\n            /* \"@openzeppelin/contracts/access/Ownable.sol\":3004:3010  _owner */\n          dup1\n          sload\n          sub(shl(0xa0, 0x01), 0x01)\n            /* \"@openzeppelin/contracts/access/Ownable.sol\":3020:3037  _owner = newOwner */\n          dup4\n          dup2\n          and\n          not(sub(shl(0xa0, 0x01), 0x01))\n          dup4\n          and\n          dup2\n          or\n          dup5\n          sstore\n            /* \"@openzeppelin/contracts/access/Ownable.sol\":3052:3092  OwnershipTransferred(oldOwner, newOwner) */\n          mload(0x40)\n            /* \"@openzeppelin/contracts/access/Ownable.sol\":3004:3010  _owner */\n          swap2\n          swap1\n          swap3\n          and\n          swap3\n          dup4\n          swap2\n            /* \"@openzeppelin/contracts/access/Ownable.sol\":3052:3092  OwnershipTransferred(oldOwner, newOwner) */\n          0x8be0079c531659141344cd1fd0a4f28419497f9722a3daafe3b4186f6b6457e0\n          swap2\n            /* \"@openzeppelin/contracts/access/Ownable.sol\":2985:3001  address oldOwner */\n          swap1\n            /* \"@openzeppelin/contracts/access/Ownable.sol\":3052:3092  OwnershipTransferred(oldOwner, newOwner) */\n          log3\n            /* \"@openzeppelin/contracts/access/Ownable.sol\":2975:3099  {... */\n          pop\n            /* \"@openzeppelin/contracts/access/Ownable.sol\":2912:3099  function _transferOwnership(address newOwner) internal virtual {... */\n          pop\n          jump\t// out\n            /* \"#utility.yul\":14:187   */\n        tag_55:\n            /* \"#utility.yul\":82:102   */\n          dup1\n          calldataload\n          sub(shl(0xa0, 0x01), 0x01)\n            /* \"#utility.yul\":131:162   */\n          dup2\n          and\n            /* \"#utility.yul\":121:163   */\n          dup2\n          eq\n            /* \"#utility.yul\":111:181   */\n          tag_58\n          jumpi\n            /* \"#utility.yul\":177:178   */\n          0x00\n            /* \"#utility.yul\":174:175   */\n          dup1\n            /* \"#utility.yul\":167:179   */\n          revert\n            /* \"#utility.yul\":111:181   */\n        tag_58:\n            /* \"#utility.yul\":14:187   */\n          swap2\n          swap1\n          pop\n          jump\t// out\n            /* \"#utility.yul\":192:446   */\n        tag_10:\n            /* \"#utility.yul\":260:266   */\n          0x00\n            /* \"#utility.yul\":268:274   */\n          dup1\n            /* \"#utility.yul\":321:323   */\n          0x40\n            /* \"#utility.yul\":309:318   */\n          dup4\n            /* \"#utility.yul\":300:307   */\n          dup6\n            /* \"#utility.yul\":296:319   */\n          sub\n            /* \"#utility.yul\":292:324   */\n          slt\n            /* \"#utility.yul\":289:341   */\n          iszero\n          tag_60\n          jumpi\n            /* \"#utility.yul\":337:338   */\n          0x00\n            /* \"#utility.yul\":334:335   */\n          dup1\n            /* \"#utility.yul\":327:339   */\n          revert\n            /* \"#utility.yul\":289:341   */\n        tag_60:\n            /* \"#utility.yul\":360:389   */\n          tag_61\n            /* \"#utility.yul\":379:388   */\n          dup4\n            /* \"#utility.yul\":360:389   */\n          tag_55\n          jump\t// in\n        tag_61:\n            /* \"#utility.yul\":350:389   */\n          swap5\n            /* \"#utility.yul\":436:438   */\n          0x20\n            /* \"#utility.yul\":421:439   */\n          swap4\n          swap1\n          swap4\n          add\n            /* \"#utility.yul\":408:440   */\n          calldataload\n          swap4\n          pop\n          pop\n          pop\n            /* \"#utility.yul\":192:446   */\n          jump\t// out\n            /* \"#utility.yul\":1033:1219   */\n        tag_27:\n            /* \"#utility.yul\":1092:1098   */\n          0x00\n            /* \"#utility.yul\":1145:1147   */\n          0x20\n            /* \"#utility.yul\":1133:1142   */\n          dup3\n            /* \"#utility.yul\":1124:1131   */\n          dup5\n            /* \"#utility.yul\":1120:1143   */\n          sub\n            /* \"#utility.yul\":1116:1148   */\n          slt\n            /* \"#utility.yul\":1113:1165   */\n          iszero\n          tag_66\n          jumpi\n            /* \"#utility.yul\":1161:1162   */\n          0x00\n            /* \"#utility.yul\":1158:1159   */\n          dup1\n            /* \"#utility.yul\":1151:1163   */\n          revert\n            /* \"#utility.yul\":1113:1165   */\n        tag_66:\n            /* \"#utility.yul\":1184:1213   */\n          tag_67\n            /* \"#utility.yul\":1203:1212   */\n          dup3\n            /* \"#utility.yul\":1184:1213   */\n          tag_55\n          jump\t// in\n        tag_67:\n            /* \"#utility.yul\":1174:1213   */\n          swap4\n            /* \"#utility.yul\":1033:1219   */\n          swap3\n          pop\n          pop\n          pop\n          jump\t// out\n\n        auxdata: 0xa264697066735822122060b739706bc2ffe4187c03f614cd620b154157954b354e2990d1d9f2654d9fb864736f6c63430008140033\n    }\n}\n",
				"bytecode": {
					"linkReferences": {},
					"object": "6080604052678ac7230489e800006006553480156200001c575f80fd5b506040805180820182526004808252634249415360e01b6020808401829052845180860190955291845290830152339160036200005a838262000219565b50600462000069828262000219565b5050506001600160a01b0381166200009a57604051631e4fbdf760e01b81525f600482015260240160405180910390fd5b620000a5816200011a565b5073c94abf0292ac04aac18c251d9c8169a8dd2bbbdc604051620000c9906200016b565b6001600160a01b039091168152602001604051809103905ff080158015620000f3573d5f803e3d5ffd5b50600b80546001600160a01b0319166001600160a01b0392909216919091179055620002e1565b600580546001600160a01b038381166001600160a01b0319831681179093556040519116919082907f8be0079c531659141344cd1fd0a4f28419497f9722a3daafe3b4186f6b6457e0905f90a35050565b61035d8062001e6483390190565b634e487b7160e01b5f52604160045260245ffd5b600181811c90821680620001a257607f821691505b602082108103620001c157634e487b7160e01b5f52602260045260245ffd5b50919050565b601f82111562000214575f81815260208120601f850160051c81016020861015620001ef5750805b601f850160051c820191505b818110156200021057828155600101620001fb565b5050505b505050565b81516001600160401b0381111562000235576200023562000179565b6200024d816200024684546200018d565b84620001c7565b602080601f83116001811462000283575f84156200026b5750858301515b5f19600386901b1c1916600185901b17855562000210565b5f85815260208120601f198616915b82811015620002b35788860151825594840194600190910190840162000292565b5085821015620002d157878501515f19600388901b60f8161c191681555b5050505050600190811b01905550565b611b7580620002ef5f395ff3fe608060405234801561000f575f80fd5b5060043610610153575f3560e01c80638da5cb5b116100bf578063b1e95e9411610079578063b1e95e9414610303578063cda411be14610316578063dd62ed3e14610336578063ed2e39a71461036e578063f2fde38b1461038e578063f7cb2657146103a1575f80fd5b80638da5cb5b1461028057806393ad4aca1461029b57806395d89b41146102ba5780639a383dfd146102c2578063a6c2da4c146102e7578063a9059cbb146102f0575f80fd5b8063313ce56711610110578063313ce567146101e557806363b6ad97146101f4578063682290991461021e57806370a082311461023d578063715018a6146102655780638c881eeb1461026d575f80fd5b806306fdde0314610157578063095ea7b3146101755780630962ef79146101985780630a05b17f146101ad57806318160ddd146101c057806323b872dd146101d2575b5f80fd5b61015f6103a9565b60405161016c91906115ad565b60405180910390f35b6101886101833660046115e1565b610439565b604051901515815260200161016c565b6101ab6101a6366004611609565b610452565b005b6101ab6101bb3660046116bd565b610576565b6002545b60405190815260200161016c565b6101886101e0366004611736565b61088f565b6040516012815260200161016c565b6101c461020236600461176f565b600860209081525f928352604080842090915290825290205481565b6101c461022c36600461178f565b600c6020525f908152604090205481565b6101c461024b36600461178f565b6001600160a01b03165f9081526020819052604090205490565b6101ab6108b2565b6101ab61027b3660046117a8565b6108c5565b6005546040516001600160a01b03909116815260200161016c565b6101c46102a9366004611609565b60096020525f908152604090205481565b61015f610bcf565b6102d56102d0366004611609565b610bde565b60405161016c969594939291906117d1565b6101c460065481565b6101886102fe3660046115e1565b610d3b565b6101ab610311366004611609565b610d48565b610329610324366004611609565b610d55565b60405161016c9190611889565b6101c461034436600461189b565b6001600160a01b039182165f90815260016020908152604080832093909416825291909152205490565b61038161037c36600461176f565b610ef9565b60405161016c91906118cc565b6101ab61039c36600461178f565b61112f565b6007546101c4565b6060600380546103b89061192c565b80601f01602080910402602001604051908101604052809291908181526020018280546103e49061192c565b801561042f5780601f106104065761010080835404028352916020019161042f565b820191905f5260205f20905b81548152906001019060200180831161041257829003601f168201915b5050505050905090565b5f33610446818585611169565b60019150505b92915050565b6007818154811061046557610465611964565b905f5260205f2090600602016005015460095f8381526020019081526020015f205410156104c95760405162461bcd60e51b815260206004820152600c60248201526b1b9bdd08199a5b9a5cda195960a21b60448201526064015b60405180910390fd5b336001600160a01b0316600782815481106104e6576104e6611964565b5f9182526020909120600690910201546001600160a01b03161461053b5760405162461bcd60e51b815260206004820152600c60248201526b37b7363c9031b932b0ba37b960a11b60448201526064016104c0565b6105733360056007848154811061055457610554611964565b905f5260205f2090600602016004015461056e919061198c565b61117b565b50565b600b5460405163059506b560e31b8152336004820152602481018390526001600160a01b0390911690632ca835a8906044016020604051808303815f875af11580156105c4573d5f803e3d5ffd5b505050506040513d601f19601f820116820180604052508101906105e891906119ab565b6106255760405162461bcd60e51b815260206004820152600e60248201526d1b9bdd08185d5d1a1bdc9a5e995960921b60448201526064016104c0565b60075415806106665750335f9081526020819052604090205483111580156106665750600a6006548361065891906119ca565b610662919061198c565b8310155b6106a75760405162461bcd60e51b8152602060048201526012602482015271696e73756666696369656e742066756e647360701b60448201526064016104c0565b5f82116106e75760405162461bcd60e51b815260206004820152600e60248201526d696e76616c696420706172616d7360901b60448201526064016104c0565b335f908152600a6020526040902054156107435760405162461bcd60e51b815260206004820152601960248201527f6f6e6c7920616c6c6f77206f6e65206c69766520746f7069630000000000000060448201526064016104c0565b5f61074d60075490565b111561075d5761075d33846111b3565b6040805160c0810182523381524260208201908152918101878152606082018790526080820186905260a08201859052600780546001810182555f9190915282517fa66cc928b5edb82af9bd49922954155ab7b0942694bea4ce44661d9a8736c688600690920291820180546001600160a01b0319166001600160a01b0390921691909117815593517fa66cc928b5edb82af9bd49922954155ab7b0942694bea4ce44661d9a8736c68982015590519192917fa66cc928b5edb82af9bd49922954155ab7b0942694bea4ce44661d9a8736c68a9091019061083e9082611a2e565b50606082015160038201906108539082611a2e565b506080820151600482015560a09091015160059091015560075461087990600190611aea565b335f908152600a60205260409020555050505050565b5f3361089c8582856111e7565b6108a785858561125c565b506001949350505050565b6108ba6112b9565b6108c35f6112e6565b565b600b546040516317aeb55d60e31b8152336004820152602481018390525f916001600160a01b03169063bd75aae8906044016020604051808303815f875af1158015610913573d5f803e3d5ffd5b505050506040513d601f19601f820116820180604052508101906109379190611afd565b90505f81116109795760405162461bcd60e51b815260206004820152600e60248201526d1b9bdd08185d5d1a1bdc9a5e995960921b60448201526064016104c0565b6007848154811061098c5761098c611964565b905f5260205f2090600602016005015460095f8681526020019081526020015f2054106109e65760405162461bcd60e51b8152602060048201526008602482015267199a5b9a5cda195960c21b60448201526064016104c0565b335f908152600c6020526040902054610a03906201518090611b14565b421015610a415760405162461bcd60e51b815260206004820152600c60248201526b6f6e6365207065722064617960a01b60448201526064016104c0565b335f818152600c6020526040902042905560078054610ac192919087908110610a6c57610a6c611964565b905f5260205f2090600602016005015460078781548110610a8f57610a8f611964565b905f5260205f20906006020160040154610aa9919061198c565b83600654610ab791906119ca565b61056e9190611b14565b5f848152600960205260408120805460019290610adf908490611b14565b90915550505f84815260086020908152604080832086845290915281208054839290610b0c908490611b14565b90915550506040805184815260208101839052859133917f6c7eb2743ec28489909706ea440d909129004996be657d36c6e9add778546abf910160405180910390a360078481548110610b6157610b61611964565b905f5260205f2090600602016005015460095f8681526020019081526020015f205403610bc9575f600a5f60078781548110610b9f57610b9f611964565b5f91825260208083206006909202909101546001600160a01b031683528201929092526040019020555b50505050565b6060600480546103b89061192c565b60078181548110610bed575f80fd5b5f9182526020909120600690910201805460018201546002830180546001600160a01b039093169450909291610c229061192c565b80601f0160208091040260200160405190810160405280929190818152602001828054610c4e9061192c565b8015610c995780601f10610c7057610100808354040283529160200191610c99565b820191905f5260205f20905b815481529060010190602001808311610c7c57829003601f168201915b505050505090806003018054610cae9061192c565b80601f0160208091040260200160405190810160405280929190818152602001828054610cda9061192c565b8015610d255780601f10610cfc57610100808354040283529160200191610d25565b820191905f5260205f20905b815481529060010190602001808311610d0857829003601f168201915b5050505050908060040154908060050154905086565b5f3361044681858561125c565b610d506112b9565b600655565b610d5d61152f565b60078281548110610d7057610d70611964565b905f5260205f2090600602016040518060c00160405290815f82015f9054906101000a90046001600160a01b03166001600160a01b03166001600160a01b0316815260200160018201548152602001600282018054610dce9061192c565b80601f0160208091040260200160405190810160405280929190818152602001828054610dfa9061192c565b8015610e455780601f10610e1c57610100808354040283529160200191610e45565b820191905f5260205f20905b815481529060010190602001808311610e2857829003601f168201915b50505050508152602001600382018054610e5e9061192c565b80601f0160208091040260200160405190810160405280929190818152602001828054610e8a9061192c565b8015610ed55780601f10610eac57610100808354040283529160200191610ed5565b820191905f5260205f20905b815481529060010190602001808311610eb857829003601f168201915b50505050508152602001600482015481526020016005820154815250509050919050565b60608167ffffffffffffffff811115610f1457610f14611620565b604051908082528060200260200182016040528015610f4d57816020015b610f3a61152f565b815260200190600190039081610f325790505b5090505f5b82811015611128576007610f668583611b14565b81548110610f7657610f76611964565b905f5260205f2090600602016040518060c00160405290815f82015f9054906101000a90046001600160a01b03166001600160a01b03166001600160a01b0316815260200160018201548152602001600282018054610fd49061192c565b80601f01602080910402602001604051908101604052809291908181526020018280546110009061192c565b801561104b5780601f106110225761010080835404028352916020019161104b565b820191905f5260205f20905b81548152906001019060200180831161102e57829003601f168201915b505050505081526020016003820180546110649061192c565b80601f01602080910402602001604051908101604052809291908181526020018280546110909061192c565b80156110db5780601f106110b2576101008083540402835291602001916110db565b820191905f5260205f20905b8154815290600101906020018083116110be57829003601f168201915b505050505081526020016004820154815260200160058201548152505082828151811061110a5761110a611964565b6020026020010181905250808061112090611b27565b915050610f52565b5092915050565b6111376112b9565b6001600160a01b03811661116057604051631e4fbdf760e01b81525f60048201526024016104c0565b610573816112e6565b6111768383836001611337565b505050565b6001600160a01b0382166111a45760405163ec442f0560e01b81525f60048201526024016104c0565b6111af5f8383611409565b5050565b6001600160a01b0382166111dc57604051634b637e8f60e11b81525f60048201526024016104c0565b6111af825f83611409565b6001600160a01b038381165f908152600160209081526040808320938616835292905220545f198114610bc9578181101561124e57604051637dc7a0d960e11b81526001600160a01b038416600482015260248101829052604481018390526064016104c0565b610bc984848484035f611337565b6001600160a01b03831661128557604051634b637e8f60e11b81525f60048201526024016104c0565b6001600160a01b0382166112ae5760405163ec442f0560e01b81525f60048201526024016104c0565b611176838383611409565b6005546001600160a01b031633146108c35760405163118cdaa760e01b81523360048201526024016104c0565b600580546001600160a01b038381166001600160a01b0319831681179093556040519116919082907f8be0079c531659141344cd1fd0a4f28419497f9722a3daafe3b4186f6b6457e0905f90a35050565b6001600160a01b0384166113605760405163e602df0560e01b81525f60048201526024016104c0565b6001600160a01b03831661138957604051634a1406b160e11b81525f60048201526024016104c0565b6001600160a01b038085165f9081526001602090815260408083209387168352929052208290558015610bc957826001600160a01b0316846001600160a01b03167f8c5be1e5ebec7d5bd14f71427d1e84f3dd0314c0f7b2291e5b200ac8c7c3b925846040516113fb91815260200190565b60405180910390a350505050565b6001600160a01b038316611433578060025f8282546114289190611b14565b909155506114a39050565b6001600160a01b0383165f90815260208190526040902054818110156114855760405163391434e360e21b81526001600160a01b038516600482015260248101829052604481018390526064016104c0565b6001600160a01b0384165f9081526020819052604090209082900390555b6001600160a01b0382166114bf576002805482900390556114dd565b6001600160a01b0382165f9081526020819052604090208054820190555b816001600160a01b0316836001600160a01b03167fddf252ad1be2c89b69c2b068fc378daa952ba7f163c4a11628f55a4df523b3ef8360405161152291815260200190565b60405180910390a3505050565b6040518060c001604052805f6001600160a01b031681526020015f815260200160608152602001606081526020015f81526020015f81525090565b5f81518084525f5b8181101561158e57602081850181015186830182015201611572565b505f602082860101526020601f19601f83011685010191505092915050565b602081525f6115bf602083018461156a565b9392505050565b80356001600160a01b03811681146115dc575f80fd5b919050565b5f80604083850312156115f2575f80fd5b6115fb836115c6565b946020939093013593505050565b5f60208284031215611619575f80fd5b5035919050565b634e487b7160e01b5f52604160045260245ffd5b5f82601f830112611643575f80fd5b813567ffffffffffffffff8082111561165e5761165e611620565b604051601f8301601f19908116603f0116810190828211818310171561168657611686611620565b8160405283815286602085880101111561169e575f80fd5b836020870160208301375f602085830101528094505050505092915050565b5f805f805f60a086880312156116d1575f80fd5b853567ffffffffffffffff808211156116e8575f80fd5b6116f489838a01611634565b96506020880135915080821115611709575f80fd5b5061171688828901611634565b959895975050505060408401359360608101359360809091013592509050565b5f805f60608486031215611748575f80fd5b611751846115c6565b925061175f602085016115c6565b9150604084013590509250925092565b5f8060408385031215611780575f80fd5b50508035926020909101359150565b5f6020828403121561179f575f80fd5b6115bf826115c6565b5f805f606084860312156117ba575f80fd5b505081359360208301359350604090920135919050565b60018060a01b038716815285602082015260c060408201525f6117f760c083018761156a565b8281036060840152611809818761156a565b6080840195909552505060a00152949350505050565b60018060a01b038151168252602081015160208301525f604082015160c0604085015261184f60c085018261156a565b905060608301518482036060860152611868828261156a565b9150506080830151608085015260a083015160a08501528091505092915050565b602081525f6115bf602083018461181f565b5f80604083850312156118ac575f80fd5b6118b5836115c6565b91506118c3602084016115c6565b90509250929050565b5f602080830181845280855180835260408601915060408160051b87010192508387015f5b8281101561191f57603f1988860301845261190d85835161181f565b945092850192908501906001016118f1565b5092979650505050505050565b600181811c9082168061194057607f821691505b60208210810361195e57634e487b7160e01b5f52602260045260245ffd5b50919050565b634e487b7160e01b5f52603260045260245ffd5b634e487b7160e01b5f52601160045260245ffd5b5f826119a657634e487b7160e01b5f52601260045260245ffd5b500490565b5f602082840312156119bb575f80fd5b815180151581146115bf575f80fd5b808202811582820484141761044c5761044c611978565b601f821115611176575f81815260208120601f850160051c81016020861015611a075750805b601f850160051c820191505b81811015611a2657828155600101611a13565b505050505050565b815167ffffffffffffffff811115611a4857611a48611620565b611a5c81611a56845461192c565b846119e1565b602080601f831160018114611a8f575f8415611a785750858301515b5f19600386901b1c1916600185901b178555611a26565b5f85815260208120601f198616915b82811015611abd57888601518255948401946001909101908401611a9e565b5085821015611ada57878501515f19600388901b60f8161c191681555b5050505050600190811b01905550565b8181038181111561044c5761044c611978565b5f60208284031215611b0d575f80fd5b5051919050565b8082018082111561044c5761044c611978565b5f60018201611b3857611b38611978565b506001019056fea2646970667358221220cd76bc054f9b7286b2319f7424a569c2b00a432882652b1101de32972756f42e64736f6c63430008140033608060405234801561000f575f80fd5b5060405161035d38038061035d83398101604081905261002e916100d1565b338061005357604051631e4fbdf760e01b81525f600482015260240160405180910390fd5b61005c81610082565b50600180546001600160a01b0319166001600160a01b03929092169190911790556100fe565b5f80546001600160a01b038381166001600160a01b0319831681178455604051919092169283917f8be0079c531659141344cd1fd0a4f28419497f9722a3daafe3b4186f6b6457e09190a35050565b5f602082840312156100e1575f80fd5b81516001600160a01b03811681146100f7575f80fd5b9392505050565b6102528061010b5f395ff3fe608060405234801561000f575f80fd5b5060043610610055575f3560e01c80632ca835a814610059578063715018a6146100815780638da5cb5b1461008b578063bd75aae8146100a5578063f2fde38b146100c6575b5f80fd5b61006c6100673660046101d4565b6100d9565b60405190151581526020015b60405180910390f35b6100896100e2565b005b5f546040516001600160a01b039091168152602001610078565b6100b86100b33660046101d4565b6100f5565b604051908152602001610078565b6100896100d43660046101fc565b6100fc565b60015b92915050565b6100ea61013e565b6100f35f61016a565b565b60016100dc565b61010461013e565b6001600160a01b03811661013257604051631e4fbdf760e01b81525f60048201526024015b60405180910390fd5b61013b8161016a565b50565b5f546001600160a01b031633146100f35760405163118cdaa760e01b8152336004820152602401610129565b5f80546001600160a01b038381166001600160a01b0319831681178455604051919092169283917f8be0079c531659141344cd1fd0a4f28419497f9722a3daafe3b4186f6b6457e09190a35050565b80356001600160a01b03811681146101cf575f80fd5b919050565b5f80604083850312156101e5575f80fd5b6101ee836101b9565b946020939093013593505050565b5f6020828403121561020c575f80fd5b610215826101b9565b939250505056fea264697066735822122060b739706bc2ffe4187c03f614cd620b154157954b354e2990d1d9f2654d9fb864736f6c63430008140033",
					"opcodes": "PUSH1 0x80 PUSH1 0x40 MSTORE PUSH8 0x8AC7230489E80000 PUSH1 0x6 SSTORE CALLVALUE DUP1 ISZERO PUSH3 0x1C JUMPI PUSH0 DUP1 REVERT JUMPDEST POP PUSH1 0x40 DUP1 MLOAD DUP1 DUP3 ADD DUP3 MSTORE PUSH1 0x4 DUP1 DUP3 MSTORE PUSH4 0x42494153 PUSH1 0xE0 SHL PUSH1 0x20 DUP1 DUP5 ADD DUP3 SWAP1 MSTORE DUP5 MLOAD DUP1 DUP7 ADD SWAP1 SWAP6 MSTORE SWAP2 DUP5 MSTORE SWAP1 DUP4 ADD MSTORE CALLER SWAP2 PUSH1 0x3 PUSH3 0x5A DUP4 DUP3 PUSH3 0x219 JUMP JUMPDEST POP PUSH1 0x4 PUSH3 0x69 DUP3 DUP3 PUSH3 0x219 JUMP JUMPDEST POP POP POP PUSH1 0x1 PUSH1 0x1 PUSH1 0xA0 SHL SUB DUP2 AND PUSH3 0x9A JUMPI PUSH1 0x40 MLOAD PUSH4 0x1E4FBDF7 PUSH1 0xE0 SHL DUP2 MSTORE PUSH0 PUSH1 0x4 DUP3 ADD MSTORE PUSH1 0x24 ADD PUSH1 0x40 MLOAD DUP1 SWAP2 SUB SWAP1 REVERT JUMPDEST PUSH3 0xA5 DUP2 PUSH3 0x11A JUMP JUMPDEST POP PUSH20 0xC94ABF0292AC04AAC18C251D9C8169A8DD2BBBDC PUSH1 0x40 MLOAD PUSH3 0xC9 SWAP1 PUSH3 0x16B JUMP JUMPDEST PUSH1 0x1 PUSH1 0x1 PUSH1 0xA0 SHL SUB SWAP1 SWAP2 AND DUP2 MSTORE PUSH1 0x20 ADD PUSH1 0x40 MLOAD DUP1 SWAP2 SUB SWAP1 PUSH0 CREATE DUP1 ISZERO DUP1 ISZERO PUSH3 0xF3 JUMPI RETURNDATASIZE PUSH0 DUP1 RETURNDATACOPY RETURNDATASIZE PUSH0 REVERT JUMPDEST POP PUSH1 0xB DUP1 SLOAD PUSH1 0x1 PUSH1 0x1 PUSH1 0xA0 SHL SUB NOT AND PUSH1 0x1 PUSH1 0x1 PUSH1 0xA0 SHL SUB SWAP3 SWAP1 SWAP3 AND SWAP2 SWAP1 SWAP2 OR SWAP1 SSTORE PUSH3 0x2E1 JUMP JUMPDEST PUSH1 0x5 DUP1 SLOAD PUSH1 0x1 PUSH1 0x1 PUSH1 0xA0 SHL SUB DUP4 DUP2 AND PUSH1 0x1 PUSH1 0x1 PUSH1 0xA0 SHL SUB NOT DUP4 AND DUP2 OR SWAP1 SWAP4 SSTORE PUSH1 0x40 MLOAD SWAP2 AND SWAP2 SWAP1 DUP3 SWAP1 PUSH32 0x8BE0079C531659141344CD1FD0A4F28419497F9722A3DAAFE3B4186F6B6457E0 SWAP1 PUSH0 SWAP1 LOG3 POP POP JUMP JUMPDEST PUSH2 0x35D DUP1 PUSH3 0x1E64 DUP4 CODECOPY ADD SWAP1 JUMP JUMPDEST PUSH4 0x4E487B71 PUSH1 0xE0 SHL PUSH0 MSTORE PUSH1 0x41 PUSH1 0x4 MSTORE PUSH1 0x24 PUSH0 REVERT JUMPDEST PUSH1 0x1 DUP2 DUP2 SHR SWAP1 DUP3 AND DUP1 PUSH3 0x1A2 JUMPI PUSH1 0x7F DUP3 AND SWAP2 POP JUMPDEST PUSH1 0x20 DUP3 LT DUP2 SUB PUSH3 0x1C1 JUMPI PUSH4 0x4E487B71 PUSH1 0xE0 SHL PUSH0 MSTORE PUSH1 0x22 PUSH1 0x4 MSTORE PUSH1 0x24 PUSH0 REVERT JUMPDEST POP SWAP2 SWAP1 POP JUMP JUMPDEST PUSH1 0x1F DUP3 GT ISZERO PUSH3 0x214 JUMPI PUSH0 DUP2 DUP2 MSTORE PUSH1 0x20 DUP2 KECCAK256 PUSH1 0x1F DUP6 ADD PUSH1 0x5 SHR DUP2 ADD PUSH1 0x20 DUP7 LT ISZERO PUSH3 0x1EF JUMPI POP DUP1 JUMPDEST PUSH1 0x1F DUP6 ADD PUSH1 0x5 SHR DUP3 ADD SWAP2 POP JUMPDEST DUP2 DUP2 LT ISZERO PUSH3 0x210 JUMPI DUP3 DUP2 SSTORE PUSH1 0x1 ADD PUSH3 0x1FB JUMP JUMPDEST POP POP POP JUMPDEST POP POP POP JUMP JUMPDEST DUP2 MLOAD PUSH1 0x1 PUSH1 0x1 PUSH1 0x40 SHL SUB DUP2 GT ISZERO PUSH3 0x235 JUMPI PUSH3 0x235 PUSH3 0x179 JUMP JUMPDEST PUSH3 0x24D DUP2 PUSH3 0x246 DUP5 SLOAD PUSH3 0x18D JUMP JUMPDEST DUP5 PUSH3 0x1C7 JUMP JUMPDEST PUSH1 0x20 DUP1 PUSH1 0x1F DUP4 GT PUSH1 0x1 DUP2 EQ PUSH3 0x283 JUMPI PUSH0 DUP5 ISZERO PUSH3 0x26B JUMPI POP DUP6 DUP4 ADD MLOAD JUMPDEST PUSH0 NOT PUSH1 0x3 DUP7 SWAP1 SHL SHR NOT AND PUSH1 0x1 DUP6 SWAP1 SHL OR DUP6 SSTORE PUSH3 0x210 JUMP JUMPDEST PUSH0 DUP6 DUP2 MSTORE PUSH1 0x20 DUP2 KECCAK256 PUSH1 0x1F NOT DUP7 AND SWAP2 JUMPDEST DUP3 DUP2 LT ISZERO PUSH3 0x2B3 JUMPI DUP9 DUP7 ADD MLOAD DUP3 SSTORE SWAP5 DUP5 ADD SWAP5 PUSH1 0x1 SWAP1 SWAP2 ADD SWAP1 DUP5 ADD PUSH3 0x292 JUMP JUMPDEST POP DUP6 DUP3 LT ISZERO PUSH3 0x2D1 JUMPI DUP8 DUP6 ADD MLOAD PUSH0 NOT PUSH1 0x3 DUP9 SWAP1 SHL PUSH1 0xF8 AND SHR NOT AND DUP2 SSTORE JUMPDEST POP POP POP POP POP PUSH1 0x1 SWAP1 DUP2 SHL ADD SWAP1 SSTORE POP JUMP JUMPDEST PUSH2 0x1B75 DUP1 PUSH3 0x2EF PUSH0 CODECOPY PUSH0 RETURN INVALID PUSH1 0x80 PUSH1 0x40 MSTORE CALLVALUE DUP1 ISZERO PUSH2 0xF JUMPI PUSH0 DUP1 REVERT JUMPDEST POP PUSH1 0x4 CALLDATASIZE LT PUSH2 0x153 JUMPI PUSH0 CALLDATALOAD PUSH1 0xE0 SHR DUP1 PUSH4 0x8DA5CB5B GT PUSH2 0xBF JUMPI DUP1 PUSH4 0xB1E95E94 GT PUSH2 0x79 JUMPI DUP1 PUSH4 0xB1E95E94 EQ PUSH2 0x303 JUMPI DUP1 PUSH4 0xCDA411BE EQ PUSH2 0x316 JUMPI DUP1 PUSH4 0xDD62ED3E EQ PUSH2 0x336 JUMPI DUP1 PUSH4 0xED2E39A7 EQ PUSH2 0x36E JUMPI DUP1 PUSH4 0xF2FDE38B EQ PUSH2 0x38E JUMPI DUP1 PUSH4 0xF7CB2657 EQ PUSH2 0x3A1 JUMPI PUSH0 DUP1 REVERT JUMPDEST DUP1 PUSH4 0x8DA5CB5B EQ PUSH2 0x280 JUMPI DUP1 PUSH4 0x93AD4ACA EQ PUSH2 0x29B JUMPI DUP1 PUSH4 0x95D89B41 EQ PUSH2 0x2BA JUMPI DUP1 PUSH4 0x9A383DFD EQ PUSH2 0x2C2 JUMPI DUP1 PUSH4 0xA6C2DA4C EQ PUSH2 0x2E7 JUMPI DUP1 PUSH4 0xA9059CBB EQ PUSH2 0x2F0 JUMPI PUSH0 DUP1 REVERT JUMPDEST DUP1 PUSH4 0x313CE567 GT PUSH2 0x110 JUMPI DUP1 PUSH4 0x313CE567 EQ PUSH2 0x1E5 JUMPI DUP1 PUSH4 0x63B6AD97 EQ PUSH2 0x1F4 JUMPI DUP1 PUSH4 0x68229099 EQ PUSH2 0x21E JUMPI DUP1 PUSH4 0x70A08231 EQ PUSH2 0x23D JUMPI DUP1 PUSH4 0x715018A6 EQ PUSH2 0x265 JUMPI DUP1 PUSH4 0x8C881EEB EQ PUSH2 0x26D JUMPI PUSH0 DUP1 REVERT JUMPDEST DUP1 PUSH4 0x6FDDE03 EQ PUSH2 0x157 JUMPI DUP1 PUSH4 0x95EA7B3 EQ PUSH2 0x175 JUMPI DUP1 PUSH4 0x962EF79 EQ PUSH2 0x198 JUMPI DUP1 PUSH4 0xA05B17F EQ PUSH2 0x1AD JUMPI DUP1 PUSH4 0x18160DDD EQ PUSH2 0x1C0 JUMPI DUP1 PUSH4 0x23B872DD EQ PUSH2 0x1D2 JUMPI JUMPDEST PUSH0 DUP1 REVERT JUMPDEST PUSH2 0x15F PUSH2 0x3A9 JUMP JUMPDEST PUSH1 0x40 MLOAD PUSH2 0x16C SWAP2 SWAP1 PUSH2 0x15AD JUMP JUMPDEST PUSH1 0x40 MLOAD DUP1 SWAP2 SUB SWAP1 RETURN JUMPDEST PUSH2 0x188 PUSH2 0x183 CALLDATASIZE PUSH1 0x4 PUSH2 0x15E1 JUMP JUMPDEST PUSH2 0x439 JUMP JUMPDEST PUSH1 0x40 MLOAD SWAP1 ISZERO ISZERO DUP2 MSTORE PUSH1 0x20 ADD PUSH2 0x16C JUMP JUMPDEST PUSH2 0x1AB PUSH2 0x1A6 CALLDATASIZE PUSH1 0x4 PUSH2 0x1609 JUMP JUMPDEST PUSH2 0x452 JUMP JUMPDEST STOP JUMPDEST PUSH2 0x1AB PUSH2 0x1BB CALLDATASIZE PUSH1 0x4 PUSH2 0x16BD JUMP JUMPDEST PUSH2 0x576 JUMP JUMPDEST PUSH1 0x2 SLOAD JUMPDEST PUSH1 0x40 MLOAD SWAP1 DUP2 MSTORE PUSH1 0x20 ADD PUSH2 0x16C JUMP JUMPDEST PUSH2 0x188 PUSH2 0x1E0 CALLDATASIZE PUSH1 0x4 PUSH2 0x1736 JUMP JUMPDEST PUSH2 0x88F JUMP JUMPDEST PUSH1 0x40 MLOAD PUSH1 0x12 DUP2 MSTORE PUSH1 0x20 ADD PUSH2 0x16C JUMP JUMPDEST PUSH2 0x1C4 PUSH2 0x202 CALLDATASIZE PUSH1 0x4 PUSH2 0x176F JUMP JUMPDEST PUSH1 0x8 PUSH1 0x20 SWAP1 DUP2 MSTORE PUSH0 SWAP3 DUP4 MSTORE PUSH1 0x40 DUP1 DUP5 KECCAK256 SWAP1 SWAP2 MSTORE SWAP1 DUP3 MSTORE SWAP1 KECCAK256 SLOAD DUP2 JUMP JUMPDEST PUSH2 0x1C4 PUSH2 0x22C CALLDATASIZE PUSH1 0x4 PUSH2 0x178F JUMP JUMPDEST PUSH1 0xC PUSH1 0x20 MSTORE PUSH0 SWAP1 DUP2 MSTORE PUSH1 0x40 SWAP1 KECCAK256 SLOAD DUP2 JUMP JUMPDEST PUSH2 0x1C4 PUSH2 0x24B CALLDATASIZE PUSH1 0x4 PUSH2 0x178F JUMP JUMPDEST PUSH1 0x1 PUSH1 0x1 PUSH1 0xA0 SHL SUB AND PUSH0 SWAP1 DUP2 MSTORE PUSH1 0x20 DUP2 SWAP1 MSTORE PUSH1 0x40 SWAP1 KECCAK256 SLOAD SWAP1 JUMP JUMPDEST PUSH2 0x1AB PUSH2 0x8B2 JUMP JUMPDEST PUSH2 0x1AB PUSH2 0x27B CALLDATASIZE PUSH1 0x4 PUSH2 0x17A8 JUMP JUMPDEST PUSH2 0x8C5 JUMP JUMPDEST PUSH1 0x5 SLOAD PUSH1 0x40 MLOAD PUSH1 0x1 PUSH1 0x1 PUSH1 0xA0 SHL SUB SWAP1 SWAP2 AND DUP2 MSTORE PUSH1 0x20 ADD PUSH2 0x16C JUMP JUMPDEST PUSH2 0x1C4 PUSH2 0x2A9 CALLDATASIZE PUSH1 0x4 PUSH2 0x1609 JUMP JUMPDEST PUSH1 0x9 PUSH1 0x20 MSTORE PUSH0 SWAP1 DUP2 MSTORE PUSH1 0x40 SWAP1 KECCAK256 SLOAD DUP2 JUMP JUMPDEST PUSH2 0x15F PUSH2 0xBCF JUMP JUMPDEST PUSH2 0x2D5 PUSH2 0x2D0 CALLDATASIZE PUSH1 0x4 PUSH2 0x1609 JUMP JUMPDEST PUSH2 0xBDE JUMP JUMPDEST PUSH1 0x40 MLOAD PUSH2 0x16C SWAP7 SWAP6 SWAP5 SWAP4 SWAP3 SWAP2 SWAP1 PUSH2 0x17D1 JUMP JUMPDEST PUSH2 0x1C4 PUSH1 0x6 SLOAD DUP2 JUMP JUMPDEST PUSH2 0x188 PUSH2 0x2FE CALLDATASIZE PUSH1 0x4 PUSH2 0x15E1 JUMP JUMPDEST PUSH2 0xD3B JUMP JUMPDEST PUSH2 0x1AB PUSH2 0x311 CALLDATASIZE PUSH1 0x4 PUSH2 0x1609 JUMP JUMPDEST PUSH2 0xD48 JUMP JUMPDEST PUSH2 0x329 PUSH2 0x324 CALLDATASIZE PUSH1 0x4 PUSH2 0x1609 JUMP JUMPDEST PUSH2 0xD55 JUMP JUMPDEST PUSH1 0x40 MLOAD PUSH2 0x16C SWAP2 SWAP1 PUSH2 0x1889 JUMP JUMPDEST PUSH2 0x1C4 PUSH2 0x344 CALLDATASIZE PUSH1 0x4 PUSH2 0x189B JUMP JUMPDEST PUSH1 0x1 PUSH1 0x1 PUSH1 0xA0 SHL SUB SWAP2 DUP3 AND PUSH0 SWAP1 DUP2 MSTORE PUSH1 0x1 PUSH1 0x20 SWAP1 DUP2 MSTORE PUSH1 0x40 DUP1 DUP4 KECCAK256 SWAP4 SWAP1 SWAP5 AND DUP3 MSTORE SWAP2 SWAP1 SWAP2 MSTORE KECCAK256 SLOAD SWAP1 JUMP JUMPDEST PUSH2 0x381 PUSH2 0x37C CALLDATASIZE PUSH1 0x4 PUSH2 0x176F JUMP JUMPDEST PUSH2 0xEF9 JUMP JUMPDEST PUSH1 0x40 MLOAD PUSH2 0x16C SWAP2 SWAP1 PUSH2 0x18CC JUMP JUMPDEST PUSH2 0x1AB PUSH2 0x39C CALLDATASIZE PUSH1 0x4 PUSH2 0x178F JUMP JUMPDEST PUSH2 0x112F JUMP JUMPDEST PUSH1 0x7 SLOAD PUSH2 0x1C4 JUMP JUMPDEST PUSH1 0x60 PUSH1 0x3 DUP1 SLOAD PUSH2 0x3B8 SWAP1 PUSH2 0x192C JUMP JUMPDEST DUP1 PUSH1 0x1F ADD PUSH1 0x20 DUP1 SWAP2 DIV MUL PUSH1 0x20 ADD PUSH1 0x40 MLOAD SWAP1 DUP2 ADD PUSH1 0x40 MSTORE DUP1 SWAP3 SWAP2 SWAP1 DUP2 DUP2 MSTORE PUSH1 0x20 ADD DUP3 DUP1 SLOAD PUSH2 0x3E4 SWAP1 PUSH2 0x192C JUMP JUMPDEST DUP1 ISZERO PUSH2 0x42F JUMPI DUP1 PUSH1 0x1F LT PUSH2 0x406 JUMPI PUSH2 0x100 DUP1 DUP4 SLOAD DIV MUL DUP4 MSTORE SWAP2 PUSH1 0x20 ADD SWAP2 PUSH2 0x42F JUMP JUMPDEST DUP3 ADD SWAP2 SWAP1 PUSH0 MSTORE PUSH1 0x20 PUSH0 KECCAK256 SWAP1 JUMPDEST DUP2 SLOAD DUP2 MSTORE SWAP1 PUSH1 0x1 ADD SWAP1 PUSH1 0x20 ADD DUP1 DUP4 GT PUSH2 0x412 JUMPI DUP3 SWAP1 SUB PUSH1 0x1F AND DUP3 ADD SWAP2 JUMPDEST POP POP POP POP POP SWAP1 POP SWAP1 JUMP JUMPDEST PUSH0 CALLER PUSH2 0x446 DUP2 DUP6 DUP6 PUSH2 0x1169 JUMP JUMPDEST PUSH1 0x1 SWAP2 POP POP JUMPDEST SWAP3 SWAP2 POP POP JUMP JUMPDEST PUSH1 0x7 DUP2 DUP2 SLOAD DUP2 LT PUSH2 0x465 JUMPI PUSH2 0x465 PUSH2 0x1964 JUMP JUMPDEST SWAP1 PUSH0 MSTORE PUSH1 0x20 PUSH0 KECCAK256 SWAP1 PUSH1 0x6 MUL ADD PUSH1 0x5 ADD SLOAD PUSH1 0x9 PUSH0 DUP4 DUP2 MSTORE PUSH1 0x20 ADD SWAP1 DUP2 MSTORE PUSH1 0x20 ADD PUSH0 KECCAK256 SLOAD LT ISZERO PUSH2 0x4C9 JUMPI PUSH1 0x40 MLOAD PUSH3 0x461BCD PUSH1 0xE5 SHL DUP2 MSTORE PUSH1 0x20 PUSH1 0x4 DUP3 ADD MSTORE PUSH1 0xC PUSH1 0x24 DUP3 ADD MSTORE PUSH12 0x1B9BDD08199A5B9A5CDA1959 PUSH1 0xA2 SHL PUSH1 0x44 DUP3 ADD MSTORE PUSH1 0x64 ADD JUMPDEST PUSH1 0x40 MLOAD DUP1 SWAP2 SUB SWAP1 REVERT JUMPDEST CALLER PUSH1 0x1 PUSH1 0x1 PUSH1 0xA0 SHL SUB AND PUSH1 0x7 DUP3 DUP2 SLOAD DUP2 LT PUSH2 0x4E6 JUMPI PUSH2 0x4E6 PUSH2 0x1964 JUMP JUMPDEST PUSH0 SWAP2 DUP3 MSTORE PUSH1 0x20 SWAP1 SWAP2 KECCAK256 PUSH1 0x6 SWAP1 SWAP2 MUL ADD SLOAD PUSH1 0x1 PUSH1 0x1 PUSH1 0xA0 SHL SUB AND EQ PUSH2 0x53B JUMPI PUSH1 0x40 MLOAD PUSH3 0x461BCD PUSH1 0xE5 SHL DUP2 MSTORE PUSH1 0x20 PUSH1 0x4 DUP3 ADD MSTORE PUSH1 0xC PUSH1 0x24 DUP3 ADD MSTORE PUSH12 0x37B7363C9031B932B0BA37B9 PUSH1 0xA1 SHL PUSH1 0x44 DUP3 ADD MSTORE PUSH1 0x64 ADD PUSH2 0x4C0 JUMP JUMPDEST PUSH2 0x573 CALLER PUSH1 0x5 PUSH1 0x7 DUP5 DUP2 SLOAD DUP2 LT PUSH2 0x554 JUMPI PUSH2 0x554 PUSH2 0x1964 JUMP JUMPDEST SWAP1 PUSH0 MSTORE PUSH1 0x20 PUSH0 KECCAK256 SWAP1 PUSH1 0x6 MUL ADD PUSH1 0x4 ADD SLOAD PUSH2 0x56E SWAP2 SWAP1 PUSH2 0x198C JUMP JUMPDEST PUSH2 0x117B JUMP JUMPDEST POP JUMP JUMPDEST PUSH1 0xB SLOAD PUSH1 0x40 MLOAD PUSH4 0x59506B5 PUSH1 0xE3 SHL DUP2 MSTORE CALLER PUSH1 0x4 DUP3 ADD MSTORE PUSH1 0x24 DUP2 ADD DUP4 SWAP1 MSTORE PUSH1 0x1 PUSH1 0x1 PUSH1 0xA0 SHL SUB SWAP1 SWAP2 AND SWAP1 PUSH4 0x2CA835A8 SWAP1 PUSH1 0x44 ADD PUSH1 0x20 PUSH1 0x40 MLOAD DUP1 DUP4 SUB DUP2 PUSH0 DUP8 GAS CALL ISZERO DUP1 ISZERO PUSH2 0x5C4 JUMPI RETURNDATASIZE PUSH0 DUP1 RETURNDATACOPY RETURNDATASIZE PUSH0 REVERT JUMPDEST POP POP POP POP PUSH1 0x40 MLOAD RETURNDATASIZE PUSH1 0x1F NOT PUSH1 0x1F DUP3 ADD AND DUP3 ADD DUP1 PUSH1 0x40 MSTORE POP DUP2 ADD SWAP1 PUSH2 0x5E8 SWAP2 SWAP1 PUSH2 0x19AB JUMP JUMPDEST PUSH2 0x625 JUMPI PUSH1 0x40 MLOAD PUSH3 0x461BCD PUSH1 0xE5 SHL DUP2 MSTORE PUSH1 0x20 PUSH1 0x4 DUP3 ADD MSTORE PUSH1 0xE PUSH1 0x24 DUP3 ADD MSTORE PUSH14 0x1B9BDD08185D5D1A1BDC9A5E9959 PUSH1 0x92 SHL PUSH1 0x44 DUP3 ADD MSTORE PUSH1 0x64 ADD PUSH2 0x4C0 JUMP JUMPDEST PUSH1 0x7 SLOAD ISZERO DUP1 PUSH2 0x666 JUMPI POP CALLER PUSH0 SWAP1 DUP2 MSTORE PUSH1 0x20 DUP2 SWAP1 MSTORE PUSH1 0x40 SWAP1 KECCAK256 SLOAD DUP4 GT ISZERO DUP1 ISZERO PUSH2 0x666 JUMPI POP PUSH1 0xA PUSH1 0x6 SLOAD DUP4 PUSH2 0x658 SWAP2 SWAP1 PUSH2 0x19CA JUMP JUMPDEST PUSH2 0x662 SWAP2 SWAP1 PUSH2 0x198C JUMP JUMPDEST DUP4 LT ISZERO JUMPDEST PUSH2 0x6A7 JUMPI PUSH1 0x40 MLOAD PUSH3 0x461BCD PUSH1 0xE5 SHL DUP2 MSTORE PUSH1 0x20 PUSH1 0x4 DUP3 ADD MSTORE PUSH1 0x12 PUSH1 0x24 DUP3 ADD MSTORE PUSH18 0x696E73756666696369656E742066756E6473 PUSH1 0x70 SHL PUSH1 0x44 DUP3 ADD MSTORE PUSH1 0x64 ADD PUSH2 0x4C0 JUMP JUMPDEST PUSH0 DUP3 GT PUSH2 0x6E7 JUMPI PUSH1 0x40 MLOAD PUSH3 0x461BCD PUSH1 0xE5 SHL DUP2 MSTORE PUSH1 0x20 PUSH1 0x4 DUP3 ADD MSTORE PUSH1 0xE PUSH1 0x24 DUP3 ADD MSTORE PUSH14 0x696E76616C696420706172616D73 PUSH1 0x90 SHL PUSH1 0x44 DUP3 ADD MSTORE PUSH1 0x64 ADD PUSH2 0x4C0 JUMP JUMPDEST CALLER PUSH0 SWAP1 DUP2 MSTORE PUSH1 0xA PUSH1 0x20 MSTORE PUSH1 0x40 SWAP1 KECCAK256 SLOAD ISZERO PUSH2 0x743 JUMPI PUSH1 0x40 MLOAD PUSH3 0x461BCD PUSH1 0xE5 SHL DUP2 MSTORE PUSH1 0x20 PUSH1 0x4 DUP3 ADD MSTORE PUSH1 0x19 PUSH1 0x24 DUP3 ADD MSTORE PUSH32 0x6F6E6C7920616C6C6F77206F6E65206C69766520746F70696300000000000000 PUSH1 0x44 DUP3 ADD MSTORE PUSH1 0x64 ADD PUSH2 0x4C0 JUMP JUMPDEST PUSH0 PUSH2 0x74D PUSH1 0x7 SLOAD SWAP1 JUMP JUMPDEST GT ISZERO PUSH2 0x75D JUMPI PUSH2 0x75D CALLER DUP5 PUSH2 0x11B3 JUMP JUMPDEST PUSH1 0x40 DUP1 MLOAD PUSH1 0xC0 DUP2 ADD DUP3 MSTORE CALLER DUP2 MSTORE TIMESTAMP PUSH1 0x20 DUP3 ADD SWAP1 DUP2 MSTORE SWAP2 DUP2 ADD DUP8 DUP2 MSTORE PUSH1 0x60 DUP3 ADD DUP8 SWAP1 MSTORE PUSH1 0x80 DUP3 ADD DUP7 SWAP1 MSTORE PUSH1 0xA0 DUP3 ADD DUP6 SWAP1 MSTORE PUSH1 0x7 DUP1 SLOAD PUSH1 0x1 DUP2 ADD DUP3 SSTORE PUSH0 SWAP2 SWAP1 SWAP2 MSTORE DUP3 MLOAD PUSH32 0xA66CC928B5EDB82AF9BD49922954155AB7B0942694BEA4CE44661D9A8736C688 PUSH1 0x6 SWAP1 SWAP3 MUL SWAP2 DUP3 ADD DUP1 SLOAD PUSH1 0x1 PUSH1 0x1 PUSH1 0xA0 SHL SUB NOT AND PUSH1 0x1 PUSH1 0x1 PUSH1 0xA0 SHL SUB SWAP1 SWAP3 AND SWAP2 SWAP1 SWAP2 OR DUP2 SSTORE SWAP4 MLOAD PUSH32 0xA66CC928B5EDB82AF9BD49922954155AB7B0942694BEA4CE44661D9A8736C689 DUP3 ADD SSTORE SWAP1 MLOAD SWAP2 SWAP3 SWAP2 PUSH32 0xA66CC928B5EDB82AF9BD49922954155AB7B0942694BEA4CE44661D9A8736C68A SWAP1 SWAP2 ADD SWAP1 PUSH2 0x83E SWAP1 DUP3 PUSH2 0x1A2E JUMP JUMPDEST POP PUSH1 0x60 DUP3 ADD MLOAD PUSH1 0x3 DUP3 ADD SWAP1 PUSH2 0x853 SWAP1 DUP3 PUSH2 0x1A2E JUMP JUMPDEST POP PUSH1 0x80 DUP3 ADD MLOAD PUSH1 0x4 DUP3 ADD SSTORE PUSH1 0xA0 SWAP1 SWAP2 ADD MLOAD PUSH1 0x5 SWAP1 SWAP2 ADD SSTORE PUSH1 0x7 SLOAD PUSH2 0x879 SWAP1 PUSH1 0x1 SWAP1 PUSH2 0x1AEA JUMP JUMPDEST CALLER PUSH0 SWAP1 DUP2 MSTORE PUSH1 0xA PUSH1 0x20 MSTORE PUSH1 0x40 SWAP1 KECCAK256 SSTORE POP POP POP POP POP JUMP JUMPDEST PUSH0 CALLER PUSH2 0x89C DUP6 DUP3 DUP6 PUSH2 0x11E7 JUMP JUMPDEST PUSH2 0x8A7 DUP6 DUP6 DUP6 PUSH2 0x125C JUMP JUMPDEST POP PUSH1 0x1 SWAP5 SWAP4 POP POP POP POP JUMP JUMPDEST PUSH2 0x8BA PUSH2 0x12B9 JUMP JUMPDEST PUSH2 0x8C3 PUSH0 PUSH2 0x12E6 JUMP JUMPDEST JUMP JUMPDEST PUSH1 0xB SLOAD PUSH1 0x40 MLOAD PUSH4 0x17AEB55D PUSH1 0xE3 SHL DUP2 MSTORE CALLER PUSH1 0x4 DUP3 ADD MSTORE PUSH1 0x24 DUP2 ADD DUP4 SWAP1 MSTORE PUSH0 SWAP2 PUSH1 0x1 PUSH1 0x1 PUSH1 0xA0 SHL SUB AND SWAP1 PUSH4 0xBD75AAE8 SWAP1 PUSH1 0x44 ADD PUSH1 0x20 PUSH1 0x40 MLOAD DUP1 DUP4 SUB DUP2 PUSH0 DUP8 GAS CALL ISZERO DUP1 ISZERO PUSH2 0x913 JUMPI RETURNDATASIZE PUSH0 DUP1 RETURNDATACOPY RETURNDATASIZE PUSH0 REVERT JUMPDEST POP POP POP POP PUSH1 0x40 MLOAD RETURNDATASIZE PUSH1 0x1F NOT PUSH1 0x1F DUP3 ADD AND DUP3 ADD DUP1 PUSH1 0x40 MSTORE POP DUP2 ADD SWAP1 PUSH2 0x937 SWAP2 SWAP1 PUSH2 0x1AFD JUMP JUMPDEST SWAP1 POP PUSH0 DUP2 GT PUSH2 0x979 JUMPI PUSH1 0x40 MLOAD PUSH3 0x461BCD PUSH1 0xE5 SHL DUP2 MSTORE PUSH1 0x20 PUSH1 0x4 DUP3 ADD MSTORE PUSH1 0xE PUSH1 0x24 DUP3 ADD MSTORE PUSH14 0x1B9BDD08185D5D1A1BDC9A5E9959 PUSH1 0x92 SHL PUSH1 0x44 DUP3 ADD MSTORE PUSH1 0x64 ADD PUSH2 0x4C0 JUMP JUMPDEST PUSH1 0x7 DUP5 DUP2 SLOAD DUP2 LT PUSH2 0x98C JUMPI PUSH2 0x98C PUSH2 0x1964 JUMP JUMPDEST SWAP1 PUSH0 MSTORE PUSH1 0x20 PUSH0 KECCAK256 SWAP1 PUSH1 0x6 MUL ADD PUSH1 0x5 ADD SLOAD PUSH1 0x9 PUSH0 DUP7 DUP2 MSTORE PUSH1 0x20 ADD SWAP1 DUP2 MSTORE PUSH1 0x20 ADD PUSH0 KECCAK256 SLOAD LT PUSH2 0x9E6 JUMPI PUSH1 0x40 MLOAD PUSH3 0x461BCD PUSH1 0xE5 SHL DUP2 MSTORE PUSH1 0x20 PUSH1 0x4 DUP3 ADD MSTORE PUSH1 0x8 PUSH1 0x24 DUP3 ADD MSTORE PUSH8 0x199A5B9A5CDA1959 PUSH1 0xC2 SHL PUSH1 0x44 DUP3 ADD MSTORE PUSH1 0x64 ADD PUSH2 0x4C0 JUMP JUMPDEST CALLER PUSH0 SWAP1 DUP2 MSTORE PUSH1 0xC PUSH1 0x20 MSTORE PUSH1 0x40 SWAP1 KECCAK256 SLOAD PUSH2 0xA03 SWAP1 PUSH3 0x15180 SWAP1 PUSH2 0x1B14 JUMP JUMPDEST TIMESTAMP LT ISZERO PUSH2 0xA41 JUMPI PUSH1 0x40 MLOAD PUSH3 0x461BCD PUSH1 0xE5 SHL DUP2 MSTORE PUSH1 0x20 PUSH1 0x4 DUP3 ADD MSTORE PUSH1 0xC PUSH1 0x24 DUP3 ADD MSTORE PUSH12 0x6F6E63652070657220646179 PUSH1 0xA0 SHL PUSH1 0x44 DUP3 ADD MSTORE PUSH1 0x64 ADD PUSH2 0x4C0 JUMP JUMPDEST CALLER PUSH0 DUP2 DUP2 MSTORE PUSH1 0xC PUSH1 0x20 MSTORE PUSH1 0x40 SWAP1 KECCAK256 TIMESTAMP SWAP1 SSTORE PUSH1 0x7 DUP1 SLOAD PUSH2 0xAC1 SWAP3 SWAP2 SWAP1 DUP8 SWAP1 DUP2 LT PUSH2 0xA6C JUMPI PUSH2 0xA6C PUSH2 0x1964 JUMP JUMPDEST SWAP1 PUSH0 MSTORE PUSH1 0x20 PUSH0 KECCAK256 SWAP1 PUSH1 0x6 MUL ADD PUSH1 0x5 ADD SLOAD PUSH1 0x7 DUP8 DUP2 SLOAD DUP2 LT PUSH2 0xA8F JUMPI PUSH2 0xA8F PUSH2 0x1964 JUMP JUMPDEST SWAP1 PUSH0 MSTORE PUSH1 0x20 PUSH0 KECCAK256 SWAP1 PUSH1 0x6 MUL ADD PUSH1 0x4 ADD SLOAD PUSH2 0xAA9 SWAP2 SWAP1 PUSH2 0x198C JUMP JUMPDEST DUP4 PUSH1 0x6 SLOAD PUSH2 0xAB7 SWAP2 SWAP1 PUSH2 0x19CA JUMP JUMPDEST PUSH2 0x56E SWAP2 SWAP1 PUSH2 0x1B14 JUMP JUMPDEST PUSH0 DUP5 DUP2 MSTORE PUSH1 0x9 PUSH1 0x20 MSTORE PUSH1 0x40 DUP2 KECCAK256 DUP1 SLOAD PUSH1 0x1 SWAP3 SWAP1 PUSH2 0xADF SWAP1 DUP5 SWAP1 PUSH2 0x1B14 JUMP JUMPDEST SWAP1 SWAP2 SSTORE POP POP PUSH0 DUP5 DUP2 MSTORE PUSH1 0x8 PUSH1 0x20 SWAP1 DUP2 MSTORE PUSH1 0x40 DUP1 DUP4 KECCAK256 DUP7 DUP5 MSTORE SWAP1 SWAP2 MSTORE DUP2 KECCAK256 DUP1 SLOAD DUP4 SWAP3 SWAP1 PUSH2 0xB0C SWAP1 DUP5 SWAP1 PUSH2 0x1B14 JUMP JUMPDEST SWAP1 SWAP2 SSTORE POP POP PUSH1 0x40 DUP1 MLOAD DUP5 DUP2 MSTORE PUSH1 0x20 DUP2 ADD DUP4 SWAP1 MSTORE DUP6 SWAP2 CALLER SWAP2 PUSH32 0x6C7EB2743EC28489909706EA440D909129004996BE657D36C6E9ADD778546ABF SWAP2 ADD PUSH1 0x40 MLOAD DUP1 SWAP2 SUB SWAP1 LOG3 PUSH1 0x7 DUP5 DUP2 SLOAD DUP2 LT PUSH2 0xB61 JUMPI PUSH2 0xB61 PUSH2 0x1964 JUMP JUMPDEST SWAP1 PUSH0 MSTORE PUSH1 0x20 PUSH0 KECCAK256 SWAP1 PUSH1 0x6 MUL ADD PUSH1 0x5 ADD SLOAD PUSH1 0x9 PUSH0 DUP7 DUP2 MSTORE PUSH1 0x20 ADD SWAP1 DUP2 MSTORE PUSH1 0x20 ADD PUSH0 KECCAK256 SLOAD SUB PUSH2 0xBC9 JUMPI PUSH0 PUSH1 0xA PUSH0 PUSH1 0x7 DUP8 DUP2 SLOAD DUP2 LT PUSH2 0xB9F JUMPI PUSH2 0xB9F PUSH2 0x1964 JUMP JUMPDEST PUSH0 SWAP2 DUP3 MSTORE PUSH1 0x20 DUP1 DUP4 KECCAK256 PUSH1 0x6 SWAP1 SWAP3 MUL SWAP1 SWAP2 ADD SLOAD PUSH1 0x1 PUSH1 0x1 PUSH1 0xA0 SHL SUB AND DUP4 MSTORE DUP3 ADD SWAP3 SWAP1 SWAP3 MSTORE PUSH1 0x40 ADD SWAP1 KECCAK256 SSTORE JUMPDEST POP POP POP POP JUMP JUMPDEST PUSH1 0x60 PUSH1 0x4 DUP1 SLOAD PUSH2 0x3B8 SWAP1 PUSH2 0x192C JUMP JUMPDEST PUSH1 0x7 DUP2 DUP2 SLOAD DUP2 LT PUSH2 0xBED JUMPI PUSH0 DUP1 REVERT JUMPDEST PUSH0 SWAP2 DUP3 MSTORE PUSH1 0x20 SWAP1 SWAP2 KECCAK256 PUSH1 0x6 SWAP1 SWAP2 MUL ADD DUP1 SLOAD PUSH1 0x1 DUP3 ADD SLOAD PUSH1 0x2 DUP4 ADD DUP1 SLOAD PUSH1 0x1 PUSH1 0x1 PUSH1 0xA0 SHL SUB SWAP1 SWAP4 AND SWAP5 POP SWAP1 SWAP3 SWAP2 PUSH2 0xC22 SWAP1 PUSH2 0x192C JUMP JUMPDEST DUP1 PUSH1 0x1F ADD PUSH1 0x20 DUP1 SWAP2 DIV MUL PUSH1 0x20 ADD PUSH1 0x40 MLOAD SWAP1 DUP2 ADD PUSH1 0x40 MSTORE DUP1 SWAP3 SWAP2 SWAP1 DUP2 DUP2 MSTORE PUSH1 0x20 ADD DUP3 DUP1 SLOAD PUSH2 0xC4E SWAP1 PUSH2 0x192C JUMP JUMPDEST DUP1 ISZERO PUSH2 0xC99 JUMPI DUP1 PUSH1 0x1F LT PUSH2 0xC70 JUMPI PUSH2 0x100 DUP1 DUP4 SLOAD DIV MUL DUP4 MSTORE SWAP2 PUSH1 0x20 ADD SWAP2 PUSH2 0xC99 JUMP JUMPDEST DUP3 ADD SWAP2 SWAP1 PUSH0 MSTORE PUSH1 0x20 PUSH0 KECCAK256 SWAP1 JUMPDEST DUP2 SLOAD DUP2 MSTORE SWAP1 PUSH1 0x1 ADD SWAP1 PUSH1 0x20 ADD DUP1 DUP4 GT PUSH2 0xC7C JUMPI DUP3 SWAP1 SUB PUSH1 0x1F AND DUP3 ADD SWAP2 JUMPDEST POP POP POP POP POP SWAP1 DUP1 PUSH1 0x3 ADD DUP1 SLOAD PUSH2 0xCAE SWAP1 PUSH2 0x192C JUMP JUMPDEST DUP1 PUSH1 0x1F ADD PUSH1 0x20 DUP1 SWAP2 DIV MUL PUSH1 0x20 ADD PUSH1 0x40 MLOAD SWAP1 DUP2 ADD PUSH1 0x40 MSTORE DUP1 SWAP3 SWAP2 SWAP1 DUP2 DUP2 MSTORE PUSH1 0x20 ADD DUP3 DUP1 SLOAD PUSH2 0xCDA SWAP1 PUSH2 0x192C JUMP JUMPDEST DUP1 ISZERO PUSH2 0xD25 JUMPI DUP1 PUSH1 0x1F LT PUSH2 0xCFC JUMPI PUSH2 0x100 DUP1 DUP4 SLOAD DIV MUL DUP4 MSTORE SWAP2 PUSH1 0x20 ADD SWAP2 PUSH2 0xD25 JUMP JUMPDEST DUP3 ADD SWAP2 SWAP1 PUSH0 MSTORE PUSH1 0x20 PUSH0 KECCAK256 SWAP1 JUMPDEST DUP2 SLOAD DUP2 MSTORE SWAP1 PUSH1 0x1 ADD SWAP1 PUSH1 0x20 ADD DUP1 DUP4 GT PUSH2 0xD08 JUMPI DUP3 SWAP1 SUB PUSH1 0x1F AND DUP3 ADD SWAP2 JUMPDEST POP POP POP POP POP SWAP1 DUP1 PUSH1 0x4 ADD SLOAD SWAP1 DUP1 PUSH1 0x5 ADD SLOAD SWAP1 POP DUP7 JUMP JUMPDEST PUSH0 CALLER PUSH2 0x446 DUP2 DUP6 DUP6 PUSH2 0x125C JUMP JUMPDEST PUSH2 0xD50 PUSH2 0x12B9 JUMP JUMPDEST PUSH1 0x6 SSTORE JUMP JUMPDEST PUSH2 0xD5D PUSH2 0x152F JUMP JUMPDEST PUSH1 0x7 DUP3 DUP2 SLOAD DUP2 LT PUSH2 0xD70 JUMPI PUSH2 0xD70 PUSH2 0x1964 JUMP JUMPDEST SWAP1 PUSH0 MSTORE PUSH1 0x20 PUSH0 KECCAK256 SWAP1 PUSH1 0x6 MUL ADD PUSH1 0x40 MLOAD DUP1 PUSH1 0xC0 ADD PUSH1 0x40 MSTORE SWAP1 DUP2 PUSH0 DUP3 ADD PUSH0 SWAP1 SLOAD SWAP1 PUSH2 0x100 EXP SWAP1 DIV PUSH1 0x1 PUSH1 0x1 PUSH1 0xA0 SHL SUB AND PUSH1 0x1 PUSH1 0x1 PUSH1 0xA0 SHL SUB AND PUSH1 0x1 PUSH1 0x1 PUSH1 0xA0 SHL SUB AND DUP2 MSTORE PUSH1 0x20 ADD PUSH1 0x1 DUP3 ADD SLOAD DUP2 MSTORE PUSH1 0x20 ADD PUSH1 0x2 DUP3 ADD DUP1 SLOAD PUSH2 0xDCE SWAP1 PUSH2 0x192C JUMP JUMPDEST DUP1 PUSH1 0x1F ADD PUSH1 0x20 DUP1 SWAP2 DIV MUL PUSH1 0x20 ADD PUSH1 0x40 MLOAD SWAP1 DUP2 ADD PUSH1 0x40 MSTORE DUP1 SWAP3 SWAP2 SWAP1 DUP2 DUP2 MSTORE PUSH1 0x20 ADD DUP3 DUP1 SLOAD PUSH2 0xDFA SWAP1 PUSH2 0x192C JUMP JUMPDEST DUP1 ISZERO PUSH2 0xE45 JUMPI DUP1 PUSH1 0x1F LT PUSH2 0xE1C JUMPI PUSH2 0x100 DUP1 DUP4 SLOAD DIV MUL DUP4 MSTORE SWAP2 PUSH1 0x20 ADD SWAP2 PUSH2 0xE45 JUMP JUMPDEST DUP3 ADD SWAP2 SWAP1 PUSH0 MSTORE PUSH1 0x20 PUSH0 KECCAK256 SWAP1 JUMPDEST DUP2 SLOAD DUP2 MSTORE SWAP1 PUSH1 0x1 ADD SWAP1 PUSH1 0x20 ADD DUP1 DUP4 GT PUSH2 0xE28 JUMPI DUP3 SWAP1 SUB PUSH1 0x1F AND DUP3 ADD SWAP2 JUMPDEST POP POP POP POP POP DUP2 MSTORE PUSH1 0x20 ADD PUSH1 0x3 DUP3 ADD DUP1 SLOAD PUSH2 0xE5E SWAP1 PUSH2 0x192C JUMP JUMPDEST DUP1 PUSH1 0x1F ADD PUSH1 0x20 DUP1 SWAP2 DIV MUL PUSH1 0x20 ADD PUSH1 0x40 MLOAD SWAP1 DUP2 ADD PUSH1 0x40 MSTORE DUP1 SWAP3 SWAP2 SWAP1 DUP2 DUP2 MSTORE PUSH1 0x20 ADD DUP3 DUP1 SLOAD PUSH2 0xE8A SWAP1 PUSH2 0x192C JUMP JUMPDEST DUP1 ISZERO PUSH2 0xED5 JUMPI DUP1 PUSH1 0x1F LT PUSH2 0xEAC JUMPI PUSH2 0x100 DUP1 DUP4 SLOAD DIV MUL DUP4 MSTORE SWAP2 PUSH1 0x20 ADD SWAP2 PUSH2 0xED5 JUMP JUMPDEST DUP3 ADD SWAP2 SWAP1 PUSH0 MSTORE PUSH1 0x20 PUSH0 KECCAK256 SWAP1 JUMPDEST DUP2 SLOAD DUP2 MSTORE SWAP1 PUSH1 0x1 ADD SWAP1 PUSH1 0x20 ADD DUP1 DUP4 GT PUSH2 0xEB8 JUMPI DUP3 SWAP1 SUB PUSH1 0x1F AND DUP3 ADD SWAP2 JUMPDEST POP POP POP POP POP DUP2 MSTORE PUSH1 0x20 ADD PUSH1 0x4 DUP3 ADD SLOAD DUP2 MSTORE PUSH1 0x20 ADD PUSH1 0x5 DUP3 ADD SLOAD DUP2 MSTORE POP POP SWAP1 POP SWAP2 SWAP1 POP JUMP JUMPDEST PUSH1 0x60 DUP2 PUSH8 0xFFFFFFFFFFFFFFFF DUP2 GT ISZERO PUSH2 0xF14 JUMPI PUSH2 0xF14 PUSH2 0x1620 JUMP JUMPDEST PUSH1 0x40 MLOAD SWAP1 DUP1 DUP3 MSTORE DUP1 PUSH1 0x20 MUL PUSH1 0x20 ADD DUP3 ADD PUSH1 0x40 MSTORE DUP1 ISZERO PUSH2 0xF4D JUMPI DUP2 PUSH1 0x20 ADD JUMPDEST PUSH2 0xF3A PUSH2 0x152F JUMP JUMPDEST DUP2 MSTORE PUSH1 0x20 ADD SWAP1 PUSH1 0x1 SWAP1 SUB SWAP1 DUP2 PUSH2 0xF32 JUMPI SWAP1 POP JUMPDEST POP SWAP1 POP PUSH0 JUMPDEST DUP3 DUP2 LT ISZERO PUSH2 0x1128 JUMPI PUSH1 0x7 PUSH2 0xF66 DUP6 DUP4 PUSH2 0x1B14 JUMP JUMPDEST DUP2 SLOAD DUP2 LT PUSH2 0xF76 JUMPI PUSH2 0xF76 PUSH2 0x1964 JUMP JUMPDEST SWAP1 PUSH0 MSTORE PUSH1 0x20 PUSH0 KECCAK256 SWAP1 PUSH1 0x6 MUL ADD PUSH1 0x40 MLOAD DUP1 PUSH1 0xC0 ADD PUSH1 0x40 MSTORE SWAP1 DUP2 PUSH0 DUP3 ADD PUSH0 SWAP1 SLOAD SWAP1 PUSH2 0x100 EXP SWAP1 DIV PUSH1 0x1 PUSH1 0x1 PUSH1 0xA0 SHL SUB AND PUSH1 0x1 PUSH1 0x1 PUSH1 0xA0 SHL SUB AND PUSH1 0x1 PUSH1 0x1 PUSH1 0xA0 SHL SUB AND DUP2 MSTORE PUSH1 0x20 ADD PUSH1 0x1 DUP3 ADD SLOAD DUP2 MSTORE PUSH1 0x20 ADD PUSH1 0x2 DUP3 ADD DUP1 SLOAD PUSH2 0xFD4 SWAP1 PUSH2 0x192C JUMP JUMPDEST DUP1 PUSH1 0x1F ADD PUSH1 0x20 DUP1 SWAP2 DIV MUL PUSH1 0x20 ADD PUSH1 0x40 MLOAD SWAP1 DUP2 ADD PUSH1 0x40 MSTORE DUP1 SWAP3 SWAP2 SWAP1 DUP2 DUP2 MSTORE PUSH1 0x20 ADD DUP3 DUP1 SLOAD PUSH2 0x1000 SWAP1 PUSH2 0x192C JUMP JUMPDEST DUP1 ISZERO PUSH2 0x104B JUMPI DUP1 PUSH1 0x1F LT PUSH2 0x1022 JUMPI PUSH2 0x100 DUP1 DUP4 SLOAD DIV MUL DUP4 MSTORE SWAP2 PUSH1 0x20 ADD SWAP2 PUSH2 0x104B JUMP JUMPDEST DUP3 ADD SWAP2 SWAP1 PUSH0 MSTORE PUSH1 0x20 PUSH0 KECCAK256 SWAP1 JUMPDEST DUP2 SLOAD DUP2 MSTORE SWAP1 PUSH1 0x1 ADD SWAP1 PUSH1 0x20 ADD DUP1 DUP4 GT PUSH2 0x102E JUMPI DUP3 SWAP1 SUB PUSH1 0x1F AND DUP3 ADD SWAP2 JUMPDEST POP POP POP POP POP DUP2 MSTORE PUSH1 0x20 ADD PUSH1 0x3 DUP3 ADD DUP1 SLOAD PUSH2 0x1064 SWAP1 PUSH2 0x192C JUMP JUMPDEST DUP1 PUSH1 0x1F ADD PUSH1 0x20 DUP1 SWAP2 DIV MUL PUSH1 0x20 ADD PUSH1 0x40 MLOAD SWAP1 DUP2 ADD PUSH1 0x40 MSTORE DUP1 SWAP3 SWAP2 SWAP1 DUP2 DUP2 MSTORE PUSH1 0x20 ADD DUP3 DUP1 SLOAD PUSH2 0x1090 SWAP1 PUSH2 0x192C JUMP JUMPDEST DUP1 ISZERO PUSH2 0x10DB JUMPI DUP1 PUSH1 0x1F LT PUSH2 0x10B2 JUMPI PUSH2 0x100 DUP1 DUP4 SLOAD DIV MUL DUP4 MSTORE SWAP2 PUSH1 0x20 ADD SWAP2 PUSH2 0x10DB JUMP JUMPDEST DUP3 ADD SWAP2 SWAP1 PUSH0 MSTORE PUSH1 0x20 PUSH0 KECCAK256 SWAP1 JUMPDEST DUP2 SLOAD DUP2 MSTORE SWAP1 PUSH1 0x1 ADD SWAP1 PUSH1 0x20 ADD DUP1 DUP4 GT PUSH2 0x10BE JUMPI DUP3 SWAP1 SUB PUSH1 0x1F AND DUP3 ADD SWAP2 JUMPDEST POP POP POP POP POP DUP2 MSTORE PUSH1 0x20 ADD PUSH1 0x4 DUP3 ADD SLOAD DUP2 MSTORE PUSH1 0x20 ADD PUSH1 0x5 DUP3 ADD SLOAD DUP2 MSTORE POP POP DUP3 DUP3 DUP2 MLOAD DUP2 LT PUSH2 0x110A JUMPI PUSH2 0x110A PUSH2 0x1964 JUMP JUMPDEST PUSH1 0x20 MUL PUSH1 0x20 ADD ADD DUP2 SWAP1 MSTORE POP DUP1 DUP1 PUSH2 0x1120 SWAP1 PUSH2 0x1B27 JUMP JUMPDEST SWAP2 POP POP PUSH2 0xF52 JUMP JUMPDEST POP SWAP3 SWAP2 POP POP JUMP JUMPDEST PUSH2 0x1137 PUSH2 0x12B9 JUMP JUMPDEST PUSH1 0x1 PUSH1 0x1 PUSH1 0xA0 SHL SUB DUP2 AND PUSH2 0x1160 JUMPI PUSH1 0x40 MLOAD PUSH4 0x1E4FBDF7 PUSH1 0xE0 SHL DUP2 MSTORE PUSH0 PUSH1 0x4 DUP3 ADD MSTORE PUSH1 0x24 ADD PUSH2 0x4C0 JUMP JUMPDEST PUSH2 0x573 DUP2 PUSH2 0x12E6 JUMP JUMPDEST PUSH2 0x1176 DUP4 DUP4 DUP4 PUSH1 0x1 PUSH2 0x1337 JUMP JUMPDEST POP POP POP JUMP JUMPDEST PUSH1 0x1 PUSH1 0x1 PUSH1 0xA0 SHL SUB DUP3 AND PUSH2 0x11A4 JUMPI PUSH1 0x40 MLOAD PUSH4 0xEC442F05 PUSH1 0xE0 SHL DUP2 MSTORE PUSH0 PUSH1 0x4 DUP3 ADD MSTORE PUSH1 0x24 ADD PUSH2 0x4C0 JUMP JUMPDEST PUSH2 0x11AF PUSH0 DUP4 DUP4 PUSH2 0x1409 JUMP JUMPDEST POP POP JUMP JUMPDEST PUSH1 0x1 PUSH1 0x1 PUSH1 0xA0 SHL SUB DUP3 AND PUSH2 0x11DC JUMPI PUSH1 0x40 MLOAD PUSH4 0x4B637E8F PUSH1 0xE1 SHL DUP2 MSTORE PUSH0 PUSH1 0x4 DUP3 ADD MSTORE PUSH1 0x24 ADD PUSH2 0x4C0 JUMP JUMPDEST PUSH2 0x11AF DUP3 PUSH0 DUP4 PUSH2 0x1409 JUMP JUMPDEST PUSH1 0x1 PUSH1 0x1 PUSH1 0xA0 SHL SUB DUP4 DUP2 AND PUSH0 SWAP1 DUP2 MSTORE PUSH1 0x1 PUSH1 0x20 SWAP1 DUP2 MSTORE PUSH1 0x40 DUP1 DUP4 KECCAK256 SWAP4 DUP7 AND DUP4 MSTORE SWAP3 SWAP1 MSTORE KECCAK256 SLOAD PUSH0 NOT DUP2 EQ PUSH2 0xBC9 JUMPI DUP2 DUP2 LT ISZERO PUSH2 0x124E JUMPI PUSH1 0x40 MLOAD PUSH4 0x7DC7A0D9 PUSH1 0xE1 SHL DUP2 MSTORE PUSH1 0x1 PUSH1 0x1 PUSH1 0xA0 SHL SUB DUP5 AND PUSH1 0x4 DUP3 ADD MSTORE PUSH1 0x24 DUP2 ADD DUP3 SWAP1 MSTORE PUSH1 0x44 DUP2 ADD DUP4 SWAP1 MSTORE PUSH1 0x64 ADD PUSH2 0x4C0 JUMP JUMPDEST PUSH2 0xBC9 DUP5 DUP5 DUP5 DUP5 SUB PUSH0 PUSH2 0x1337 JUMP JUMPDEST PUSH1 0x1 PUSH1 0x1 PUSH1 0xA0 SHL SUB DUP4 AND PUSH2 0x1285 JUMPI PUSH1 0x40 MLOAD PUSH4 0x4B637E8F PUSH1 0xE1 SHL DUP2 MSTORE PUSH0 PUSH1 0x4 DUP3 ADD MSTORE PUSH1 0x24 ADD PUSH2 0x4C0 JUMP JUMPDEST PUSH1 0x1 PUSH1 0x1 PUSH1 0xA0 SHL SUB DUP3 AND PUSH2 0x12AE JUMPI PUSH1 0x40 MLOAD PUSH4 0xEC442F05 PUSH1 0xE0 SHL DUP2 MSTORE PUSH0 PUSH1 0x4 DUP3 ADD MSTORE PUSH1 0x24 ADD PUSH2 0x4C0 JUMP JUMPDEST PUSH2 0x1176 DUP4 DUP4 DUP4 PUSH2 0x1409 JUMP JUMPDEST PUSH1 0x5 SLOAD PUSH1 0x1 PUSH1 0x1 PUSH1 0xA0 SHL SUB AND CALLER EQ PUSH2 0x8C3 JUMPI PUSH1 0x40 MLOAD PUSH4 0x118CDAA7 PUSH1 0xE0 SHL DUP2 MSTORE CALLER PUSH1 0x4 DUP3 ADD MSTORE PUSH1 0x24 ADD PUSH2 0x4C0 JUMP JUMPDEST PUSH1 0x5 DUP1 SLOAD PUSH1 0x1 PUSH1 0x1 PUSH1 0xA0 SHL SUB DUP4 DUP2 AND PUSH1 0x1 PUSH1 0x1 PUSH1 0xA0 SHL SUB NOT DUP4 AND DUP2 OR SWAP1 SWAP4 SSTORE PUSH1 0x40 MLOAD SWAP2 AND SWAP2 SWAP1 DUP3 SWAP1 PUSH32 0x8BE0079C531659141344CD1FD0A4F28419497F9722A3DAAFE3B4186F6B6457E0 SWAP1 PUSH0 SWAP1 LOG3 POP POP JUMP JUMPDEST PUSH1 0x1 PUSH1 0x1 PUSH1 0xA0 SHL SUB DUP5 AND PUSH2 0x1360 JUMPI PUSH1 0x40 MLOAD PUSH4 0xE602DF05 PUSH1 0xE0 SHL DUP2 MSTORE PUSH0 PUSH1 0x4 DUP3 ADD MSTORE PUSH1 0x24 ADD PUSH2 0x4C0 JUMP JUMPDEST PUSH1 0x1 PUSH1 0x1 PUSH1 0xA0 SHL SUB DUP4 AND PUSH2 0x1389 JUMPI PUSH1 0x40 MLOAD PUSH4 0x4A1406B1 PUSH1 0xE1 SHL DUP2 MSTORE PUSH0 PUSH1 0x4 DUP3 ADD MSTORE PUSH1 0x24 ADD PUSH2 0x4C0 JUMP JUMPDEST PUSH1 0x1 PUSH1 0x1 PUSH1 0xA0 SHL SUB DUP1 DUP6 AND PUSH0 SWAP1 DUP2 MSTORE PUSH1 0x1 PUSH1 0x20 SWAP1 DUP2 MSTORE PUSH1 0x40 DUP1 DUP4 KECCAK256 SWAP4 DUP8 AND DUP4 MSTORE SWAP3 SWAP1 MSTORE KECCAK256 DUP3 SWAP1 SSTORE DUP1 ISZERO PUSH2 0xBC9 JUMPI DUP3 PUSH1 0x1 PUSH1 0x1 PUSH1 0xA0 SHL SUB AND DUP5 PUSH1 0x1 PUSH1 0x1 PUSH1 0xA0 SHL SUB AND PUSH32 0x8C5BE1E5EBEC7D5BD14F71427D1E84F3DD0314C0F7B2291E5B200AC8C7C3B925 DUP5 PUSH1 0x40 MLOAD PUSH2 0x13FB SWAP2 DUP2 MSTORE PUSH1 0x20 ADD SWAP1 JUMP JUMPDEST PUSH1 0x40 MLOAD DUP1 SWAP2 SUB SWAP1 LOG3 POP POP POP POP JUMP JUMPDEST PUSH1 0x1 PUSH1 0x1 PUSH1 0xA0 SHL SUB DUP4 AND PUSH2 0x1433 JUMPI DUP1 PUSH1 0x2 PUSH0 DUP3 DUP3 SLOAD PUSH2 0x1428 SWAP2 SWAP1 PUSH2 0x1B14 JUMP JUMPDEST SWAP1 SWAP2 SSTORE POP PUSH2 0x14A3 SWAP1 POP JUMP JUMPDEST PUSH1 0x1 PUSH1 0x1 PUSH1 0xA0 SHL SUB DUP4 AND PUSH0 SWAP1 DUP2 MSTORE PUSH1 0x20 DUP2 SWAP1 MSTORE PUSH1 0x40 SWAP1 KECCAK256 SLOAD DUP2 DUP2 LT ISZERO PUSH2 0x1485 JUMPI PUSH1 0x40 MLOAD PUSH4 0x391434E3 PUSH1 0xE2 SHL DUP2 MSTORE PUSH1 0x1 PUSH1 0x1 PUSH1 0xA0 SHL SUB DUP6 AND PUSH1 0x4 DUP3 ADD MSTORE PUSH1 0x24 DUP2 ADD DUP3 SWAP1 MSTORE PUSH1 0x44 DUP2 ADD DUP4 SWAP1 MSTORE PUSH1 0x64 ADD PUSH2 0x4C0 JUMP JUMPDEST PUSH1 0x1 PUSH1 0x1 PUSH1 0xA0 SHL SUB DUP5 AND PUSH0 SWAP1 DUP2 MSTORE PUSH1 0x20 DUP2 SWAP1 MSTORE PUSH1 0x40 SWAP1 KECCAK256 SWAP1 DUP3 SWAP1 SUB SWAP1 SSTORE JUMPDEST PUSH1 0x1 PUSH1 0x1 PUSH1 0xA0 SHL SUB DUP3 AND PUSH2 0x14BF JUMPI PUSH1 0x2 DUP1 SLOAD DUP3 SWAP1 SUB SWAP1 SSTORE PUSH2 0x14DD JUMP JUMPDEST PUSH1 0x1 PUSH1 0x1 PUSH1 0xA0 SHL SUB DUP3 AND PUSH0 SWAP1 DUP2 MSTORE PUSH1 0x20 DUP2 SWAP1 MSTORE PUSH1 0x40 SWAP1 KECCAK256 DUP1 SLOAD DUP3 ADD SWAP1 SSTORE JUMPDEST DUP2 PUSH1 0x1 PUSH1 0x1 PUSH1 0xA0 SHL SUB AND DUP4 PUSH1 0x1 PUSH1 0x1 PUSH1 0xA0 SHL SUB AND PUSH32 0xDDF252AD1BE2C89B69C2B068FC378DAA952BA7F163C4A11628F55A4DF523B3EF DUP4 PUSH1 0x40 MLOAD PUSH2 0x1522 SWAP2 DUP2 MSTORE PUSH1 0x20 ADD SWAP1 JUMP JUMPDEST PUSH1 0x40 MLOAD DUP1 SWAP2 SUB SWAP1 LOG3 POP POP POP JUMP JUMPDEST PUSH1 0x40 MLOAD DUP1 PUSH1 0xC0 ADD PUSH1 0x40 MSTORE DUP1 PUSH0 PUSH1 0x1 PUSH1 0x1 PUSH1 0xA0 SHL SUB AND DUP2 MSTORE PUSH1 0x20 ADD PUSH0 DUP2 MSTORE PUSH1 0x20 ADD PUSH1 0x60 DUP2 MSTORE PUSH1 0x20 ADD PUSH1 0x60 DUP2 MSTORE PUSH1 0x20 ADD PUSH0 DUP2 MSTORE PUSH1 0x20 ADD PUSH0 DUP2 MSTORE POP SWAP1 JUMP JUMPDEST PUSH0 DUP2 MLOAD DUP1 DUP5 MSTORE PUSH0 JUMPDEST DUP2 DUP2 LT ISZERO PUSH2 0x158E JUMPI PUSH1 0x20 DUP2 DUP6 ADD DUP2 ADD MLOAD DUP7 DUP4 ADD DUP3 ADD MSTORE ADD PUSH2 0x1572 JUMP JUMPDEST POP PUSH0 PUSH1 0x20 DUP3 DUP7 ADD ADD MSTORE PUSH1 0x20 PUSH1 0x1F NOT PUSH1 0x1F DUP4 ADD AND DUP6 ADD ADD SWAP2 POP POP SWAP3 SWAP2 POP POP JUMP JUMPDEST PUSH1 0x20 DUP2 MSTORE PUSH0 PUSH2 0x15BF PUSH1 0x20 DUP4 ADD DUP5 PUSH2 0x156A JUMP JUMPDEST SWAP4 SWAP3 POP POP POP JUMP JUMPDEST DUP1 CALLDATALOAD PUSH1 0x1 PUSH1 0x1 PUSH1 0xA0 SHL SUB DUP2 AND DUP2 EQ PUSH2 0x15DC JUMPI PUSH0 DUP1 REVERT JUMPDEST SWAP2 SWAP1 POP JUMP JUMPDEST PUSH0 DUP1 PUSH1 0x40 DUP4 DUP6 SUB SLT ISZERO PUSH2 0x15F2 JUMPI PUSH0 DUP1 REVERT JUMPDEST PUSH2 0x15FB DUP4 PUSH2 0x15C6 JUMP JUMPDEST SWAP5 PUSH1 0x20 SWAP4 SWAP1 SWAP4 ADD CALLDATALOAD SWAP4 POP POP POP JUMP JUMPDEST PUSH0 PUSH1 0x20 DUP3 DUP5 SUB SLT ISZERO PUSH2 0x1619 JUMPI PUSH0 DUP1 REVERT JUMPDEST POP CALLDATALOAD SWAP2 SWAP1 POP JUMP JUMPDEST PUSH4 0x4E487B71 PUSH1 0xE0 SHL PUSH0 MSTORE PUSH1 0x41 PUSH1 0x4 MSTORE PUSH1 0x24 PUSH0 REVERT JUMPDEST PUSH0 DUP3 PUSH1 0x1F DUP4 ADD SLT PUSH2 0x1643 JUMPI PUSH0 DUP1 REVERT JUMPDEST DUP2 CALLDATALOAD PUSH8 0xFFFFFFFFFFFFFFFF DUP1 DUP3 GT ISZERO PUSH2 0x165E JUMPI PUSH2 0x165E PUSH2 0x1620 JUMP JUMPDEST PUSH1 0x40 MLOAD PUSH1 0x1F DUP4 ADD PUSH1 0x1F NOT SWAP1 DUP2 AND PUSH1 0x3F ADD AND DUP2 ADD SWAP1 DUP3 DUP3 GT DUP2 DUP4 LT OR ISZERO PUSH2 0x1686 JUMPI PUSH2 0x1686 PUSH2 0x1620 JUMP JUMPDEST DUP2 PUSH1 0x40 MSTORE DUP4 DUP2 MSTORE DUP7 PUSH1 0x20 DUP6 DUP9 ADD ADD GT ISZERO PUSH2 0x169E JUMPI PUSH0 DUP1 REVERT JUMPDEST DUP4 PUSH1 0x20 DUP8 ADD PUSH1 0x20 DUP4 ADD CALLDATACOPY PUSH0 PUSH1 0x20 DUP6 DUP4 ADD ADD MSTORE DUP1 SWAP5 POP POP POP POP POP SWAP3 SWAP2 POP POP JUMP JUMPDEST PUSH0 DUP1 PUSH0 DUP1 PUSH0 PUSH1 0xA0 DUP7 DUP9 SUB SLT ISZERO PUSH2 0x16D1 JUMPI PUSH0 DUP1 REVERT JUMPDEST DUP6 CALLDATALOAD PUSH8 0xFFFFFFFFFFFFFFFF DUP1 DUP3 GT ISZERO PUSH2 0x16E8 JUMPI PUSH0 DUP1 REVERT JUMPDEST PUSH2 0x16F4 DUP10 DUP4 DUP11 ADD PUSH2 0x1634 JUMP JUMPDEST SWAP7 POP PUSH1 0x20 DUP9 ADD CALLDATALOAD SWAP2 POP DUP1 DUP3 GT ISZERO PUSH2 0x1709 JUMPI PUSH0 DUP1 REVERT JUMPDEST POP PUSH2 0x1716 DUP9 DUP3 DUP10 ADD PUSH2 0x1634 JUMP JUMPDEST SWAP6 SWAP9 SWAP6 SWAP8 POP POP POP POP PUSH1 0x40 DUP5 ADD CALLDATALOAD SWAP4 PUSH1 0x60 DUP2 ADD CALLDATALOAD SWAP4 PUSH1 0x80 SWAP1 SWAP2 ADD CALLDATALOAD SWAP3 POP SWAP1 POP JUMP JUMPDEST PUSH0 DUP1 PUSH0 PUSH1 0x60 DUP5 DUP7 SUB SLT ISZERO PUSH2 0x1748 JUMPI PUSH0 DUP1 REVERT JUMPDEST PUSH2 0x1751 DUP5 PUSH2 0x15C6 JUMP JUMPDEST SWAP3 POP PUSH2 0x175F PUSH1 0x20 DUP6 ADD PUSH2 0x15C6 JUMP JUMPDEST SWAP2 POP PUSH1 0x40 DUP5 ADD CALLDATALOAD SWAP1 POP SWAP3 POP SWAP3 POP SWAP3 JUMP JUMPDEST PUSH0 DUP1 PUSH1 0x40 DUP4 DUP6 SUB SLT ISZERO PUSH2 0x1780 JUMPI PUSH0 DUP1 REVERT JUMPDEST POP POP DUP1 CALLDATALOAD SWAP3 PUSH1 0x20 SWAP1 SWAP2 ADD CALLDATALOAD SWAP2 POP JUMP JUMPDEST PUSH0 PUSH1 0x20 DUP3 DUP5 SUB SLT ISZERO PUSH2 0x179F JUMPI PUSH0 DUP1 REVERT JUMPDEST PUSH2 0x15BF DUP3 PUSH2 0x15C6 JUMP JUMPDEST PUSH0 DUP1 PUSH0 PUSH1 0x60 DUP5 DUP7 SUB SLT ISZERO PUSH2 0x17BA JUMPI PUSH0 DUP1 REVERT JUMPDEST POP POP DUP2 CALLDATALOAD SWAP4 PUSH1 0x20 DUP4 ADD CALLDATALOAD SWAP4 POP PUSH1 0x40 SWAP1 SWAP3 ADD CALLDATALOAD SWAP2 SWAP1 POP JUMP JUMPDEST PUSH1 0x1 DUP1 PUSH1 0xA0 SHL SUB DUP8 AND DUP2 MSTORE DUP6 PUSH1 0x20 DUP3 ADD MSTORE PUSH1 0xC0 PUSH1 0x40 DUP3 ADD MSTORE PUSH0 PUSH2 0x17F7 PUSH1 0xC0 DUP4 ADD DUP8 PUSH2 0x156A JUMP JUMPDEST DUP3 DUP2 SUB PUSH1 0x60 DUP5 ADD MSTORE PUSH2 0x1809 DUP2 DUP8 PUSH2 0x156A JUMP JUMPDEST PUSH1 0x80 DUP5 ADD SWAP6 SWAP1 SWAP6 MSTORE POP POP PUSH1 0xA0 ADD MSTORE SWAP5 SWAP4 POP POP POP POP JUMP JUMPDEST PUSH1 0x1 DUP1 PUSH1 0xA0 SHL SUB DUP2 MLOAD AND DUP3 MSTORE PUSH1 0x20 DUP2 ADD MLOAD PUSH1 0x20 DUP4 ADD MSTORE PUSH0 PUSH1 0x40 DUP3 ADD MLOAD PUSH1 0xC0 PUSH1 0x40 DUP6 ADD MSTORE PUSH2 0x184F PUSH1 0xC0 DUP6 ADD DUP3 PUSH2 0x156A JUMP JUMPDEST SWAP1 POP PUSH1 0x60 DUP4 ADD MLOAD DUP5 DUP3 SUB PUSH1 0x60 DUP7 ADD MSTORE PUSH2 0x1868 DUP3 DUP3 PUSH2 0x156A JUMP JUMPDEST SWAP2 POP POP PUSH1 0x80 DUP4 ADD MLOAD PUSH1 0x80 DUP6 ADD MSTORE PUSH1 0xA0 DUP4 ADD MLOAD PUSH1 0xA0 DUP6 ADD MSTORE DUP1 SWAP2 POP POP SWAP3 SWAP2 POP POP JUMP JUMPDEST PUSH1 0x20 DUP2 MSTORE PUSH0 PUSH2 0x15BF PUSH1 0x20 DUP4 ADD DUP5 PUSH2 0x181F JUMP JUMPDEST PUSH0 DUP1 PUSH1 0x40 DUP4 DUP6 SUB SLT ISZERO PUSH2 0x18AC JUMPI PUSH0 DUP1 REVERT JUMPDEST PUSH2 0x18B5 DUP4 PUSH2 0x15C6 JUMP JUMPDEST SWAP2 POP PUSH2 0x18C3 PUSH1 0x20 DUP5 ADD PUSH2 0x15C6 JUMP JUMPDEST SWAP1 POP SWAP3 POP SWAP3 SWAP1 POP JUMP JUMPDEST PUSH0 PUSH1 0x20 DUP1 DUP4 ADD DUP2 DUP5 MSTORE DUP1 DUP6 MLOAD DUP1 DUP4 MSTORE PUSH1 0x40 DUP7 ADD SWAP2 POP PUSH1 0x40 DUP2 PUSH1 0x5 SHL DUP8 ADD ADD SWAP3 POP DUP4 DUP8 ADD PUSH0 JUMPDEST DUP3 DUP2 LT ISZERO PUSH2 0x191F JUMPI PUSH1 0x3F NOT DUP9 DUP7 SUB ADD DUP5 MSTORE PUSH2 0x190D DUP6 DUP4 MLOAD PUSH2 0x181F JUMP JUMPDEST SWAP5 POP SWAP3 DUP6 ADD SWAP3 SWAP1 DUP6 ADD SWAP1 PUSH1 0x1 ADD PUSH2 0x18F1 JUMP JUMPDEST POP SWAP3 SWAP8 SWAP7 POP POP POP POP POP POP POP JUMP JUMPDEST PUSH1 0x1 DUP2 DUP2 SHR SWAP1 DUP3 AND DUP1 PUSH2 0x1940 JUMPI PUSH1 0x7F DUP3 AND SWAP2 POP JUMPDEST PUSH1 0x20 DUP3 LT DUP2 SUB PUSH2 0x195E JUMPI PUSH4 0x4E487B71 PUSH1 0xE0 SHL PUSH0 MSTORE PUSH1 0x22 PUSH1 0x4 MSTORE PUSH1 0x24 PUSH0 REVERT JUMPDEST POP SWAP2 SWAP1 POP JUMP JUMPDEST PUSH4 0x4E487B71 PUSH1 0xE0 SHL PUSH0 MSTORE PUSH1 0x32 PUSH1 0x4 MSTORE PUSH1 0x24 PUSH0 REVERT JUMPDEST PUSH4 0x4E487B71 PUSH1 0xE0 SHL PUSH0 MSTORE PUSH1 0x11 PUSH1 0x4 MSTORE PUSH1 0x24 PUSH0 REVERT JUMPDEST PUSH0 DUP3 PUSH2 0x19A6 JUMPI PUSH4 0x4E487B71 PUSH1 0xE0 SHL PUSH0 MSTORE PUSH1 0x12 PUSH1 0x4 MSTORE PUSH1 0x24 PUSH0 REVERT JUMPDEST POP DIV SWAP1 JUMP JUMPDEST PUSH0 PUSH1 0x20 DUP3 DUP5 SUB SLT ISZERO PUSH2 0x19BB JUMPI PUSH0 DUP1 REVERT JUMPDEST DUP2 MLOAD DUP1 ISZERO ISZERO DUP2 EQ PUSH2 0x15BF JUMPI PUSH0 DUP1 REVERT JUMPDEST DUP1 DUP3 MUL DUP2 ISZERO DUP3 DUP3 DIV DUP5 EQ OR PUSH2 0x44C JUMPI PUSH2 0x44C PUSH2 0x1978 JUMP JUMPDEST PUSH1 0x1F DUP3 GT ISZERO PUSH2 0x1176 JUMPI PUSH0 DUP2 DUP2 MSTORE PUSH1 0x20 DUP2 KECCAK256 PUSH1 0x1F DUP6 ADD PUSH1 0x5 SHR DUP2 ADD PUSH1 0x20 DUP7 LT ISZERO PUSH2 0x1A07 JUMPI POP DUP1 JUMPDEST PUSH1 0x1F DUP6 ADD PUSH1 0x5 SHR DUP3 ADD SWAP2 POP JUMPDEST DUP2 DUP2 LT ISZERO PUSH2 0x1A26 JUMPI DUP3 DUP2 SSTORE PUSH1 0x1 ADD PUSH2 0x1A13 JUMP JUMPDEST POP POP POP POP POP POP JUMP JUMPDEST DUP2 MLOAD PUSH8 0xFFFFFFFFFFFFFFFF DUP2 GT ISZERO PUSH2 0x1A48 JUMPI PUSH2 0x1A48 PUSH2 0x1620 JUMP JUMPDEST PUSH2 0x1A5C DUP2 PUSH2 0x1A56 DUP5 SLOAD PUSH2 0x192C JUMP JUMPDEST DUP5 PUSH2 0x19E1 JUMP JUMPDEST PUSH1 0x20 DUP1 PUSH1 0x1F DUP4 GT PUSH1 0x1 DUP2 EQ PUSH2 0x1A8F JUMPI PUSH0 DUP5 ISZERO PUSH2 0x1A78 JUMPI POP DUP6 DUP4 ADD MLOAD JUMPDEST PUSH0 NOT PUSH1 0x3 DUP7 SWAP1 SHL SHR NOT AND PUSH1 0x1 DUP6 SWAP1 SHL OR DUP6 SSTORE PUSH2 0x1A26 JUMP JUMPDEST PUSH0 DUP6 DUP2 MSTORE PUSH1 0x20 DUP2 KECCAK256 PUSH1 0x1F NOT DUP7 AND SWAP2 JUMPDEST DUP3 DUP2 LT ISZERO PUSH2 0x1ABD JUMPI DUP9 DUP7 ADD MLOAD DUP3 SSTORE SWAP5 DUP5 ADD SWAP5 PUSH1 0x1 SWAP1 SWAP2 ADD SWAP1 DUP5 ADD PUSH2 0x1A9E JUMP JUMPDEST POP DUP6 DUP3 LT ISZERO PUSH2 0x1ADA JUMPI DUP8 DUP6 ADD MLOAD PUSH0 NOT PUSH1 0x3 DUP9 SWAP1 SHL PUSH1 0xF8 AND SHR NOT AND DUP2 SSTORE JUMPDEST POP POP POP POP POP PUSH1 0x1 SWAP1 DUP2 SHL ADD SWAP1 SSTORE POP JUMP JUMPDEST DUP2 DUP2 SUB DUP2 DUP2 GT ISZERO PUSH2 0x44C JUMPI PUSH2 0x44C PUSH2 0x1978 JUMP JUMPDEST PUSH0 PUSH1 0x20 DUP3 DUP5 SUB SLT ISZERO PUSH2 0x1B0D JUMPI PUSH0 DUP1 REVERT JUMPDEST POP MLOAD SWAP2 SWAP1 POP JUMP JUMPDEST DUP1 DUP3 ADD DUP1 DUP3 GT ISZERO PUSH2 0x44C JUMPI PUSH2 0x44C PUSH2 0x1978 JUMP JUMPDEST PUSH0 PUSH1 0x1 DUP3 ADD PUSH2 0x1B38 JUMPI PUSH2 0x1B38 PUSH2 0x1978 JUMP JUMPDEST POP PUSH1 0x1 ADD SWAP1 JUMP INVALID LOG2 PUSH5 0x6970667358 0x22 SLT KECCAK256 0xCD PUSH23 0xBC054F9B7286B2319F7424A569C2B00A432882652B1101 0xDE ORIGIN SWAP8 0x27 JUMP DELEGATECALL 0x2E PUSH5 0x736F6C6343 STOP ADDMOD EQ STOP CALLER PUSH1 0x80 PUSH1 0x40 MSTORE CALLVALUE DUP1 ISZERO PUSH2 0xF JUMPI PUSH0 DUP1 REVERT JUMPDEST POP PUSH1 0x40 MLOAD PUSH2 0x35D CODESIZE SUB DUP1 PUSH2 0x35D DUP4 CODECOPY DUP2 ADD PUSH1 0x40 DUP2 SWAP1 MSTORE PUSH2 0x2E SWAP2 PUSH2 0xD1 JUMP JUMPDEST CALLER DUP1 PUSH2 0x53 JUMPI PUSH1 0x40 MLOAD PUSH4 0x1E4FBDF7 PUSH1 0xE0 SHL DUP2 MSTORE PUSH0 PUSH1 0x4 DUP3 ADD MSTORE PUSH1 0x24 ADD PUSH1 0x40 MLOAD DUP1 SWAP2 SUB SWAP1 REVERT JUMPDEST PUSH2 0x5C DUP2 PUSH2 0x82 JUMP JUMPDEST POP PUSH1 0x1 DUP1 SLOAD PUSH1 0x1 PUSH1 0x1 PUSH1 0xA0 SHL SUB NOT AND PUSH1 0x1 PUSH1 0x1 PUSH1 0xA0 SHL SUB SWAP3 SWAP1 SWAP3 AND SWAP2 SWAP1 SWAP2 OR SWAP1 SSTORE PUSH2 0xFE JUMP JUMPDEST PUSH0 DUP1 SLOAD PUSH1 0x1 PUSH1 0x1 PUSH1 0xA0 SHL SUB DUP4 DUP2 AND PUSH1 0x1 PUSH1 0x1 PUSH1 0xA0 SHL SUB NOT DUP4 AND DUP2 OR DUP5 SSTORE PUSH1 0x40 MLOAD SWAP2 SWAP1 SWAP3 AND SWAP3 DUP4 SWAP2 PUSH32 0x8BE0079C531659141344CD1FD0A4F28419497F9722A3DAAFE3B4186F6B6457E0 SWAP2 SWAP1 LOG3 POP POP JUMP JUMPDEST PUSH0 PUSH1 0x20 DUP3 DUP5 SUB SLT ISZERO PUSH2 0xE1 JUMPI PUSH0 DUP1 REVERT JUMPDEST DUP2 MLOAD PUSH1 0x1 PUSH1 0x1 PUSH1 0xA0 SHL SUB DUP2 AND DUP2 EQ PUSH2 0xF7 JUMPI PUSH0 DUP1 REVERT JUMPDEST SWAP4 SWAP3 POP POP POP JUMP JUMPDEST PUSH2 0x252 DUP1 PUSH2 0x10B PUSH0 CODECOPY PUSH0 RETURN INVALID PUSH1 0x80 PUSH1 0x40 MSTORE CALLVALUE DUP1 ISZERO PUSH2 0xF JUMPI PUSH0 DUP1 REVERT JUMPDEST POP PUSH1 0x4 CALLDATASIZE LT PUSH2 0x55 JUMPI PUSH0 CALLDATALOAD PUSH1 0xE0 SHR DUP1 PUSH4 0x2CA835A8 EQ PUSH2 0x59 JUMPI DUP1 PUSH4 0x715018A6 EQ PUSH2 0x81 JUMPI DUP1 PUSH4 0x8DA5CB5B EQ PUSH2 0x8B JUMPI DUP1 PUSH4 0xBD75AAE8 EQ PUSH2 0xA5 JUMPI DUP1 PUSH4 0xF2FDE38B EQ PUSH2 0xC6 JUMPI JUMPDEST PUSH0 DUP1 REVERT JUMPDEST PUSH2 0x6C PUSH2 0x67 CALLDATASIZE PUSH1 0x4 PUSH2 0x1D4 JUMP JUMPDEST PUSH2 0xD9 JUMP JUMPDEST PUSH1 0x40 MLOAD SWAP1 ISZERO ISZERO DUP2 MSTORE PUSH1 0x20 ADD JUMPDEST PUSH1 0x40 MLOAD DUP1 SWAP2 SUB SWAP1 RETURN JUMPDEST PUSH2 0x89 PUSH2 0xE2 JUMP JUMPDEST STOP JUMPDEST PUSH0 SLOAD PUSH1 0x40 MLOAD PUSH1 0x1 PUSH1 0x1 PUSH1 0xA0 SHL SUB SWAP1 SWAP2 AND DUP2 MSTORE PUSH1 0x20 ADD PUSH2 0x78 JUMP JUMPDEST PUSH2 0xB8 PUSH2 0xB3 CALLDATASIZE PUSH1 0x4 PUSH2 0x1D4 JUMP JUMPDEST PUSH2 0xF5 JUMP JUMPDEST PUSH1 0x40 MLOAD SWAP1 DUP2 MSTORE PUSH1 0x20 ADD PUSH2 0x78 JUMP JUMPDEST PUSH2 0x89 PUSH2 0xD4 CALLDATASIZE PUSH1 0x4 PUSH2 0x1FC JUMP JUMPDEST PUSH2 0xFC JUMP JUMPDEST PUSH1 0x1 JUMPDEST SWAP3 SWAP2 POP POP JUMP JUMPDEST PUSH2 0xEA PUSH2 0x13E JUMP JUMPDEST PUSH2 0xF3 PUSH0 PUSH2 0x16A JUMP JUMPDEST JUMP JUMPDEST PUSH1 0x1 PUSH2 0xDC JUMP JUMPDEST PUSH2 0x104 PUSH2 0x13E JUMP JUMPDEST PUSH1 0x1 PUSH1 0x1 PUSH1 0xA0 SHL SUB DUP2 AND PUSH2 0x132 JUMPI PUSH1 0x40 MLOAD PUSH4 0x1E4FBDF7 PUSH1 0xE0 SHL DUP2 MSTORE PUSH0 PUSH1 0x4 DUP3 ADD MSTORE PUSH1 0x24 ADD JUMPDEST PUSH1 0x40 MLOAD DUP1 SWAP2 SUB SWAP1 REVERT JUMPDEST PUSH2 0x13B DUP2 PUSH2 0x16A JUMP JUMPDEST POP JUMP JUMPDEST PUSH0 SLOAD PUSH1 0x1 PUSH1 0x1 PUSH1 0xA0 SHL SUB AND CALLER EQ PUSH2 0xF3 JUMPI PUSH1 0x40 MLOAD PUSH4 0x118CDAA7 PUSH1 0xE0 SHL DUP2 MSTORE CALLER PUSH1 0x4 DUP3 ADD MSTORE PUSH1 0x24 ADD PUSH2 0x129 JUMP JUMPDEST PUSH0 DUP1 SLOAD PUSH1 0x1 PUSH1 0x1 PUSH1 0xA0 SHL SUB DUP4 DUP2 AND PUSH1 0x1 PUSH1 0x1 PUSH1 0xA0 SHL SUB NOT DUP4 AND DUP2 OR DUP5 SSTORE PUSH1 0x40 MLOAD SWAP2 SWAP1 SWAP3 AND SWAP3 DUP4 SWAP2 PUSH32 0x8BE0079C531659141344CD1FD0A4F28419497F9722A3DAAFE3B4186F6B6457E0 SWAP2 SWAP1 LOG3 POP POP JUMP JUMPDEST DUP1 CALLDATALOAD PUSH1 0x1 PUSH1 0x1 PUSH1 0xA0 SHL SUB DUP2 AND DUP2 EQ PUSH2 0x1CF JUMPI PUSH0 DUP1 REVERT JUMPDEST SWAP2 SWAP1 POP JUMP JUMPDEST PUSH0 DUP1 PUSH1 0x40 DUP4 DUP6 SUB SLT ISZERO PUSH2 0x1E5 JUMPI PUSH0 DUP1 REVERT JUMPDEST PUSH2 0x1EE DUP4 PUSH2 0x1B9 JUMP JUMPDEST SWAP5 PUSH1 0x20 SWAP4 SWAP1 SWAP4 ADD CALLDATALOAD SWAP4 POP POP POP JUMP JUMPDEST PUSH0 PUSH1 0x20 DUP3 DUP5 SUB SLT ISZERO PUSH2 0x20C JUMPI PUSH0 DUP1 REVERT JUMPDEST PUSH2 0x215 DUP3 PUSH2 0x1B9 JUMP JUMPDEST SWAP4 SWAP3 POP POP POP JUMP INVALID LOG2 PUSH5 0x6970667358 0x22 SLT KECCAK256 PUSH1 0xB7 CODECOPY PUSH17 0x6BC2FFE4187C03F614CD620B154157954B CALLDATALOAD 0x4E 0x29 SWAP1 0xD1 0xD9 CALLCODE PUSH6 0x4D9FB864736F PUSH13 0x63430008140033000000000000 "
				},
				"gasEstimates": {
					"creation": {
						"codeDepositCost": "1405800",
						"executionCost": "infinite",
						"totalCost": "infinite"
					},
					"external": {
						"_lastJoinTime(address)": "2583",
						"_rewards()": "2405",
						"_topics(uint256)": "infinite",
						"_voterCounts(uint256)": "2480",
						"_votes(uint256,uint256)": "2575",
						"allowance(address,address)": "infinite",
						"approve(address,uint256)": "24758",
						"balanceOf(address)": "2626",
						"claimRewards(uint256)": "66158",
						"create(string,string,uint256,uint256,bytes32)": "infinite",
						"decimals()": "199",
						"name()": "infinite",
						"owner()": "2323",
						"renounceOwnership()": "infinite",
						"symbol()": "infinite",
						"topicAt(uint256)": "infinite",
						"topicTotal()": "2423",
						"topics(uint256,uint256)": "infinite",
						"totalSupply()": "2392",
						"transfer(address,uint256)": "51349",
						"transferFrom(address,address,uint256)": "infinite",
						"transferOwnership(address)": "28443",
						"updateRewards(uint256)": "24508",
						"vote(uint256,uint256,bytes32)": "infinite"
					}
				},
				"methodIdentifiers": {
					"_lastJoinTime(address)": "68229099",
					"_rewards()": "a6c2da4c",
					"_topics(uint256)": "9a383dfd",
					"_voterCounts(uint256)": "93ad4aca",
					"_votes(uint256,uint256)": "63b6ad97",
					"allowance(address,address)": "dd62ed3e",
					"approve(address,uint256)": "095ea7b3",
					"balanceOf(address)": "70a08231",
					"claimRewards(uint256)": "0962ef79",
					"create(string,string,uint256,uint256,bytes32)": "0a05b17f",
					"decimals()": "313ce567",
					"name()": "06fdde03",
					"owner()": "8da5cb5b",
					"renounceOwnership()": "715018a6",
					"symbol()": "95d89b41",
					"topicAt(uint256)": "cda411be",
					"topicTotal()": "f7cb2657",
					"topics(uint256,uint256)": "ed2e39a7",
					"totalSupply()": "18160ddd",
					"transfer(address,uint256)": "a9059cbb",
					"transferFrom(address,address,uint256)": "23b872dd",
					"transferOwnership(address)": "f2fde38b",
					"updateRewards(uint256)": "b1e95e94",
					"vote(uint256,uint256,bytes32)": "8c881eeb"
				}
			},
			"storageLayout": {
				"storage": [
					{
						"astId": 307,
						"contract": "contracts/Bias.sol:BiasProtocol",
						"label": "_balances",
						"offset": 0,
						"slot": "0",
						"type": "t_mapping(t_address,t_uint256)"
					},
					{
						"astId": 313,
						"contract": "contracts/Bias.sol:BiasProtocol",
						"label": "_allowances",
						"offset": 0,
						"slot": "1",
						"type": "t_mapping(t_address,t_mapping(t_address,t_uint256))"
					},
					{
						"astId": 315,
						"contract": "contracts/Bias.sol:BiasProtocol",
						"label": "_totalSupply",
						"offset": 0,
						"slot": "2",
						"type": "t_uint256"
					},
					{
						"astId": 317,
						"contract": "contracts/Bias.sol:BiasProtocol",
						"label": "_name",
						"offset": 0,
						"slot": "3",
						"type": "t_string_storage"
					},
					{
						"astId": 319,
						"contract": "contracts/Bias.sol:BiasProtocol",
						"label": "_symbol",
						"offset": 0,
						"slot": "4",
						"type": "t_string_storage"
					},
					{
						"astId": 8,
						"contract": "contracts/Bias.sol:BiasProtocol",
						"label": "_owner",
						"offset": 0,
						"slot": "5",
						"type": "t_address"
					},
					{
						"astId": 964,
						"contract": "contracts/Bias.sol:BiasProtocol",
						"label": "_rewards",
						"offset": 0,
						"slot": "6",
						"type": "t_uint256"
					},
					{
						"astId": 968,
						"contract": "contracts/Bias.sol:BiasProtocol",
						"label": "_topics",
						"offset": 0,
						"slot": "7",
						"type": "t_array(t_struct(Topic)958_storage)dyn_storage"
					},
					{
						"astId": 975,
						"contract": "contracts/Bias.sol:BiasProtocol",
						"label": "_votes",
						"offset": 0,
						"slot": "8",
						"type": "t_mapping(t_uint256,t_mapping(t_uint256,t_uint256))"
					},
					{
						"astId": 980,
						"contract": "contracts/Bias.sol:BiasProtocol",
						"label": "_voterCounts",
						"offset": 0,
						"slot": "9",
						"type": "t_mapping(t_uint256,t_uint256)"
					},
					{
						"astId": 985,
						"contract": "contracts/Bias.sol:BiasProtocol",
						"label": "_living",
						"offset": 0,
						"slot": "10",
						"type": "t_mapping(t_address,t_uint256)"
					},
					{
						"astId": 988,
						"contract": "contracts/Bias.sol:BiasProtocol",
						"label": "_credentialVerifier",
						"offset": 0,
						"slot": "11",
						"type": "t_contract(CredentialVerifier)1414"
					},
					{
						"astId": 992,
						"contract": "contracts/Bias.sol:BiasProtocol",
						"label": "_lastJoinTime",
						"offset": 0,
						"slot": "12",
						"type": "t_mapping(t_address,t_uint256)"
					}
				],
				"types": {
					"t_address": {
						"encoding": "inplace",
						"label": "address",
						"numberOfBytes": "20"
					},
					"t_array(t_struct(Topic)958_storage)dyn_storage": {
						"base": "t_struct(Topic)958_storage",
						"encoding": "dynamic_array",
						"label": "struct BiasProtocol.Topic[]",
						"numberOfBytes": "32"
					},
					"t_contract(CredentialVerifier)1414": {
						"encoding": "inplace",
						"label": "contract CredentialVerifier",
						"numberOfBytes": "20"
					},
					"t_mapping(t_address,t_mapping(t_address,t_uint256))": {
						"encoding": "mapping",
						"key": "t_address",
						"label": "mapping(address => mapping(address => uint256))",
						"numberOfBytes": "32",
						"value": "t_mapping(t_address,t_uint256)"
					},
					"t_mapping(t_address,t_uint256)": {
						"encoding": "mapping",
						"key": "t_address",
						"label": "mapping(address => uint256)",
						"numberOfBytes": "32",
						"value": "t_uint256"
					},
					"t_mapping(t_uint256,t_mapping(t_uint256,t_uint256))": {
						"encoding": "mapping",
						"key": "t_uint256",
						"label": "mapping(uint256 => mapping(uint256 => uint256))",
						"numberOfBytes": "32",
						"value": "t_mapping(t_uint256,t_uint256)"
					},
					"t_mapping(t_uint256,t_uint256)": {
						"encoding": "mapping",
						"key": "t_uint256",
						"label": "mapping(uint256 => uint256)",
						"numberOfBytes": "32",
						"value": "t_uint256"
					},
					"t_string_storage": {
						"encoding": "bytes",
						"label": "string",
						"numberOfBytes": "32"
					},
					"t_struct(Topic)958_storage": {
						"encoding": "inplace",
						"label": "struct BiasProtocol.Topic",
						"members": [
							{
								"astId": 946,
								"contract": "contracts/Bias.sol:BiasProtocol",
								"label": "creator",
								"offset": 0,
								"slot": "0",
								"type": "t_address"
							},
							{
								"astId": 948,
								"contract": "contracts/Bias.sol:BiasProtocol",
								"label": "createdAt",
								"offset": 0,
								"slot": "1",
								"type": "t_uint256"
							},
							{
								"astId": 950,
								"contract": "contracts/Bias.sol:BiasProtocol",
								"label": "title",
								"offset": 0,
								"slot": "2",
								"type": "t_string_storage"
							},
							{
								"astId": 952,
								"contract": "contracts/Bias.sol:BiasProtocol",
								"label": "content",
								"offset": 0,
								"slot": "3",
								"type": "t_string_storage"
							},
							{
								"astId": 954,
								"contract": "contracts/Bias.sol:BiasProtocol",
								"label": "funds",
								"offset": 0,
								"slot": "4",
								"type": "t_uint256"
							},
							{
								"astId": 957,
								"contract": "contracts/Bias.sol:BiasProtocol",
								"label": "max",
								"offset": 0,
								"slot": "5",
								"type": "t_uint256"
							}
						],
						"numberOfBytes": "192"
					},
					"t_uint256": {
						"encoding": "inplace",
						"label": "uint256",
						"numberOfBytes": "32"
					}
				}
			},
			"userdoc": {
				"kind": "user",
				"methods": {},
				"version": 1
			}
		}
	}
}