{
	"contracts/Bias.sol": {
		"BiasProtocol": {
			"abi": [
				{
					"inputs": [],
					"stateMutability": "nonpayable",
					"type": "constructor"
				},
				{
					"inputs": [
						{
							"internalType": "address",
							"name": "spender",
							"type": "address"
						},
						{
							"internalType": "uint256",
							"name": "allowance",
							"type": "uint256"
						},
						{
							"internalType": "uint256",
							"name": "needed",
							"type": "uint256"
						}
					],
					"name": "ERC20InsufficientAllowance",
					"type": "error"
				},
				{
					"inputs": [
						{
							"internalType": "address",
							"name": "sender",
							"type": "address"
						},
						{
							"internalType": "uint256",
							"name": "balance",
							"type": "uint256"
						},
						{
							"internalType": "uint256",
							"name": "needed",
							"type": "uint256"
						}
					],
					"name": "ERC20InsufficientBalance",
					"type": "error"
				},
				{
					"inputs": [
						{
							"internalType": "address",
							"name": "approver",
							"type": "address"
						}
					],
					"name": "ERC20InvalidApprover",
					"type": "error"
				},
				{
					"inputs": [
						{
							"internalType": "address",
							"name": "receiver",
							"type": "address"
						}
					],
					"name": "ERC20InvalidReceiver",
					"type": "error"
				},
				{
					"inputs": [
						{
							"internalType": "address",
							"name": "sender",
							"type": "address"
						}
					],
					"name": "ERC20InvalidSender",
					"type": "error"
				},
				{
					"inputs": [
						{
							"internalType": "address",
							"name": "spender",
							"type": "address"
						}
					],
					"name": "ERC20InvalidSpender",
					"type": "error"
				},
				{
					"inputs": [
						{
							"internalType": "address",
							"name": "owner",
							"type": "address"
						}
					],
					"name": "OwnableInvalidOwner",
					"type": "error"
				},
				{
					"inputs": [
						{
							"internalType": "address",
							"name": "account",
							"type": "address"
						}
					],
					"name": "OwnableUnauthorizedAccount",
					"type": "error"
				},
				{
					"anonymous": false,
					"inputs": [
						{
							"indexed": true,
							"internalType": "address",
							"name": "owner",
							"type": "address"
						},
						{
							"indexed": true,
							"internalType": "address",
							"name": "spender",
							"type": "address"
						},
						{
							"indexed": false,
							"internalType": "uint256",
							"name": "value",
							"type": "uint256"
						}
					],
					"name": "Approval",
					"type": "event"
				},
				{
					"anonymous": false,
					"inputs": [
						{
							"indexed": true,
							"internalType": "address",
							"name": "previousOwner",
							"type": "address"
						},
						{
							"indexed": true,
							"internalType": "address",
							"name": "newOwner",
							"type": "address"
						}
					],
					"name": "OwnershipTransferred",
					"type": "event"
				},
				{
					"anonymous": false,
					"inputs": [
						{
							"indexed": true,
							"internalType": "address",
							"name": "from",
							"type": "address"
						},
						{
							"indexed": true,
							"internalType": "address",
							"name": "to",
							"type": "address"
						},
						{
							"indexed": false,
							"internalType": "uint256",
							"name": "value",
							"type": "uint256"
						}
					],
					"name": "Transfer",
					"type": "event"
				},
				{
					"anonymous": false,
					"inputs": [
						{
							"indexed": true,
							"internalType": "address",
							"name": "voter",
							"type": "address"
						},
						{
							"indexed": true,
							"internalType": "uint256",
							"name": "topicId",
							"type": "uint256"
						},
						{
							"indexed": false,
							"internalType": "uint256",
							"name": "choice",
							"type": "uint256"
						},
						{
							"indexed": false,
							"internalType": "uint256",
							"name": "weight",
							"type": "uint256"
						}
					],
					"name": "Vote",
					"type": "event"
				},
				{
					"inputs": [
						{
							"internalType": "address",
							"name": "",
							"type": "address"
						}
					],
					"name": "_lastJoinTime",
					"outputs": [
						{
							"internalType": "uint256",
							"name": "",
							"type": "uint256"
						}
					],
					"stateMutability": "view",
					"type": "function"
				},
				{
					"inputs": [],
					"name": "_rewards",
					"outputs": [
						{
							"internalType": "uint256",
							"name": "",
							"type": "uint256"
						}
					],
					"stateMutability": "view",
					"type": "function"
				},
				{
					"inputs": [
						{
							"internalType": "uint256",
							"name": "",
							"type": "uint256"
						}
					],
					"name": "_topics",
					"outputs": [
						{
							"internalType": "address",
							"name": "creator",
							"type": "address"
						},
						{
							"internalType": "uint256",
							"name": "createdAt",
							"type": "uint256"
						},
						{
							"internalType": "string",
							"name": "title",
							"type": "string"
						},
						{
							"internalType": "string",
							"name": "content",
							"type": "string"
						},
						{
							"internalType": "uint256",
							"name": "funds",
							"type": "uint256"
						},
						{
							"internalType": "uint256",
							"name": "max",
							"type": "uint256"
						}
					],
					"stateMutability": "view",
					"type": "function"
				},
				{
					"inputs": [
						{
							"internalType": "uint256",
							"name": "",
							"type": "uint256"
						}
					],
					"name": "_voterCounts",
					"outputs": [
						{
							"internalType": "uint256",
							"name": "",
							"type": "uint256"
						}
					],
					"stateMutability": "view",
					"type": "function"
				},
				{
					"inputs": [
						{
							"internalType": "uint256",
							"name": "",
							"type": "uint256"
						},
						{
							"internalType": "uint256",
							"name": "",
							"type": "uint256"
						}
					],
					"name": "_votes",
					"outputs": [
						{
							"internalType": "uint256",
							"name": "",
							"type": "uint256"
						}
					],
					"stateMutability": "view",
					"type": "function"
				},
				{
					"inputs": [
						{
							"internalType": "address",
							"name": "owner",
							"type": "address"
						},
						{
							"internalType": "address",
							"name": "spender",
							"type": "address"
						}
					],
					"name": "allowance",
					"outputs": [
						{
							"internalType": "uint256",
							"name": "",
							"type": "uint256"
						}
					],
					"stateMutability": "view",
					"type": "function"
				},
				{
					"inputs": [
						{
							"internalType": "address",
							"name": "spender",
							"type": "address"
						},
						{
							"internalType": "uint256",
							"name": "value",
							"type": "uint256"
						}
					],
					"name": "approve",
					"outputs": [
						{
							"internalType": "bool",
							"name": "",
							"type": "bool"
						}
					],
					"stateMutability": "nonpayable",
					"type": "function"
				},
				{
					"inputs": [
						{
							"internalType": "address",
							"name": "account",
							"type": "address"
						}
					],
					"name": "balanceOf",
					"outputs": [
						{
							"internalType": "uint256",
							"name": "",
							"type": "uint256"
						}
					],
					"stateMutability": "view",
					"type": "function"
				},
				{
					"inputs": [
						{
							"internalType": "uint256",
							"name": "topicId",
							"type": "uint256"
						}
					],
					"name": "claimRewards",
					"outputs": [],
					"stateMutability": "nonpayable",
					"type": "function"
				},
				{
					"inputs": [
						{
							"internalType": "string",
							"name": "title",
							"type": "string"
						},
						{
							"internalType": "string",
							"name": "content",
							"type": "string"
						},
						{
							"internalType": "uint256",
							"name": "funds",
							"type": "uint256"
						},
						{
							"internalType": "uint256",
							"name": "max",
							"type": "uint256"
						},
						{
							"internalType": "bytes32",
							"name": "gitcoinPassUid",
							"type": "bytes32"
						}
					],
					"name": "create",
					"outputs": [],
					"stateMutability": "nonpayable",
					"type": "function"
				},
				{
					"inputs": [],
					"name": "decimals",
					"outputs": [
						{
							"internalType": "uint8",
							"name": "",
							"type": "uint8"
						}
					],
					"stateMutability": "view",
					"type": "function"
				},
				{
					"inputs": [],
					"name": "name",
					"outputs": [
						{
							"internalType": "string",
							"name": "",
							"type": "string"
						}
					],
					"stateMutability": "view",
					"type": "function"
				},
				{
					"inputs": [],
					"name": "owner",
					"outputs": [
						{
							"internalType": "address",
							"name": "",
							"type": "address"
						}
					],
					"stateMutability": "view",
					"type": "function"
				},
				{
					"inputs": [],
					"name": "renounceOwnership",
					"outputs": [],
					"stateMutability": "nonpayable",
					"type": "function"
				},
				{
					"inputs": [],
					"name": "symbol",
					"outputs": [
						{
							"internalType": "string",
							"name": "",
							"type": "string"
						}
					],
					"stateMutability": "view",
					"type": "function"
				},
				{
					"inputs": [
						{
							"internalType": "uint256",
							"name": "index",
							"type": "uint256"
						}
					],
					"name": "topicAt",
					"outputs": [
						{
							"components": [
								{
									"internalType": "address",
									"name": "creator",
									"type": "address"
								},
								{
									"internalType": "uint256",
									"name": "createdAt",
									"type": "uint256"
								},
								{
									"internalType": "string",
									"name": "title",
									"type": "string"
								},
								{
									"internalType": "string",
									"name": "content",
									"type": "string"
								},
								{
									"internalType": "uint256",
									"name": "funds",
									"type": "uint256"
								},
								{
									"internalType": "uint256",
									"name": "max",
									"type": "uint256"
								}
							],
							"internalType": "struct BiasProtocol.Topic",
							"name": "",
							"type": "tuple"
						}
					],
					"stateMutability": "nonpayable",
					"type": "function"
				},
				{
					"inputs": [],
					"name": "totalSupply",
					"outputs": [
						{
							"internalType": "uint256",
							"name": "",
							"type": "uint256"
						}
					],
					"stateMutability": "view",
					"type": "function"
				},
				{
					"inputs": [
						{
							"internalType": "address",
							"name": "to",
							"type": "address"
						},
						{
							"internalType": "uint256",
							"name": "value",
							"type": "uint256"
						}
					],
					"name": "transfer",
					"outputs": [
						{
							"internalType": "bool",
							"name": "",
							"type": "bool"
						}
					],
					"stateMutability": "nonpayable",
					"type": "function"
				},
				{
					"inputs": [
						{
							"internalType": "address",
							"name": "from",
							"type": "address"
						},
						{
							"internalType": "address",
							"name": "to",
							"type": "address"
						},
						{
							"internalType": "uint256",
							"name": "value",
							"type": "uint256"
						}
					],
					"name": "transferFrom",
					"outputs": [
						{
							"internalType": "bool",
							"name": "",
							"type": "bool"
						}
					],
					"stateMutability": "nonpayable",
					"type": "function"
				},
				{
					"inputs": [
						{
							"internalType": "address",
							"name": "newOwner",
							"type": "address"
						}
					],
					"name": "transferOwnership",
					"outputs": [],
					"stateMutability": "nonpayable",
					"type": "function"
				},
				{
					"inputs": [
						{
							"internalType": "uint256",
							"name": "rewards_",
							"type": "uint256"
						}
					],
					"name": "updateRewards",
					"outputs": [],
					"stateMutability": "nonpayable",
					"type": "function"
				},
				{
					"inputs": [
						{
							"internalType": "uint256",
							"name": "topicId",
							"type": "uint256"
						},
						{
							"internalType": "uint256",
							"name": "voteFor",
							"type": "uint256"
						},
						{
							"internalType": "bytes32",
							"name": "gitcoinPassUid",
							"type": "bytes32"
						}
					],
					"name": "vote",
					"outputs": [],
					"stateMutability": "nonpayable",
					"type": "function"
				}
			],
			"devdoc": {
				"errors": {
					"ERC20InsufficientAllowance(address,uint256,uint256)": [
						{
							"details": "Indicates a failure with the `spender`’s `allowance`. Used in transfers.",
							"params": {
								"allowance": "Amount of tokens a `spender` is allowed to operate with.",
								"needed": "Minimum amount required to perform a transfer.",
								"spender": "Address that may be allowed to operate on tokens without being their owner."
							}
						}
					],
					"ERC20InsufficientBalance(address,uint256,uint256)": [
						{
							"details": "Indicates an error related to the current `balance` of a `sender`. Used in transfers.",
							"params": {
								"balance": "Current balance for the interacting account.",
								"needed": "Minimum amount required to perform a transfer.",
								"sender": "Address whose tokens are being transferred."
							}
						}
					],
					"ERC20InvalidApprover(address)": [
						{
							"details": "Indicates a failure with the `approver` of a token to be approved. Used in approvals.",
							"params": {
								"approver": "Address initiating an approval operation."
							}
						}
					],
					"ERC20InvalidReceiver(address)": [
						{
							"details": "Indicates a failure with the token `receiver`. Used in transfers.",
							"params": {
								"receiver": "Address to which tokens are being transferred."
							}
						}
					],
					"ERC20InvalidSender(address)": [
						{
							"details": "Indicates a failure with the token `sender`. Used in transfers.",
							"params": {
								"sender": "Address whose tokens are being transferred."
							}
						}
					],
					"ERC20InvalidSpender(address)": [
						{
							"details": "Indicates a failure with the `spender` to be approved. Used in approvals.",
							"params": {
								"spender": "Address that may be allowed to operate on tokens without being their owner."
							}
						}
					],
					"OwnableInvalidOwner(address)": [
						{
							"details": "The owner is not a valid owner account. (eg. `address(0)`)"
						}
					],
					"OwnableUnauthorizedAccount(address)": [
						{
							"details": "The caller account is not authorized to perform an operation."
						}
					]
				},
				"events": {
					"Approval(address,address,uint256)": {
						"details": "Emitted when the allowance of a `spender` for an `owner` is set by a call to {approve}. `value` is the new allowance."
					},
					"Transfer(address,address,uint256)": {
						"details": "Emitted when `value` tokens are moved from one account (`from`) to another (`to`). Note that `value` may be zero."
					}
				},
				"kind": "dev",
				"methods": {
					"allowance(address,address)": {
						"details": "See {IERC20-allowance}."
					},
					"approve(address,uint256)": {
						"details": "See {IERC20-approve}. NOTE: If `value` is the maximum `uint256`, the allowance is not updated on `transferFrom`. This is semantically equivalent to an infinite approval. Requirements: - `spender` cannot be the zero address."
					},
					"balanceOf(address)": {
						"details": "See {IERC20-balanceOf}."
					},
					"claimRewards(uint256)": {
						"details": "A successful votings could redeem the funds and receive a 10% bonus"
					},
					"create(string,string,uint256,uint256,bytes32)": {
						"details": "The fund must be more than 10% voter rewards; The creators could get refunds when the topic is fulfilled. It is designed to decrease outdated topics and the creators should choose the participants numebr wisely."
					},
					"decimals()": {
						"details": "Returns the number of decimals used to get its user representation. For example, if `decimals` equals `2`, a balance of `505` tokens should be displayed to a user as `5.05` (`505 / 10 ** 2`). Tokens usually opt for a value of 18, imitating the relationship between Ether and Wei. This is the default value returned by this function, unless it's overridden. NOTE: This information is only used for _display_ purposes: it in no way affects any of the arithmetic of the contract, including {IERC20-balanceOf} and {IERC20-transfer}."
					},
					"name()": {
						"details": "Returns the name of the token."
					},
					"owner()": {
						"details": "Returns the address of the current owner."
					},
					"renounceOwnership()": {
						"details": "Leaves the contract without owner. It will not be possible to call `onlyOwner` functions. Can only be called by the current owner. NOTE: Renouncing ownership will leave the contract without an owner, thereby disabling any functionality that is only available to the owner."
					},
					"symbol()": {
						"details": "Returns the symbol of the token, usually a shorter version of the name."
					},
					"totalSupply()": {
						"details": "See {IERC20-totalSupply}."
					},
					"transfer(address,uint256)": {
						"details": "See {IERC20-transfer}. Requirements: - `to` cannot be the zero address. - the caller must have a balance of at least `value`."
					},
					"transferFrom(address,address,uint256)": {
						"details": "See {IERC20-transferFrom}. Emits an {Approval} event indicating the updated allowance. This is not required by the EIP. See the note at the beginning of {ERC20}. NOTE: Does not update the allowance if the current allowance is the maximum `uint256`. Requirements: - `from` and `to` cannot be the zero address. - `from` must have a balance of at least `value`. - the caller must have allowance for ``from``'s tokens of at least `value`."
					},
					"transferOwnership(address)": {
						"details": "Transfers ownership of the contract to a new account (`newOwner`). Can only be called by the current owner."
					},
					"updateRewards(uint256)": {
						"details": "the owner could be migrated to the relayer of inflation control"
					},
					"vote(uint256,uint256,bytes32)": {
						"details": "Each single user could vote once per day."
					}
				},
				"stateVariables": {
					"_living": {
						"details": "Each user is allowed to create one live topic at the time. Once the topic is fulfilled the user could create the next topic. The purpose is to decrease verbose topics."
					},
					"_rewards": {
						"details": "Earnings each vote"
					},
					"_voterCounts": {
						"details": "Voter counts storage"
					},
					"_votes": {
						"details": "Votes result storage"
					}
				},
				"version": 1
			},
			"evm": {
				"assembly": "    /* \"contracts/Bias.sol\":209:4217  contract BiasProtocol is ERC20, Ownable{... */\n  mstore(0x40, 0x80)\n    /* \"contracts/Bias.sol\":681:690  10 * 1e18 */\n  0x8ac7230489e80000\n    /* \"contracts/Bias.sol\":658:690  uint public _rewards = 10 * 1e18 */\n  0x06\n  sstore\n    /* \"contracts/Bias.sol\":1347:1524  constructor() ERC20(\"BIAS\", \"BIAS\") Ownable(msg.sender){... */\n  callvalue\n  dup1\n  iszero\n  tag_1\n  jumpi\n  0x00\n  dup1\n  revert\ntag_1:\n  pop\n    /* \"@openzeppelin/contracts/token/ERC20/ERC20.sol\":1896:2009  constructor(string memory name_, string memory symbol_) {... */\n  0x40\n  dup1\n  mload\n  dup1\n  dup3\n  add\n  dup3\n  mstore\n  0x04\n  dup1\n  dup3\n  mstore\n  shl(0xe0, 0x42494153)\n  0x20\n  dup1\n  dup5\n  add\n  dup3\n  swap1\n  mstore\n  dup5\n  mload\n  dup1\n  dup7\n  add\n  swap1\n  swap6\n  mstore\n  swap2\n  dup5\n  mstore\n  swap1\n  dup4\n  add\n  mstore\n    /* \"contracts/Bias.sol\":1391:1401  msg.sender */\n  caller\n  swap2\n    /* \"@openzeppelin/contracts/token/ERC20/ERC20.sol\":1962:1967  _name */\n  0x03\n    /* \"@openzeppelin/contracts/token/ERC20/ERC20.sol\":1962:1975  _name = name_ */\n  tag_6\n    /* \"@openzeppelin/contracts/token/ERC20/ERC20.sol\":1896:2009  constructor(string memory name_, string memory symbol_) {... */\n  dup4\n    /* \"@openzeppelin/contracts/token/ERC20/ERC20.sol\":1962:1967  _name */\n  dup3\n    /* \"@openzeppelin/contracts/token/ERC20/ERC20.sol\":1962:1975  _name = name_ */\n  tag_7\n  jump\t// in\ntag_6:\n  pop\n    /* \"@openzeppelin/contracts/token/ERC20/ERC20.sol\":1985:1992  _symbol */\n  0x04\n    /* \"@openzeppelin/contracts/token/ERC20/ERC20.sol\":1985:2002  _symbol = symbol_ */\n  tag_8\n    /* \"@openzeppelin/contracts/token/ERC20/ERC20.sol\":1995:2002  symbol_ */\n  dup3\n    /* \"@openzeppelin/contracts/token/ERC20/ERC20.sol\":1985:1992  _symbol */\n  dup3\n    /* \"@openzeppelin/contracts/token/ERC20/ERC20.sol\":1985:2002  _symbol = symbol_ */\n  tag_7\n  jump\t// in\ntag_8:\n  pop\n  pop\n  pop\n  sub(shl(0xa0, 0x01), 0x01)\n    /* \"@openzeppelin/contracts/access/Ownable.sol\":1273:1299  initialOwner == address(0) */\n  dup2\n  and\n    /* \"@openzeppelin/contracts/access/Ownable.sol\":1269:1364  if (initialOwner == address(0)) {... */\n  tag_10\n  jumpi\n    /* \"@openzeppelin/contracts/access/Ownable.sol\":1322:1353  OwnableInvalidOwner(address(0)) */\n  mload(0x40)\n  shl(0xe0, 0x1e4fbdf7)\n  dup2\n  mstore\n    /* \"@openzeppelin/contracts/access/Ownable.sol\":1350:1351  0 */\n  0x00\n    /* \"@openzeppelin/contracts/access/Ownable.sol\":1322:1353  OwnableInvalidOwner(address(0)) */\n  0x04\n  dup3\n  add\n    /* \"#utility.yul\":2881:2932   */\n  mstore\n    /* \"#utility.yul\":2854:2872   */\n  0x24\n  add\n    /* \"@openzeppelin/contracts/access/Ownable.sol\":1322:1353  OwnableInvalidOwner(address(0)) */\n  mload(0x40)\n  dup1\n  swap2\n  sub\n  swap1\n  revert\n    /* \"@openzeppelin/contracts/access/Ownable.sol\":1269:1364  if (initialOwner == address(0)) {... */\ntag_10:\n    /* \"@openzeppelin/contracts/access/Ownable.sol\":1373:1405  _transferOwnership(initialOwner) */\n  tag_13\n    /* \"@openzeppelin/contracts/access/Ownable.sol\":1392:1404  initialOwner */\n  dup2\n    /* \"@openzeppelin/contracts/access/Ownable.sol\":1373:1391  _transferOwnership */\n  tag_14\n    /* \"@openzeppelin/contracts/access/Ownable.sol\":1373:1405  _transferOwnership(initialOwner) */\n  jump\t// in\ntag_13:\n    /* \"@openzeppelin/contracts/access/Ownable.sol\":1225:1412  constructor(address initialOwner) {... */\n  pop\n    /* \"contracts/Bias.sol\":1473:1515  0xc94aBf0292Ac04AAC18C251d9C8169a8dd2BBbDC */\n  0xc94abf0292ac04aac18c251d9c8169a8dd2bbbdc\n    /* \"contracts/Bias.sol\":1450:1516  new CredentialVerifier(0xc94aBf0292Ac04AAC18C251d9C8169a8dd2BBbDC) */\n  mload(0x40)\n  tag_16\n  swap1\n  tag_17\n  jump\t// in\ntag_16:\n  sub(shl(0xa0, 0x01), 0x01)\n    /* \"#utility.yul\":2899:2931   */\n  swap1\n  swap2\n  and\n    /* \"#utility.yul\":2881:2932   */\n  dup2\n  mstore\n    /* \"#utility.yul\":2869:2871   */\n  0x20\n    /* \"#utility.yul\":2854:2872   */\n  add\n    /* \"contracts/Bias.sol\":1450:1516  new CredentialVerifier(0xc94aBf0292Ac04AAC18C251d9C8169a8dd2BBbDC) */\n  mload(0x40)\n  dup1\n  swap2\n  sub\n  swap1\n  0x00\n  create\n  dup1\n  iszero\n  dup1\n  iszero\n  tag_19\n  jumpi\n  returndatasize\n  0x00\n  dup1\n  returndatacopy\n  revert(0x00, returndatasize)\ntag_19:\n  pop\n    /* \"contracts/Bias.sol\":1428:1447  _credentialVerifier */\n  0x0b\n    /* \"contracts/Bias.sol\":1428:1516  _credentialVerifier = new CredentialVerifier(0xc94aBf0292Ac04AAC18C251d9C8169a8dd2BBbDC) */\n  dup1\n  sload\n  not(sub(shl(0xa0, 0x01), 0x01))\n  and\n  sub(shl(0xa0, 0x01), 0x01)\n  swap3\n  swap1\n  swap3\n  and\n  swap2\n  swap1\n  swap2\n  or\n  swap1\n  sstore\n    /* \"contracts/Bias.sol\":209:4217  contract BiasProtocol is ERC20, Ownable{... */\n  jump(tag_27)\n    /* \"@openzeppelin/contracts/access/Ownable.sol\":2912:3099  function _transferOwnership(address newOwner) internal virtual {... */\ntag_14:\n    /* \"@openzeppelin/contracts/access/Ownable.sol\":3004:3010  _owner */\n  0x05\n  dup1\n  sload\n  sub(shl(0xa0, 0x01), 0x01)\n    /* \"@openzeppelin/contracts/access/Ownable.sol\":3020:3037  _owner = newOwner */\n  dup4\n  dup2\n  and\n  not(sub(shl(0xa0, 0x01), 0x01))\n  dup4\n  and\n  dup2\n  or\n  swap1\n  swap4\n  sstore\n    /* \"@openzeppelin/contracts/access/Ownable.sol\":3052:3092  OwnershipTransferred(oldOwner, newOwner) */\n  mload(0x40)\n    /* \"@openzeppelin/contracts/access/Ownable.sol\":3004:3010  _owner */\n  swap2\n  and\n  swap2\n    /* \"@openzeppelin/contracts/access/Ownable.sol\":3020:3037  _owner = newOwner */\n  swap1\n    /* \"@openzeppelin/contracts/access/Ownable.sol\":3004:3010  _owner */\n  dup3\n  swap1\n    /* \"@openzeppelin/contracts/access/Ownable.sol\":3052:3092  OwnershipTransferred(oldOwner, newOwner) */\n  0x8be0079c531659141344cd1fd0a4f28419497f9722a3daafe3b4186f6b6457e0\n  swap1\n    /* \"@openzeppelin/contracts/access/Ownable.sol\":2985:3001  address oldOwner */\n  0x00\n  swap1\n    /* \"@openzeppelin/contracts/access/Ownable.sol\":3052:3092  OwnershipTransferred(oldOwner, newOwner) */\n  log3\n    /* \"@openzeppelin/contracts/access/Ownable.sol\":2975:3099  {... */\n  pop\n    /* \"@openzeppelin/contracts/access/Ownable.sol\":2912:3099  function _transferOwnership(address newOwner) internal virtual {... */\n  pop\n  jump\t// out\n    /* \"contracts/Bias.sol\":209:4217  contract BiasProtocol is ERC20, Ownable{... */\ntag_17:\n  dataSize(sub_1)\n  dup1\n  dataOffset(sub_1)\n  dup4\n  codecopy\n  add\n  swap1\n  jump\t// out\n    /* \"#utility.yul\":14:141   */\ntag_22:\n    /* \"#utility.yul\":75:85   */\n  0x4e487b71\n    /* \"#utility.yul\":70:73   */\n  0xe0\n    /* \"#utility.yul\":66:86   */\n  shl\n    /* \"#utility.yul\":63:64   */\n  0x00\n    /* \"#utility.yul\":56:87   */\n  mstore\n    /* \"#utility.yul\":106:110   */\n  0x41\n    /* \"#utility.yul\":103:104   */\n  0x04\n    /* \"#utility.yul\":96:111   */\n  mstore\n    /* \"#utility.yul\":130:134   */\n  0x24\n    /* \"#utility.yul\":127:128   */\n  0x00\n    /* \"#utility.yul\":120:135   */\n  revert\n    /* \"#utility.yul\":146:526   */\ntag_23:\n    /* \"#utility.yul\":225:226   */\n  0x01\n    /* \"#utility.yul\":221:233   */\n  dup2\n  dup2\n  shr\n  swap1\n    /* \"#utility.yul\":268:280   */\n  dup3\n  and\n  dup1\n    /* \"#utility.yul\":289:350   */\n  tag_30\n  jumpi\n    /* \"#utility.yul\":343:347   */\n  0x7f\n    /* \"#utility.yul\":335:341   */\n  dup3\n    /* \"#utility.yul\":331:348   */\n  and\n    /* \"#utility.yul\":321:348   */\n  swap2\n  pop\n    /* \"#utility.yul\":289:350   */\ntag_30:\n    /* \"#utility.yul\":396:398   */\n  0x20\n    /* \"#utility.yul\":388:394   */\n  dup3\n    /* \"#utility.yul\":385:399   */\n  lt\n    /* \"#utility.yul\":365:383   */\n  dup2\n    /* \"#utility.yul\":362:400   */\n  sub\n    /* \"#utility.yul\":359:520   */\n  tag_31\n  jumpi\n    /* \"#utility.yul\":442:452   */\n  0x4e487b71\n    /* \"#utility.yul\":437:440   */\n  0xe0\n    /* \"#utility.yul\":433:453   */\n  shl\n    /* \"#utility.yul\":430:431   */\n  0x00\n    /* \"#utility.yul\":423:454   */\n  mstore\n    /* \"#utility.yul\":477:481   */\n  0x22\n    /* \"#utility.yul\":474:475   */\n  0x04\n    /* \"#utility.yul\":467:482   */\n  mstore\n    /* \"#utility.yul\":505:509   */\n  0x24\n    /* \"#utility.yul\":502:503   */\n  0x00\n    /* \"#utility.yul\":495:510   */\n  revert\n    /* \"#utility.yul\":359:520   */\ntag_31:\n  pop\n    /* \"#utility.yul\":146:526   */\n  swap2\n  swap1\n  pop\n  jump\t// out\n    /* \"#utility.yul\":657:1202   */\ntag_25:\n    /* \"#utility.yul\":759:761   */\n  0x1f\n    /* \"#utility.yul\":754:757   */\n  dup3\n    /* \"#utility.yul\":751:762   */\n  gt\n    /* \"#utility.yul\":748:1196   */\n  iszero\n  tag_34\n  jumpi\n    /* \"#utility.yul\":795:796   */\n  0x00\n    /* \"#utility.yul\":820:825   */\n  dup2\n    /* \"#utility.yul\":816:818   */\n  dup2\n    /* \"#utility.yul\":809:826   */\n  mstore\n    /* \"#utility.yul\":865:869   */\n  0x20\n    /* \"#utility.yul\":861:863   */\n  dup2\n    /* \"#utility.yul\":851:870   */\n  keccak256\n    /* \"#utility.yul\":935:937   */\n  0x1f\n    /* \"#utility.yul\":923:933   */\n  dup6\n    /* \"#utility.yul\":919:938   */\n  add\n    /* \"#utility.yul\":916:917   */\n  0x05\n    /* \"#utility.yul\":912:939   */\n  shr\n    /* \"#utility.yul\":906:910   */\n  dup2\n    /* \"#utility.yul\":902:940   */\n  add\n    /* \"#utility.yul\":971:975   */\n  0x20\n    /* \"#utility.yul\":959:969   */\n  dup7\n    /* \"#utility.yul\":956:976   */\n  lt\n    /* \"#utility.yul\":953:1000   */\n  iszero\n  tag_35\n  jumpi\n  pop\n    /* \"#utility.yul\":994:998   */\n  dup1\n    /* \"#utility.yul\":953:1000   */\ntag_35:\n    /* \"#utility.yul\":1049:1051   */\n  0x1f\n    /* \"#utility.yul\":1044:1047   */\n  dup6\n    /* \"#utility.yul\":1040:1052   */\n  add\n    /* \"#utility.yul\":1037:1038   */\n  0x05\n    /* \"#utility.yul\":1033:1053   */\n  shr\n    /* \"#utility.yul\":1027:1031   */\n  dup3\n    /* \"#utility.yul\":1023:1054   */\n  add\n    /* \"#utility.yul\":1013:1054   */\n  swap2\n  pop\n    /* \"#utility.yul\":1104:1186   */\ntag_36:\n    /* \"#utility.yul\":1122:1124   */\n  dup2\n    /* \"#utility.yul\":1115:1120   */\n  dup2\n    /* \"#utility.yul\":1112:1125   */\n  lt\n    /* \"#utility.yul\":1104:1186   */\n  iszero\n  tag_38\n  jumpi\n    /* \"#utility.yul\":1167:1184   */\n  dup3\n  dup2\n  sstore\n    /* \"#utility.yul\":1148:1149   */\n  0x01\n    /* \"#utility.yul\":1137:1150   */\n  add\n    /* \"#utility.yul\":1104:1186   */\n  jump(tag_36)\ntag_38:\n    /* \"#utility.yul\":1108:1111   */\n  pop\n  pop\n  pop\n    /* \"#utility.yul\":748:1196   */\ntag_34:\n    /* \"#utility.yul\":657:1202   */\n  pop\n  pop\n  pop\n  jump\t// out\n    /* \"#utility.yul\":1378:2730   */\ntag_7:\n    /* \"#utility.yul\":1498:1508   */\n  dup2\n  mload\n  sub(shl(0x40, 0x01), 0x01)\n    /* \"#utility.yul\":1520:1550   */\n  dup2\n  gt\n    /* \"#utility.yul\":1517:1573   */\n  iszero\n  tag_42\n  jumpi\n    /* \"#utility.yul\":1553:1571   */\n  tag_42\n  tag_22\n  jump\t// in\ntag_42:\n    /* \"#utility.yul\":1582:1679   */\n  tag_43\n    /* \"#utility.yul\":1672:1678   */\n  dup2\n    /* \"#utility.yul\":1632:1670   */\n  tag_44\n    /* \"#utility.yul\":1664:1668   */\n  dup5\n    /* \"#utility.yul\":1658:1669   */\n  sload\n    /* \"#utility.yul\":1632:1670   */\n  tag_23\n  jump\t// in\ntag_44:\n    /* \"#utility.yul\":1626:1630   */\n  dup5\n    /* \"#utility.yul\":1582:1679   */\n  tag_25\n  jump\t// in\ntag_43:\n    /* \"#utility.yul\":1734:1738   */\n  0x20\n  dup1\n    /* \"#utility.yul\":1798:1800   */\n  0x1f\n    /* \"#utility.yul\":1787:1801   */\n  dup4\n  gt\n    /* \"#utility.yul\":1815:1816   */\n  0x01\n    /* \"#utility.yul\":1810:2473   */\n  dup2\n  eq\n  tag_46\n  jumpi\n    /* \"#utility.yul\":2517:2518   */\n  0x00\n    /* \"#utility.yul\":2534:2540   */\n  dup5\n    /* \"#utility.yul\":2531:2620   */\n  iszero\n  tag_47\n  jumpi\n  pop\n    /* \"#utility.yul\":2586:2605   */\n  dup6\n  dup4\n  add\n    /* \"#utility.yul\":2580:2606   */\n  mload\n    /* \"#utility.yul\":2531:2620   */\ntag_47:\n  not(0x00)\n    /* \"#utility.yul\":1335:1336   */\n  0x03\n    /* \"#utility.yul\":1331:1342   */\n  dup7\n  swap1\n  shl\n    /* \"#utility.yul\":1327:1351   */\n  shr\n    /* \"#utility.yul\":1323:1352   */\n  not\n    /* \"#utility.yul\":1313:1353   */\n  and\n    /* \"#utility.yul\":1359:1360   */\n  0x01\n    /* \"#utility.yul\":1355:1366   */\n  dup6\n  swap1\n  shl\n    /* \"#utility.yul\":1310:1367   */\n  or\n    /* \"#utility.yul\":2633:2714   */\n  dup6\n  sstore\n    /* \"#utility.yul\":1780:2724   */\n  jump(tag_38)\n    /* \"#utility.yul\":1810:2473   */\ntag_46:\n    /* \"#utility.yul\":604:605   */\n  0x00\n    /* \"#utility.yul\":597:611   */\n  dup6\n  dup2\n  mstore\n    /* \"#utility.yul\":641:645   */\n  0x20\n    /* \"#utility.yul\":628:646   */\n  dup2\n  keccak256\n  not(0x1f)\n    /* \"#utility.yul\":1846:1866   */\n  dup7\n  and\n  swap2\n    /* \"#utility.yul\":1964:2200   */\ntag_50:\n    /* \"#utility.yul\":1978:1985   */\n  dup3\n    /* \"#utility.yul\":1975:1976   */\n  dup2\n    /* \"#utility.yul\":1972:1986   */\n  lt\n    /* \"#utility.yul\":1964:2200   */\n  iszero\n  tag_52\n  jumpi\n    /* \"#utility.yul\":2067:2086   */\n  dup9\n  dup7\n  add\n    /* \"#utility.yul\":2061:2087   */\n  mload\n    /* \"#utility.yul\":2046:2088   */\n  dup3\n  sstore\n    /* \"#utility.yul\":2159:2186   */\n  swap5\n  dup5\n  add\n  swap5\n    /* \"#utility.yul\":2127:2128   */\n  0x01\n    /* \"#utility.yul\":2115:2129   */\n  swap1\n  swap2\n  add\n  swap1\n    /* \"#utility.yul\":1994:2013   */\n  dup5\n  add\n    /* \"#utility.yul\":1964:2200   */\n  jump(tag_50)\ntag_52:\n    /* \"#utility.yul\":1968:1971   */\n  pop\n    /* \"#utility.yul\":2228:2234   */\n  dup6\n    /* \"#utility.yul\":2219:2226   */\n  dup3\n    /* \"#utility.yul\":2216:2235   */\n  lt\n    /* \"#utility.yul\":2213:2414   */\n  iszero\n  tag_53\n  jumpi\n    /* \"#utility.yul\":2289:2308   */\n  dup8\n  dup6\n  add\n    /* \"#utility.yul\":2283:2309   */\n  mload\n  not(0x00)\n    /* \"#utility.yul\":2372:2373   */\n  0x03\n    /* \"#utility.yul\":2368:2382   */\n  dup9\n  swap1\n  shl\n    /* \"#utility.yul\":2384:2387   */\n  0xf8\n    /* \"#utility.yul\":2364:2388   */\n  and\n    /* \"#utility.yul\":2360:2397   */\n  shr\n    /* \"#utility.yul\":2356:2398   */\n  not\n    /* \"#utility.yul\":2341:2399   */\n  and\n    /* \"#utility.yul\":2326:2400   */\n  dup2\n  sstore\n    /* \"#utility.yul\":2213:2414   */\ntag_53:\n  pop\n  pop\n  pop\n  pop\n  pop\n    /* \"#utility.yul\":2460:2461   */\n  0x01\n    /* \"#utility.yul\":2444:2458   */\n  swap1\n  dup2\n  shl\n    /* \"#utility.yul\":2440:2462   */\n  add\n    /* \"#utility.yul\":2427:2463   */\n  swap1\n  sstore\n  pop\n    /* \"#utility.yul\":1378:2730   */\n  jump\t// out\n    /* \"#utility.yul\":2735:2938   */\ntag_27:\n    /* \"contracts/Bias.sol\":209:4217  contract BiasProtocol is ERC20, Ownable{... */\n  dataSize(sub_0)\n  dup1\n  dataOffset(sub_0)\n  0x00\n  codecopy\n  0x00\n  return\nstop\n\nsub_0: assembly {\n        /* \"contracts/Bias.sol\":209:4217  contract BiasProtocol is ERC20, Ownable{... */\n      mstore(0x40, 0x80)\n      callvalue\n      dup1\n      iszero\n      tag_1\n      jumpi\n      0x00\n      dup1\n      revert\n    tag_1:\n      pop\n      jumpi(tag_2, lt(calldatasize, 0x04))\n      shr(0xe0, calldataload(0x00))\n      dup1\n      0x8c881eeb\n      gt\n      tag_25\n      jumpi\n      dup1\n      0xa6c2da4c\n      gt\n      tag_26\n      jumpi\n      dup1\n      0xa6c2da4c\n      eq\n      tag_19\n      jumpi\n      dup1\n      0xa9059cbb\n      eq\n      tag_20\n      jumpi\n      dup1\n      0xb1e95e94\n      eq\n      tag_21\n      jumpi\n      dup1\n      0xcda411be\n      eq\n      tag_22\n      jumpi\n      dup1\n      0xdd62ed3e\n      eq\n      tag_23\n      jumpi\n      dup1\n      0xf2fde38b\n      eq\n      tag_24\n      jumpi\n      0x00\n      dup1\n      revert\n    tag_26:\n      dup1\n      0x8c881eeb\n      eq\n      tag_14\n      jumpi\n      dup1\n      0x8da5cb5b\n      eq\n      tag_15\n      jumpi\n      dup1\n      0x93ad4aca\n      eq\n      tag_16\n      jumpi\n      dup1\n      0x95d89b41\n      eq\n      tag_17\n      jumpi\n      dup1\n      0x9a383dfd\n      eq\n      tag_18\n      jumpi\n      0x00\n      dup1\n      revert\n    tag_25:\n      dup1\n      0x23b872dd\n      gt\n      tag_27\n      jumpi\n      dup1\n      0x23b872dd\n      eq\n      tag_8\n      jumpi\n      dup1\n      0x313ce567\n      eq\n      tag_9\n      jumpi\n      dup1\n      0x63b6ad97\n      eq\n      tag_10\n      jumpi\n      dup1\n      0x68229099\n      eq\n      tag_11\n      jumpi\n      dup1\n      0x70a08231\n      eq\n      tag_12\n      jumpi\n      dup1\n      0x715018a6\n      eq\n      tag_13\n      jumpi\n      0x00\n      dup1\n      revert\n    tag_27:\n      dup1\n      0x06fdde03\n      eq\n      tag_3\n      jumpi\n      dup1\n      0x095ea7b3\n      eq\n      tag_4\n      jumpi\n      dup1\n      0x0962ef79\n      eq\n      tag_5\n      jumpi\n      dup1\n      0x0a05b17f\n      eq\n      tag_6\n      jumpi\n      dup1\n      0x18160ddd\n      eq\n      tag_7\n      jumpi\n    tag_2:\n      0x00\n      dup1\n      revert\n        /* \"@openzeppelin/contracts/token/ERC20/ERC20.sol\":2074:2163  function name() public view virtual returns (string memory) {... */\n    tag_3:\n      tag_28\n      tag_29\n      jump\t// in\n    tag_28:\n      mload(0x40)\n      tag_30\n      swap2\n      swap1\n      tag_31\n      jump\t// in\n    tag_30:\n      mload(0x40)\n      dup1\n      swap2\n      sub\n      swap1\n      return\n        /* \"@openzeppelin/contracts/token/ERC20/ERC20.sol\":4293:4479  function approve(address spender, uint256 value) public virtual returns (bool) {... */\n    tag_4:\n      tag_32\n      tag_33\n      calldatasize\n      0x04\n      tag_34\n      jump\t// in\n    tag_33:\n      tag_35\n      jump\t// in\n    tag_32:\n      mload(0x40)\n        /* \"#utility.yul\":1269:1283   */\n      swap1\n      iszero\n        /* \"#utility.yul\":1262:1284   */\n      iszero\n        /* \"#utility.yul\":1244:1285   */\n      dup2\n      mstore\n        /* \"#utility.yul\":1232:1234   */\n      0x20\n        /* \"#utility.yul\":1217:1235   */\n      add\n        /* \"@openzeppelin/contracts/token/ERC20/ERC20.sol\":4293:4479  function approve(address spender, uint256 value) public virtual returns (bool) {... */\n      tag_30\n        /* \"#utility.yul\":1104:1291   */\n      jump\n        /* \"contracts/Bias.sol\":3756:4018  function claimRewards(uint topicId) public {... */\n    tag_5:\n      tag_38\n      tag_39\n      calldatasize\n      0x04\n      tag_40\n      jump\t// in\n    tag_39:\n      tag_41\n      jump\t// in\n    tag_38:\n      stop\n        /* \"contracts/Bias.sol\":1775:2546  function create(... */\n    tag_6:\n      tag_38\n      tag_43\n      calldatasize\n      0x04\n      tag_44\n      jump\t// in\n    tag_43:\n      tag_45\n      jump\t// in\n        /* \"@openzeppelin/contracts/token/ERC20/ERC20.sol\":3144:3241  function totalSupply() public view virtual returns (uint256) {... */\n    tag_7:\n        /* \"@openzeppelin/contracts/token/ERC20/ERC20.sol\":3222:3234  _totalSupply */\n      sload(0x02)\n        /* \"@openzeppelin/contracts/token/ERC20/ERC20.sol\":3144:3241  function totalSupply() public view virtual returns (uint256) {... */\n    tag_46:\n      mload(0x40)\n        /* \"#utility.yul\":3237:3262   */\n      swap1\n      dup2\n      mstore\n        /* \"#utility.yul\":3225:3227   */\n      0x20\n        /* \"#utility.yul\":3210:3228   */\n      add\n        /* \"@openzeppelin/contracts/token/ERC20/ERC20.sol\":3144:3241  function totalSupply() public view virtual returns (uint256) {... */\n      tag_30\n        /* \"#utility.yul\":3091:3268   */\n      jump\n        /* \"@openzeppelin/contracts/token/ERC20/ERC20.sol\":5039:5283  function transferFrom(address from, address to, uint256 value) public virtual returns (bool) {... */\n    tag_8:\n      tag_32\n      tag_51\n      calldatasize\n      0x04\n      tag_52\n      jump\t// in\n    tag_51:\n      tag_53\n      jump\t// in\n        /* \"@openzeppelin/contracts/token/ERC20/ERC20.sol\":3002:3084  function decimals() public view virtual returns (uint8) {... */\n    tag_9:\n      mload(0x40)\n        /* \"@openzeppelin/contracts/token/ERC20/ERC20.sol\":3075:3077  18 */\n      0x12\n        /* \"#utility.yul\":3748:3784   */\n      dup2\n      mstore\n        /* \"#utility.yul\":3736:3738   */\n      0x20\n        /* \"#utility.yul\":3721:3739   */\n      add\n        /* \"@openzeppelin/contracts/token/ERC20/ERC20.sol\":3002:3084  function decimals() public view virtual returns (uint8) {... */\n      tag_30\n        /* \"#utility.yul\":3606:3790   */\n      jump\n        /* \"contracts/Bias.sol\":780:832  mapping(uint => mapping(uint => uint)) public _votes */\n    tag_10:\n      tag_46\n      tag_60\n      calldatasize\n      0x04\n      tag_61\n      jump\t// in\n    tag_60:\n      0x08\n      0x20\n      swap1\n      dup2\n      mstore\n      0x00\n      swap3\n      dup4\n      mstore\n      0x40\n      dup1\n      dup5\n      keccak256\n      swap1\n      swap2\n      mstore\n      swap1\n      dup3\n      mstore\n      swap1\n      keccak256\n      sload\n      dup2\n      jump\n        /* \"contracts/Bias.sol\":1244:1292  mapping(address => uint256) public _lastJoinTime */\n    tag_11:\n      tag_46\n      tag_65\n      calldatasize\n      0x04\n      tag_66\n      jump\t// in\n    tag_65:\n      mstore(0x20, 0x0c)\n      0x00\n      swap1\n      dup2\n      mstore\n      0x40\n      swap1\n      keccak256\n      sload\n      dup2\n      jump\n        /* \"@openzeppelin/contracts/token/ERC20/ERC20.sol\":3299:3415  function balanceOf(address account) public view virtual returns (uint256) {... */\n    tag_12:\n      tag_46\n      tag_70\n      calldatasize\n      0x04\n      tag_66\n      jump\t// in\n    tag_70:\n      sub(shl(0xa0, 0x01), 0x01)\n        /* \"@openzeppelin/contracts/token/ERC20/ERC20.sol\":3390:3408  _balances[account] */\n      and\n        /* \"@openzeppelin/contracts/token/ERC20/ERC20.sol\":3364:3371  uint256 */\n      0x00\n        /* \"@openzeppelin/contracts/token/ERC20/ERC20.sol\":3390:3408  _balances[account] */\n      swap1\n      dup2\n      mstore\n      0x20\n      dup2\n      swap1\n      mstore\n      0x40\n      swap1\n      keccak256\n      sload\n      swap1\n        /* \"@openzeppelin/contracts/token/ERC20/ERC20.sol\":3299:3415  function balanceOf(address account) public view virtual returns (uint256) {... */\n      jump\n        /* \"@openzeppelin/contracts/access/Ownable.sol\":2293:2394  function renounceOwnership() public virtual onlyOwner {... */\n    tag_13:\n      tag_38\n      tag_74\n      jump\t// in\n        /* \"contracts/Bias.sol\":2735:3649  function vote(uint topicId, uint voteFor, bytes32 gitcoinPassUid) public {... */\n    tag_14:\n      tag_38\n      tag_76\n      calldatasize\n      0x04\n      tag_77\n      jump\t// in\n    tag_76:\n      tag_78\n      jump\t// in\n        /* \"@openzeppelin/contracts/access/Ownable.sol\":1638:1723  function owner() public view virtual returns (address) {... */\n    tag_15:\n        /* \"@openzeppelin/contracts/access/Ownable.sol\":1710:1716  _owner */\n      sload(0x05)\n        /* \"@openzeppelin/contracts/access/Ownable.sol\":1638:1723  function owner() public view virtual returns (address) {... */\n      mload(0x40)\n      sub(shl(0xa0, 0x01), 0x01)\n        /* \"@openzeppelin/contracts/access/Ownable.sol\":1710:1716  _owner */\n      swap1\n      swap2\n      and\n        /* \"#utility.yul\":4706:4757   */\n      dup2\n      mstore\n        /* \"#utility.yul\":4694:4696   */\n      0x20\n        /* \"#utility.yul\":4679:4697   */\n      add\n        /* \"@openzeppelin/contracts/access/Ownable.sol\":1638:1723  function owner() public view virtual returns (address) {... */\n      tag_30\n        /* \"#utility.yul\":4560:4763   */\n      jump\n        /* \"contracts/Bias.sol\":893:934  mapping(uint => uint) public _voterCounts */\n    tag_16:\n      tag_46\n      tag_84\n      calldatasize\n      0x04\n      tag_40\n      jump\t// in\n    tag_84:\n      mstore(0x20, 0x09)\n      0x00\n      swap1\n      dup2\n      mstore\n      0x40\n      swap1\n      keccak256\n      sload\n      dup2\n      jump\n        /* \"@openzeppelin/contracts/token/ERC20/ERC20.sol\":2276:2369  function symbol() public view virtual returns (string memory) {... */\n    tag_17:\n      tag_28\n      tag_88\n      jump\t// in\n        /* \"contracts/Bias.sol\":699:721  Topic[] public _topics */\n    tag_18:\n      tag_90\n      tag_91\n      calldatasize\n      0x04\n      tag_40\n      jump\t// in\n    tag_91:\n      tag_92\n      jump\t// in\n    tag_90:\n      mload(0x40)\n      tag_30\n      swap7\n      swap6\n      swap5\n      swap4\n      swap3\n      swap2\n      swap1\n      tag_94\n      jump\t// in\n        /* \"contracts/Bias.sol\":658:690  uint public _rewards = 10 * 1e18 */\n    tag_19:\n      tag_46\n      sload(0x06)\n      dup2\n      jump\n        /* \"@openzeppelin/contracts/token/ERC20/ERC20.sol\":3610:3788  function transfer(address to, uint256 value) public virtual returns (bool) {... */\n    tag_20:\n      tag_32\n      tag_99\n      calldatasize\n      0x04\n      tag_34\n      jump\t// in\n    tag_99:\n      tag_100\n      jump\t// in\n        /* \"contracts/Bias.sol\":4121:4214  function updateRewards(uint rewards_) public onlyOwner {... */\n    tag_21:\n      tag_38\n      tag_103\n      calldatasize\n      0x04\n      tag_40\n      jump\t// in\n    tag_103:\n      tag_104\n      jump\t// in\n        /* \"contracts/Bias.sol\":2554:2654  function topicAt(uint index) public returns (Topic memory ) {... */\n    tag_22:\n      tag_105\n      tag_106\n      calldatasize\n      0x04\n      tag_40\n      jump\t// in\n    tag_106:\n      tag_107\n      jump\t// in\n    tag_105:\n      mload(0x40)\n      tag_30\n      swap2\n      swap1\n      tag_109\n      jump\t// in\n        /* \"@openzeppelin/contracts/token/ERC20/ERC20.sol\":3846:3986  function allowance(address owner, address spender) public view virtual returns (uint256) {... */\n    tag_23:\n      tag_46\n      tag_111\n      calldatasize\n      0x04\n      tag_112\n      jump\t// in\n    tag_111:\n      sub(shl(0xa0, 0x01), 0x01)\n        /* \"@openzeppelin/contracts/token/ERC20/ERC20.sol\":3952:3970  _allowances[owner] */\n      swap2\n      dup3\n      and\n        /* \"@openzeppelin/contracts/token/ERC20/ERC20.sol\":3926:3933  uint256 */\n      0x00\n        /* \"@openzeppelin/contracts/token/ERC20/ERC20.sol\":3952:3970  _allowances[owner] */\n      swap1\n      dup2\n      mstore\n        /* \"@openzeppelin/contracts/token/ERC20/ERC20.sol\":3952:3963  _allowances */\n      0x01\n        /* \"@openzeppelin/contracts/token/ERC20/ERC20.sol\":3952:3970  _allowances[owner] */\n      0x20\n      swap1\n      dup2\n      mstore\n      0x40\n      dup1\n      dup4\n      keccak256\n        /* \"@openzeppelin/contracts/token/ERC20/ERC20.sol\":3952:3979  _allowances[owner][spender] */\n      swap4\n      swap1\n      swap5\n      and\n      dup3\n      mstore\n      swap2\n      swap1\n      swap2\n      mstore\n      keccak256\n      sload\n      swap1\n        /* \"@openzeppelin/contracts/token/ERC20/ERC20.sol\":3846:3986  function allowance(address owner, address spender) public view virtual returns (uint256) {... */\n      jump\n        /* \"@openzeppelin/contracts/access/Ownable.sol\":2543:2758  function transferOwnership(address newOwner) public virtual onlyOwner {... */\n    tag_24:\n      tag_38\n      tag_116\n      calldatasize\n      0x04\n      tag_66\n      jump\t// in\n    tag_116:\n      tag_117\n      jump\t// in\n        /* \"@openzeppelin/contracts/token/ERC20/ERC20.sol\":2074:2163  function name() public view virtual returns (string memory) {... */\n    tag_29:\n        /* \"@openzeppelin/contracts/token/ERC20/ERC20.sol\":2119:2132  string memory */\n      0x60\n        /* \"@openzeppelin/contracts/token/ERC20/ERC20.sol\":2151:2156  _name */\n      0x03\n        /* \"@openzeppelin/contracts/token/ERC20/ERC20.sol\":2144:2156  return _name */\n      dup1\n      sload\n      tag_119\n      swap1\n      tag_120\n      jump\t// in\n    tag_119:\n      dup1\n      0x1f\n      add\n      0x20\n      dup1\n      swap2\n      div\n      mul\n      0x20\n      add\n      mload(0x40)\n      swap1\n      dup2\n      add\n      0x40\n      mstore\n      dup1\n      swap3\n      swap2\n      swap1\n      dup2\n      dup2\n      mstore\n      0x20\n      add\n      dup3\n      dup1\n      sload\n      tag_121\n      swap1\n      tag_120\n      jump\t// in\n    tag_121:\n      dup1\n      iszero\n      tag_122\n      jumpi\n      dup1\n      0x1f\n      lt\n      tag_123\n      jumpi\n      0x0100\n      dup1\n      dup4\n      sload\n      div\n      mul\n      dup4\n      mstore\n      swap2\n      0x20\n      add\n      swap2\n      jump(tag_122)\n    tag_123:\n      dup3\n      add\n      swap2\n      swap1\n      0x00\n      mstore\n      keccak256(0x00, 0x20)\n      swap1\n    tag_124:\n      dup2\n      sload\n      dup2\n      mstore\n      swap1\n      0x01\n      add\n      swap1\n      0x20\n      add\n      dup1\n      dup4\n      gt\n      tag_124\n      jumpi\n      dup3\n      swap1\n      sub\n      0x1f\n      and\n      dup3\n      add\n      swap2\n    tag_122:\n      pop\n      pop\n      pop\n      pop\n      pop\n      swap1\n      pop\n        /* \"@openzeppelin/contracts/token/ERC20/ERC20.sol\":2074:2163  function name() public view virtual returns (string memory) {... */\n      swap1\n      jump\t// out\n        /* \"@openzeppelin/contracts/token/ERC20/ERC20.sol\":4293:4479  function approve(address spender, uint256 value) public virtual returns (bool) {... */\n    tag_35:\n        /* \"@openzeppelin/contracts/token/ERC20/ERC20.sol\":4366:4370  bool */\n      0x00\n        /* \"@openzeppelin/contracts/utils/Context.sol\":735:745  msg.sender */\n      caller\n        /* \"@openzeppelin/contracts/token/ERC20/ERC20.sol\":4420:4451  _approve(owner, spender, value) */\n      tag_128\n        /* \"@openzeppelin/contracts/utils/Context.sol\":735:745  msg.sender */\n      dup2\n        /* \"@openzeppelin/contracts/token/ERC20/ERC20.sol\":4436:4443  spender */\n      dup6\n        /* \"@openzeppelin/contracts/token/ERC20/ERC20.sol\":4445:4450  value */\n      dup6\n        /* \"@openzeppelin/contracts/token/ERC20/ERC20.sol\":4420:4428  _approve */\n      tag_129\n        /* \"@openzeppelin/contracts/token/ERC20/ERC20.sol\":4420:4451  _approve(owner, spender, value) */\n      jump\t// in\n    tag_128:\n        /* \"@openzeppelin/contracts/token/ERC20/ERC20.sol\":4468:4472  true */\n      0x01\n        /* \"@openzeppelin/contracts/token/ERC20/ERC20.sol\":4461:4472  return true */\n      swap2\n      pop\n      pop\n        /* \"@openzeppelin/contracts/token/ERC20/ERC20.sol\":4293:4479  function approve(address spender, uint256 value) public virtual returns (bool) {... */\n    tag_125:\n      swap3\n      swap2\n      pop\n      pop\n      jump\t// out\n        /* \"contracts/Bias.sol\":3756:4018  function claimRewards(uint topicId) public {... */\n    tag_41:\n        /* \"contracts/Bias.sol\":3843:3850  _topics */\n      0x07\n        /* \"contracts/Bias.sol\":3851:3858  topicId */\n      dup2\n        /* \"contracts/Bias.sol\":3843:3859  _topics[topicId] */\n      dup2\n      sload\n      dup2\n      lt\n      tag_132\n      jumpi\n      tag_132\n      tag_133\n      jump\t// in\n    tag_132:\n      swap1\n      0x00\n      mstore\n      keccak256(0x00, 0x20)\n      swap1\n      0x06\n      mul\n      add\n        /* \"contracts/Bias.sol\":3843:3863  _topics[topicId].max */\n      0x05\n      add\n      sload\n        /* \"contracts/Bias.sol\":3818:3830  _voterCounts */\n      0x09\n        /* \"contracts/Bias.sol\":3818:3839  _voterCounts[topicId] */\n      0x00\n        /* \"contracts/Bias.sol\":3831:3838  topicId */\n      dup4\n        /* \"contracts/Bias.sol\":3818:3839  _voterCounts[topicId] */\n      dup2\n      mstore\n      0x20\n      add\n      swap1\n      dup2\n      mstore\n      0x20\n      add\n      0x00\n      keccak256\n      sload\n        /* \"contracts/Bias.sol\":3818:3863  _voterCounts[topicId] >= _topics[topicId].max */\n      lt\n      iszero\n        /* \"contracts/Bias.sol\":3810:3880  require(_voterCounts[topicId] >= _topics[topicId].max, \"not finished\") */\n      tag_135\n      jumpi\n      mload(0x40)\n      shl(0xe5, 0x461bcd)\n      dup2\n      mstore\n        /* \"#utility.yul\":7280:7282   */\n      0x20\n        /* \"contracts/Bias.sol\":3810:3880  require(_voterCounts[topicId] >= _topics[topicId].max, \"not finished\") */\n      0x04\n      dup3\n      add\n        /* \"#utility.yul\":7262:7283   */\n      mstore\n        /* \"#utility.yul\":7319:7321   */\n      0x0c\n        /* \"#utility.yul\":7299:7317   */\n      0x24\n      dup3\n      add\n        /* \"#utility.yul\":7292:7322   */\n      mstore\n      shl(0xa2, 0x1b9bdd08199a5b9a5cda1959)\n        /* \"#utility.yul\":7338:7356   */\n      0x44\n      dup3\n      add\n        /* \"#utility.yul\":7331:7373   */\n      mstore\n        /* \"#utility.yul\":7390:7408   */\n      0x64\n      add\n        /* \"contracts/Bias.sol\":3810:3880  require(_voterCounts[topicId] >= _topics[topicId].max, \"not finished\") */\n    tag_136:\n      mload(0x40)\n      dup1\n      swap2\n      sub\n      swap1\n      revert\n    tag_135:\n        /* \"contracts/Bias.sol\":3927:3937  msg.sender */\n      caller\n      sub(shl(0xa0, 0x01), 0x01)\n        /* \"contracts/Bias.sol\":3899:3937  _topics[topicId].creator == msg.sender */\n      and\n        /* \"contracts/Bias.sol\":3899:3906  _topics */\n      0x07\n        /* \"contracts/Bias.sol\":3907:3914  topicId */\n      dup3\n        /* \"contracts/Bias.sol\":3899:3915  _topics[topicId] */\n      dup2\n      sload\n      dup2\n      lt\n      tag_139\n      jumpi\n      tag_139\n      tag_133\n      jump\t// in\n    tag_139:\n      0x00\n      swap2\n      dup3\n      mstore\n      0x20\n      swap1\n      swap2\n      keccak256\n      0x06\n      swap1\n      swap2\n      mul\n      add\n        /* \"contracts/Bias.sol\":3899:3923  _topics[topicId].creator */\n      sload\n      sub(shl(0xa0, 0x01), 0x01)\n      and\n        /* \"contracts/Bias.sol\":3899:3937  _topics[topicId].creator == msg.sender */\n      eq\n        /* \"contracts/Bias.sol\":3891:3954  require(_topics[topicId].creator == msg.sender, \"only creator\") */\n      tag_141\n      jumpi\n      mload(0x40)\n      shl(0xe5, 0x461bcd)\n      dup2\n      mstore\n        /* \"#utility.yul\":7621:7623   */\n      0x20\n        /* \"contracts/Bias.sol\":3891:3954  require(_topics[topicId].creator == msg.sender, \"only creator\") */\n      0x04\n      dup3\n      add\n        /* \"#utility.yul\":7603:7624   */\n      mstore\n        /* \"#utility.yul\":7660:7662   */\n      0x0c\n        /* \"#utility.yul\":7640:7658   */\n      0x24\n      dup3\n      add\n        /* \"#utility.yul\":7633:7663   */\n      mstore\n      shl(0xa1, 0x37b7363c9031b932b0ba37b9)\n        /* \"#utility.yul\":7679:7697   */\n      0x44\n      dup3\n      add\n        /* \"#utility.yul\":7672:7714   */\n      mstore\n        /* \"#utility.yul\":7731:7749   */\n      0x64\n      add\n        /* \"contracts/Bias.sol\":3891:3954  require(_topics[topicId].creator == msg.sender, \"only creator\") */\n      tag_136\n        /* \"#utility.yul\":7419:7755   */\n      jump\n        /* \"contracts/Bias.sol\":3891:3954  require(_topics[topicId].creator == msg.sender, \"only creator\") */\n    tag_141:\n        /* \"contracts/Bias.sol\":3965:4010  _mint(msg.sender, _topics[topicId].funds / 5) */\n      tag_144\n        /* \"contracts/Bias.sol\":3971:3981  msg.sender */\n      caller\n        /* \"contracts/Bias.sol\":4008:4009  5 */\n      0x05\n        /* \"contracts/Bias.sol\":3983:3990  _topics */\n      0x07\n        /* \"contracts/Bias.sol\":3991:3998  topicId */\n      dup5\n        /* \"contracts/Bias.sol\":3983:3999  _topics[topicId] */\n      dup2\n      sload\n      dup2\n      lt\n      tag_146\n      jumpi\n      tag_146\n      tag_133\n      jump\t// in\n    tag_146:\n      swap1\n      0x00\n      mstore\n      keccak256(0x00, 0x20)\n      swap1\n      0x06\n      mul\n      add\n        /* \"contracts/Bias.sol\":3983:4005  _topics[topicId].funds */\n      0x04\n      add\n      sload\n        /* \"contracts/Bias.sol\":3983:4009  _topics[topicId].funds / 5 */\n      tag_148\n      swap2\n      swap1\n      tag_149\n      jump\t// in\n    tag_148:\n        /* \"contracts/Bias.sol\":3965:3970  _mint */\n      tag_150\n        /* \"contracts/Bias.sol\":3965:4010  _mint(msg.sender, _topics[topicId].funds / 5) */\n      jump\t// in\n    tag_144:\n        /* \"contracts/Bias.sol\":3756:4018  function claimRewards(uint topicId) public {... */\n      pop\n      jump\t// out\n        /* \"contracts/Bias.sol\":1775:2546  function create(... */\n    tag_45:\n        /* \"contracts/Bias.sol\":1973:1992  _credentialVerifier */\n      sload(0x0b)\n        /* \"contracts/Bias.sol\":1973:2038  _credentialVerifier.verifyGitcionPass(msg.sender, gitcoinPassUid) */\n      mload(0x40)\n      shl(0xe3, 0x059506b5)\n      dup2\n      mstore\n        /* \"contracts/Bias.sol\":2011:2021  msg.sender */\n      caller\n        /* \"contracts/Bias.sol\":1973:2038  _credentialVerifier.verifyGitcionPass(msg.sender, gitcoinPassUid) */\n      0x04\n      dup3\n      add\n        /* \"#utility.yul\":8288:8339   */\n      mstore\n        /* \"#utility.yul\":8355:8373   */\n      0x24\n      dup2\n      add\n        /* \"#utility.yul\":8348:8382   */\n      dup4\n      swap1\n      mstore\n      sub(shl(0xa0, 0x01), 0x01)\n        /* \"contracts/Bias.sol\":1973:1992  _credentialVerifier */\n      swap1\n      swap2\n      and\n      swap1\n        /* \"contracts/Bias.sol\":1973:2010  _credentialVerifier.verifyGitcionPass */\n      0x2ca835a8\n      swap1\n        /* \"#utility.yul\":8261:8279   */\n      0x44\n      add\n        /* \"contracts/Bias.sol\":1973:2038  _credentialVerifier.verifyGitcionPass(msg.sender, gitcoinPassUid) */\n      0x20\n      mload(0x40)\n      dup1\n      dup4\n      sub\n      dup2\n      0x00\n      dup8\n      gas\n      call\n      iszero\n      dup1\n      iszero\n      tag_155\n      jumpi\n      returndatasize\n      0x00\n      dup1\n      returndatacopy\n      revert(0x00, returndatasize)\n    tag_155:\n      pop\n      pop\n      pop\n      pop\n      mload(0x40)\n      returndatasize\n      not(0x1f)\n      0x1f\n      dup3\n      add\n      and\n      dup3\n      add\n      dup1\n      0x40\n      mstore\n      pop\n      dup2\n      add\n      swap1\n      tag_156\n      swap2\n      swap1\n      tag_157\n      jump\t// in\n    tag_156:\n        /* \"contracts/Bias.sol\":1951:2080  require(... */\n      tag_158\n      jumpi\n      mload(0x40)\n      shl(0xe5, 0x461bcd)\n      dup2\n      mstore\n        /* \"#utility.yul\":8877:8879   */\n      0x20\n        /* \"contracts/Bias.sol\":1951:2080  require(... */\n      0x04\n      dup3\n      add\n        /* \"#utility.yul\":8859:8880   */\n      mstore\n        /* \"#utility.yul\":8916:8918   */\n      0x0e\n        /* \"#utility.yul\":8896:8914   */\n      0x24\n      dup3\n      add\n        /* \"#utility.yul\":8889:8919   */\n      mstore\n      shl(0x92, 0x1b9bdd08185d5d1a1bdc9a5e9959)\n        /* \"#utility.yul\":8935:8953   */\n      0x44\n      dup3\n      add\n        /* \"#utility.yul\":8928:8972   */\n      mstore\n        /* \"#utility.yul\":8989:9007   */\n      0x64\n      add\n        /* \"contracts/Bias.sol\":1951:2080  require(... */\n      tag_136\n        /* \"#utility.yul\":8675:9013   */\n      jump\n        /* \"contracts/Bias.sol\":1951:2080  require(... */\n    tag_158:\n        /* \"contracts/Bias.sol\":2123:2133  msg.sender */\n      caller\n        /* \"@openzeppelin/contracts/token/ERC20/ERC20.sol\":3364:3371  uint256 */\n      0x00\n        /* \"@openzeppelin/contracts/token/ERC20/ERC20.sol\":3390:3408  _balances[account] */\n      swap1\n      dup2\n      mstore\n      0x20\n      dup2\n      swap1\n      mstore\n      0x40\n      swap1\n      keccak256\n      sload\n        /* \"contracts/Bias.sol\":2138:2143  funds */\n      dup4\n      gt\n        /* \"contracts/Bias.sol\":2113:2143  balanceOf(msg.sender) >= funds */\n      iszero\n        /* \"contracts/Bias.sol\":2113:2177  balanceOf(msg.sender) >= funds && funds >= (max * _rewards) / 10 */\n      dup1\n      iszero\n      tag_162\n      jumpi\n      pop\n        /* \"contracts/Bias.sol\":2175:2177  10 */\n      0x0a\n        /* \"contracts/Bias.sol\":2163:2171  _rewards */\n      sload(0x06)\n        /* \"contracts/Bias.sol\":2157:2160  max */\n      dup4\n        /* \"contracts/Bias.sol\":2157:2171  max * _rewards */\n      tag_163\n      swap2\n      swap1\n      tag_164\n      jump\t// in\n    tag_163:\n        /* \"contracts/Bias.sol\":2156:2177  (max * _rewards) / 10 */\n      tag_165\n      swap2\n      swap1\n      tag_149\n      jump\t// in\n    tag_165:\n        /* \"contracts/Bias.sol\":2147:2152  funds */\n      dup4\n        /* \"contracts/Bias.sol\":2147:2177  funds >= (max * _rewards) / 10 */\n      lt\n      iszero\n        /* \"contracts/Bias.sol\":2113:2177  balanceOf(msg.sender) >= funds && funds >= (max * _rewards) / 10 */\n    tag_162:\n        /* \"contracts/Bias.sol\":2091:2223  require(... */\n      tag_166\n      jumpi\n      mload(0x40)\n      shl(0xe5, 0x461bcd)\n      dup2\n      mstore\n        /* \"#utility.yul\":9393:9395   */\n      0x20\n        /* \"contracts/Bias.sol\":2091:2223  require(... */\n      0x04\n      dup3\n      add\n        /* \"#utility.yul\":9375:9396   */\n      mstore\n        /* \"#utility.yul\":9432:9434   */\n      0x12\n        /* \"#utility.yul\":9412:9430   */\n      0x24\n      dup3\n      add\n        /* \"#utility.yul\":9405:9435   */\n      mstore\n      shl(0x70, 0x696e73756666696369656e742066756e6473)\n        /* \"#utility.yul\":9451:9469   */\n      0x44\n      dup3\n      add\n        /* \"#utility.yul\":9444:9492   */\n      mstore\n        /* \"#utility.yul\":9509:9527   */\n      0x64\n      add\n        /* \"contracts/Bias.sol\":2091:2223  require(... */\n      tag_136\n        /* \"#utility.yul\":9191:9533   */\n      jump\n        /* \"contracts/Bias.sol\":2091:2223  require(... */\n    tag_166:\n        /* \"contracts/Bias.sol\":2248:2249  0 */\n      0x00\n        /* \"contracts/Bias.sol\":2242:2245  max */\n      dup3\n        /* \"contracts/Bias.sol\":2242:2249  max > 0 */\n      gt\n        /* \"contracts/Bias.sol\":2234:2268  require(max > 0, \"invalid params\") */\n      tag_169\n      jumpi\n      mload(0x40)\n      shl(0xe5, 0x461bcd)\n      dup2\n      mstore\n        /* \"#utility.yul\":9740:9742   */\n      0x20\n        /* \"contracts/Bias.sol\":2234:2268  require(max > 0, \"invalid params\") */\n      0x04\n      dup3\n      add\n        /* \"#utility.yul\":9722:9743   */\n      mstore\n        /* \"#utility.yul\":9779:9781   */\n      0x0e\n        /* \"#utility.yul\":9759:9777   */\n      0x24\n      dup3\n      add\n        /* \"#utility.yul\":9752:9782   */\n      mstore\n      shl(0x90, 0x696e76616c696420706172616d73)\n        /* \"#utility.yul\":9798:9816   */\n      0x44\n      dup3\n      add\n        /* \"#utility.yul\":9791:9835   */\n      mstore\n        /* \"#utility.yul\":9852:9870   */\n      0x64\n      add\n        /* \"contracts/Bias.sol\":2234:2268  require(max > 0, \"invalid params\") */\n      tag_136\n        /* \"#utility.yul\":9538:9876   */\n      jump\n        /* \"contracts/Bias.sol\":2234:2268  require(max > 0, \"invalid params\") */\n    tag_169:\n        /* \"contracts/Bias.sol\":2295:2305  msg.sender */\n      caller\n        /* \"contracts/Bias.sol\":2287:2306  _living[msg.sender] */\n      0x00\n      swap1\n      dup2\n      mstore\n        /* \"contracts/Bias.sol\":2287:2294  _living */\n      0x0a\n        /* \"contracts/Bias.sol\":2287:2306  _living[msg.sender] */\n      0x20\n      mstore\n      0x40\n      swap1\n      keccak256\n      sload\n        /* \"contracts/Bias.sol\":2287:2311  _living[msg.sender] == 0 */\n      iszero\n        /* \"contracts/Bias.sol\":2279:2341  require(_living[msg.sender] == 0, \"only allow one live topic\") */\n      tag_172\n      jumpi\n      mload(0x40)\n      shl(0xe5, 0x461bcd)\n      dup2\n      mstore\n        /* \"#utility.yul\":10083:10085   */\n      0x20\n        /* \"contracts/Bias.sol\":2279:2341  require(_living[msg.sender] == 0, \"only allow one live topic\") */\n      0x04\n      dup3\n      add\n        /* \"#utility.yul\":10065:10086   */\n      mstore\n        /* \"#utility.yul\":10122:10124   */\n      0x19\n        /* \"#utility.yul\":10102:10120   */\n      0x24\n      dup3\n      add\n        /* \"#utility.yul\":10095:10125   */\n      mstore\n        /* \"#utility.yul\":10161:10188   */\n      0x6f6e6c7920616c6c6f77206f6e65206c69766520746f70696300000000000000\n        /* \"#utility.yul\":10141:10159   */\n      0x44\n      dup3\n      add\n        /* \"#utility.yul\":10134:10189   */\n      mstore\n        /* \"#utility.yul\":10206:10224   */\n      0x64\n      add\n        /* \"contracts/Bias.sol\":2279:2341  require(_living[msg.sender] == 0, \"only allow one live topic\") */\n      tag_136\n        /* \"#utility.yul\":9881:10230   */\n      jump\n        /* \"contracts/Bias.sol\":2279:2341  require(_living[msg.sender] == 0, \"only allow one live topic\") */\n    tag_172:\n        /* \"contracts/Bias.sol\":2352:2376  _burn(msg.sender, funds) */\n      tag_175\n        /* \"contracts/Bias.sol\":2358:2368  msg.sender */\n      caller\n        /* \"contracts/Bias.sol\":2370:2375  funds */\n      dup5\n        /* \"contracts/Bias.sol\":2352:2357  _burn */\n      tag_176\n        /* \"contracts/Bias.sol\":2352:2376  _burn(msg.sender, funds) */\n      jump\t// in\n    tag_175:\n        /* \"contracts/Bias.sol\":2414:2476  Topic(msg.sender, block.timestamp, title, content, funds, max) */\n      0x40\n      dup1\n      mload\n      0xc0\n      dup2\n      add\n      dup3\n      mstore\n        /* \"contracts/Bias.sol\":2420:2430  msg.sender */\n      caller\n        /* \"contracts/Bias.sol\":2414:2476  Topic(msg.sender, block.timestamp, title, content, funds, max) */\n      dup2\n      mstore\n        /* \"contracts/Bias.sol\":2432:2447  block.timestamp */\n      timestamp\n        /* \"contracts/Bias.sol\":2414:2476  Topic(msg.sender, block.timestamp, title, content, funds, max) */\n      0x20\n      dup3\n      add\n      swap1\n      dup2\n      mstore\n      swap2\n      dup2\n      add\n      dup8\n      dup2\n      mstore\n      0x60\n      dup3\n      add\n      dup8\n      swap1\n      mstore\n      0x80\n      dup3\n      add\n      dup7\n      swap1\n      mstore\n      0xa0\n      dup3\n      add\n      dup6\n      swap1\n      mstore\n        /* \"contracts/Bias.sol\":2387:2394  _topics */\n      0x07\n        /* \"contracts/Bias.sol\":2387:2487  _topics.push(... */\n      dup1\n      sload\n      0x01\n      dup2\n      add\n      dup3\n      sstore\n      0x00\n      swap2\n      swap1\n      swap2\n      mstore\n      dup3\n      mload\n      0xa66cc928b5edb82af9bd49922954155ab7b0942694bea4ce44661d9a8736c688\n      0x06\n      swap1\n      swap3\n      mul\n      swap2\n      dup3\n      add\n      dup1\n      sload\n      not(sub(shl(0xa0, 0x01), 0x01))\n      and\n      sub(shl(0xa0, 0x01), 0x01)\n      swap1\n      swap3\n      and\n      swap2\n      swap1\n      swap2\n      or\n      dup2\n      sstore\n      swap4\n      mload\n      0xa66cc928b5edb82af9bd49922954155ab7b0942694bea4ce44661d9a8736c689\n      dup3\n      add\n      sstore\n      swap1\n      mload\n        /* \"contracts/Bias.sol\":2414:2476  Topic(msg.sender, block.timestamp, title, content, funds, max) */\n      swap2\n      swap3\n        /* \"contracts/Bias.sol\":2387:2487  _topics.push(... */\n      swap2\n      0xa66cc928b5edb82af9bd49922954155ab7b0942694bea4ce44661d9a8736c68a\n      swap1\n      swap2\n      add\n      swap1\n      tag_178\n      swap1\n      dup3\n      tag_179\n      jump\t// in\n    tag_178:\n      pop\n      0x60\n      dup3\n      add\n      mload\n      0x03\n      dup3\n      add\n      swap1\n      tag_180\n      swap1\n      dup3\n      tag_179\n      jump\t// in\n    tag_180:\n      pop\n      0x80\n      dup3\n      add\n      mload\n      0x04\n      dup3\n      add\n      sstore\n      0xa0\n      swap1\n      swap2\n      add\n      mload\n      0x05\n      swap1\n      swap2\n      add\n      sstore\n        /* \"contracts/Bias.sol\":2520:2527  _topics */\n      0x07\n        /* \"contracts/Bias.sol\":2520:2534  _topics.length */\n      sload\n        /* \"contracts/Bias.sol\":2520:2538  _topics.length - 1 */\n      tag_181\n      swap1\n        /* \"contracts/Bias.sol\":2537:2538  1 */\n      0x01\n      swap1\n        /* \"contracts/Bias.sol\":2520:2538  _topics.length - 1 */\n      tag_182\n      jump\t// in\n    tag_181:\n        /* \"contracts/Bias.sol\":2506:2516  msg.sender */\n      caller\n        /* \"contracts/Bias.sol\":2498:2517  _living[msg.sender] */\n      0x00\n      swap1\n      dup2\n      mstore\n        /* \"contracts/Bias.sol\":2498:2505  _living */\n      0x0a\n        /* \"contracts/Bias.sol\":2498:2517  _living[msg.sender] */\n      0x20\n      mstore\n      0x40\n      swap1\n      keccak256\n        /* \"contracts/Bias.sol\":2498:2538  _living[msg.sender] = _topics.length - 1 */\n      sstore\n      pop\n      pop\n      pop\n      pop\n      pop\n        /* \"contracts/Bias.sol\":1775:2546  function create(... */\n      jump\t// out\n        /* \"@openzeppelin/contracts/token/ERC20/ERC20.sol\":5039:5283  function transferFrom(address from, address to, uint256 value) public virtual returns (bool) {... */\n    tag_53:\n        /* \"@openzeppelin/contracts/token/ERC20/ERC20.sol\":5126:5130  bool */\n      0x00\n        /* \"@openzeppelin/contracts/utils/Context.sol\":735:745  msg.sender */\n      caller\n        /* \"@openzeppelin/contracts/token/ERC20/ERC20.sol\":5182:5219  _spendAllowance(from, spender, value) */\n      tag_186\n        /* \"@openzeppelin/contracts/token/ERC20/ERC20.sol\":5198:5202  from */\n      dup6\n        /* \"@openzeppelin/contracts/utils/Context.sol\":735:745  msg.sender */\n      dup3\n        /* \"@openzeppelin/contracts/token/ERC20/ERC20.sol\":5213:5218  value */\n      dup6\n        /* \"@openzeppelin/contracts/token/ERC20/ERC20.sol\":5182:5197  _spendAllowance */\n      tag_187\n        /* \"@openzeppelin/contracts/token/ERC20/ERC20.sol\":5182:5219  _spendAllowance(from, spender, value) */\n      jump\t// in\n    tag_186:\n        /* \"@openzeppelin/contracts/token/ERC20/ERC20.sol\":5229:5255  _transfer(from, to, value) */\n      tag_188\n        /* \"@openzeppelin/contracts/token/ERC20/ERC20.sol\":5239:5243  from */\n      dup6\n        /* \"@openzeppelin/contracts/token/ERC20/ERC20.sol\":5245:5247  to */\n      dup6\n        /* \"@openzeppelin/contracts/token/ERC20/ERC20.sol\":5249:5254  value */\n      dup6\n        /* \"@openzeppelin/contracts/token/ERC20/ERC20.sol\":5229:5238  _transfer */\n      tag_189\n        /* \"@openzeppelin/contracts/token/ERC20/ERC20.sol\":5229:5255  _transfer(from, to, value) */\n      jump\t// in\n    tag_188:\n      pop\n        /* \"@openzeppelin/contracts/token/ERC20/ERC20.sol\":5272:5276  true */\n      0x01\n      swap5\n        /* \"@openzeppelin/contracts/token/ERC20/ERC20.sol\":5039:5283  function transferFrom(address from, address to, uint256 value) public virtual returns (bool) {... */\n      swap4\n      pop\n      pop\n      pop\n      pop\n      jump\t// out\n        /* \"@openzeppelin/contracts/access/Ownable.sol\":2293:2394  function renounceOwnership() public virtual onlyOwner {... */\n    tag_74:\n        /* \"@openzeppelin/contracts/access/Ownable.sol\":1531:1544  _checkOwner() */\n      tag_193\n        /* \"@openzeppelin/contracts/access/Ownable.sol\":1531:1542  _checkOwner */\n      tag_194\n        /* \"@openzeppelin/contracts/access/Ownable.sol\":1531:1544  _checkOwner() */\n      jump\t// in\n    tag_193:\n        /* \"@openzeppelin/contracts/access/Ownable.sol\":2357:2387  _transferOwnership(address(0)) */\n      tag_196\n        /* \"@openzeppelin/contracts/access/Ownable.sol\":2384:2385  0 */\n      0x00\n        /* \"@openzeppelin/contracts/access/Ownable.sol\":2357:2375  _transferOwnership */\n      tag_197\n        /* \"@openzeppelin/contracts/access/Ownable.sol\":2357:2387  _transferOwnership(address(0)) */\n      jump\t// in\n    tag_196:\n        /* \"@openzeppelin/contracts/access/Ownable.sol\":2293:2394  function renounceOwnership() public virtual onlyOwner {... */\n      jump\t// out\n        /* \"contracts/Bias.sol\":2735:3649  function vote(uint topicId, uint voteFor, bytes32 gitcoinPassUid) public {... */\n    tag_78:\n        /* \"contracts/Bias.sol\":2833:2852  _credentialVerifier */\n      sload(0x0b)\n        /* \"contracts/Bias.sol\":2833:2928  _credentialVerifier.calcWeight(... */\n      mload(0x40)\n      shl(0xe3, 0x17aeb55d)\n      dup2\n      mstore\n        /* \"contracts/Bias.sol\":2878:2888  msg.sender */\n      caller\n        /* \"contracts/Bias.sol\":2833:2928  _credentialVerifier.calcWeight(... */\n      0x04\n      dup3\n      add\n        /* \"#utility.yul\":8288:8339   */\n      mstore\n        /* \"#utility.yul\":8355:8373   */\n      0x24\n      dup2\n      add\n        /* \"#utility.yul\":8348:8382   */\n      dup4\n      swap1\n      mstore\n        /* \"contracts/Bias.sol\":2819:2830  uint weight */\n      0x00\n      swap2\n      sub(shl(0xa0, 0x01), 0x01)\n        /* \"contracts/Bias.sol\":2833:2852  _credentialVerifier */\n      and\n      swap1\n        /* \"contracts/Bias.sol\":2833:2863  _credentialVerifier.calcWeight */\n      0xbd75aae8\n      swap1\n        /* \"#utility.yul\":8261:8279   */\n      0x44\n      add\n        /* \"contracts/Bias.sol\":2833:2928  _credentialVerifier.calcWeight(... */\n      0x20\n      mload(0x40)\n      dup1\n      dup4\n      sub\n      dup2\n      0x00\n      dup8\n      gas\n      call\n      iszero\n      dup1\n      iszero\n      tag_201\n      jumpi\n      returndatasize\n      0x00\n      dup1\n      returndatacopy\n      revert(0x00, returndatasize)\n    tag_201:\n      pop\n      pop\n      pop\n      pop\n      mload(0x40)\n      returndatasize\n      not(0x1f)\n      0x1f\n      dup3\n      add\n      and\n      dup3\n      add\n      dup1\n      0x40\n      mstore\n      pop\n      dup2\n      add\n      swap1\n      tag_202\n      swap2\n      swap1\n      tag_203\n      jump\t// in\n    tag_202:\n        /* \"contracts/Bias.sol\":2819:2928  uint weight = _credentialVerifier.calcWeight(... */\n      swap1\n      pop\n        /* \"contracts/Bias.sol\":2956:2957  0 */\n      0x00\n        /* \"contracts/Bias.sol\":2947:2953  weight */\n      dup2\n        /* \"contracts/Bias.sol\":2947:2957  weight > 0 */\n      gt\n        /* \"contracts/Bias.sol\":2939:2976  require(weight > 0, \"not authorized\") */\n      tag_204\n      jumpi\n      mload(0x40)\n      shl(0xe5, 0x461bcd)\n      dup2\n      mstore\n        /* \"#utility.yul\":8877:8879   */\n      0x20\n        /* \"contracts/Bias.sol\":2939:2976  require(weight > 0, \"not authorized\") */\n      0x04\n      dup3\n      add\n        /* \"#utility.yul\":8859:8880   */\n      mstore\n        /* \"#utility.yul\":8916:8918   */\n      0x0e\n        /* \"#utility.yul\":8896:8914   */\n      0x24\n      dup3\n      add\n        /* \"#utility.yul\":8889:8919   */\n      mstore\n      shl(0x92, 0x1b9bdd08185d5d1a1bdc9a5e9959)\n        /* \"#utility.yul\":8935:8953   */\n      0x44\n      dup3\n      add\n        /* \"#utility.yul\":8928:8972   */\n      mstore\n        /* \"#utility.yul\":8989:9007   */\n      0x64\n      add\n        /* \"contracts/Bias.sol\":2939:2976  require(weight > 0, \"not authorized\") */\n      tag_136\n        /* \"#utility.yul\":8675:9013   */\n      jump\n        /* \"contracts/Bias.sol\":2939:2976  require(weight > 0, \"not authorized\") */\n    tag_204:\n        /* \"contracts/Bias.sol\":3019:3026  _topics */\n      0x07\n        /* \"contracts/Bias.sol\":3027:3034  topicId */\n      dup5\n        /* \"contracts/Bias.sol\":3019:3035  _topics[topicId] */\n      dup2\n      sload\n      dup2\n      lt\n      tag_207\n      jumpi\n      tag_207\n      tag_133\n      jump\t// in\n    tag_207:\n      swap1\n      0x00\n      mstore\n      keccak256(0x00, 0x20)\n      swap1\n      0x06\n      mul\n      add\n        /* \"contracts/Bias.sol\":3019:3039  _topics[topicId].max */\n      0x05\n      add\n      sload\n        /* \"contracts/Bias.sol\":2995:3007  _voterCounts */\n      0x09\n        /* \"contracts/Bias.sol\":2995:3016  _voterCounts[topicId] */\n      0x00\n        /* \"contracts/Bias.sol\":3008:3015  topicId */\n      dup7\n        /* \"contracts/Bias.sol\":2995:3016  _voterCounts[topicId] */\n      dup2\n      mstore\n      0x20\n      add\n      swap1\n      dup2\n      mstore\n      0x20\n      add\n      0x00\n      keccak256\n      sload\n        /* \"contracts/Bias.sol\":2995:3039  _voterCounts[topicId] < _topics[topicId].max */\n      lt\n        /* \"contracts/Bias.sol\":2987:3052  require(_voterCounts[topicId] < _topics[topicId].max, \"finished\") */\n      tag_209\n      jumpi\n      mload(0x40)\n      shl(0xe5, 0x461bcd)\n      dup2\n      mstore\n        /* \"#utility.yul\":12963:12965   */\n      0x20\n        /* \"contracts/Bias.sol\":2987:3052  require(_voterCounts[topicId] < _topics[topicId].max, \"finished\") */\n      0x04\n      dup3\n      add\n        /* \"#utility.yul\":12945:12966   */\n      mstore\n        /* \"#utility.yul\":13002:13003   */\n      0x08\n        /* \"#utility.yul\":12982:13000   */\n      0x24\n      dup3\n      add\n        /* \"#utility.yul\":12975:13004   */\n      mstore\n      shl(0xc2, 0x199a5b9a5cda1959)\n        /* \"#utility.yul\":13020:13038   */\n      0x44\n      dup3\n      add\n        /* \"#utility.yul\":13013:13051   */\n      mstore\n        /* \"#utility.yul\":13068:13086   */\n      0x64\n      add\n        /* \"contracts/Bias.sol\":2987:3052  require(_voterCounts[topicId] < _topics[topicId].max, \"finished\") */\n      tag_136\n        /* \"#utility.yul\":12761:13092   */\n      jump\n        /* \"contracts/Bias.sol\":2987:3052  require(_voterCounts[topicId] < _topics[topicId].max, \"finished\") */\n    tag_209:\n        /* \"contracts/Bias.sol\":3118:3128  msg.sender */\n      caller\n        /* \"contracts/Bias.sol\":3104:3129  _lastJoinTime[msg.sender] */\n      0x00\n      swap1\n      dup2\n      mstore\n        /* \"contracts/Bias.sol\":3104:3117  _lastJoinTime */\n      0x0c\n        /* \"contracts/Bias.sol\":3104:3129  _lastJoinTime[msg.sender] */\n      0x20\n      mstore\n      0x40\n      swap1\n      keccak256\n      sload\n        /* \"contracts/Bias.sol\":3104:3146  _lastJoinTime[msg.sender] + DAY_IN_SECONDS */\n      tag_212\n      swap1\n        /* \"contracts/Bias.sol\":1333:1338  86400 */\n      0x015180\n      swap1\n        /* \"contracts/Bias.sol\":3104:3146  _lastJoinTime[msg.sender] + DAY_IN_SECONDS */\n      tag_213\n      jump\t// in\n    tag_212:\n        /* \"contracts/Bias.sol\":3085:3100  block.timestamp */\n      timestamp\n        /* \"contracts/Bias.sol\":3085:3146  block.timestamp >= _lastJoinTime[msg.sender] + DAY_IN_SECONDS */\n      lt\n      iszero\n        /* \"contracts/Bias.sol\":3063:3186  require(... */\n      tag_214\n      jumpi\n      mload(0x40)\n      shl(0xe5, 0x461bcd)\n      dup2\n      mstore\n        /* \"#utility.yul\":13429:13431   */\n      0x20\n        /* \"contracts/Bias.sol\":3063:3186  require(... */\n      0x04\n      dup3\n      add\n        /* \"#utility.yul\":13411:13432   */\n      mstore\n        /* \"#utility.yul\":13468:13470   */\n      0x0c\n        /* \"#utility.yul\":13448:13466   */\n      0x24\n      dup3\n      add\n        /* \"#utility.yul\":13441:13471   */\n      mstore\n      shl(0xa0, 0x6f6e63652070657220646179)\n        /* \"#utility.yul\":13487:13505   */\n      0x44\n      dup3\n      add\n        /* \"#utility.yul\":13480:13522   */\n      mstore\n        /* \"#utility.yul\":13539:13557   */\n      0x64\n      add\n        /* \"contracts/Bias.sol\":3063:3186  require(... */\n      tag_136\n        /* \"#utility.yul\":13227:13563   */\n      jump\n        /* \"contracts/Bias.sol\":3063:3186  require(... */\n    tag_214:\n        /* \"contracts/Bias.sol\":3211:3221  msg.sender */\n      caller\n        /* \"contracts/Bias.sol\":3197:3222  _lastJoinTime[msg.sender] */\n      0x00\n      dup2\n      dup2\n      mstore\n        /* \"contracts/Bias.sol\":3197:3210  _lastJoinTime */\n      0x0c\n        /* \"contracts/Bias.sol\":3197:3222  _lastJoinTime[msg.sender] */\n      0x20\n      mstore\n      0x40\n      swap1\n      keccak256\n        /* \"contracts/Bias.sol\":3225:3240  block.timestamp */\n      timestamp\n        /* \"contracts/Bias.sol\":3197:3240  _lastJoinTime[msg.sender] = block.timestamp */\n      swap1\n      sstore\n        /* \"contracts/Bias.sol\":3343:3350  _topics */\n      0x07\n        /* \"contracts/Bias.sol\":3343:3359  _topics[topicId] */\n      dup1\n      sload\n        /* \"contracts/Bias.sol\":3253:3374  _mint(... */\n      tag_217\n      swap3\n        /* \"contracts/Bias.sol\":3211:3221  msg.sender */\n      swap2\n        /* \"contracts/Bias.sol\":3343:3350  _topics */\n      swap1\n        /* \"contracts/Bias.sol\":3351:3358  topicId */\n      dup8\n      swap1\n        /* \"contracts/Bias.sol\":3343:3359  _topics[topicId] */\n      dup2\n      lt\n      tag_219\n      jumpi\n      tag_219\n      tag_133\n      jump\t// in\n    tag_219:\n      swap1\n      0x00\n      mstore\n      keccak256(0x00, 0x20)\n      swap1\n      0x06\n      mul\n      add\n        /* \"contracts/Bias.sol\":3343:3363  _topics[topicId].max */\n      0x05\n      add\n      sload\n        /* \"contracts/Bias.sol\":3318:3325  _topics */\n      0x07\n        /* \"contracts/Bias.sol\":3326:3333  topicId */\n      dup8\n        /* \"contracts/Bias.sol\":3318:3334  _topics[topicId] */\n      dup2\n      sload\n      dup2\n      lt\n      tag_222\n      jumpi\n      tag_222\n      tag_133\n      jump\t// in\n    tag_222:\n      swap1\n      0x00\n      mstore\n      keccak256(0x00, 0x20)\n      swap1\n      0x06\n      mul\n      add\n        /* \"contracts/Bias.sol\":3318:3340  _topics[topicId].funds */\n      0x04\n      add\n      sload\n        /* \"contracts/Bias.sol\":3318:3363  _topics[topicId].funds / _topics[topicId].max */\n      tag_224\n      swap2\n      swap1\n      tag_149\n      jump\t// in\n    tag_224:\n        /* \"contracts/Bias.sol\":3309:3315  weight */\n      dup4\n        /* \"contracts/Bias.sol\":3298:3306  _rewards */\n      sload(0x06)\n        /* \"contracts/Bias.sol\":3298:3315  _rewards * weight */\n      tag_225\n      swap2\n      swap1\n      tag_164\n      jump\t// in\n    tag_225:\n        /* \"contracts/Bias.sol\":3298:3363  _rewards * weight + _topics[topicId].funds / _topics[topicId].max */\n      tag_148\n      swap2\n      swap1\n      tag_213\n      jump\t// in\n        /* \"contracts/Bias.sol\":3253:3374  _mint(... */\n    tag_217:\n        /* \"contracts/Bias.sol\":3385:3406  _voterCounts[topicId] */\n      0x00\n      dup5\n      dup2\n      mstore\n        /* \"contracts/Bias.sol\":3385:3397  _voterCounts */\n      0x09\n        /* \"contracts/Bias.sol\":3385:3406  _voterCounts[topicId] */\n      0x20\n      mstore\n      0x40\n      dup2\n      keccak256\n        /* \"contracts/Bias.sol\":3385:3411  _voterCounts[topicId] += 1 */\n      dup1\n      sload\n        /* \"contracts/Bias.sol\":3410:3411  1 */\n      0x01\n      swap3\n        /* \"contracts/Bias.sol\":3385:3406  _voterCounts[topicId] */\n      swap1\n        /* \"contracts/Bias.sol\":3385:3411  _voterCounts[topicId] += 1 */\n      tag_227\n      swap1\n        /* \"contracts/Bias.sol\":3410:3411  1 */\n      dup5\n      swap1\n        /* \"contracts/Bias.sol\":3385:3411  _voterCounts[topicId] += 1 */\n      tag_213\n      jump\t// in\n    tag_227:\n      swap1\n      swap2\n      sstore\n      pop\n      pop\n        /* \"contracts/Bias.sol\":3422:3437  _votes[topicId] */\n      0x00\n      dup5\n      dup2\n      mstore\n        /* \"contracts/Bias.sol\":3422:3428  _votes */\n      0x08\n        /* \"contracts/Bias.sol\":3422:3437  _votes[topicId] */\n      0x20\n      swap1\n      dup2\n      mstore\n      0x40\n      dup1\n      dup4\n      keccak256\n        /* \"contracts/Bias.sol\":3422:3446  _votes[topicId][voteFor] */\n      dup7\n      dup5\n      mstore\n      swap1\n      swap2\n      mstore\n      dup2\n      keccak256\n        /* \"contracts/Bias.sol\":3422:3456  _votes[topicId][voteFor] += weight */\n      dup1\n      sload\n        /* \"contracts/Bias.sol\":3450:3456  weight */\n      dup4\n      swap3\n        /* \"contracts/Bias.sol\":3422:3437  _votes[topicId] */\n      swap1\n        /* \"contracts/Bias.sol\":3422:3456  _votes[topicId][voteFor] += weight */\n      tag_228\n      swap1\n        /* \"contracts/Bias.sol\":3450:3456  weight */\n      dup5\n      swap1\n        /* \"contracts/Bias.sol\":3422:3456  _votes[topicId][voteFor] += weight */\n      tag_213\n      jump\t// in\n    tag_228:\n      swap1\n      swap2\n      sstore\n      pop\n      pop\n        /* \"contracts/Bias.sol\":3472:3514  Vote(msg.sender, topicId, voteFor, weight) */\n      0x40\n      dup1\n      mload\n        /* \"#utility.yul\":13742:13767   */\n      dup5\n      dup2\n      mstore\n        /* \"#utility.yul\":13798:13800   */\n      0x20\n        /* \"#utility.yul\":13783:13801   */\n      dup2\n      add\n        /* \"#utility.yul\":13776:13810   */\n      dup4\n      swap1\n      mstore\n        /* \"contracts/Bias.sol\":3489:3496  topicId */\n      dup6\n      swap2\n        /* \"contracts/Bias.sol\":3477:3487  msg.sender */\n      caller\n      swap2\n        /* \"contracts/Bias.sol\":3472:3514  Vote(msg.sender, topicId, voteFor, weight) */\n      0x6c7eb2743ec28489909706ea440d909129004996be657d36c6e9add778546abf\n      swap2\n        /* \"#utility.yul\":13715:13733   */\n      add\n        /* \"contracts/Bias.sol\":3472:3514  Vote(msg.sender, topicId, voteFor, weight) */\n      mload(0x40)\n      dup1\n      swap2\n      sub\n      swap1\n      log3\n        /* \"contracts/Bias.sol\":3556:3563  _topics */\n      0x07\n        /* \"contracts/Bias.sol\":3564:3571  topicId */\n      dup5\n        /* \"contracts/Bias.sol\":3556:3572  _topics[topicId] */\n      dup2\n      sload\n      dup2\n      lt\n      tag_232\n      jumpi\n      tag_232\n      tag_133\n      jump\t// in\n    tag_232:\n      swap1\n      0x00\n      mstore\n      keccak256(0x00, 0x20)\n      swap1\n      0x06\n      mul\n      add\n        /* \"contracts/Bias.sol\":3556:3576  _topics[topicId].max */\n      0x05\n      add\n      sload\n        /* \"contracts/Bias.sol\":3531:3543  _voterCounts */\n      0x09\n        /* \"contracts/Bias.sol\":3531:3552  _voterCounts[topicId] */\n      0x00\n        /* \"contracts/Bias.sol\":3544:3551  topicId */\n      dup7\n        /* \"contracts/Bias.sol\":3531:3552  _voterCounts[topicId] */\n      dup2\n      mstore\n      0x20\n      add\n      swap1\n      dup2\n      mstore\n      0x20\n      add\n      0x00\n      keccak256\n      sload\n        /* \"contracts/Bias.sol\":3531:3576  _voterCounts[topicId] == _topics[topicId].max */\n      sub\n        /* \"contracts/Bias.sol\":3527:3642  if (_voterCounts[topicId] == _topics[topicId].max) {... */\n      tag_234\n      jumpi\n        /* \"contracts/Bias.sol\":3629:3630  0 */\n      0x00\n        /* \"contracts/Bias.sol\":3593:3600  _living */\n      0x0a\n        /* \"contracts/Bias.sol\":3593:3626  _living[_topics[topicId].creator] */\n      0x00\n        /* \"contracts/Bias.sol\":3601:3608  _topics */\n      0x07\n        /* \"contracts/Bias.sol\":3609:3616  topicId */\n      dup8\n        /* \"contracts/Bias.sol\":3601:3617  _topics[topicId] */\n      dup2\n      sload\n      dup2\n      lt\n      tag_236\n      jumpi\n      tag_236\n      tag_133\n      jump\t// in\n    tag_236:\n      0x00\n      swap2\n      dup3\n      mstore\n      0x20\n      dup1\n      dup4\n      keccak256\n      0x06\n      swap1\n      swap3\n      mul\n      swap1\n      swap2\n      add\n        /* \"contracts/Bias.sol\":3601:3625  _topics[topicId].creator */\n      sload\n      sub(shl(0xa0, 0x01), 0x01)\n      and\n        /* \"contracts/Bias.sol\":3593:3626  _living[_topics[topicId].creator] */\n      dup4\n      mstore\n      dup3\n      add\n      swap3\n      swap1\n      swap3\n      mstore\n      0x40\n      add\n      swap1\n      keccak256\n        /* \"contracts/Bias.sol\":3593:3630  _living[_topics[topicId].creator] = 0 */\n      sstore\n        /* \"contracts/Bias.sol\":3527:3642  if (_voterCounts[topicId] == _topics[topicId].max) {... */\n    tag_234:\n        /* \"contracts/Bias.sol\":2808:3649  {... */\n      pop\n        /* \"contracts/Bias.sol\":2735:3649  function vote(uint topicId, uint voteFor, bytes32 gitcoinPassUid) public {... */\n      pop\n      pop\n      pop\n      jump\t// out\n        /* \"@openzeppelin/contracts/token/ERC20/ERC20.sol\":2276:2369  function symbol() public view virtual returns (string memory) {... */\n    tag_88:\n        /* \"@openzeppelin/contracts/token/ERC20/ERC20.sol\":2323:2336  string memory */\n      0x60\n        /* \"@openzeppelin/contracts/token/ERC20/ERC20.sol\":2355:2362  _symbol */\n      0x04\n        /* \"@openzeppelin/contracts/token/ERC20/ERC20.sol\":2348:2362  return _symbol */\n      dup1\n      sload\n      tag_119\n      swap1\n      tag_120\n      jump\t// in\n        /* \"contracts/Bias.sol\":699:721  Topic[] public _topics */\n    tag_92:\n      0x07\n      dup2\n      dup2\n      sload\n      dup2\n      lt\n      tag_245\n      jumpi\n      0x00\n      dup1\n      revert\n    tag_245:\n      0x00\n      swap2\n      dup3\n      mstore\n      0x20\n      swap1\n      swap2\n      keccak256\n      0x06\n      swap1\n      swap2\n      mul\n      add\n      dup1\n      sload\n      0x01\n      dup3\n      add\n      sload\n      0x02\n      dup4\n      add\n      dup1\n      sload\n      sub(shl(0xa0, 0x01), 0x01)\n      swap1\n      swap4\n      and\n      swap5\n      pop\n      swap1\n      swap3\n      swap2\n      tag_247\n      swap1\n      tag_120\n      jump\t// in\n    tag_247:\n      dup1\n      0x1f\n      add\n      0x20\n      dup1\n      swap2\n      div\n      mul\n      0x20\n      add\n      mload(0x40)\n      swap1\n      dup2\n      add\n      0x40\n      mstore\n      dup1\n      swap3\n      swap2\n      swap1\n      dup2\n      dup2\n      mstore\n      0x20\n      add\n      dup3\n      dup1\n      sload\n      tag_248\n      swap1\n      tag_120\n      jump\t// in\n    tag_248:\n      dup1\n      iszero\n      tag_249\n      jumpi\n      dup1\n      0x1f\n      lt\n      tag_250\n      jumpi\n      0x0100\n      dup1\n      dup4\n      sload\n      div\n      mul\n      dup4\n      mstore\n      swap2\n      0x20\n      add\n      swap2\n      jump(tag_249)\n    tag_250:\n      dup3\n      add\n      swap2\n      swap1\n      0x00\n      mstore\n      keccak256(0x00, 0x20)\n      swap1\n    tag_251:\n      dup2\n      sload\n      dup2\n      mstore\n      swap1\n      0x01\n      add\n      swap1\n      0x20\n      add\n      dup1\n      dup4\n      gt\n      tag_251\n      jumpi\n      dup3\n      swap1\n      sub\n      0x1f\n      and\n      dup3\n      add\n      swap2\n    tag_249:\n      pop\n      pop\n      pop\n      pop\n      pop\n      swap1\n      dup1\n      0x03\n      add\n      dup1\n      sload\n      tag_252\n      swap1\n      tag_120\n      jump\t// in\n    tag_252:\n      dup1\n      0x1f\n      add\n      0x20\n      dup1\n      swap2\n      div\n      mul\n      0x20\n      add\n      mload(0x40)\n      swap1\n      dup2\n      add\n      0x40\n      mstore\n      dup1\n      swap3\n      swap2\n      swap1\n      dup2\n      dup2\n      mstore\n      0x20\n      add\n      dup3\n      dup1\n      sload\n      tag_253\n      swap1\n      tag_120\n      jump\t// in\n    tag_253:\n      dup1\n      iszero\n      tag_254\n      jumpi\n      dup1\n      0x1f\n      lt\n      tag_255\n      jumpi\n      0x0100\n      dup1\n      dup4\n      sload\n      div\n      mul\n      dup4\n      mstore\n      swap2\n      0x20\n      add\n      swap2\n      jump(tag_254)\n    tag_255:\n      dup3\n      add\n      swap2\n      swap1\n      0x00\n      mstore\n      keccak256(0x00, 0x20)\n      swap1\n    tag_256:\n      dup2\n      sload\n      dup2\n      mstore\n      swap1\n      0x01\n      add\n      swap1\n      0x20\n      add\n      dup1\n      dup4\n      gt\n      tag_256\n      jumpi\n      dup3\n      swap1\n      sub\n      0x1f\n      and\n      dup3\n      add\n      swap2\n    tag_254:\n      pop\n      pop\n      pop\n      pop\n      pop\n      swap1\n      dup1\n      0x04\n      add\n      sload\n      swap1\n      dup1\n      0x05\n      add\n      sload\n      swap1\n      pop\n      dup7\n      jump\t// out\n        /* \"@openzeppelin/contracts/token/ERC20/ERC20.sol\":3610:3788  function transfer(address to, uint256 value) public virtual returns (bool) {... */\n    tag_100:\n        /* \"@openzeppelin/contracts/token/ERC20/ERC20.sol\":3679:3683  bool */\n      0x00\n        /* \"@openzeppelin/contracts/utils/Context.sol\":735:745  msg.sender */\n      caller\n        /* \"@openzeppelin/contracts/token/ERC20/ERC20.sol\":3733:3760  _transfer(owner, to, value) */\n      tag_128\n        /* \"@openzeppelin/contracts/utils/Context.sol\":735:745  msg.sender */\n      dup2\n        /* \"@openzeppelin/contracts/token/ERC20/ERC20.sol\":3750:3752  to */\n      dup6\n        /* \"@openzeppelin/contracts/token/ERC20/ERC20.sol\":3754:3759  value */\n      dup6\n        /* \"@openzeppelin/contracts/token/ERC20/ERC20.sol\":3733:3742  _transfer */\n      tag_189\n        /* \"@openzeppelin/contracts/token/ERC20/ERC20.sol\":3733:3760  _transfer(owner, to, value) */\n      jump\t// in\n        /* \"contracts/Bias.sol\":4121:4214  function updateRewards(uint rewards_) public onlyOwner {... */\n    tag_104:\n        /* \"@openzeppelin/contracts/access/Ownable.sol\":1531:1544  _checkOwner() */\n      tag_261\n        /* \"@openzeppelin/contracts/access/Ownable.sol\":1531:1542  _checkOwner */\n      tag_194\n        /* \"@openzeppelin/contracts/access/Ownable.sol\":1531:1544  _checkOwner() */\n      jump\t// in\n    tag_261:\n        /* \"contracts/Bias.sol\":4187:4195  _rewards */\n      0x06\n        /* \"contracts/Bias.sol\":4187:4206  _rewards = rewards_ */\n      sstore\n        /* \"contracts/Bias.sol\":4121:4214  function updateRewards(uint rewards_) public onlyOwner {... */\n      jump\t// out\n        /* \"contracts/Bias.sol\":2554:2654  function topicAt(uint index) public returns (Topic memory ) {... */\n    tag_107:\n        /* \"contracts/Bias.sol\":2599:2611  Topic memory */\n      tag_263\n      mload(0x40)\n      dup1\n      0xc0\n      add\n      0x40\n      mstore\n      dup1\n      and(sub(shl(0xa0, 0x01), 0x01), 0x00)\n      dup2\n      mstore\n      0x20\n      add\n      0x00\n      dup2\n      mstore\n      0x20\n      add\n      0x60\n      dup2\n      mstore\n      0x20\n      add\n      0x60\n      dup2\n      mstore\n      0x20\n      add\n      0x00\n      dup2\n      mstore\n      0x20\n      add\n      0x00\n      dup2\n      mstore\n      pop\n      swap1\n      jump\n    tag_263:\n        /* \"contracts/Bias.sol\":2632:2639  _topics */\n      0x07\n        /* \"contracts/Bias.sol\":2640:2645  index */\n      dup3\n        /* \"contracts/Bias.sol\":2632:2646  _topics[index] */\n      dup2\n      sload\n      dup2\n      lt\n      tag_267\n      jumpi\n      tag_267\n      tag_133\n      jump\t// in\n    tag_267:\n      swap1\n      0x00\n      mstore\n      keccak256(0x00, 0x20)\n      swap1\n      0x06\n      mul\n      add\n        /* \"contracts/Bias.sol\":2625:2646  return _topics[index] */\n      mload(0x40)\n      dup1\n      0xc0\n      add\n      0x40\n      mstore\n      swap1\n      dup2\n      0x00\n      dup3\n      add\n      0x00\n      swap1\n      sload\n      swap1\n      0x0100\n      exp\n      swap1\n      div\n      sub(shl(0xa0, 0x01), 0x01)\n      and\n      sub(shl(0xa0, 0x01), 0x01)\n      and\n      sub(shl(0xa0, 0x01), 0x01)\n      and\n      dup2\n      mstore\n      0x20\n      add\n      0x01\n      dup3\n      add\n      sload\n      dup2\n      mstore\n      0x20\n      add\n      0x02\n      dup3\n      add\n      dup1\n      sload\n      tag_269\n      swap1\n      tag_120\n      jump\t// in\n    tag_269:\n      dup1\n      0x1f\n      add\n      0x20\n      dup1\n      swap2\n      div\n      mul\n      0x20\n      add\n      mload(0x40)\n      swap1\n      dup2\n      add\n      0x40\n      mstore\n      dup1\n      swap3\n      swap2\n      swap1\n      dup2\n      dup2\n      mstore\n      0x20\n      add\n      dup3\n      dup1\n      sload\n      tag_270\n      swap1\n      tag_120\n      jump\t// in\n    tag_270:\n      dup1\n      iszero\n      tag_271\n      jumpi\n      dup1\n      0x1f\n      lt\n      tag_272\n      jumpi\n      0x0100\n      dup1\n      dup4\n      sload\n      div\n      mul\n      dup4\n      mstore\n      swap2\n      0x20\n      add\n      swap2\n      jump(tag_271)\n    tag_272:\n      dup3\n      add\n      swap2\n      swap1\n      0x00\n      mstore\n      keccak256(0x00, 0x20)\n      swap1\n    tag_273:\n      dup2\n      sload\n      dup2\n      mstore\n      swap1\n      0x01\n      add\n      swap1\n      0x20\n      add\n      dup1\n      dup4\n      gt\n      tag_273\n      jumpi\n      dup3\n      swap1\n      sub\n      0x1f\n      and\n      dup3\n      add\n      swap2\n    tag_271:\n      pop\n      pop\n      pop\n      pop\n      pop\n      dup2\n      mstore\n      0x20\n      add\n      0x03\n      dup3\n      add\n      dup1\n      sload\n      tag_274\n      swap1\n      tag_120\n      jump\t// in\n    tag_274:\n      dup1\n      0x1f\n      add\n      0x20\n      dup1\n      swap2\n      div\n      mul\n      0x20\n      add\n      mload(0x40)\n      swap1\n      dup2\n      add\n      0x40\n      mstore\n      dup1\n      swap3\n      swap2\n      swap1\n      dup2\n      dup2\n      mstore\n      0x20\n      add\n      dup3\n      dup1\n      sload\n      tag_275\n      swap1\n      tag_120\n      jump\t// in\n    tag_275:\n      dup1\n      iszero\n      tag_276\n      jumpi\n      dup1\n      0x1f\n      lt\n      tag_277\n      jumpi\n      0x0100\n      dup1\n      dup4\n      sload\n      div\n      mul\n      dup4\n      mstore\n      swap2\n      0x20\n      add\n      swap2\n      jump(tag_276)\n    tag_277:\n      dup3\n      add\n      swap2\n      swap1\n      0x00\n      mstore\n      keccak256(0x00, 0x20)\n      swap1\n    tag_278:\n      dup2\n      sload\n      dup2\n      mstore\n      swap1\n      0x01\n      add\n      swap1\n      0x20\n      add\n      dup1\n      dup4\n      gt\n      tag_278\n      jumpi\n      dup3\n      swap1\n      sub\n      0x1f\n      and\n      dup3\n      add\n      swap2\n    tag_276:\n      pop\n      pop\n      pop\n      pop\n      pop\n      dup2\n      mstore\n      0x20\n      add\n      0x04\n      dup3\n      add\n      sload\n      dup2\n      mstore\n      0x20\n      add\n      0x05\n      dup3\n      add\n      sload\n      dup2\n      mstore\n      pop\n      pop\n      swap1\n      pop\n        /* \"contracts/Bias.sol\":2554:2654  function topicAt(uint index) public returns (Topic memory ) {... */\n      swap2\n      swap1\n      pop\n      jump\t// out\n        /* \"@openzeppelin/contracts/access/Ownable.sol\":2543:2758  function transferOwnership(address newOwner) public virtual onlyOwner {... */\n    tag_117:\n        /* \"@openzeppelin/contracts/access/Ownable.sol\":1531:1544  _checkOwner() */\n      tag_281\n        /* \"@openzeppelin/contracts/access/Ownable.sol\":1531:1542  _checkOwner */\n      tag_194\n        /* \"@openzeppelin/contracts/access/Ownable.sol\":1531:1544  _checkOwner() */\n      jump\t// in\n    tag_281:\n      sub(shl(0xa0, 0x01), 0x01)\n        /* \"@openzeppelin/contracts/access/Ownable.sol\":2627:2649  newOwner == address(0) */\n      dup2\n      and\n        /* \"@openzeppelin/contracts/access/Ownable.sol\":2623:2714  if (newOwner == address(0)) {... */\n      tag_283\n      jumpi\n        /* \"@openzeppelin/contracts/access/Ownable.sol\":2672:2703  OwnableInvalidOwner(address(0)) */\n      mload(0x40)\n      shl(0xe0, 0x1e4fbdf7)\n      dup2\n      mstore\n        /* \"@openzeppelin/contracts/access/Ownable.sol\":2700:2701  0 */\n      0x00\n        /* \"@openzeppelin/contracts/access/Ownable.sol\":2672:2703  OwnableInvalidOwner(address(0)) */\n      0x04\n      dup3\n      add\n        /* \"#utility.yul\":4706:4757   */\n      mstore\n        /* \"#utility.yul\":4679:4697   */\n      0x24\n      add\n        /* \"@openzeppelin/contracts/access/Ownable.sol\":2672:2703  OwnableInvalidOwner(address(0)) */\n      tag_136\n        /* \"#utility.yul\":4560:4763   */\n      jump\n        /* \"@openzeppelin/contracts/access/Ownable.sol\":2623:2714  if (newOwner == address(0)) {... */\n    tag_283:\n        /* \"@openzeppelin/contracts/access/Ownable.sol\":2723:2751  _transferOwnership(newOwner) */\n      tag_144\n        /* \"@openzeppelin/contracts/access/Ownable.sol\":2742:2750  newOwner */\n      dup2\n        /* \"@openzeppelin/contracts/access/Ownable.sol\":2723:2741  _transferOwnership */\n      tag_197\n        /* \"@openzeppelin/contracts/access/Ownable.sol\":2723:2751  _transferOwnership(newOwner) */\n      jump\t// in\n        /* \"@openzeppelin/contracts/token/ERC20/ERC20.sol\":8989:9117  function _approve(address owner, address spender, uint256 value) internal {... */\n    tag_129:\n        /* \"@openzeppelin/contracts/token/ERC20/ERC20.sol\":9073:9110  _approve(owner, spender, value, true) */\n      tag_288\n        /* \"@openzeppelin/contracts/token/ERC20/ERC20.sol\":9082:9087  owner */\n      dup4\n        /* \"@openzeppelin/contracts/token/ERC20/ERC20.sol\":9089:9096  spender */\n      dup4\n        /* \"@openzeppelin/contracts/token/ERC20/ERC20.sol\":9098:9103  value */\n      dup4\n        /* \"@openzeppelin/contracts/token/ERC20/ERC20.sol\":9105:9109  true */\n      0x01\n        /* \"@openzeppelin/contracts/token/ERC20/ERC20.sol\":9073:9081  _approve */\n      tag_289\n        /* \"@openzeppelin/contracts/token/ERC20/ERC20.sol\":9073:9110  _approve(owner, spender, value, true) */\n      jump\t// in\n    tag_288:\n        /* \"@openzeppelin/contracts/token/ERC20/ERC20.sol\":8989:9117  function _approve(address owner, address spender, uint256 value) internal {... */\n      pop\n      pop\n      pop\n      jump\t// out\n        /* \"@openzeppelin/contracts/token/ERC20/ERC20.sol\":7721:7929  function _mint(address account, uint256 value) internal {... */\n    tag_150:\n      sub(shl(0xa0, 0x01), 0x01)\n        /* \"@openzeppelin/contracts/token/ERC20/ERC20.sol\":7791:7812  account == address(0) */\n      dup3\n      and\n        /* \"@openzeppelin/contracts/token/ERC20/ERC20.sol\":7787:7878  if (account == address(0)) {... */\n      tag_291\n      jumpi\n        /* \"@openzeppelin/contracts/token/ERC20/ERC20.sol\":7835:7867  ERC20InvalidReceiver(address(0)) */\n      mload(0x40)\n      shl(0xe0, 0xec442f05)\n      dup2\n      mstore\n        /* \"@openzeppelin/contracts/token/ERC20/ERC20.sol\":7864:7865  0 */\n      0x00\n        /* \"@openzeppelin/contracts/token/ERC20/ERC20.sol\":7835:7867  ERC20InvalidReceiver(address(0)) */\n      0x04\n      dup3\n      add\n        /* \"#utility.yul\":4706:4757   */\n      mstore\n        /* \"#utility.yul\":4679:4697   */\n      0x24\n      add\n        /* \"@openzeppelin/contracts/token/ERC20/ERC20.sol\":7835:7867  ERC20InvalidReceiver(address(0)) */\n      tag_136\n        /* \"#utility.yul\":4560:4763   */\n      jump\n        /* \"@openzeppelin/contracts/token/ERC20/ERC20.sol\":7787:7878  if (account == address(0)) {... */\n    tag_291:\n        /* \"@openzeppelin/contracts/token/ERC20/ERC20.sol\":7887:7922  _update(address(0), account, value) */\n      tag_293\n        /* \"@openzeppelin/contracts/token/ERC20/ERC20.sol\":7903:7904  0 */\n      0x00\n        /* \"@openzeppelin/contracts/token/ERC20/ERC20.sol\":7907:7914  account */\n      dup4\n        /* \"@openzeppelin/contracts/token/ERC20/ERC20.sol\":7916:7921  value */\n      dup4\n        /* \"@openzeppelin/contracts/token/ERC20/ERC20.sol\":7887:7894  _update */\n      tag_294\n        /* \"@openzeppelin/contracts/token/ERC20/ERC20.sol\":7887:7922  _update(address(0), account, value) */\n      jump\t// in\n    tag_293:\n        /* \"@openzeppelin/contracts/token/ERC20/ERC20.sol\":7721:7929  function _mint(address account, uint256 value) internal {... */\n      pop\n      pop\n      jump\t// out\n        /* \"@openzeppelin/contracts/token/ERC20/ERC20.sol\":8247:8453  function _burn(address account, uint256 value) internal {... */\n    tag_176:\n      sub(shl(0xa0, 0x01), 0x01)\n        /* \"@openzeppelin/contracts/token/ERC20/ERC20.sol\":8317:8338  account == address(0) */\n      dup3\n      and\n        /* \"@openzeppelin/contracts/token/ERC20/ERC20.sol\":8313:8402  if (account == address(0)) {... */\n      tag_296\n      jumpi\n        /* \"@openzeppelin/contracts/token/ERC20/ERC20.sol\":8361:8391  ERC20InvalidSender(address(0)) */\n      mload(0x40)\n      shl(0xe1, 0x4b637e8f)\n      dup2\n      mstore\n        /* \"@openzeppelin/contracts/token/ERC20/ERC20.sol\":8388:8389  0 */\n      0x00\n        /* \"@openzeppelin/contracts/token/ERC20/ERC20.sol\":8361:8391  ERC20InvalidSender(address(0)) */\n      0x04\n      dup3\n      add\n        /* \"#utility.yul\":4706:4757   */\n      mstore\n        /* \"#utility.yul\":4679:4697   */\n      0x24\n      add\n        /* \"@openzeppelin/contracts/token/ERC20/ERC20.sol\":8361:8391  ERC20InvalidSender(address(0)) */\n      tag_136\n        /* \"#utility.yul\":4560:4763   */\n      jump\n        /* \"@openzeppelin/contracts/token/ERC20/ERC20.sol\":8313:8402  if (account == address(0)) {... */\n    tag_296:\n        /* \"@openzeppelin/contracts/token/ERC20/ERC20.sol\":8411:8446  _update(account, address(0), value) */\n      tag_293\n        /* \"@openzeppelin/contracts/token/ERC20/ERC20.sol\":8419:8426  account */\n      dup3\n        /* \"@openzeppelin/contracts/token/ERC20/ERC20.sol\":8436:8437  0 */\n      0x00\n        /* \"@openzeppelin/contracts/token/ERC20/ERC20.sol\":8440:8445  value */\n      dup4\n        /* \"@openzeppelin/contracts/token/ERC20/ERC20.sol\":8411:8418  _update */\n      tag_294\n        /* \"@openzeppelin/contracts/token/ERC20/ERC20.sol\":8411:8446  _update(account, address(0), value) */\n      jump\t// in\n        /* \"@openzeppelin/contracts/token/ERC20/ERC20.sol\":10663:11140  function _spendAllowance(address owner, address spender, uint256 value) internal virtual {... */\n    tag_187:\n      sub(shl(0xa0, 0x01), 0x01)\n        /* \"@openzeppelin/contracts/token/ERC20/ERC20.sol\":3952:3970  _allowances[owner] */\n      dup4\n      dup2\n      and\n        /* \"@openzeppelin/contracts/token/ERC20/ERC20.sol\":10762:10786  uint256 currentAllowance */\n      0x00\n        /* \"@openzeppelin/contracts/token/ERC20/ERC20.sol\":3952:3970  _allowances[owner] */\n      swap1\n      dup2\n      mstore\n        /* \"@openzeppelin/contracts/token/ERC20/ERC20.sol\":3952:3963  _allowances */\n      0x01\n        /* \"@openzeppelin/contracts/token/ERC20/ERC20.sol\":3952:3970  _allowances[owner] */\n      0x20\n      swap1\n      dup2\n      mstore\n      0x40\n      dup1\n      dup4\n      keccak256\n        /* \"@openzeppelin/contracts/token/ERC20/ERC20.sol\":3952:3979  _allowances[owner][spender] */\n      swap4\n      dup7\n      and\n      dup4\n      mstore\n      swap3\n      swap1\n      mstore\n      keccak256\n      sload\n      not(0x00)\n        /* \"@openzeppelin/contracts/token/ERC20/ERC20.sol\":10828:10865  currentAllowance != type(uint256).max */\n      dup2\n      eq\n        /* \"@openzeppelin/contracts/token/ERC20/ERC20.sol\":10824:11134  if (currentAllowance != type(uint256).max) {... */\n      tag_234\n      jumpi\n        /* \"@openzeppelin/contracts/token/ERC20/ERC20.sol\":10904:10909  value */\n      dup2\n        /* \"@openzeppelin/contracts/token/ERC20/ERC20.sol\":10885:10901  currentAllowance */\n      dup2\n        /* \"@openzeppelin/contracts/token/ERC20/ERC20.sol\":10885:10909  currentAllowance < value */\n      lt\n        /* \"@openzeppelin/contracts/token/ERC20/ERC20.sol\":10881:11011  if (currentAllowance < value) {... */\n      iszero\n      tag_302\n      jumpi\n        /* \"@openzeppelin/contracts/token/ERC20/ERC20.sol\":10936:10996  ERC20InsufficientAllowance(spender, currentAllowance, value) */\n      mload(0x40)\n      shl(0xe1, 0x7dc7a0d9)\n      dup2\n      mstore\n      sub(shl(0xa0, 0x01), 0x01)\n        /* \"#utility.yul\":14041:14073   */\n      dup5\n      and\n        /* \"@openzeppelin/contracts/token/ERC20/ERC20.sol\":10936:10996  ERC20InsufficientAllowance(spender, currentAllowance, value) */\n      0x04\n      dup3\n      add\n        /* \"#utility.yul\":14023:14074   */\n      mstore\n        /* \"#utility.yul\":14090:14108   */\n      0x24\n      dup2\n      add\n        /* \"#utility.yul\":14083:14117   */\n      dup3\n      swap1\n      mstore\n        /* \"#utility.yul\":14133:14151   */\n      0x44\n      dup2\n      add\n        /* \"#utility.yul\":14126:14160   */\n      dup4\n      swap1\n      mstore\n        /* \"#utility.yul\":13996:14014   */\n      0x64\n      add\n        /* \"@openzeppelin/contracts/token/ERC20/ERC20.sol\":10936:10996  ERC20InsufficientAllowance(spender, currentAllowance, value) */\n      tag_136\n        /* \"#utility.yul\":13821:14166   */\n      jump\n        /* \"@openzeppelin/contracts/token/ERC20/ERC20.sol\":10881:11011  if (currentAllowance < value) {... */\n    tag_302:\n        /* \"@openzeppelin/contracts/token/ERC20/ERC20.sol\":11052:11109  _approve(owner, spender, currentAllowance - value, false) */\n      tag_234\n        /* \"@openzeppelin/contracts/token/ERC20/ERC20.sol\":11061:11066  owner */\n      dup5\n        /* \"@openzeppelin/contracts/token/ERC20/ERC20.sol\":11068:11075  spender */\n      dup5\n        /* \"@openzeppelin/contracts/token/ERC20/ERC20.sol\":11096:11101  value */\n      dup5\n        /* \"@openzeppelin/contracts/token/ERC20/ERC20.sol\":11077:11093  currentAllowance */\n      dup5\n        /* \"@openzeppelin/contracts/token/ERC20/ERC20.sol\":11077:11101  currentAllowance - value */\n      sub\n        /* \"@openzeppelin/contracts/token/ERC20/ERC20.sol\":11103:11108  false */\n      0x00\n        /* \"@openzeppelin/contracts/token/ERC20/ERC20.sol\":11052:11060  _approve */\n      tag_289\n        /* \"@openzeppelin/contracts/token/ERC20/ERC20.sol\":11052:11109  _approve(owner, spender, currentAllowance - value, false) */\n      jump\t// in\n        /* \"@openzeppelin/contracts/token/ERC20/ERC20.sol\":5656:5956  function _transfer(address from, address to, uint256 value) internal {... */\n    tag_189:\n      sub(shl(0xa0, 0x01), 0x01)\n        /* \"@openzeppelin/contracts/token/ERC20/ERC20.sol\":5739:5757  from == address(0) */\n      dup4\n      and\n        /* \"@openzeppelin/contracts/token/ERC20/ERC20.sol\":5735:5821  if (from == address(0)) {... */\n      tag_307\n      jumpi\n        /* \"@openzeppelin/contracts/token/ERC20/ERC20.sol\":5780:5810  ERC20InvalidSender(address(0)) */\n      mload(0x40)\n      shl(0xe1, 0x4b637e8f)\n      dup2\n      mstore\n        /* \"@openzeppelin/contracts/token/ERC20/ERC20.sol\":5807:5808  0 */\n      0x00\n        /* \"@openzeppelin/contracts/token/ERC20/ERC20.sol\":5780:5810  ERC20InvalidSender(address(0)) */\n      0x04\n      dup3\n      add\n        /* \"#utility.yul\":4706:4757   */\n      mstore\n        /* \"#utility.yul\":4679:4697   */\n      0x24\n      add\n        /* \"@openzeppelin/contracts/token/ERC20/ERC20.sol\":5780:5810  ERC20InvalidSender(address(0)) */\n      tag_136\n        /* \"#utility.yul\":4560:4763   */\n      jump\n        /* \"@openzeppelin/contracts/token/ERC20/ERC20.sol\":5735:5821  if (from == address(0)) {... */\n    tag_307:\n      sub(shl(0xa0, 0x01), 0x01)\n        /* \"@openzeppelin/contracts/token/ERC20/ERC20.sol\":5834:5850  to == address(0) */\n      dup3\n      and\n        /* \"@openzeppelin/contracts/token/ERC20/ERC20.sol\":5830:5916  if (to == address(0)) {... */\n      tag_309\n      jumpi\n        /* \"@openzeppelin/contracts/token/ERC20/ERC20.sol\":5873:5905  ERC20InvalidReceiver(address(0)) */\n      mload(0x40)\n      shl(0xe0, 0xec442f05)\n      dup2\n      mstore\n        /* \"@openzeppelin/contracts/token/ERC20/ERC20.sol\":5902:5903  0 */\n      0x00\n        /* \"@openzeppelin/contracts/token/ERC20/ERC20.sol\":5873:5905  ERC20InvalidReceiver(address(0)) */\n      0x04\n      dup3\n      add\n        /* \"#utility.yul\":4706:4757   */\n      mstore\n        /* \"#utility.yul\":4679:4697   */\n      0x24\n      add\n        /* \"@openzeppelin/contracts/token/ERC20/ERC20.sol\":5873:5905  ERC20InvalidReceiver(address(0)) */\n      tag_136\n        /* \"#utility.yul\":4560:4763   */\n      jump\n        /* \"@openzeppelin/contracts/token/ERC20/ERC20.sol\":5830:5916  if (to == address(0)) {... */\n    tag_309:\n        /* \"@openzeppelin/contracts/token/ERC20/ERC20.sol\":5925:5949  _update(from, to, value) */\n      tag_288\n        /* \"@openzeppelin/contracts/token/ERC20/ERC20.sol\":5933:5937  from */\n      dup4\n        /* \"@openzeppelin/contracts/token/ERC20/ERC20.sol\":5939:5941  to */\n      dup4\n        /* \"@openzeppelin/contracts/token/ERC20/ERC20.sol\":5943:5948  value */\n      dup4\n        /* \"@openzeppelin/contracts/token/ERC20/ERC20.sol\":5925:5932  _update */\n      tag_294\n        /* \"@openzeppelin/contracts/token/ERC20/ERC20.sol\":5925:5949  _update(from, to, value) */\n      jump\t// in\n        /* \"@openzeppelin/contracts/access/Ownable.sol\":1796:1958  function _checkOwner() internal view virtual {... */\n    tag_194:\n        /* \"@openzeppelin/contracts/access/Ownable.sol\":1710:1716  _owner */\n      and(sub(shl(0xa0, 0x01), 0x01), sload(0x05))\n        /* \"@openzeppelin/contracts/utils/Context.sol\":735:745  msg.sender */\n      caller\n        /* \"@openzeppelin/contracts/access/Ownable.sol\":1855:1878  owner() != _msgSender() */\n      eq\n        /* \"@openzeppelin/contracts/access/Ownable.sol\":1851:1952  if (owner() != _msgSender()) {... */\n      tag_196\n      jumpi\n        /* \"@openzeppelin/contracts/access/Ownable.sol\":1901:1941  OwnableUnauthorizedAccount(_msgSender()) */\n      mload(0x40)\n      shl(0xe0, 0x118cdaa7)\n      dup2\n      mstore\n        /* \"@openzeppelin/contracts/utils/Context.sol\":735:745  msg.sender */\n      caller\n        /* \"@openzeppelin/contracts/access/Ownable.sol\":1901:1941  OwnableUnauthorizedAccount(_msgSender()) */\n      0x04\n      dup3\n      add\n        /* \"#utility.yul\":4706:4757   */\n      mstore\n        /* \"#utility.yul\":4679:4697   */\n      0x24\n      add\n        /* \"@openzeppelin/contracts/access/Ownable.sol\":1901:1941  OwnableUnauthorizedAccount(_msgSender()) */\n      tag_136\n        /* \"#utility.yul\":4560:4763   */\n      jump\n        /* \"@openzeppelin/contracts/access/Ownable.sol\":2912:3099  function _transferOwnership(address newOwner) internal virtual {... */\n    tag_197:\n        /* \"@openzeppelin/contracts/access/Ownable.sol\":3004:3010  _owner */\n      0x05\n      dup1\n      sload\n      sub(shl(0xa0, 0x01), 0x01)\n        /* \"@openzeppelin/contracts/access/Ownable.sol\":3020:3037  _owner = newOwner */\n      dup4\n      dup2\n      and\n      not(sub(shl(0xa0, 0x01), 0x01))\n      dup4\n      and\n      dup2\n      or\n      swap1\n      swap4\n      sstore\n        /* \"@openzeppelin/contracts/access/Ownable.sol\":3052:3092  OwnershipTransferred(oldOwner, newOwner) */\n      mload(0x40)\n        /* \"@openzeppelin/contracts/access/Ownable.sol\":3004:3010  _owner */\n      swap2\n      and\n      swap2\n        /* \"@openzeppelin/contracts/access/Ownable.sol\":3020:3037  _owner = newOwner */\n      swap1\n        /* \"@openzeppelin/contracts/access/Ownable.sol\":3004:3010  _owner */\n      dup3\n      swap1\n        /* \"@openzeppelin/contracts/access/Ownable.sol\":3052:3092  OwnershipTransferred(oldOwner, newOwner) */\n      0x8be0079c531659141344cd1fd0a4f28419497f9722a3daafe3b4186f6b6457e0\n      swap1\n        /* \"@openzeppelin/contracts/access/Ownable.sol\":2985:3001  address oldOwner */\n      0x00\n      swap1\n        /* \"@openzeppelin/contracts/access/Ownable.sol\":3052:3092  OwnershipTransferred(oldOwner, newOwner) */\n      log3\n        /* \"@openzeppelin/contracts/access/Ownable.sol\":2975:3099  {... */\n      pop\n        /* \"@openzeppelin/contracts/access/Ownable.sol\":2912:3099  function _transferOwnership(address newOwner) internal virtual {... */\n      pop\n      jump\t// out\n        /* \"@openzeppelin/contracts/token/ERC20/ERC20.sol\":9949:10381  function _approve(address owner, address spender, uint256 value, bool emitEvent) internal virtual {... */\n    tag_289:\n      sub(shl(0xa0, 0x01), 0x01)\n        /* \"@openzeppelin/contracts/token/ERC20/ERC20.sol\":10061:10080  owner == address(0) */\n      dup5\n      and\n        /* \"@openzeppelin/contracts/token/ERC20/ERC20.sol\":10057:10146  if (owner == address(0)) {... */\n      tag_320\n      jumpi\n        /* \"@openzeppelin/contracts/token/ERC20/ERC20.sol\":10103:10135  ERC20InvalidApprover(address(0)) */\n      mload(0x40)\n      shl(0xe0, 0xe602df05)\n      dup2\n      mstore\n        /* \"@openzeppelin/contracts/token/ERC20/ERC20.sol\":10132:10133  0 */\n      0x00\n        /* \"@openzeppelin/contracts/token/ERC20/ERC20.sol\":10103:10135  ERC20InvalidApprover(address(0)) */\n      0x04\n      dup3\n      add\n        /* \"#utility.yul\":4706:4757   */\n      mstore\n        /* \"#utility.yul\":4679:4697   */\n      0x24\n      add\n        /* \"@openzeppelin/contracts/token/ERC20/ERC20.sol\":10103:10135  ERC20InvalidApprover(address(0)) */\n      tag_136\n        /* \"#utility.yul\":4560:4763   */\n      jump\n        /* \"@openzeppelin/contracts/token/ERC20/ERC20.sol\":10057:10146  if (owner == address(0)) {... */\n    tag_320:\n      sub(shl(0xa0, 0x01), 0x01)\n        /* \"@openzeppelin/contracts/token/ERC20/ERC20.sol\":10159:10180  spender == address(0) */\n      dup4\n      and\n        /* \"@openzeppelin/contracts/token/ERC20/ERC20.sol\":10155:10245  if (spender == address(0)) {... */\n      tag_322\n      jumpi\n        /* \"@openzeppelin/contracts/token/ERC20/ERC20.sol\":10203:10234  ERC20InvalidSpender(address(0)) */\n      mload(0x40)\n      shl(0xe1, 0x4a1406b1)\n      dup2\n      mstore\n        /* \"@openzeppelin/contracts/token/ERC20/ERC20.sol\":10231:10232  0 */\n      0x00\n        /* \"@openzeppelin/contracts/token/ERC20/ERC20.sol\":10203:10234  ERC20InvalidSpender(address(0)) */\n      0x04\n      dup3\n      add\n        /* \"#utility.yul\":4706:4757   */\n      mstore\n        /* \"#utility.yul\":4679:4697   */\n      0x24\n      add\n        /* \"@openzeppelin/contracts/token/ERC20/ERC20.sol\":10203:10234  ERC20InvalidSpender(address(0)) */\n      tag_136\n        /* \"#utility.yul\":4560:4763   */\n      jump\n        /* \"@openzeppelin/contracts/token/ERC20/ERC20.sol\":10155:10245  if (spender == address(0)) {... */\n    tag_322:\n      sub(shl(0xa0, 0x01), 0x01)\n        /* \"@openzeppelin/contracts/token/ERC20/ERC20.sol\":10254:10272  _allowances[owner] */\n      dup1\n      dup6\n      and\n      0x00\n      swap1\n      dup2\n      mstore\n        /* \"@openzeppelin/contracts/token/ERC20/ERC20.sol\":10254:10265  _allowances */\n      0x01\n        /* \"@openzeppelin/contracts/token/ERC20/ERC20.sol\":10254:10272  _allowances[owner] */\n      0x20\n      swap1\n      dup2\n      mstore\n      0x40\n      dup1\n      dup4\n      keccak256\n        /* \"@openzeppelin/contracts/token/ERC20/ERC20.sol\":10254:10281  _allowances[owner][spender] */\n      swap4\n      dup8\n      and\n      dup4\n      mstore\n      swap3\n      swap1\n      mstore\n      keccak256\n        /* \"@openzeppelin/contracts/token/ERC20/ERC20.sol\":10254:10289  _allowances[owner][spender] = value */\n      dup3\n      swap1\n      sstore\n        /* \"@openzeppelin/contracts/token/ERC20/ERC20.sol\":10299:10375  if (emitEvent) {... */\n      dup1\n      iszero\n      tag_234\n      jumpi\n        /* \"@openzeppelin/contracts/token/ERC20/ERC20.sol\":10349:10356  spender */\n      dup3\n      sub(shl(0xa0, 0x01), 0x01)\n        /* \"@openzeppelin/contracts/token/ERC20/ERC20.sol\":10333:10364  Approval(owner, spender, value) */\n      and\n        /* \"@openzeppelin/contracts/token/ERC20/ERC20.sol\":10342:10347  owner */\n      dup5\n      sub(shl(0xa0, 0x01), 0x01)\n        /* \"@openzeppelin/contracts/token/ERC20/ERC20.sol\":10333:10364  Approval(owner, spender, value) */\n      and\n      0x8c5be1e5ebec7d5bd14f71427d1e84f3dd0314c0f7b2291e5b200ac8c7c3b925\n        /* \"@openzeppelin/contracts/token/ERC20/ERC20.sol\":10358:10363  value */\n      dup5\n        /* \"@openzeppelin/contracts/token/ERC20/ERC20.sol\":10333:10364  Approval(owner, spender, value) */\n      mload(0x40)\n      tag_325\n      swap2\n        /* \"#utility.yul\":3237:3262   */\n      dup2\n      mstore\n        /* \"#utility.yul\":3225:3227   */\n      0x20\n        /* \"#utility.yul\":3210:3228   */\n      add\n      swap1\n        /* \"#utility.yul\":3091:3268   */\n      jump\n        /* \"@openzeppelin/contracts/token/ERC20/ERC20.sol\":10333:10364  Approval(owner, spender, value) */\n    tag_325:\n      mload(0x40)\n      dup1\n      swap2\n      sub\n      swap1\n      log3\n        /* \"@openzeppelin/contracts/token/ERC20/ERC20.sol\":9949:10381  function _approve(address owner, address spender, uint256 value, bool emitEvent) internal virtual {... */\n      pop\n      pop\n      pop\n      pop\n      jump\t// out\n        /* \"@openzeppelin/contracts/token/ERC20/ERC20.sol\":6271:7378  function _update(address from, address to, uint256 value) internal virtual {... */\n    tag_294:\n      sub(shl(0xa0, 0x01), 0x01)\n        /* \"@openzeppelin/contracts/token/ERC20/ERC20.sol\":6360:6378  from == address(0) */\n      dup4\n      and\n        /* \"@openzeppelin/contracts/token/ERC20/ERC20.sol\":6356:6896  if (from == address(0)) {... */\n      tag_327\n      jumpi\n        /* \"@openzeppelin/contracts/token/ERC20/ERC20.sol\":6512:6517  value */\n      dup1\n        /* \"@openzeppelin/contracts/token/ERC20/ERC20.sol\":6496:6508  _totalSupply */\n      0x02\n      0x00\n        /* \"@openzeppelin/contracts/token/ERC20/ERC20.sol\":6496:6517  _totalSupply += value */\n      dup3\n      dup3\n      sload\n      tag_328\n      swap2\n      swap1\n      tag_213\n      jump\t// in\n    tag_328:\n      swap1\n      swap2\n      sstore\n      pop\n        /* \"@openzeppelin/contracts/token/ERC20/ERC20.sol\":6356:6896  if (from == address(0)) {... */\n      tag_329\n      swap1\n      pop\n      jump\n    tag_327:\n      sub(shl(0xa0, 0x01), 0x01)\n        /* \"@openzeppelin/contracts/token/ERC20/ERC20.sol\":6570:6585  _balances[from] */\n      dup4\n      and\n        /* \"@openzeppelin/contracts/token/ERC20/ERC20.sol\":6548:6567  uint256 fromBalance */\n      0x00\n        /* \"@openzeppelin/contracts/token/ERC20/ERC20.sol\":6570:6585  _balances[from] */\n      swap1\n      dup2\n      mstore\n      0x20\n      dup2\n      swap1\n      mstore\n      0x40\n      swap1\n      keccak256\n      sload\n        /* \"@openzeppelin/contracts/token/ERC20/ERC20.sol\":6603:6622  fromBalance < value */\n      dup2\n      dup2\n      lt\n        /* \"@openzeppelin/contracts/token/ERC20/ERC20.sol\":6599:6714  if (fromBalance < value) {... */\n      iszero\n      tag_330\n      jumpi\n        /* \"@openzeppelin/contracts/token/ERC20/ERC20.sol\":6649:6699  ERC20InsufficientBalance(from, fromBalance, value) */\n      mload(0x40)\n      shl(0xe2, 0x391434e3)\n      dup2\n      mstore\n      sub(shl(0xa0, 0x01), 0x01)\n        /* \"#utility.yul\":14041:14073   */\n      dup6\n      and\n        /* \"@openzeppelin/contracts/token/ERC20/ERC20.sol\":6649:6699  ERC20InsufficientBalance(from, fromBalance, value) */\n      0x04\n      dup3\n      add\n        /* \"#utility.yul\":14023:14074   */\n      mstore\n        /* \"#utility.yul\":14090:14108   */\n      0x24\n      dup2\n      add\n        /* \"#utility.yul\":14083:14117   */\n      dup3\n      swap1\n      mstore\n        /* \"#utility.yul\":14133:14151   */\n      0x44\n      dup2\n      add\n        /* \"#utility.yul\":14126:14160   */\n      dup4\n      swap1\n      mstore\n        /* \"#utility.yul\":13996:14014   */\n      0x64\n      add\n        /* \"@openzeppelin/contracts/token/ERC20/ERC20.sol\":6649:6699  ERC20InsufficientBalance(from, fromBalance, value) */\n      tag_136\n        /* \"#utility.yul\":13821:14166   */\n      jump\n        /* \"@openzeppelin/contracts/token/ERC20/ERC20.sol\":6599:6714  if (fromBalance < value) {... */\n    tag_330:\n      sub(shl(0xa0, 0x01), 0x01)\n        /* \"@openzeppelin/contracts/token/ERC20/ERC20.sol\":6834:6849  _balances[from] */\n      dup5\n      and\n        /* \"@openzeppelin/contracts/token/ERC20/ERC20.sol\":6834:6843  _balances */\n      0x00\n        /* \"@openzeppelin/contracts/token/ERC20/ERC20.sol\":6834:6849  _balances[from] */\n      swap1\n      dup2\n      mstore\n      0x20\n      dup2\n      swap1\n      mstore\n      0x40\n      swap1\n      keccak256\n        /* \"@openzeppelin/contracts/token/ERC20/ERC20.sol\":6852:6871  fromBalance - value */\n      swap1\n      dup3\n      swap1\n      sub\n        /* \"@openzeppelin/contracts/token/ERC20/ERC20.sol\":6834:6871  _balances[from] = fromBalance - value */\n      swap1\n      sstore\n        /* \"@openzeppelin/contracts/token/ERC20/ERC20.sol\":6356:6896  if (from == address(0)) {... */\n    tag_329:\n      sub(shl(0xa0, 0x01), 0x01)\n        /* \"@openzeppelin/contracts/token/ERC20/ERC20.sol\":6910:6926  to == address(0) */\n      dup3\n      and\n        /* \"@openzeppelin/contracts/token/ERC20/ERC20.sol\":6906:7331  if (to == address(0)) {... */\n      tag_332\n      jumpi\n        /* \"@openzeppelin/contracts/token/ERC20/ERC20.sol\":7073:7085  _totalSupply */\n      0x02\n        /* \"@openzeppelin/contracts/token/ERC20/ERC20.sol\":7073:7094  _totalSupply -= value */\n      dup1\n      sload\n      dup3\n      swap1\n      sub\n      swap1\n      sstore\n        /* \"@openzeppelin/contracts/token/ERC20/ERC20.sol\":6906:7331  if (to == address(0)) {... */\n      jump(tag_333)\n    tag_332:\n      sub(shl(0xa0, 0x01), 0x01)\n        /* \"@openzeppelin/contracts/token/ERC20/ERC20.sol\":7284:7297  _balances[to] */\n      dup3\n      and\n        /* \"@openzeppelin/contracts/token/ERC20/ERC20.sol\":7284:7293  _balances */\n      0x00\n        /* \"@openzeppelin/contracts/token/ERC20/ERC20.sol\":7284:7297  _balances[to] */\n      swap1\n      dup2\n      mstore\n      0x20\n      dup2\n      swap1\n      mstore\n      0x40\n      swap1\n      keccak256\n        /* \"@openzeppelin/contracts/token/ERC20/ERC20.sol\":7284:7306  _balances[to] += value */\n      dup1\n      sload\n      dup3\n      add\n      swap1\n      sstore\n        /* \"@openzeppelin/contracts/token/ERC20/ERC20.sol\":6906:7331  if (to == address(0)) {... */\n    tag_333:\n        /* \"@openzeppelin/contracts/token/ERC20/ERC20.sol\":7361:7363  to */\n      dup2\n      sub(shl(0xa0, 0x01), 0x01)\n        /* \"@openzeppelin/contracts/token/ERC20/ERC20.sol\":7346:7371  Transfer(from, to, value) */\n      and\n        /* \"@openzeppelin/contracts/token/ERC20/ERC20.sol\":7355:7359  from */\n      dup4\n      sub(shl(0xa0, 0x01), 0x01)\n        /* \"@openzeppelin/contracts/token/ERC20/ERC20.sol\":7346:7371  Transfer(from, to, value) */\n      and\n      0xddf252ad1be2c89b69c2b068fc378daa952ba7f163c4a11628f55a4df523b3ef\n        /* \"@openzeppelin/contracts/token/ERC20/ERC20.sol\":7365:7370  value */\n      dup4\n        /* \"@openzeppelin/contracts/token/ERC20/ERC20.sol\":7346:7371  Transfer(from, to, value) */\n      mload(0x40)\n      tag_334\n      swap2\n        /* \"#utility.yul\":3237:3262   */\n      dup2\n      mstore\n        /* \"#utility.yul\":3225:3227   */\n      0x20\n        /* \"#utility.yul\":3210:3228   */\n      add\n      swap1\n        /* \"#utility.yul\":3091:3268   */\n      jump\n        /* \"@openzeppelin/contracts/token/ERC20/ERC20.sol\":7346:7371  Transfer(from, to, value) */\n    tag_334:\n      mload(0x40)\n      dup1\n      swap2\n      sub\n      swap1\n      log3\n        /* \"@openzeppelin/contracts/token/ERC20/ERC20.sol\":6271:7378  function _update(address from, address to, uint256 value) internal virtual {... */\n      pop\n      pop\n      pop\n      jump\t// out\n        /* \"#utility.yul\":14:437   */\n    tag_335:\n        /* \"#utility.yul\":56:59   */\n      0x00\n        /* \"#utility.yul\":94:99   */\n      dup2\n        /* \"#utility.yul\":88:100   */\n      mload\n        /* \"#utility.yul\":121:127   */\n      dup1\n        /* \"#utility.yul\":116:119   */\n      dup5\n        /* \"#utility.yul\":109:128   */\n      mstore\n        /* \"#utility.yul\":146:147   */\n      0x00\n        /* \"#utility.yul\":156:318   */\n    tag_345:\n        /* \"#utility.yul\":170:176   */\n      dup2\n        /* \"#utility.yul\":167:168   */\n      dup2\n        /* \"#utility.yul\":164:177   */\n      lt\n        /* \"#utility.yul\":156:318   */\n      iszero\n      tag_347\n      jumpi\n        /* \"#utility.yul\":232:236   */\n      0x20\n        /* \"#utility.yul\":288:301   */\n      dup2\n      dup6\n      add\n        /* \"#utility.yul\":284:306   */\n      dup2\n      add\n        /* \"#utility.yul\":278:307   */\n      mload\n        /* \"#utility.yul\":260:271   */\n      dup7\n      dup4\n      add\n        /* \"#utility.yul\":256:276   */\n      dup3\n      add\n        /* \"#utility.yul\":249:308   */\n      mstore\n        /* \"#utility.yul\":185:197   */\n      add\n        /* \"#utility.yul\":156:318   */\n      jump(tag_345)\n    tag_347:\n        /* \"#utility.yul\":160:163   */\n      pop\n        /* \"#utility.yul\":363:364   */\n      0x00\n        /* \"#utility.yul\":356:360   */\n      0x20\n        /* \"#utility.yul\":347:353   */\n      dup3\n        /* \"#utility.yul\":342:345   */\n      dup7\n        /* \"#utility.yul\":338:354   */\n      add\n        /* \"#utility.yul\":334:361   */\n      add\n        /* \"#utility.yul\":327:365   */\n      mstore\n        /* \"#utility.yul\":426:430   */\n      0x20\n        /* \"#utility.yul\":419:421   */\n      0x1f\n        /* \"#utility.yul\":415:422   */\n      not\n        /* \"#utility.yul\":410:412   */\n      0x1f\n        /* \"#utility.yul\":402:408   */\n      dup4\n        /* \"#utility.yul\":398:413   */\n      add\n        /* \"#utility.yul\":394:423   */\n      and\n        /* \"#utility.yul\":389:392   */\n      dup6\n        /* \"#utility.yul\":385:424   */\n      add\n        /* \"#utility.yul\":381:431   */\n      add\n        /* \"#utility.yul\":374:431   */\n      swap2\n      pop\n      pop\n        /* \"#utility.yul\":14:437   */\n      swap3\n      swap2\n      pop\n      pop\n      jump\t// out\n        /* \"#utility.yul\":442:662   */\n    tag_31:\n        /* \"#utility.yul\":591:593   */\n      0x20\n        /* \"#utility.yul\":580:589   */\n      dup2\n        /* \"#utility.yul\":573:594   */\n      mstore\n        /* \"#utility.yul\":554:558   */\n      0x00\n        /* \"#utility.yul\":611:656   */\n      tag_349\n        /* \"#utility.yul\":652:654   */\n      0x20\n        /* \"#utility.yul\":641:650   */\n      dup4\n        /* \"#utility.yul\":637:655   */\n      add\n        /* \"#utility.yul\":629:635   */\n      dup5\n        /* \"#utility.yul\":611:656   */\n      tag_335\n      jump\t// in\n    tag_349:\n        /* \"#utility.yul\":603:656   */\n      swap4\n        /* \"#utility.yul\":442:662   */\n      swap3\n      pop\n      pop\n      pop\n      jump\t// out\n        /* \"#utility.yul\":667:840   */\n    tag_336:\n        /* \"#utility.yul\":735:755   */\n      dup1\n      calldataload\n      sub(shl(0xa0, 0x01), 0x01)\n        /* \"#utility.yul\":784:815   */\n      dup2\n      and\n        /* \"#utility.yul\":774:816   */\n      dup2\n      eq\n        /* \"#utility.yul\":764:834   */\n      tag_351\n      jumpi\n        /* \"#utility.yul\":830:831   */\n      0x00\n        /* \"#utility.yul\":827:828   */\n      dup1\n        /* \"#utility.yul\":820:832   */\n      revert\n        /* \"#utility.yul\":764:834   */\n    tag_351:\n        /* \"#utility.yul\":667:840   */\n      swap2\n      swap1\n      pop\n      jump\t// out\n        /* \"#utility.yul\":845:1099   */\n    tag_34:\n        /* \"#utility.yul\":913:919   */\n      0x00\n        /* \"#utility.yul\":921:927   */\n      dup1\n        /* \"#utility.yul\":974:976   */\n      0x40\n        /* \"#utility.yul\":962:971   */\n      dup4\n        /* \"#utility.yul\":953:960   */\n      dup6\n        /* \"#utility.yul\":949:972   */\n      sub\n        /* \"#utility.yul\":945:977   */\n      slt\n        /* \"#utility.yul\":942:994   */\n      iszero\n      tag_353\n      jumpi\n        /* \"#utility.yul\":990:991   */\n      0x00\n        /* \"#utility.yul\":987:988   */\n      dup1\n        /* \"#utility.yul\":980:992   */\n      revert\n        /* \"#utility.yul\":942:994   */\n    tag_353:\n        /* \"#utility.yul\":1013:1042   */\n      tag_354\n        /* \"#utility.yul\":1032:1041   */\n      dup4\n        /* \"#utility.yul\":1013:1042   */\n      tag_336\n      jump\t// in\n    tag_354:\n        /* \"#utility.yul\":1003:1042   */\n      swap5\n        /* \"#utility.yul\":1089:1091   */\n      0x20\n        /* \"#utility.yul\":1074:1092   */\n      swap4\n      swap1\n      swap4\n      add\n        /* \"#utility.yul\":1061:1093   */\n      calldataload\n      swap4\n      pop\n      pop\n      pop\n        /* \"#utility.yul\":845:1099   */\n      jump\t// out\n        /* \"#utility.yul\":1296:1476   */\n    tag_40:\n        /* \"#utility.yul\":1355:1361   */\n      0x00\n        /* \"#utility.yul\":1408:1410   */\n      0x20\n        /* \"#utility.yul\":1396:1405   */\n      dup3\n        /* \"#utility.yul\":1387:1394   */\n      dup5\n        /* \"#utility.yul\":1383:1406   */\n      sub\n        /* \"#utility.yul\":1379:1411   */\n      slt\n        /* \"#utility.yul\":1376:1428   */\n      iszero\n      tag_357\n      jumpi\n        /* \"#utility.yul\":1424:1425   */\n      0x00\n        /* \"#utility.yul\":1421:1422   */\n      dup1\n        /* \"#utility.yul\":1414:1426   */\n      revert\n        /* \"#utility.yul\":1376:1428   */\n    tag_357:\n      pop\n        /* \"#utility.yul\":1447:1470   */\n      calldataload\n      swap2\n        /* \"#utility.yul\":1296:1476   */\n      swap1\n      pop\n      jump\t// out\n        /* \"#utility.yul\":1481:1608   */\n    tag_337:\n        /* \"#utility.yul\":1542:1552   */\n      0x4e487b71\n        /* \"#utility.yul\":1537:1540   */\n      0xe0\n        /* \"#utility.yul\":1533:1553   */\n      shl\n        /* \"#utility.yul\":1530:1531   */\n      0x00\n        /* \"#utility.yul\":1523:1554   */\n      mstore\n        /* \"#utility.yul\":1573:1577   */\n      0x41\n        /* \"#utility.yul\":1570:1571   */\n      0x04\n        /* \"#utility.yul\":1563:1578   */\n      mstore\n        /* \"#utility.yul\":1597:1601   */\n      0x24\n        /* \"#utility.yul\":1594:1595   */\n      0x00\n        /* \"#utility.yul\":1587:1602   */\n      revert\n        /* \"#utility.yul\":1613:2332   */\n    tag_338:\n        /* \"#utility.yul\":1656:1661   */\n      0x00\n        /* \"#utility.yul\":1709:1712   */\n      dup3\n        /* \"#utility.yul\":1702:1706   */\n      0x1f\n        /* \"#utility.yul\":1694:1700   */\n      dup4\n        /* \"#utility.yul\":1690:1707   */\n      add\n        /* \"#utility.yul\":1686:1713   */\n      slt\n        /* \"#utility.yul\":1676:1731   */\n      tag_360\n      jumpi\n        /* \"#utility.yul\":1727:1728   */\n      0x00\n        /* \"#utility.yul\":1724:1725   */\n      dup1\n        /* \"#utility.yul\":1717:1729   */\n      revert\n        /* \"#utility.yul\":1676:1731   */\n    tag_360:\n        /* \"#utility.yul\":1763:1769   */\n      dup2\n        /* \"#utility.yul\":1750:1770   */\n      calldataload\n        /* \"#utility.yul\":1789:1807   */\n      0xffffffffffffffff\n        /* \"#utility.yul\":1826:1828   */\n      dup1\n        /* \"#utility.yul\":1822:1824   */\n      dup3\n        /* \"#utility.yul\":1819:1829   */\n      gt\n        /* \"#utility.yul\":1816:1852   */\n      iszero\n      tag_362\n      jumpi\n        /* \"#utility.yul\":1832:1850   */\n      tag_362\n      tag_337\n      jump\t// in\n    tag_362:\n        /* \"#utility.yul\":1907:1909   */\n      0x40\n        /* \"#utility.yul\":1901:1910   */\n      mload\n        /* \"#utility.yul\":1875:1877   */\n      0x1f\n        /* \"#utility.yul\":1961:1974   */\n      dup4\n      add\n      not(0x1f)\n        /* \"#utility.yul\":1957:1979   */\n      swap1\n      dup2\n      and\n        /* \"#utility.yul\":1981:1983   */\n      0x3f\n        /* \"#utility.yul\":1953:1984   */\n      add\n        /* \"#utility.yul\":1949:1989   */\n      and\n        /* \"#utility.yul\":1937:1990   */\n      dup2\n      add\n      swap1\n        /* \"#utility.yul\":2005:2023   */\n      dup3\n      dup3\n      gt\n        /* \"#utility.yul\":2025:2047   */\n      dup2\n      dup4\n      lt\n        /* \"#utility.yul\":2002:2048   */\n      or\n        /* \"#utility.yul\":1999:2071   */\n      iszero\n      tag_364\n      jumpi\n        /* \"#utility.yul\":2051:2069   */\n      tag_364\n      tag_337\n      jump\t// in\n    tag_364:\n        /* \"#utility.yul\":2091:2101   */\n      dup2\n        /* \"#utility.yul\":2087:2089   */\n      0x40\n        /* \"#utility.yul\":2080:2102   */\n      mstore\n        /* \"#utility.yul\":2126:2128   */\n      dup4\n        /* \"#utility.yul\":2118:2124   */\n      dup2\n        /* \"#utility.yul\":2111:2129   */\n      mstore\n        /* \"#utility.yul\":2172:2175   */\n      dup7\n        /* \"#utility.yul\":2165:2169   */\n      0x20\n        /* \"#utility.yul\":2160:2162   */\n      dup6\n        /* \"#utility.yul\":2152:2158   */\n      dup9\n        /* \"#utility.yul\":2148:2163   */\n      add\n        /* \"#utility.yul\":2144:2170   */\n      add\n        /* \"#utility.yul\":2141:2176   */\n      gt\n        /* \"#utility.yul\":2138:2193   */\n      iszero\n      tag_365\n      jumpi\n        /* \"#utility.yul\":2189:2190   */\n      0x00\n        /* \"#utility.yul\":2186:2187   */\n      dup1\n        /* \"#utility.yul\":2179:2191   */\n      revert\n        /* \"#utility.yul\":2138:2193   */\n    tag_365:\n        /* \"#utility.yul\":2253:2255   */\n      dup4\n        /* \"#utility.yul\":2246:2250   */\n      0x20\n        /* \"#utility.yul\":2238:2244   */\n      dup8\n        /* \"#utility.yul\":2234:2251   */\n      add\n        /* \"#utility.yul\":2227:2231   */\n      0x20\n        /* \"#utility.yul\":2219:2225   */\n      dup4\n        /* \"#utility.yul\":2215:2232   */\n      add\n        /* \"#utility.yul\":2202:2256   */\n      calldatacopy\n        /* \"#utility.yul\":2300:2301   */\n      0x00\n        /* \"#utility.yul\":2293:2297   */\n      0x20\n        /* \"#utility.yul\":2288:2290   */\n      dup6\n        /* \"#utility.yul\":2280:2286   */\n      dup4\n        /* \"#utility.yul\":2276:2291   */\n      add\n        /* \"#utility.yul\":2272:2298   */\n      add\n        /* \"#utility.yul\":2265:2302   */\n      mstore\n        /* \"#utility.yul\":2320:2326   */\n      dup1\n        /* \"#utility.yul\":2311:2326   */\n      swap5\n      pop\n      pop\n      pop\n      pop\n      pop\n        /* \"#utility.yul\":1613:2332   */\n      swap3\n      swap2\n      pop\n      pop\n      jump\t// out\n        /* \"#utility.yul\":2337:3086   */\n    tag_44:\n        /* \"#utility.yul\":2452:2458   */\n      0x00\n        /* \"#utility.yul\":2460:2466   */\n      dup1\n        /* \"#utility.yul\":2468:2474   */\n      0x00\n        /* \"#utility.yul\":2476:2482   */\n      dup1\n        /* \"#utility.yul\":2484:2490   */\n      0x00\n        /* \"#utility.yul\":2537:2540   */\n      0xa0\n        /* \"#utility.yul\":2525:2534   */\n      dup7\n        /* \"#utility.yul\":2516:2523   */\n      dup9\n        /* \"#utility.yul\":2512:2535   */\n      sub\n        /* \"#utility.yul\":2508:2541   */\n      slt\n        /* \"#utility.yul\":2505:2558   */\n      iszero\n      tag_367\n      jumpi\n        /* \"#utility.yul\":2554:2555   */\n      0x00\n        /* \"#utility.yul\":2551:2552   */\n      dup1\n        /* \"#utility.yul\":2544:2556   */\n      revert\n        /* \"#utility.yul\":2505:2558   */\n    tag_367:\n        /* \"#utility.yul\":2594:2603   */\n      dup6\n        /* \"#utility.yul\":2581:2604   */\n      calldataload\n        /* \"#utility.yul\":2623:2641   */\n      0xffffffffffffffff\n        /* \"#utility.yul\":2664:2666   */\n      dup1\n        /* \"#utility.yul\":2656:2662   */\n      dup3\n        /* \"#utility.yul\":2653:2667   */\n      gt\n        /* \"#utility.yul\":2650:2684   */\n      iszero\n      tag_368\n      jumpi\n        /* \"#utility.yul\":2680:2681   */\n      0x00\n        /* \"#utility.yul\":2677:2678   */\n      dup1\n        /* \"#utility.yul\":2670:2682   */\n      revert\n        /* \"#utility.yul\":2650:2684   */\n    tag_368:\n        /* \"#utility.yul\":2703:2753   */\n      tag_369\n        /* \"#utility.yul\":2745:2752   */\n      dup10\n        /* \"#utility.yul\":2736:2742   */\n      dup4\n        /* \"#utility.yul\":2725:2734   */\n      dup11\n        /* \"#utility.yul\":2721:2743   */\n      add\n        /* \"#utility.yul\":2703:2753   */\n      tag_338\n      jump\t// in\n    tag_369:\n        /* \"#utility.yul\":2693:2753   */\n      swap7\n      pop\n        /* \"#utility.yul\":2806:2808   */\n      0x20\n        /* \"#utility.yul\":2795:2804   */\n      dup9\n        /* \"#utility.yul\":2791:2809   */\n      add\n        /* \"#utility.yul\":2778:2810   */\n      calldataload\n        /* \"#utility.yul\":2762:2810   */\n      swap2\n      pop\n        /* \"#utility.yul\":2835:2837   */\n      dup1\n        /* \"#utility.yul\":2825:2833   */\n      dup3\n        /* \"#utility.yul\":2822:2838   */\n      gt\n        /* \"#utility.yul\":2819:2855   */\n      iszero\n      tag_370\n      jumpi\n        /* \"#utility.yul\":2851:2852   */\n      0x00\n        /* \"#utility.yul\":2848:2849   */\n      dup1\n        /* \"#utility.yul\":2841:2853   */\n      revert\n        /* \"#utility.yul\":2819:2855   */\n    tag_370:\n      pop\n        /* \"#utility.yul\":2874:2926   */\n      tag_371\n        /* \"#utility.yul\":2918:2925   */\n      dup9\n        /* \"#utility.yul\":2907:2915   */\n      dup3\n        /* \"#utility.yul\":2896:2905   */\n      dup10\n        /* \"#utility.yul\":2892:2916   */\n      add\n        /* \"#utility.yul\":2874:2926   */\n      tag_338\n      jump\t// in\n    tag_371:\n        /* \"#utility.yul\":2337:3086   */\n      swap6\n      swap9\n        /* \"#utility.yul\":2864:2926   */\n      swap6\n      swap8\n      pop\n      pop\n      pop\n      pop\n        /* \"#utility.yul\":2973:2975   */\n      0x40\n        /* \"#utility.yul\":2958:2976   */\n      dup5\n      add\n        /* \"#utility.yul\":2945:2977   */\n      calldataload\n      swap4\n        /* \"#utility.yul\":3024:3026   */\n      0x60\n        /* \"#utility.yul\":3009:3027   */\n      dup2\n      add\n        /* \"#utility.yul\":2996:3028   */\n      calldataload\n      swap4\n        /* \"#utility.yul\":3075:3078   */\n      0x80\n        /* \"#utility.yul\":3060:3079   */\n      swap1\n      swap2\n      add\n        /* \"#utility.yul\":3047:3080   */\n      calldataload\n      swap3\n      pop\n        /* \"#utility.yul\":2337:3086   */\n      swap1\n      pop\n      jump\t// out\n        /* \"#utility.yul\":3273:3601   */\n    tag_52:\n        /* \"#utility.yul\":3350:3356   */\n      0x00\n        /* \"#utility.yul\":3358:3364   */\n      dup1\n        /* \"#utility.yul\":3366:3372   */\n      0x00\n        /* \"#utility.yul\":3419:3421   */\n      0x60\n        /* \"#utility.yul\":3407:3416   */\n      dup5\n        /* \"#utility.yul\":3398:3405   */\n      dup7\n        /* \"#utility.yul\":3394:3417   */\n      sub\n        /* \"#utility.yul\":3390:3422   */\n      slt\n        /* \"#utility.yul\":3387:3439   */\n      iszero\n      tag_374\n      jumpi\n        /* \"#utility.yul\":3435:3436   */\n      0x00\n        /* \"#utility.yul\":3432:3433   */\n      dup1\n        /* \"#utility.yul\":3425:3437   */\n      revert\n        /* \"#utility.yul\":3387:3439   */\n    tag_374:\n        /* \"#utility.yul\":3458:3487   */\n      tag_375\n        /* \"#utility.yul\":3477:3486   */\n      dup5\n        /* \"#utility.yul\":3458:3487   */\n      tag_336\n      jump\t// in\n    tag_375:\n        /* \"#utility.yul\":3448:3487   */\n      swap3\n      pop\n        /* \"#utility.yul\":3506:3544   */\n      tag_376\n        /* \"#utility.yul\":3540:3542   */\n      0x20\n        /* \"#utility.yul\":3529:3538   */\n      dup6\n        /* \"#utility.yul\":3525:3543   */\n      add\n        /* \"#utility.yul\":3506:3544   */\n      tag_336\n      jump\t// in\n    tag_376:\n        /* \"#utility.yul\":3496:3544   */\n      swap2\n      pop\n        /* \"#utility.yul\":3591:3593   */\n      0x40\n        /* \"#utility.yul\":3580:3589   */\n      dup5\n        /* \"#utility.yul\":3576:3594   */\n      add\n        /* \"#utility.yul\":3563:3595   */\n      calldataload\n        /* \"#utility.yul\":3553:3595   */\n      swap1\n      pop\n        /* \"#utility.yul\":3273:3601   */\n      swap3\n      pop\n      swap3\n      pop\n      swap3\n      jump\t// out\n        /* \"#utility.yul\":3795:4043   */\n    tag_61:\n        /* \"#utility.yul\":3863:3869   */\n      0x00\n        /* \"#utility.yul\":3871:3877   */\n      dup1\n        /* \"#utility.yul\":3924:3926   */\n      0x40\n        /* \"#utility.yul\":3912:3921   */\n      dup4\n        /* \"#utility.yul\":3903:3910   */\n      dup6\n        /* \"#utility.yul\":3899:3922   */\n      sub\n        /* \"#utility.yul\":3895:3927   */\n      slt\n        /* \"#utility.yul\":3892:3944   */\n      iszero\n      tag_379\n      jumpi\n        /* \"#utility.yul\":3940:3941   */\n      0x00\n        /* \"#utility.yul\":3937:3938   */\n      dup1\n        /* \"#utility.yul\":3930:3942   */\n      revert\n        /* \"#utility.yul\":3892:3944   */\n    tag_379:\n      pop\n      pop\n        /* \"#utility.yul\":3963:3986   */\n      dup1\n      calldataload\n      swap3\n        /* \"#utility.yul\":4033:4035   */\n      0x20\n        /* \"#utility.yul\":4018:4036   */\n      swap1\n      swap2\n      add\n        /* \"#utility.yul\":4005:4037   */\n      calldataload\n      swap2\n      pop\n        /* \"#utility.yul\":3795:4043   */\n      jump\t// out\n        /* \"#utility.yul\":4048:4234   */\n    tag_66:\n        /* \"#utility.yul\":4107:4113   */\n      0x00\n        /* \"#utility.yul\":4160:4162   */\n      0x20\n        /* \"#utility.yul\":4148:4157   */\n      dup3\n        /* \"#utility.yul\":4139:4146   */\n      dup5\n        /* \"#utility.yul\":4135:4158   */\n      sub\n        /* \"#utility.yul\":4131:4163   */\n      slt\n        /* \"#utility.yul\":4128:4180   */\n      iszero\n      tag_381\n      jumpi\n        /* \"#utility.yul\":4176:4177   */\n      0x00\n        /* \"#utility.yul\":4173:4174   */\n      dup1\n        /* \"#utility.yul\":4166:4178   */\n      revert\n        /* \"#utility.yul\":4128:4180   */\n    tag_381:\n        /* \"#utility.yul\":4199:4228   */\n      tag_349\n        /* \"#utility.yul\":4218:4227   */\n      dup3\n        /* \"#utility.yul\":4199:4228   */\n      tag_336\n      jump\t// in\n        /* \"#utility.yul\":4239:4555   */\n    tag_77:\n        /* \"#utility.yul\":4316:4322   */\n      0x00\n        /* \"#utility.yul\":4324:4330   */\n      dup1\n        /* \"#utility.yul\":4332:4338   */\n      0x00\n        /* \"#utility.yul\":4385:4387   */\n      0x60\n        /* \"#utility.yul\":4373:4382   */\n      dup5\n        /* \"#utility.yul\":4364:4371   */\n      dup7\n        /* \"#utility.yul\":4360:4383   */\n      sub\n        /* \"#utility.yul\":4356:4388   */\n      slt\n        /* \"#utility.yul\":4353:4405   */\n      iszero\n      tag_384\n      jumpi\n        /* \"#utility.yul\":4401:4402   */\n      0x00\n        /* \"#utility.yul\":4398:4399   */\n      dup1\n        /* \"#utility.yul\":4391:4403   */\n      revert\n        /* \"#utility.yul\":4353:4405   */\n    tag_384:\n      pop\n      pop\n        /* \"#utility.yul\":4424:4447   */\n      dup2\n      calldataload\n      swap4\n        /* \"#utility.yul\":4494:4496   */\n      0x20\n        /* \"#utility.yul\":4479:4497   */\n      dup4\n      add\n        /* \"#utility.yul\":4466:4498   */\n      calldataload\n      swap4\n      pop\n        /* \"#utility.yul\":4545:4547   */\n      0x40\n        /* \"#utility.yul\":4530:4548   */\n      swap1\n      swap3\n      add\n        /* \"#utility.yul\":4517:4549   */\n      calldataload\n      swap2\n        /* \"#utility.yul\":4239:4555   */\n      swap1\n      pop\n      jump\t// out\n        /* \"#utility.yul\":4768:5465   */\n    tag_94:\n        /* \"#utility.yul\":5106:5107   */\n      0x01\n        /* \"#utility.yul\":5102:5103   */\n      dup1\n        /* \"#utility.yul\":5097:5100   */\n      0xa0\n        /* \"#utility.yul\":5093:5104   */\n      shl\n        /* \"#utility.yul\":5089:5108   */\n      sub\n        /* \"#utility.yul\":5081:5087   */\n      dup8\n        /* \"#utility.yul\":5077:5109   */\n      and\n        /* \"#utility.yul\":5066:5075   */\n      dup2\n        /* \"#utility.yul\":5059:5110   */\n      mstore\n        /* \"#utility.yul\":5146:5152   */\n      dup6\n        /* \"#utility.yul\":5141:5143   */\n      0x20\n        /* \"#utility.yul\":5130:5139   */\n      dup3\n        /* \"#utility.yul\":5126:5144   */\n      add\n        /* \"#utility.yul\":5119:5153   */\n      mstore\n        /* \"#utility.yul\":5189:5192   */\n      0xc0\n        /* \"#utility.yul\":5184:5186   */\n      0x40\n        /* \"#utility.yul\":5173:5182   */\n      dup3\n        /* \"#utility.yul\":5169:5187   */\n      add\n        /* \"#utility.yul\":5162:5193   */\n      mstore\n        /* \"#utility.yul\":5040:5044   */\n      0x00\n        /* \"#utility.yul\":5216:5262   */\n      tag_387\n        /* \"#utility.yul\":5257:5260   */\n      0xc0\n        /* \"#utility.yul\":5246:5255   */\n      dup4\n        /* \"#utility.yul\":5242:5261   */\n      add\n        /* \"#utility.yul\":5234:5240   */\n      dup8\n        /* \"#utility.yul\":5216:5262   */\n      tag_335\n      jump\t// in\n    tag_387:\n        /* \"#utility.yul\":5310:5319   */\n      dup3\n        /* \"#utility.yul\":5302:5308   */\n      dup2\n        /* \"#utility.yul\":5298:5320   */\n      sub\n        /* \"#utility.yul\":5293:5295   */\n      0x60\n        /* \"#utility.yul\":5282:5291   */\n      dup5\n        /* \"#utility.yul\":5278:5296   */\n      add\n        /* \"#utility.yul\":5271:5321   */\n      mstore\n        /* \"#utility.yul\":5338:5371   */\n      tag_388\n        /* \"#utility.yul\":5364:5370   */\n      dup2\n        /* \"#utility.yul\":5356:5362   */\n      dup8\n        /* \"#utility.yul\":5338:5371   */\n      tag_335\n      jump\t// in\n    tag_388:\n        /* \"#utility.yul\":5402:5405   */\n      0x80\n        /* \"#utility.yul\":5387:5406   */\n      dup5\n      add\n        /* \"#utility.yul\":5380:5415   */\n      swap6\n      swap1\n      swap6\n      mstore\n      pop\n      pop\n        /* \"#utility.yul\":5446:5449   */\n      0xa0\n        /* \"#utility.yul\":5431:5450   */\n      add\n        /* \"#utility.yul\":5424:5459   */\n      mstore\n        /* \"#utility.yul\":5330:5371   */\n      swap5\n        /* \"#utility.yul\":4768:5465   */\n      swap4\n      pop\n      pop\n      pop\n      pop\n      jump\t// out\n        /* \"#utility.yul\":5470:6291   */\n    tag_109:\n        /* \"#utility.yul\":5643:5645   */\n      0x20\n        /* \"#utility.yul\":5632:5641   */\n      dup2\n        /* \"#utility.yul\":5625:5646   */\n      mstore\n        /* \"#utility.yul\":5718:5719   */\n      0x01\n        /* \"#utility.yul\":5714:5715   */\n      dup1\n        /* \"#utility.yul\":5709:5712   */\n      0xa0\n        /* \"#utility.yul\":5705:5716   */\n      shl\n        /* \"#utility.yul\":5701:5720   */\n      sub\n        /* \"#utility.yul\":5692:5698   */\n      dup3\n        /* \"#utility.yul\":5686:5699   */\n      mload\n        /* \"#utility.yul\":5682:5721   */\n      and\n        /* \"#utility.yul\":5677:5679   */\n      0x20\n        /* \"#utility.yul\":5666:5675   */\n      dup3\n        /* \"#utility.yul\":5662:5680   */\n      add\n        /* \"#utility.yul\":5655:5722   */\n      mstore\n        /* \"#utility.yul\":5776:5778   */\n      0x20\n        /* \"#utility.yul\":5768:5774   */\n      dup3\n        /* \"#utility.yul\":5764:5779   */\n      add\n        /* \"#utility.yul\":5758:5780   */\n      mload\n        /* \"#utility.yul\":5753:5755   */\n      0x40\n        /* \"#utility.yul\":5742:5751   */\n      dup3\n        /* \"#utility.yul\":5738:5756   */\n      add\n        /* \"#utility.yul\":5731:5781   */\n      mstore\n        /* \"#utility.yul\":5606:5610   */\n      0x00\n        /* \"#utility.yul\":5828:5830   */\n      0x40\n        /* \"#utility.yul\":5820:5826   */\n      dup4\n        /* \"#utility.yul\":5816:5831   */\n      add\n        /* \"#utility.yul\":5810:5832   */\n      mload\n        /* \"#utility.yul\":5868:5872   */\n      0xc0\n        /* \"#utility.yul\":5863:5865   */\n      0x60\n        /* \"#utility.yul\":5852:5861   */\n      dup5\n        /* \"#utility.yul\":5848:5866   */\n      add\n        /* \"#utility.yul\":5841:5873   */\n      mstore\n        /* \"#utility.yul\":5896:5948   */\n      tag_390\n        /* \"#utility.yul\":5943:5946   */\n      0xe0\n        /* \"#utility.yul\":5932:5941   */\n      dup5\n        /* \"#utility.yul\":5928:5947   */\n      add\n        /* \"#utility.yul\":5914:5926   */\n      dup3\n        /* \"#utility.yul\":5896:5948   */\n      tag_335\n      jump\t// in\n    tag_390:\n        /* \"#utility.yul\":5882:5948   */\n      swap1\n      pop\n        /* \"#utility.yul\":5997:5999   */\n      0x60\n        /* \"#utility.yul\":5989:5995   */\n      dup5\n        /* \"#utility.yul\":5985:6000   */\n      add\n        /* \"#utility.yul\":5979:6001   */\n      mload\n        /* \"#utility.yul\":6070:6072   */\n      0x1f\n        /* \"#utility.yul\":6066:6073   */\n      not\n        /* \"#utility.yul\":6054:6063   */\n      dup5\n        /* \"#utility.yul\":6046:6052   */\n      dup4\n        /* \"#utility.yul\":6042:6064   */\n      sub\n        /* \"#utility.yul\":6038:6074   */\n      add\n        /* \"#utility.yul\":6032:6035   */\n      0x80\n        /* \"#utility.yul\":6021:6030   */\n      dup6\n        /* \"#utility.yul\":6017:6036   */\n      add\n        /* \"#utility.yul\":6010:6075   */\n      mstore\n        /* \"#utility.yul\":6098:6139   */\n      tag_391\n        /* \"#utility.yul\":6132:6138   */\n      dup3\n        /* \"#utility.yul\":6116:6130   */\n      dup3\n        /* \"#utility.yul\":6098:6139   */\n      tag_335\n      jump\t// in\n    tag_391:\n        /* \"#utility.yul\":6084:6139   */\n      swap2\n      pop\n      pop\n        /* \"#utility.yul\":6194:6197   */\n      0x80\n        /* \"#utility.yul\":6186:6192   */\n      dup5\n        /* \"#utility.yul\":6182:6198   */\n      add\n        /* \"#utility.yul\":6176:6199   */\n      mload\n        /* \"#utility.yul\":6170:6173   */\n      0xa0\n        /* \"#utility.yul\":6159:6168   */\n      dup5\n        /* \"#utility.yul\":6155:6174   */\n      add\n        /* \"#utility.yul\":6148:6200   */\n      mstore\n        /* \"#utility.yul\":6256:6259   */\n      0xa0\n        /* \"#utility.yul\":6248:6254   */\n      dup5\n        /* \"#utility.yul\":6244:6260   */\n      add\n        /* \"#utility.yul\":6238:6261   */\n      mload\n        /* \"#utility.yul\":6231:6235   */\n      0xc0\n        /* \"#utility.yul\":6220:6229   */\n      dup5\n        /* \"#utility.yul\":6216:6236   */\n      add\n        /* \"#utility.yul\":6209:6262   */\n      mstore\n        /* \"#utility.yul\":6279:6285   */\n      dup1\n        /* \"#utility.yul\":6271:6285   */\n      swap2\n      pop\n      pop\n        /* \"#utility.yul\":5470:6291   */\n      swap3\n      swap2\n      pop\n      pop\n      jump\t// out\n        /* \"#utility.yul\":6296:6556   */\n    tag_112:\n        /* \"#utility.yul\":6364:6370   */\n      0x00\n        /* \"#utility.yul\":6372:6378   */\n      dup1\n        /* \"#utility.yul\":6425:6427   */\n      0x40\n        /* \"#utility.yul\":6413:6422   */\n      dup4\n        /* \"#utility.yul\":6404:6411   */\n      dup6\n        /* \"#utility.yul\":6400:6423   */\n      sub\n        /* \"#utility.yul\":6396:6428   */\n      slt\n        /* \"#utility.yul\":6393:6445   */\n      iszero\n      tag_393\n      jumpi\n        /* \"#utility.yul\":6441:6442   */\n      0x00\n        /* \"#utility.yul\":6438:6439   */\n      dup1\n        /* \"#utility.yul\":6431:6443   */\n      revert\n        /* \"#utility.yul\":6393:6445   */\n    tag_393:\n        /* \"#utility.yul\":6464:6493   */\n      tag_394\n        /* \"#utility.yul\":6483:6492   */\n      dup4\n        /* \"#utility.yul\":6464:6493   */\n      tag_336\n      jump\t// in\n    tag_394:\n        /* \"#utility.yul\":6454:6493   */\n      swap2\n      pop\n        /* \"#utility.yul\":6512:6550   */\n      tag_395\n        /* \"#utility.yul\":6546:6548   */\n      0x20\n        /* \"#utility.yul\":6535:6544   */\n      dup5\n        /* \"#utility.yul\":6531:6549   */\n      add\n        /* \"#utility.yul\":6512:6550   */\n      tag_336\n      jump\t// in\n    tag_395:\n        /* \"#utility.yul\":6502:6550   */\n      swap1\n      pop\n        /* \"#utility.yul\":6296:6556   */\n      swap3\n      pop\n      swap3\n      swap1\n      pop\n      jump\t// out\n        /* \"#utility.yul\":6561:6941   */\n    tag_120:\n        /* \"#utility.yul\":6640:6641   */\n      0x01\n        /* \"#utility.yul\":6636:6648   */\n      dup2\n      dup2\n      shr\n      swap1\n        /* \"#utility.yul\":6683:6695   */\n      dup3\n      and\n      dup1\n        /* \"#utility.yul\":6704:6765   */\n      tag_397\n      jumpi\n        /* \"#utility.yul\":6758:6762   */\n      0x7f\n        /* \"#utility.yul\":6750:6756   */\n      dup3\n        /* \"#utility.yul\":6746:6763   */\n      and\n        /* \"#utility.yul\":6736:6763   */\n      swap2\n      pop\n        /* \"#utility.yul\":6704:6765   */\n    tag_397:\n        /* \"#utility.yul\":6811:6813   */\n      0x20\n        /* \"#utility.yul\":6803:6809   */\n      dup3\n        /* \"#utility.yul\":6800:6814   */\n      lt\n        /* \"#utility.yul\":6780:6798   */\n      dup2\n        /* \"#utility.yul\":6777:6815   */\n      sub\n        /* \"#utility.yul\":6774:6935   */\n      tag_398\n      jumpi\n        /* \"#utility.yul\":6857:6867   */\n      0x4e487b71\n        /* \"#utility.yul\":6852:6855   */\n      0xe0\n        /* \"#utility.yul\":6848:6868   */\n      shl\n        /* \"#utility.yul\":6845:6846   */\n      0x00\n        /* \"#utility.yul\":6838:6869   */\n      mstore\n        /* \"#utility.yul\":6892:6896   */\n      0x22\n        /* \"#utility.yul\":6889:6890   */\n      0x04\n        /* \"#utility.yul\":6882:6897   */\n      mstore\n        /* \"#utility.yul\":6920:6924   */\n      0x24\n        /* \"#utility.yul\":6917:6918   */\n      0x00\n        /* \"#utility.yul\":6910:6925   */\n      revert\n        /* \"#utility.yul\":6774:6935   */\n    tag_398:\n      pop\n        /* \"#utility.yul\":6561:6941   */\n      swap2\n      swap1\n      pop\n      jump\t// out\n        /* \"#utility.yul\":6946:7073   */\n    tag_133:\n        /* \"#utility.yul\":7007:7017   */\n      0x4e487b71\n        /* \"#utility.yul\":7002:7005   */\n      0xe0\n        /* \"#utility.yul\":6998:7018   */\n      shl\n        /* \"#utility.yul\":6995:6996   */\n      0x00\n        /* \"#utility.yul\":6988:7019   */\n      mstore\n        /* \"#utility.yul\":7038:7042   */\n      0x32\n        /* \"#utility.yul\":7035:7036   */\n      0x04\n        /* \"#utility.yul\":7028:7043   */\n      mstore\n        /* \"#utility.yul\":7062:7066   */\n      0x24\n        /* \"#utility.yul\":7059:7060   */\n      0x00\n        /* \"#utility.yul\":7052:7067   */\n      revert\n        /* \"#utility.yul\":7760:7887   */\n    tag_339:\n        /* \"#utility.yul\":7821:7831   */\n      0x4e487b71\n        /* \"#utility.yul\":7816:7819   */\n      0xe0\n        /* \"#utility.yul\":7812:7832   */\n      shl\n        /* \"#utility.yul\":7809:7810   */\n      0x00\n        /* \"#utility.yul\":7802:7833   */\n      mstore\n        /* \"#utility.yul\":7852:7856   */\n      0x11\n        /* \"#utility.yul\":7849:7850   */\n      0x04\n        /* \"#utility.yul\":7842:7857   */\n      mstore\n        /* \"#utility.yul\":7876:7880   */\n      0x24\n        /* \"#utility.yul\":7873:7874   */\n      0x00\n        /* \"#utility.yul\":7866:7881   */\n      revert\n        /* \"#utility.yul\":7892:8109   */\n    tag_149:\n        /* \"#utility.yul\":7932:7933   */\n      0x00\n        /* \"#utility.yul\":7958:7959   */\n      dup3\n        /* \"#utility.yul\":7948:8080   */\n      tag_404\n      jumpi\n        /* \"#utility.yul\":8002:8012   */\n      0x4e487b71\n        /* \"#utility.yul\":7997:8000   */\n      0xe0\n        /* \"#utility.yul\":7993:8013   */\n      shl\n        /* \"#utility.yul\":7990:7991   */\n      0x00\n        /* \"#utility.yul\":7983:8014   */\n      mstore\n        /* \"#utility.yul\":8037:8041   */\n      0x12\n        /* \"#utility.yul\":8034:8035   */\n      0x04\n        /* \"#utility.yul\":8027:8042   */\n      mstore\n        /* \"#utility.yul\":8065:8069   */\n      0x24\n        /* \"#utility.yul\":8062:8063   */\n      0x00\n        /* \"#utility.yul\":8055:8070   */\n      revert\n        /* \"#utility.yul\":7948:8080   */\n    tag_404:\n      pop\n        /* \"#utility.yul\":8094:8103   */\n      div\n      swap1\n        /* \"#utility.yul\":7892:8109   */\n      jump\t// out\n        /* \"#utility.yul\":8393:8670   */\n    tag_157:\n        /* \"#utility.yul\":8460:8466   */\n      0x00\n        /* \"#utility.yul\":8513:8515   */\n      0x20\n        /* \"#utility.yul\":8501:8510   */\n      dup3\n        /* \"#utility.yul\":8492:8499   */\n      dup5\n        /* \"#utility.yul\":8488:8511   */\n      sub\n        /* \"#utility.yul\":8484:8516   */\n      slt\n        /* \"#utility.yul\":8481:8533   */\n      iszero\n      tag_407\n      jumpi\n        /* \"#utility.yul\":8529:8530   */\n      0x00\n        /* \"#utility.yul\":8526:8527   */\n      dup1\n        /* \"#utility.yul\":8519:8531   */\n      revert\n        /* \"#utility.yul\":8481:8533   */\n    tag_407:\n        /* \"#utility.yul\":8561:8570   */\n      dup2\n        /* \"#utility.yul\":8555:8571   */\n      mload\n        /* \"#utility.yul\":8614:8619   */\n      dup1\n        /* \"#utility.yul\":8607:8620   */\n      iszero\n        /* \"#utility.yul\":8600:8621   */\n      iszero\n        /* \"#utility.yul\":8593:8598   */\n      dup2\n        /* \"#utility.yul\":8590:8622   */\n      eq\n        /* \"#utility.yul\":8580:8640   */\n      tag_349\n      jumpi\n        /* \"#utility.yul\":8636:8637   */\n      0x00\n        /* \"#utility.yul\":8633:8634   */\n      dup1\n        /* \"#utility.yul\":8626:8638   */\n      revert\n        /* \"#utility.yul\":9018:9186   */\n    tag_164:\n        /* \"#utility.yul\":9091:9100   */\n      dup1\n      dup3\n      mul\n        /* \"#utility.yul\":9122:9131   */\n      dup2\n      iszero\n        /* \"#utility.yul\":9139:9154   */\n      dup3\n      dup3\n      div\n        /* \"#utility.yul\":9133:9155   */\n      dup5\n      eq\n        /* \"#utility.yul\":9119:9156   */\n      or\n        /* \"#utility.yul\":9109:9180   */\n      tag_125\n      jumpi\n        /* \"#utility.yul\":9160:9178   */\n      tag_125\n      tag_339\n      jump\t// in\n        /* \"#utility.yul\":10361:10906   */\n    tag_341:\n        /* \"#utility.yul\":10463:10465   */\n      0x1f\n        /* \"#utility.yul\":10458:10461   */\n      dup3\n        /* \"#utility.yul\":10455:10466   */\n      gt\n        /* \"#utility.yul\":10452:10900   */\n      iszero\n      tag_288\n      jumpi\n        /* \"#utility.yul\":10499:10500   */\n      0x00\n        /* \"#utility.yul\":10524:10529   */\n      dup2\n        /* \"#utility.yul\":10520:10522   */\n      dup2\n        /* \"#utility.yul\":10513:10530   */\n      mstore\n        /* \"#utility.yul\":10569:10573   */\n      0x20\n        /* \"#utility.yul\":10565:10567   */\n      dup2\n        /* \"#utility.yul\":10555:10574   */\n      keccak256\n        /* \"#utility.yul\":10639:10641   */\n      0x1f\n        /* \"#utility.yul\":10627:10637   */\n      dup6\n        /* \"#utility.yul\":10623:10642   */\n      add\n        /* \"#utility.yul\":10620:10621   */\n      0x05\n        /* \"#utility.yul\":10616:10643   */\n      shr\n        /* \"#utility.yul\":10610:10614   */\n      dup2\n        /* \"#utility.yul\":10606:10644   */\n      add\n        /* \"#utility.yul\":10675:10679   */\n      0x20\n        /* \"#utility.yul\":10663:10673   */\n      dup7\n        /* \"#utility.yul\":10660:10680   */\n      lt\n        /* \"#utility.yul\":10657:10704   */\n      iszero\n      tag_419\n      jumpi\n      pop\n        /* \"#utility.yul\":10698:10702   */\n      dup1\n        /* \"#utility.yul\":10657:10704   */\n    tag_419:\n        /* \"#utility.yul\":10753:10755   */\n      0x1f\n        /* \"#utility.yul\":10748:10751   */\n      dup6\n        /* \"#utility.yul\":10744:10756   */\n      add\n        /* \"#utility.yul\":10741:10742   */\n      0x05\n        /* \"#utility.yul\":10737:10757   */\n      shr\n        /* \"#utility.yul\":10731:10735   */\n      dup3\n        /* \"#utility.yul\":10727:10758   */\n      add\n        /* \"#utility.yul\":10717:10758   */\n      swap2\n      pop\n        /* \"#utility.yul\":10808:10890   */\n    tag_420:\n        /* \"#utility.yul\":10826:10828   */\n      dup2\n        /* \"#utility.yul\":10819:10824   */\n      dup2\n        /* \"#utility.yul\":10816:10829   */\n      lt\n        /* \"#utility.yul\":10808:10890   */\n      iszero\n      tag_422\n      jumpi\n        /* \"#utility.yul\":10871:10888   */\n      dup3\n      dup2\n      sstore\n        /* \"#utility.yul\":10852:10853   */\n      0x01\n        /* \"#utility.yul\":10841:10854   */\n      add\n        /* \"#utility.yul\":10808:10890   */\n      jump(tag_420)\n    tag_422:\n        /* \"#utility.yul\":10812:10815   */\n      pop\n      pop\n      pop\n        /* \"#utility.yul\":10361:10906   */\n      pop\n      pop\n      pop\n      jump\t// out\n        /* \"#utility.yul\":11082:12434   */\n    tag_179:\n        /* \"#utility.yul\":11208:11211   */\n      dup2\n        /* \"#utility.yul\":11202:11212   */\n      mload\n        /* \"#utility.yul\":11235:11253   */\n      0xffffffffffffffff\n        /* \"#utility.yul\":11227:11233   */\n      dup2\n        /* \"#utility.yul\":11224:11254   */\n      gt\n        /* \"#utility.yul\":11221:11277   */\n      iszero\n      tag_426\n      jumpi\n        /* \"#utility.yul\":11257:11275   */\n      tag_426\n      tag_337\n      jump\t// in\n    tag_426:\n        /* \"#utility.yul\":11286:11383   */\n      tag_427\n        /* \"#utility.yul\":11376:11382   */\n      dup2\n        /* \"#utility.yul\":11336:11374   */\n      tag_428\n        /* \"#utility.yul\":11368:11372   */\n      dup5\n        /* \"#utility.yul\":11362:11373   */\n      sload\n        /* \"#utility.yul\":11336:11374   */\n      tag_120\n      jump\t// in\n    tag_428:\n        /* \"#utility.yul\":11330:11334   */\n      dup5\n        /* \"#utility.yul\":11286:11383   */\n      tag_341\n      jump\t// in\n    tag_427:\n        /* \"#utility.yul\":11438:11442   */\n      0x20\n      dup1\n        /* \"#utility.yul\":11502:11504   */\n      0x1f\n        /* \"#utility.yul\":11491:11505   */\n      dup4\n      gt\n        /* \"#utility.yul\":11519:11520   */\n      0x01\n        /* \"#utility.yul\":11514:12177   */\n      dup2\n      eq\n      tag_430\n      jumpi\n        /* \"#utility.yul\":12221:12222   */\n      0x00\n        /* \"#utility.yul\":12238:12244   */\n      dup5\n        /* \"#utility.yul\":12235:12324   */\n      iszero\n      tag_431\n      jumpi\n      pop\n        /* \"#utility.yul\":12290:12309   */\n      dup6\n      dup4\n      add\n        /* \"#utility.yul\":12284:12310   */\n      mload\n        /* \"#utility.yul\":12235:12324   */\n    tag_431:\n      not(0x00)\n        /* \"#utility.yul\":11039:11040   */\n      0x03\n        /* \"#utility.yul\":11035:11046   */\n      dup7\n      swap1\n      shl\n        /* \"#utility.yul\":11031:11055   */\n      shr\n        /* \"#utility.yul\":11027:11056   */\n      not\n        /* \"#utility.yul\":11017:11057   */\n      and\n        /* \"#utility.yul\":11063:11064   */\n      0x01\n        /* \"#utility.yul\":11059:11070   */\n      dup6\n      swap1\n      shl\n        /* \"#utility.yul\":11014:11071   */\n      or\n        /* \"#utility.yul\":12337:12418   */\n      dup6\n      sstore\n        /* \"#utility.yul\":11484:12428   */\n      jump(tag_422)\n        /* \"#utility.yul\":11514:12177   */\n    tag_430:\n        /* \"#utility.yul\":10308:10309   */\n      0x00\n        /* \"#utility.yul\":10301:10315   */\n      dup6\n      dup2\n      mstore\n        /* \"#utility.yul\":10345:10349   */\n      0x20\n        /* \"#utility.yul\":10332:10350   */\n      dup2\n      keccak256\n      not(0x1f)\n        /* \"#utility.yul\":11550:11570   */\n      dup7\n      and\n      swap2\n        /* \"#utility.yul\":11668:11904   */\n    tag_434:\n        /* \"#utility.yul\":11682:11689   */\n      dup3\n        /* \"#utility.yul\":11679:11680   */\n      dup2\n        /* \"#utility.yul\":11676:11690   */\n      lt\n        /* \"#utility.yul\":11668:11904   */\n      iszero\n      tag_436\n      jumpi\n        /* \"#utility.yul\":11771:11790   */\n      dup9\n      dup7\n      add\n        /* \"#utility.yul\":11765:11791   */\n      mload\n        /* \"#utility.yul\":11750:11792   */\n      dup3\n      sstore\n        /* \"#utility.yul\":11863:11890   */\n      swap5\n      dup5\n      add\n      swap5\n        /* \"#utility.yul\":11831:11832   */\n      0x01\n        /* \"#utility.yul\":11819:11833   */\n      swap1\n      swap2\n      add\n      swap1\n        /* \"#utility.yul\":11698:11717   */\n      dup5\n      add\n        /* \"#utility.yul\":11668:11904   */\n      jump(tag_434)\n    tag_436:\n        /* \"#utility.yul\":11672:11675   */\n      pop\n        /* \"#utility.yul\":11932:11938   */\n      dup6\n        /* \"#utility.yul\":11923:11930   */\n      dup3\n        /* \"#utility.yul\":11920:11939   */\n      lt\n        /* \"#utility.yul\":11917:12118   */\n      iszero\n      tag_437\n      jumpi\n        /* \"#utility.yul\":11993:12012   */\n      dup8\n      dup6\n      add\n        /* \"#utility.yul\":11987:12013   */\n      mload\n      not(0x00)\n        /* \"#utility.yul\":12076:12077   */\n      0x03\n        /* \"#utility.yul\":12072:12086   */\n      dup9\n      swap1\n      shl\n        /* \"#utility.yul\":12088:12091   */\n      0xf8\n        /* \"#utility.yul\":12068:12092   */\n      and\n        /* \"#utility.yul\":12064:12101   */\n      shr\n        /* \"#utility.yul\":12060:12102   */\n      not\n        /* \"#utility.yul\":12045:12103   */\n      and\n        /* \"#utility.yul\":12030:12104   */\n      dup2\n      sstore\n        /* \"#utility.yul\":11917:12118   */\n    tag_437:\n      pop\n      pop\n      pop\n      pop\n      pop\n        /* \"#utility.yul\":12164:12165   */\n      0x01\n        /* \"#utility.yul\":12148:12162   */\n      swap1\n      dup2\n      shl\n        /* \"#utility.yul\":12144:12166   */\n      add\n        /* \"#utility.yul\":12131:12167   */\n      swap1\n      sstore\n      pop\n        /* \"#utility.yul\":11082:12434   */\n      jump\t// out\n        /* \"#utility.yul\":12439:12567   */\n    tag_182:\n        /* \"#utility.yul\":12506:12515   */\n      dup2\n      dup2\n      sub\n        /* \"#utility.yul\":12527:12538   */\n      dup2\n      dup2\n      gt\n        /* \"#utility.yul\":12524:12561   */\n      iszero\n      tag_125\n      jumpi\n        /* \"#utility.yul\":12541:12559   */\n      tag_125\n      tag_339\n      jump\t// in\n        /* \"#utility.yul\":12572:12756   */\n    tag_203:\n        /* \"#utility.yul\":12642:12648   */\n      0x00\n        /* \"#utility.yul\":12695:12697   */\n      0x20\n        /* \"#utility.yul\":12683:12692   */\n      dup3\n        /* \"#utility.yul\":12674:12681   */\n      dup5\n        /* \"#utility.yul\":12670:12693   */\n      sub\n        /* \"#utility.yul\":12666:12698   */\n      slt\n        /* \"#utility.yul\":12663:12715   */\n      iszero\n      tag_442\n      jumpi\n        /* \"#utility.yul\":12711:12712   */\n      0x00\n        /* \"#utility.yul\":12708:12709   */\n      dup1\n        /* \"#utility.yul\":12701:12713   */\n      revert\n        /* \"#utility.yul\":12663:12715   */\n    tag_442:\n      pop\n        /* \"#utility.yul\":12734:12750   */\n      mload\n      swap2\n        /* \"#utility.yul\":12572:12756   */\n      swap1\n      pop\n      jump\t// out\n        /* \"#utility.yul\":13097:13222   */\n    tag_213:\n        /* \"#utility.yul\":13162:13171   */\n      dup1\n      dup3\n      add\n        /* \"#utility.yul\":13183:13193   */\n      dup1\n      dup3\n      gt\n        /* \"#utility.yul\":13180:13216   */\n      iszero\n      tag_125\n      jumpi\n        /* \"#utility.yul\":13196:13214   */\n      tag_125\n      tag_339\n      jump\t// in\n\n    auxdata: 0xa2646970667358221220a58b4537ea2d22940a466ed9d24f15d7f78bc125301e560145981dcfafb7140064736f6c63430008140033\n}\n\nsub_1: assembly {\n        /* \"contracts/CredentialVerifier.sol\":150:992  contract CredentialVerifier is Ownable {... */\n      mstore(0x40, 0x80)\n        /* \"contracts/CredentialVerifier.sol\":252:398  constructor(address gitcoinResolverAddress_) Ownable(_msgSender()) {... */\n      callvalue\n      dup1\n      iszero\n      tag_1\n      jumpi\n      0x00\n      dup1\n      revert\n    tag_1:\n      pop\n      mload(0x40)\n      sub(codesize, bytecodeSize)\n      dup1\n      bytecodeSize\n      dup4\n      codecopy\n      dup2\n      add\n      0x40\n      dup2\n      swap1\n      mstore\n      tag_2\n      swap2\n      tag_3\n      jump\t// in\n    tag_2:\n        /* \"@openzeppelin/contracts/utils/Context.sol\":735:745  msg.sender */\n      caller\n      dup1\n        /* \"@openzeppelin/contracts/access/Ownable.sol\":1269:1364  if (initialOwner == address(0)) {... */\n      tag_9\n      jumpi\n        /* \"@openzeppelin/contracts/access/Ownable.sol\":1322:1353  OwnableInvalidOwner(address(0)) */\n      mload(0x40)\n      shl(0xe0, 0x1e4fbdf7)\n      dup2\n      mstore\n        /* \"@openzeppelin/contracts/access/Ownable.sol\":1350:1351  0 */\n      0x00\n        /* \"@openzeppelin/contracts/access/Ownable.sol\":1322:1353  OwnableInvalidOwner(address(0)) */\n      0x04\n      dup3\n      add\n        /* \"#utility.yul\":455:506   */\n      mstore\n        /* \"#utility.yul\":428:446   */\n      0x24\n      add\n        /* \"@openzeppelin/contracts/access/Ownable.sol\":1322:1353  OwnableInvalidOwner(address(0)) */\n      mload(0x40)\n      dup1\n      swap2\n      sub\n      swap1\n      revert\n        /* \"@openzeppelin/contracts/access/Ownable.sol\":1269:1364  if (initialOwner == address(0)) {... */\n    tag_9:\n        /* \"@openzeppelin/contracts/access/Ownable.sol\":1373:1405  _transferOwnership(initialOwner) */\n      tag_12\n        /* \"@openzeppelin/contracts/access/Ownable.sol\":1392:1404  initialOwner */\n      dup2\n        /* \"@openzeppelin/contracts/access/Ownable.sol\":1373:1391  _transferOwnership */\n      tag_13\n        /* \"@openzeppelin/contracts/access/Ownable.sol\":1373:1405  _transferOwnership(initialOwner) */\n      jump\t// in\n    tag_12:\n      pop\n        /* \"contracts/CredentialVerifier.sol\":330:346  _gitcoinResolver */\n      0x01\n        /* \"contracts/CredentialVerifier.sol\":330:390  _gitcoinResolver = IGitcoinResolver(gitcoinResolverAddress_) */\n      dup1\n      sload\n      not(sub(shl(0xa0, 0x01), 0x01))\n      and\n      sub(shl(0xa0, 0x01), 0x01)\n      swap3\n      swap1\n      swap3\n      and\n      swap2\n      swap1\n      swap2\n      or\n      swap1\n      sstore\n        /* \"contracts/CredentialVerifier.sol\":150:992  contract CredentialVerifier is Ownable {... */\n      jump(tag_18)\n        /* \"@openzeppelin/contracts/access/Ownable.sol\":2912:3099  function _transferOwnership(address newOwner) internal virtual {... */\n    tag_13:\n        /* \"@openzeppelin/contracts/access/Ownable.sol\":2985:3001  address oldOwner */\n      0x00\n        /* \"@openzeppelin/contracts/access/Ownable.sol\":3004:3010  _owner */\n      dup1\n      sload\n      sub(shl(0xa0, 0x01), 0x01)\n        /* \"@openzeppelin/contracts/access/Ownable.sol\":3020:3037  _owner = newOwner */\n      dup4\n      dup2\n      and\n      not(sub(shl(0xa0, 0x01), 0x01))\n      dup4\n      and\n      dup2\n      or\n      dup5\n      sstore\n        /* \"@openzeppelin/contracts/access/Ownable.sol\":3052:3092  OwnershipTransferred(oldOwner, newOwner) */\n      mload(0x40)\n        /* \"@openzeppelin/contracts/access/Ownable.sol\":3004:3010  _owner */\n      swap2\n      swap1\n      swap3\n      and\n      swap3\n      dup4\n      swap2\n        /* \"@openzeppelin/contracts/access/Ownable.sol\":3052:3092  OwnershipTransferred(oldOwner, newOwner) */\n      0x8be0079c531659141344cd1fd0a4f28419497f9722a3daafe3b4186f6b6457e0\n      swap2\n        /* \"@openzeppelin/contracts/access/Ownable.sol\":2985:3001  address oldOwner */\n      swap1\n        /* \"@openzeppelin/contracts/access/Ownable.sol\":3052:3092  OwnershipTransferred(oldOwner, newOwner) */\n      log3\n        /* \"@openzeppelin/contracts/access/Ownable.sol\":2975:3099  {... */\n      pop\n        /* \"@openzeppelin/contracts/access/Ownable.sol\":2912:3099  function _transferOwnership(address newOwner) internal virtual {... */\n      pop\n      jump\t// out\n        /* \"#utility.yul\":14:304   */\n    tag_3:\n        /* \"#utility.yul\":84:90   */\n      0x00\n        /* \"#utility.yul\":137:139   */\n      0x20\n        /* \"#utility.yul\":125:134   */\n      dup3\n        /* \"#utility.yul\":116:123   */\n      dup5\n        /* \"#utility.yul\":112:135   */\n      sub\n        /* \"#utility.yul\":108:140   */\n      slt\n        /* \"#utility.yul\":105:157   */\n      iszero\n      tag_20\n      jumpi\n        /* \"#utility.yul\":153:154   */\n      0x00\n        /* \"#utility.yul\":150:151   */\n      dup1\n        /* \"#utility.yul\":143:155   */\n      revert\n        /* \"#utility.yul\":105:157   */\n    tag_20:\n        /* \"#utility.yul\":179:195   */\n      dup2\n      mload\n      sub(shl(0xa0, 0x01), 0x01)\n        /* \"#utility.yul\":224:255   */\n      dup2\n      and\n        /* \"#utility.yul\":214:256   */\n      dup2\n      eq\n        /* \"#utility.yul\":204:274   */\n      tag_21\n      jumpi\n        /* \"#utility.yul\":270:271   */\n      0x00\n        /* \"#utility.yul\":267:268   */\n      dup1\n        /* \"#utility.yul\":260:272   */\n      revert\n        /* \"#utility.yul\":204:274   */\n    tag_21:\n        /* \"#utility.yul\":293:298   */\n      swap4\n        /* \"#utility.yul\":14:304   */\n      swap3\n      pop\n      pop\n      pop\n      jump\t// out\n        /* \"#utility.yul\":309:512   */\n    tag_18:\n        /* \"contracts/CredentialVerifier.sol\":150:992  contract CredentialVerifier is Ownable {... */\n      dataSize(sub_0)\n      dup1\n      dataOffset(sub_0)\n      0x00\n      codecopy\n      0x00\n      return\n    stop\n\n    sub_0: assembly {\n            /* \"contracts/CredentialVerifier.sol\":150:992  contract CredentialVerifier is Ownable {... */\n          mstore(0x40, 0x80)\n          callvalue\n          dup1\n          iszero\n          tag_1\n          jumpi\n          0x00\n          dup1\n          revert\n        tag_1:\n          pop\n          jumpi(tag_2, lt(calldatasize, 0x04))\n          shr(0xe0, calldataload(0x00))\n          dup1\n          0x2ca835a8\n          eq\n          tag_3\n          jumpi\n          dup1\n          0x715018a6\n          eq\n          tag_4\n          jumpi\n          dup1\n          0x8da5cb5b\n          eq\n          tag_5\n          jumpi\n          dup1\n          0xbd75aae8\n          eq\n          tag_6\n          jumpi\n          dup1\n          0xf2fde38b\n          eq\n          tag_7\n          jumpi\n        tag_2:\n          0x00\n          dup1\n          revert\n            /* \"contracts/CredentialVerifier.sol\":406:609  function verifyGitcionPass(address owner, bytes32 uid) public returns (bool) {... */\n        tag_3:\n          tag_8\n          tag_9\n          calldatasize\n          0x04\n          tag_10\n          jump\t// in\n        tag_9:\n          tag_11\n          jump\t// in\n        tag_8:\n          mload(0x40)\n            /* \"#utility.yul\":616:630   */\n          swap1\n          iszero\n            /* \"#utility.yul\":609:631   */\n          iszero\n            /* \"#utility.yul\":591:632   */\n          dup2\n          mstore\n            /* \"#utility.yul\":579:581   */\n          0x20\n            /* \"#utility.yul\":564:582   */\n          add\n            /* \"contracts/CredentialVerifier.sol\":406:609  function verifyGitcionPass(address owner, bytes32 uid) public returns (bool) {... */\n        tag_12:\n          mload(0x40)\n          dup1\n          swap2\n          sub\n          swap1\n          return\n            /* \"@openzeppelin/contracts/access/Ownable.sol\":2293:2394  function renounceOwnership() public virtual onlyOwner {... */\n        tag_4:\n          tag_14\n          tag_15\n          jump\t// in\n        tag_14:\n          stop\n            /* \"@openzeppelin/contracts/access/Ownable.sol\":1638:1723  function owner() public view virtual returns (address) {... */\n        tag_5:\n            /* \"@openzeppelin/contracts/access/Ownable.sol\":1684:1691  address */\n          0x00\n            /* \"@openzeppelin/contracts/access/Ownable.sol\":1710:1716  _owner */\n          sload\n            /* \"@openzeppelin/contracts/access/Ownable.sol\":1638:1723  function owner() public view virtual returns (address) {... */\n          mload(0x40)\n          sub(shl(0xa0, 0x01), 0x01)\n            /* \"@openzeppelin/contracts/access/Ownable.sol\":1710:1716  _owner */\n          swap1\n          swap2\n          and\n            /* \"#utility.yul\":789:840   */\n          dup2\n          mstore\n            /* \"#utility.yul\":777:779   */\n          0x20\n            /* \"#utility.yul\":762:780   */\n          add\n            /* \"@openzeppelin/contracts/access/Ownable.sol\":1638:1723  function owner() public view virtual returns (address) {... */\n          tag_12\n            /* \"#utility.yul\":643:846   */\n          jump\n            /* \"contracts/CredentialVerifier.sol\":617:890  function calcWeight(address owner, bytes32 uid) public returns (uint) {... */\n        tag_6:\n          tag_20\n          tag_21\n          calldatasize\n          0x04\n          tag_10\n          jump\t// in\n        tag_21:\n          tag_22\n          jump\t// in\n        tag_20:\n          mload(0x40)\n            /* \"#utility.yul\":997:1022   */\n          swap1\n          dup2\n          mstore\n            /* \"#utility.yul\":985:987   */\n          0x20\n            /* \"#utility.yul\":970:988   */\n          add\n            /* \"contracts/CredentialVerifier.sol\":617:890  function calcWeight(address owner, bytes32 uid) public returns (uint) {... */\n          tag_12\n            /* \"#utility.yul\":851:1028   */\n          jump\n            /* \"@openzeppelin/contracts/access/Ownable.sol\":2543:2758  function transferOwnership(address newOwner) public virtual onlyOwner {... */\n        tag_7:\n          tag_14\n          tag_26\n          calldatasize\n          0x04\n          tag_27\n          jump\t// in\n        tag_26:\n          tag_28\n          jump\t// in\n            /* \"contracts/CredentialVerifier.sol\":406:609  function verifyGitcionPass(address owner, bytes32 uid) public returns (bool) {... */\n        tag_11:\n            /* \"contracts/CredentialVerifier.sol\":521:525  true */\n          0x01\n            /* \"contracts/CredentialVerifier.sol\":406:609  function verifyGitcionPass(address owner, bytes32 uid) public returns (bool) {... */\n        tag_29:\n          swap3\n          swap2\n          pop\n          pop\n          jump\t// out\n            /* \"@openzeppelin/contracts/access/Ownable.sol\":2293:2394  function renounceOwnership() public virtual onlyOwner {... */\n        tag_15:\n            /* \"@openzeppelin/contracts/access/Ownable.sol\":1531:1544  _checkOwner() */\n          tag_31\n            /* \"@openzeppelin/contracts/access/Ownable.sol\":1531:1542  _checkOwner */\n          tag_32\n            /* \"@openzeppelin/contracts/access/Ownable.sol\":1531:1544  _checkOwner() */\n          jump\t// in\n        tag_31:\n            /* \"@openzeppelin/contracts/access/Ownable.sol\":2357:2387  _transferOwnership(address(0)) */\n          tag_34\n            /* \"@openzeppelin/contracts/access/Ownable.sol\":2384:2385  0 */\n          0x00\n            /* \"@openzeppelin/contracts/access/Ownable.sol\":2357:2375  _transferOwnership */\n          tag_35\n            /* \"@openzeppelin/contracts/access/Ownable.sol\":2357:2387  _transferOwnership(address(0)) */\n          jump\t// in\n        tag_34:\n            /* \"@openzeppelin/contracts/access/Ownable.sol\":2293:2394  function renounceOwnership() public virtual onlyOwner {... */\n          jump\t// out\n            /* \"contracts/CredentialVerifier.sol\":617:890  function calcWeight(address owner, bytes32 uid) public returns (uint) {... */\n        tag_22:\n            /* \"contracts/CredentialVerifier.sol\":829:830  1 */\n          0x01\n            /* \"contracts/CredentialVerifier.sol\":822:830  return 1 */\n          jump(tag_29)\n            /* \"@openzeppelin/contracts/access/Ownable.sol\":2543:2758  function transferOwnership(address newOwner) public virtual onlyOwner {... */\n        tag_28:\n            /* \"@openzeppelin/contracts/access/Ownable.sol\":1531:1544  _checkOwner() */\n          tag_41\n            /* \"@openzeppelin/contracts/access/Ownable.sol\":1531:1542  _checkOwner */\n          tag_32\n            /* \"@openzeppelin/contracts/access/Ownable.sol\":1531:1544  _checkOwner() */\n          jump\t// in\n        tag_41:\n          sub(shl(0xa0, 0x01), 0x01)\n            /* \"@openzeppelin/contracts/access/Ownable.sol\":2627:2649  newOwner == address(0) */\n          dup2\n          and\n            /* \"@openzeppelin/contracts/access/Ownable.sol\":2623:2714  if (newOwner == address(0)) {... */\n          tag_43\n          jumpi\n            /* \"@openzeppelin/contracts/access/Ownable.sol\":2672:2703  OwnableInvalidOwner(address(0)) */\n          mload(0x40)\n          shl(0xe0, 0x1e4fbdf7)\n          dup2\n          mstore\n            /* \"@openzeppelin/contracts/access/Ownable.sol\":2700:2701  0 */\n          0x00\n            /* \"@openzeppelin/contracts/access/Ownable.sol\":2672:2703  OwnableInvalidOwner(address(0)) */\n          0x04\n          dup3\n          add\n            /* \"#utility.yul\":789:840   */\n          mstore\n            /* \"#utility.yul\":762:780   */\n          0x24\n          add\n            /* \"@openzeppelin/contracts/access/Ownable.sol\":2672:2703  OwnableInvalidOwner(address(0)) */\n        tag_44:\n          mload(0x40)\n          dup1\n          swap2\n          sub\n          swap1\n          revert\n            /* \"@openzeppelin/contracts/access/Ownable.sol\":2623:2714  if (newOwner == address(0)) {... */\n        tag_43:\n            /* \"@openzeppelin/contracts/access/Ownable.sol\":2723:2751  _transferOwnership(newOwner) */\n          tag_45\n            /* \"@openzeppelin/contracts/access/Ownable.sol\":2742:2750  newOwner */\n          dup2\n            /* \"@openzeppelin/contracts/access/Ownable.sol\":2723:2741  _transferOwnership */\n          tag_35\n            /* \"@openzeppelin/contracts/access/Ownable.sol\":2723:2751  _transferOwnership(newOwner) */\n          jump\t// in\n        tag_45:\n            /* \"@openzeppelin/contracts/access/Ownable.sol\":2543:2758  function transferOwnership(address newOwner) public virtual onlyOwner {... */\n          pop\n          jump\t// out\n            /* \"@openzeppelin/contracts/access/Ownable.sol\":1796:1958  function _checkOwner() internal view virtual {... */\n        tag_32:\n            /* \"@openzeppelin/contracts/access/Ownable.sol\":1684:1691  address */\n          0x00\n            /* \"@openzeppelin/contracts/access/Ownable.sol\":1710:1716  _owner */\n          sload\n          sub(shl(0xa0, 0x01), 0x01)\n          and\n            /* \"@openzeppelin/contracts/utils/Context.sol\":735:745  msg.sender */\n          caller\n            /* \"@openzeppelin/contracts/access/Ownable.sol\":1855:1878  owner() != _msgSender() */\n          eq\n            /* \"@openzeppelin/contracts/access/Ownable.sol\":1851:1952  if (owner() != _msgSender()) {... */\n          tag_34\n          jumpi\n            /* \"@openzeppelin/contracts/access/Ownable.sol\":1901:1941  OwnableUnauthorizedAccount(_msgSender()) */\n          mload(0x40)\n          shl(0xe0, 0x118cdaa7)\n          dup2\n          mstore\n            /* \"@openzeppelin/contracts/utils/Context.sol\":735:745  msg.sender */\n          caller\n            /* \"@openzeppelin/contracts/access/Ownable.sol\":1901:1941  OwnableUnauthorizedAccount(_msgSender()) */\n          0x04\n          dup3\n          add\n            /* \"#utility.yul\":789:840   */\n          mstore\n            /* \"#utility.yul\":762:780   */\n          0x24\n          add\n            /* \"@openzeppelin/contracts/access/Ownable.sol\":1901:1941  OwnableUnauthorizedAccount(_msgSender()) */\n          tag_44\n            /* \"#utility.yul\":643:846   */\n          jump\n            /* \"@openzeppelin/contracts/access/Ownable.sol\":2912:3099  function _transferOwnership(address newOwner) internal virtual {... */\n        tag_35:\n            /* \"@openzeppelin/contracts/access/Ownable.sol\":2985:3001  address oldOwner */\n          0x00\n            /* \"@openzeppelin/contracts/access/Ownable.sol\":3004:3010  _owner */\n          dup1\n          sload\n          sub(shl(0xa0, 0x01), 0x01)\n            /* \"@openzeppelin/contracts/access/Ownable.sol\":3020:3037  _owner = newOwner */\n          dup4\n          dup2\n          and\n          not(sub(shl(0xa0, 0x01), 0x01))\n          dup4\n          and\n          dup2\n          or\n          dup5\n          sstore\n            /* \"@openzeppelin/contracts/access/Ownable.sol\":3052:3092  OwnershipTransferred(oldOwner, newOwner) */\n          mload(0x40)\n            /* \"@openzeppelin/contracts/access/Ownable.sol\":3004:3010  _owner */\n          swap2\n          swap1\n          swap3\n          and\n          swap3\n          dup4\n          swap2\n            /* \"@openzeppelin/contracts/access/Ownable.sol\":3052:3092  OwnershipTransferred(oldOwner, newOwner) */\n          0x8be0079c531659141344cd1fd0a4f28419497f9722a3daafe3b4186f6b6457e0\n          swap2\n            /* \"@openzeppelin/contracts/access/Ownable.sol\":2985:3001  address oldOwner */\n          swap1\n            /* \"@openzeppelin/contracts/access/Ownable.sol\":3052:3092  OwnershipTransferred(oldOwner, newOwner) */\n          log3\n            /* \"@openzeppelin/contracts/access/Ownable.sol\":2975:3099  {... */\n          pop\n            /* \"@openzeppelin/contracts/access/Ownable.sol\":2912:3099  function _transferOwnership(address newOwner) internal virtual {... */\n          pop\n          jump\t// out\n            /* \"#utility.yul\":14:187   */\n        tag_55:\n            /* \"#utility.yul\":82:102   */\n          dup1\n          calldataload\n          sub(shl(0xa0, 0x01), 0x01)\n            /* \"#utility.yul\":131:162   */\n          dup2\n          and\n            /* \"#utility.yul\":121:163   */\n          dup2\n          eq\n            /* \"#utility.yul\":111:181   */\n          tag_58\n          jumpi\n            /* \"#utility.yul\":177:178   */\n          0x00\n            /* \"#utility.yul\":174:175   */\n          dup1\n            /* \"#utility.yul\":167:179   */\n          revert\n            /* \"#utility.yul\":111:181   */\n        tag_58:\n            /* \"#utility.yul\":14:187   */\n          swap2\n          swap1\n          pop\n          jump\t// out\n            /* \"#utility.yul\":192:446   */\n        tag_10:\n            /* \"#utility.yul\":260:266   */\n          0x00\n            /* \"#utility.yul\":268:274   */\n          dup1\n            /* \"#utility.yul\":321:323   */\n          0x40\n            /* \"#utility.yul\":309:318   */\n          dup4\n            /* \"#utility.yul\":300:307   */\n          dup6\n            /* \"#utility.yul\":296:319   */\n          sub\n            /* \"#utility.yul\":292:324   */\n          slt\n            /* \"#utility.yul\":289:341   */\n          iszero\n          tag_60\n          jumpi\n            /* \"#utility.yul\":337:338   */\n          0x00\n            /* \"#utility.yul\":334:335   */\n          dup1\n            /* \"#utility.yul\":327:339   */\n          revert\n            /* \"#utility.yul\":289:341   */\n        tag_60:\n            /* \"#utility.yul\":360:389   */\n          tag_61\n            /* \"#utility.yul\":379:388   */\n          dup4\n            /* \"#utility.yul\":360:389   */\n          tag_55\n          jump\t// in\n        tag_61:\n            /* \"#utility.yul\":350:389   */\n          swap5\n            /* \"#utility.yul\":436:438   */\n          0x20\n            /* \"#utility.yul\":421:439   */\n          swap4\n          swap1\n          swap4\n          add\n            /* \"#utility.yul\":408:440   */\n          calldataload\n          swap4\n          pop\n          pop\n          pop\n            /* \"#utility.yul\":192:446   */\n          jump\t// out\n            /* \"#utility.yul\":1033:1219   */\n        tag_27:\n            /* \"#utility.yul\":1092:1098   */\n          0x00\n            /* \"#utility.yul\":1145:1147   */\n          0x20\n            /* \"#utility.yul\":1133:1142   */\n          dup3\n            /* \"#utility.yul\":1124:1131   */\n          dup5\n            /* \"#utility.yul\":1120:1143   */\n          sub\n            /* \"#utility.yul\":1116:1148   */\n          slt\n            /* \"#utility.yul\":1113:1165   */\n          iszero\n          tag_66\n          jumpi\n            /* \"#utility.yul\":1161:1162   */\n          0x00\n            /* \"#utility.yul\":1158:1159   */\n          dup1\n            /* \"#utility.yul\":1151:1163   */\n          revert\n            /* \"#utility.yul\":1113:1165   */\n        tag_66:\n            /* \"#utility.yul\":1184:1213   */\n          tag_67\n            /* \"#utility.yul\":1203:1212   */\n          dup3\n            /* \"#utility.yul\":1184:1213   */\n          tag_55\n          jump\t// in\n        tag_67:\n            /* \"#utility.yul\":1174:1213   */\n          swap4\n            /* \"#utility.yul\":1033:1219   */\n          swap3\n          pop\n          pop\n          pop\n          jump\t// out\n\n        auxdata: 0xa264697066735822122060b739706bc2ffe4187c03f614cd620b154157954b354e2990d1d9f2654d9fb864736f6c63430008140033\n    }\n}\n",
				"bytecode": {
					"linkReferences": {},
					"object": "6080604052678ac7230489e800006006553480156200001c575f80fd5b506040805180820182526004808252634249415360e01b6020808401829052845180860190955291845290830152339160036200005a838262000219565b50600462000069828262000219565b5050506001600160a01b0381166200009a57604051631e4fbdf760e01b81525f600482015260240160405180910390fd5b620000a5816200011a565b5073c94abf0292ac04aac18c251d9c8169a8dd2bbbdc604051620000c9906200016b565b6001600160a01b039091168152602001604051809103905ff080158015620000f3573d5f803e3d5ffd5b50600b80546001600160a01b0319166001600160a01b0392909216919091179055620002e1565b600580546001600160a01b038381166001600160a01b0319831681179093556040519116919082907f8be0079c531659141344cd1fd0a4f28419497f9722a3daafe3b4186f6b6457e0905f90a35050565b61035d8062001b5283390190565b634e487b7160e01b5f52604160045260245ffd5b600181811c90821680620001a257607f821691505b602082108103620001c157634e487b7160e01b5f52602260045260245ffd5b50919050565b601f82111562000214575f81815260208120601f850160051c81016020861015620001ef5750805b601f850160051c820191505b818110156200021057828155600101620001fb565b5050505b505050565b81516001600160401b0381111562000235576200023562000179565b6200024d816200024684546200018d565b84620001c7565b602080601f83116001811462000283575f84156200026b5750858301515b5f19600386901b1c1916600185901b17855562000210565b5f85815260208120601f198616915b82811015620002b35788860151825594840194600190910190840162000292565b5085821015620002d157878501515f19600388901b60f8161c191681555b5050505050600190811b01905550565b61186380620002ef5f395ff3fe608060405234801561000f575f80fd5b506004361061013d575f3560e01c80638c881eeb116100b4578063a6c2da4c11610079578063a6c2da4c146102d1578063a9059cbb146102da578063b1e95e94146102ed578063cda411be14610300578063dd62ed3e14610320578063f2fde38b14610358575f80fd5b80638c881eeb146102575780638da5cb5b1461026a57806393ad4aca1461028557806395d89b41146102a45780639a383dfd146102ac575f80fd5b806323b872dd1161010557806323b872dd146101bc578063313ce567146101cf57806363b6ad97146101de578063682290991461020857806370a0823114610227578063715018a61461024f575f80fd5b806306fdde0314610141578063095ea7b31461015f5780630962ef79146101825780630a05b17f1461019757806318160ddd146101aa575b5f80fd5b61014961036b565b604051610156919061131a565b60405180910390f35b61017261016d36600461134e565b6103fb565b6040519015158152602001610156565b610195610190366004611376565b610414565b005b6101956101a536600461142a565b610538565b6002545b604051908152602001610156565b6101726101ca3660046114a3565b610837565b60405160128152602001610156565b6101ae6101ec3660046114dc565b600860209081525f928352604080842090915290825290205481565b6101ae6102163660046114fc565b600c6020525f908152604090205481565b6101ae6102353660046114fc565b6001600160a01b03165f9081526020819052604090205490565b61019561085a565b610195610265366004611515565b61086d565b6005546040516001600160a01b039091168152602001610156565b6101ae610293366004611376565b60096020525f908152604090205481565b610149610b77565b6102bf6102ba366004611376565b610b86565b6040516101569695949392919061153e565b6101ae60065481565b6101726102e836600461134e565b610ce3565b6101956102fb366004611376565b610cf0565b61031361030e366004611376565b610cfd565b604051610156919061158c565b6101ae61032e366004611601565b6001600160a01b039182165f90815260016020908152604080832093909416825291909152205490565b6101956103663660046114fc565b610ed7565b60606003805461037a90611632565b80601f01602080910402602001604051908101604052809291908181526020018280546103a690611632565b80156103f15780601f106103c8576101008083540402835291602001916103f1565b820191905f5260205f20905b8154815290600101906020018083116103d457829003601f168201915b5050505050905090565b5f33610408818585610f11565b60019150505b92915050565b600781815481106104275761042761166a565b905f5260205f2090600602016005015460095f8381526020019081526020015f2054101561048b5760405162461bcd60e51b815260206004820152600c60248201526b1b9bdd08199a5b9a5cda195960a21b60448201526064015b60405180910390fd5b336001600160a01b0316600782815481106104a8576104a861166a565b5f9182526020909120600690910201546001600160a01b0316146104fd5760405162461bcd60e51b815260206004820152600c60248201526b37b7363c9031b932b0ba37b960a11b6044820152606401610482565b610535336005600784815481106105165761051661166a565b905f5260205f209060060201600401546105309190611692565b610f23565b50565b600b5460405163059506b560e31b8152336004820152602481018390526001600160a01b0390911690632ca835a8906044016020604051808303815f875af1158015610586573d5f803e3d5ffd5b505050506040513d601f19601f820116820180604052508101906105aa91906116b1565b6105e75760405162461bcd60e51b815260206004820152600e60248201526d1b9bdd08185d5d1a1bdc9a5e995960921b6044820152606401610482565b335f90815260208190526040902054831115801561061e5750600a6006548361061091906116d0565b61061a9190611692565b8310155b61065f5760405162461bcd60e51b8152602060048201526012602482015271696e73756666696369656e742066756e647360701b6044820152606401610482565b5f821161069f5760405162461bcd60e51b815260206004820152600e60248201526d696e76616c696420706172616d7360901b6044820152606401610482565b335f908152600a6020526040902054156106fb5760405162461bcd60e51b815260206004820152601960248201527f6f6e6c7920616c6c6f77206f6e65206c69766520746f706963000000000000006044820152606401610482565b6107053384610f5b565b6040805160c0810182523381524260208201908152918101878152606082018790526080820186905260a08201859052600780546001810182555f9190915282517fa66cc928b5edb82af9bd49922954155ab7b0942694bea4ce44661d9a8736c688600690920291820180546001600160a01b0319166001600160a01b0390921691909117815593517fa66cc928b5edb82af9bd49922954155ab7b0942694bea4ce44661d9a8736c68982015590519192917fa66cc928b5edb82af9bd49922954155ab7b0942694bea4ce44661d9a8736c68a909101906107e69082611734565b50606082015160038201906107fb9082611734565b506080820151600482015560a090910151600590910155600754610821906001906117f0565b335f908152600a60205260409020555050505050565b5f33610844858285610f8f565b61084f858585611004565b506001949350505050565b610862611061565b61086b5f61108e565b565b600b546040516317aeb55d60e31b8152336004820152602481018390525f916001600160a01b03169063bd75aae8906044016020604051808303815f875af11580156108bb573d5f803e3d5ffd5b505050506040513d601f19601f820116820180604052508101906108df9190611803565b90505f81116109215760405162461bcd60e51b815260206004820152600e60248201526d1b9bdd08185d5d1a1bdc9a5e995960921b6044820152606401610482565b600784815481106109345761093461166a565b905f5260205f2090600602016005015460095f8681526020019081526020015f20541061098e5760405162461bcd60e51b8152602060048201526008602482015267199a5b9a5cda195960c21b6044820152606401610482565b335f908152600c60205260409020546109ab90620151809061181a565b4210156109e95760405162461bcd60e51b815260206004820152600c60248201526b6f6e6365207065722064617960a01b6044820152606401610482565b335f818152600c6020526040902042905560078054610a6992919087908110610a1457610a1461166a565b905f5260205f2090600602016005015460078781548110610a3757610a3761166a565b905f5260205f20906006020160040154610a519190611692565b83600654610a5f91906116d0565b610530919061181a565b5f848152600960205260408120805460019290610a8790849061181a565b90915550505f84815260086020908152604080832086845290915281208054839290610ab490849061181a565b90915550506040805184815260208101839052859133917f6c7eb2743ec28489909706ea440d909129004996be657d36c6e9add778546abf910160405180910390a360078481548110610b0957610b0961166a565b905f5260205f2090600602016005015460095f8681526020019081526020015f205403610b71575f600a5f60078781548110610b4757610b4761166a565b5f91825260208083206006909202909101546001600160a01b031683528201929092526040019020555b50505050565b60606004805461037a90611632565b60078181548110610b95575f80fd5b5f9182526020909120600690910201805460018201546002830180546001600160a01b039093169450909291610bca90611632565b80601f0160208091040260200160405190810160405280929190818152602001828054610bf690611632565b8015610c415780601f10610c1857610100808354040283529160200191610c41565b820191905f5260205f20905b815481529060010190602001808311610c2457829003601f168201915b505050505090806003018054610c5690611632565b80601f0160208091040260200160405190810160405280929190818152602001828054610c8290611632565b8015610ccd5780601f10610ca457610100808354040283529160200191610ccd565b820191905f5260205f20905b815481529060010190602001808311610cb057829003601f168201915b5050505050908060040154908060050154905086565b5f33610408818585611004565b610cf8611061565b600655565b610d3b6040518060c001604052805f6001600160a01b031681526020015f815260200160608152602001606081526020015f81526020015f81525090565b60078281548110610d4e57610d4e61166a565b905f5260205f2090600602016040518060c00160405290815f82015f9054906101000a90046001600160a01b03166001600160a01b03166001600160a01b0316815260200160018201548152602001600282018054610dac90611632565b80601f0160208091040260200160405190810160405280929190818152602001828054610dd890611632565b8015610e235780601f10610dfa57610100808354040283529160200191610e23565b820191905f5260205f20905b815481529060010190602001808311610e0657829003601f168201915b50505050508152602001600382018054610e3c90611632565b80601f0160208091040260200160405190810160405280929190818152602001828054610e6890611632565b8015610eb35780601f10610e8a57610100808354040283529160200191610eb3565b820191905f5260205f20905b815481529060010190602001808311610e9657829003601f168201915b50505050508152602001600482015481526020016005820154815250509050919050565b610edf611061565b6001600160a01b038116610f0857604051631e4fbdf760e01b81525f6004820152602401610482565b6105358161108e565b610f1e83838360016110df565b505050565b6001600160a01b038216610f4c5760405163ec442f0560e01b81525f6004820152602401610482565b610f575f83836111b1565b5050565b6001600160a01b038216610f8457604051634b637e8f60e11b81525f6004820152602401610482565b610f57825f836111b1565b6001600160a01b038381165f908152600160209081526040808320938616835292905220545f198114610b715781811015610ff657604051637dc7a0d960e11b81526001600160a01b03841660048201526024810182905260448101839052606401610482565b610b7184848484035f6110df565b6001600160a01b03831661102d57604051634b637e8f60e11b81525f6004820152602401610482565b6001600160a01b0382166110565760405163ec442f0560e01b81525f6004820152602401610482565b610f1e8383836111b1565b6005546001600160a01b0316331461086b5760405163118cdaa760e01b8152336004820152602401610482565b600580546001600160a01b038381166001600160a01b0319831681179093556040519116919082907f8be0079c531659141344cd1fd0a4f28419497f9722a3daafe3b4186f6b6457e0905f90a35050565b6001600160a01b0384166111085760405163e602df0560e01b81525f6004820152602401610482565b6001600160a01b03831661113157604051634a1406b160e11b81525f6004820152602401610482565b6001600160a01b038085165f9081526001602090815260408083209387168352929052208290558015610b7157826001600160a01b0316846001600160a01b03167f8c5be1e5ebec7d5bd14f71427d1e84f3dd0314c0f7b2291e5b200ac8c7c3b925846040516111a391815260200190565b60405180910390a350505050565b6001600160a01b0383166111db578060025f8282546111d0919061181a565b9091555061124b9050565b6001600160a01b0383165f908152602081905260409020548181101561122d5760405163391434e360e21b81526001600160a01b03851660048201526024810182905260448101839052606401610482565b6001600160a01b0384165f9081526020819052604090209082900390555b6001600160a01b03821661126757600280548290039055611285565b6001600160a01b0382165f9081526020819052604090208054820190555b816001600160a01b0316836001600160a01b03167fddf252ad1be2c89b69c2b068fc378daa952ba7f163c4a11628f55a4df523b3ef836040516112ca91815260200190565b60405180910390a3505050565b5f81518084525f5b818110156112fb576020818501810151868301820152016112df565b505f602082860101526020601f19601f83011685010191505092915050565b602081525f61132c60208301846112d7565b9392505050565b80356001600160a01b0381168114611349575f80fd5b919050565b5f806040838503121561135f575f80fd5b61136883611333565b946020939093013593505050565b5f60208284031215611386575f80fd5b5035919050565b634e487b7160e01b5f52604160045260245ffd5b5f82601f8301126113b0575f80fd5b813567ffffffffffffffff808211156113cb576113cb61138d565b604051601f8301601f19908116603f011681019082821181831017156113f3576113f361138d565b8160405283815286602085880101111561140b575f80fd5b836020870160208301375f602085830101528094505050505092915050565b5f805f805f60a0868803121561143e575f80fd5b853567ffffffffffffffff80821115611455575f80fd5b61146189838a016113a1565b96506020880135915080821115611476575f80fd5b50611483888289016113a1565b959895975050505060408401359360608101359360809091013592509050565b5f805f606084860312156114b5575f80fd5b6114be84611333565b92506114cc60208501611333565b9150604084013590509250925092565b5f80604083850312156114ed575f80fd5b50508035926020909101359150565b5f6020828403121561150c575f80fd5b61132c82611333565b5f805f60608486031215611527575f80fd5b505081359360208301359350604090920135919050565b60018060a01b038716815285602082015260c060408201525f61156460c08301876112d7565b828103606084015261157681876112d7565b6080840195909552505060a00152949350505050565b6020815260018060a01b038251166020820152602082015160408201525f604083015160c060608401526115c360e08401826112d7565b90506060840151601f198483030160808501526115e082826112d7565b915050608084015160a084015260a084015160c08401528091505092915050565b5f8060408385031215611612575f80fd5b61161b83611333565b915061162960208401611333565b90509250929050565b600181811c9082168061164657607f821691505b60208210810361166457634e487b7160e01b5f52602260045260245ffd5b50919050565b634e487b7160e01b5f52603260045260245ffd5b634e487b7160e01b5f52601160045260245ffd5b5f826116ac57634e487b7160e01b5f52601260045260245ffd5b500490565b5f602082840312156116c1575f80fd5b8151801515811461132c575f80fd5b808202811582820484141761040e5761040e61167e565b601f821115610f1e575f81815260208120601f850160051c8101602086101561170d5750805b601f850160051c820191505b8181101561172c57828155600101611719565b505050505050565b815167ffffffffffffffff81111561174e5761174e61138d565b6117628161175c8454611632565b846116e7565b602080601f831160018114611795575f841561177e5750858301515b5f19600386901b1c1916600185901b17855561172c565b5f85815260208120601f198616915b828110156117c3578886015182559484019460019091019084016117a4565b50858210156117e057878501515f19600388901b60f8161c191681555b5050505050600190811b01905550565b8181038181111561040e5761040e61167e565b5f60208284031215611813575f80fd5b5051919050565b8082018082111561040e5761040e61167e56fea2646970667358221220a58b4537ea2d22940a466ed9d24f15d7f78bc125301e560145981dcfafb7140064736f6c63430008140033608060405234801561000f575f80fd5b5060405161035d38038061035d83398101604081905261002e916100d1565b338061005357604051631e4fbdf760e01b81525f600482015260240160405180910390fd5b61005c81610082565b50600180546001600160a01b0319166001600160a01b03929092169190911790556100fe565b5f80546001600160a01b038381166001600160a01b0319831681178455604051919092169283917f8be0079c531659141344cd1fd0a4f28419497f9722a3daafe3b4186f6b6457e09190a35050565b5f602082840312156100e1575f80fd5b81516001600160a01b03811681146100f7575f80fd5b9392505050565b6102528061010b5f395ff3fe608060405234801561000f575f80fd5b5060043610610055575f3560e01c80632ca835a814610059578063715018a6146100815780638da5cb5b1461008b578063bd75aae8146100a5578063f2fde38b146100c6575b5f80fd5b61006c6100673660046101d4565b6100d9565b60405190151581526020015b60405180910390f35b6100896100e2565b005b5f546040516001600160a01b039091168152602001610078565b6100b86100b33660046101d4565b6100f5565b604051908152602001610078565b6100896100d43660046101fc565b6100fc565b60015b92915050565b6100ea61013e565b6100f35f61016a565b565b60016100dc565b61010461013e565b6001600160a01b03811661013257604051631e4fbdf760e01b81525f60048201526024015b60405180910390fd5b61013b8161016a565b50565b5f546001600160a01b031633146100f35760405163118cdaa760e01b8152336004820152602401610129565b5f80546001600160a01b038381166001600160a01b0319831681178455604051919092169283917f8be0079c531659141344cd1fd0a4f28419497f9722a3daafe3b4186f6b6457e09190a35050565b80356001600160a01b03811681146101cf575f80fd5b919050565b5f80604083850312156101e5575f80fd5b6101ee836101b9565b946020939093013593505050565b5f6020828403121561020c575f80fd5b610215826101b9565b939250505056fea264697066735822122060b739706bc2ffe4187c03f614cd620b154157954b354e2990d1d9f2654d9fb864736f6c63430008140033",
					"opcodes": "PUSH1 0x80 PUSH1 0x40 MSTORE PUSH8 0x8AC7230489E80000 PUSH1 0x6 SSTORE CALLVALUE DUP1 ISZERO PUSH3 0x1C JUMPI PUSH0 DUP1 REVERT JUMPDEST POP PUSH1 0x40 DUP1 MLOAD DUP1 DUP3 ADD DUP3 MSTORE PUSH1 0x4 DUP1 DUP3 MSTORE PUSH4 0x42494153 PUSH1 0xE0 SHL PUSH1 0x20 DUP1 DUP5 ADD DUP3 SWAP1 MSTORE DUP5 MLOAD DUP1 DUP7 ADD SWAP1 SWAP6 MSTORE SWAP2 DUP5 MSTORE SWAP1 DUP4 ADD MSTORE CALLER SWAP2 PUSH1 0x3 PUSH3 0x5A DUP4 DUP3 PUSH3 0x219 JUMP JUMPDEST POP PUSH1 0x4 PUSH3 0x69 DUP3 DUP3 PUSH3 0x219 JUMP JUMPDEST POP POP POP PUSH1 0x1 PUSH1 0x1 PUSH1 0xA0 SHL SUB DUP2 AND PUSH3 0x9A JUMPI PUSH1 0x40 MLOAD PUSH4 0x1E4FBDF7 PUSH1 0xE0 SHL DUP2 MSTORE PUSH0 PUSH1 0x4 DUP3 ADD MSTORE PUSH1 0x24 ADD PUSH1 0x40 MLOAD DUP1 SWAP2 SUB SWAP1 REVERT JUMPDEST PUSH3 0xA5 DUP2 PUSH3 0x11A JUMP JUMPDEST POP PUSH20 0xC94ABF0292AC04AAC18C251D9C8169A8DD2BBBDC PUSH1 0x40 MLOAD PUSH3 0xC9 SWAP1 PUSH3 0x16B JUMP JUMPDEST PUSH1 0x1 PUSH1 0x1 PUSH1 0xA0 SHL SUB SWAP1 SWAP2 AND DUP2 MSTORE PUSH1 0x20 ADD PUSH1 0x40 MLOAD DUP1 SWAP2 SUB SWAP1 PUSH0 CREATE DUP1 ISZERO DUP1 ISZERO PUSH3 0xF3 JUMPI RETURNDATASIZE PUSH0 DUP1 RETURNDATACOPY RETURNDATASIZE PUSH0 REVERT JUMPDEST POP PUSH1 0xB DUP1 SLOAD PUSH1 0x1 PUSH1 0x1 PUSH1 0xA0 SHL SUB NOT AND PUSH1 0x1 PUSH1 0x1 PUSH1 0xA0 SHL SUB SWAP3 SWAP1 SWAP3 AND SWAP2 SWAP1 SWAP2 OR SWAP1 SSTORE PUSH3 0x2E1 JUMP JUMPDEST PUSH1 0x5 DUP1 SLOAD PUSH1 0x1 PUSH1 0x1 PUSH1 0xA0 SHL SUB DUP4 DUP2 AND PUSH1 0x1 PUSH1 0x1 PUSH1 0xA0 SHL SUB NOT DUP4 AND DUP2 OR SWAP1 SWAP4 SSTORE PUSH1 0x40 MLOAD SWAP2 AND SWAP2 SWAP1 DUP3 SWAP1 PUSH32 0x8BE0079C531659141344CD1FD0A4F28419497F9722A3DAAFE3B4186F6B6457E0 SWAP1 PUSH0 SWAP1 LOG3 POP POP JUMP JUMPDEST PUSH2 0x35D DUP1 PUSH3 0x1B52 DUP4 CODECOPY ADD SWAP1 JUMP JUMPDEST PUSH4 0x4E487B71 PUSH1 0xE0 SHL PUSH0 MSTORE PUSH1 0x41 PUSH1 0x4 MSTORE PUSH1 0x24 PUSH0 REVERT JUMPDEST PUSH1 0x1 DUP2 DUP2 SHR SWAP1 DUP3 AND DUP1 PUSH3 0x1A2 JUMPI PUSH1 0x7F DUP3 AND SWAP2 POP JUMPDEST PUSH1 0x20 DUP3 LT DUP2 SUB PUSH3 0x1C1 JUMPI PUSH4 0x4E487B71 PUSH1 0xE0 SHL PUSH0 MSTORE PUSH1 0x22 PUSH1 0x4 MSTORE PUSH1 0x24 PUSH0 REVERT JUMPDEST POP SWAP2 SWAP1 POP JUMP JUMPDEST PUSH1 0x1F DUP3 GT ISZERO PUSH3 0x214 JUMPI PUSH0 DUP2 DUP2 MSTORE PUSH1 0x20 DUP2 KECCAK256 PUSH1 0x1F DUP6 ADD PUSH1 0x5 SHR DUP2 ADD PUSH1 0x20 DUP7 LT ISZERO PUSH3 0x1EF JUMPI POP DUP1 JUMPDEST PUSH1 0x1F DUP6 ADD PUSH1 0x5 SHR DUP3 ADD SWAP2 POP JUMPDEST DUP2 DUP2 LT ISZERO PUSH3 0x210 JUMPI DUP3 DUP2 SSTORE PUSH1 0x1 ADD PUSH3 0x1FB JUMP JUMPDEST POP POP POP JUMPDEST POP POP POP JUMP JUMPDEST DUP2 MLOAD PUSH1 0x1 PUSH1 0x1 PUSH1 0x40 SHL SUB DUP2 GT ISZERO PUSH3 0x235 JUMPI PUSH3 0x235 PUSH3 0x179 JUMP JUMPDEST PUSH3 0x24D DUP2 PUSH3 0x246 DUP5 SLOAD PUSH3 0x18D JUMP JUMPDEST DUP5 PUSH3 0x1C7 JUMP JUMPDEST PUSH1 0x20 DUP1 PUSH1 0x1F DUP4 GT PUSH1 0x1 DUP2 EQ PUSH3 0x283 JUMPI PUSH0 DUP5 ISZERO PUSH3 0x26B JUMPI POP DUP6 DUP4 ADD MLOAD JUMPDEST PUSH0 NOT PUSH1 0x3 DUP7 SWAP1 SHL SHR NOT AND PUSH1 0x1 DUP6 SWAP1 SHL OR DUP6 SSTORE PUSH3 0x210 JUMP JUMPDEST PUSH0 DUP6 DUP2 MSTORE PUSH1 0x20 DUP2 KECCAK256 PUSH1 0x1F NOT DUP7 AND SWAP2 JUMPDEST DUP3 DUP2 LT ISZERO PUSH3 0x2B3 JUMPI DUP9 DUP7 ADD MLOAD DUP3 SSTORE SWAP5 DUP5 ADD SWAP5 PUSH1 0x1 SWAP1 SWAP2 ADD SWAP1 DUP5 ADD PUSH3 0x292 JUMP JUMPDEST POP DUP6 DUP3 LT ISZERO PUSH3 0x2D1 JUMPI DUP8 DUP6 ADD MLOAD PUSH0 NOT PUSH1 0x3 DUP9 SWAP1 SHL PUSH1 0xF8 AND SHR NOT AND DUP2 SSTORE JUMPDEST POP POP POP POP POP PUSH1 0x1 SWAP1 DUP2 SHL ADD SWAP1 SSTORE POP JUMP JUMPDEST PUSH2 0x1863 DUP1 PUSH3 0x2EF PUSH0 CODECOPY PUSH0 RETURN INVALID PUSH1 0x80 PUSH1 0x40 MSTORE CALLVALUE DUP1 ISZERO PUSH2 0xF JUMPI PUSH0 DUP1 REVERT JUMPDEST POP PUSH1 0x4 CALLDATASIZE LT PUSH2 0x13D JUMPI PUSH0 CALLDATALOAD PUSH1 0xE0 SHR DUP1 PUSH4 0x8C881EEB GT PUSH2 0xB4 JUMPI DUP1 PUSH4 0xA6C2DA4C GT PUSH2 0x79 JUMPI DUP1 PUSH4 0xA6C2DA4C EQ PUSH2 0x2D1 JUMPI DUP1 PUSH4 0xA9059CBB EQ PUSH2 0x2DA JUMPI DUP1 PUSH4 0xB1E95E94 EQ PUSH2 0x2ED JUMPI DUP1 PUSH4 0xCDA411BE EQ PUSH2 0x300 JUMPI DUP1 PUSH4 0xDD62ED3E EQ PUSH2 0x320 JUMPI DUP1 PUSH4 0xF2FDE38B EQ PUSH2 0x358 JUMPI PUSH0 DUP1 REVERT JUMPDEST DUP1 PUSH4 0x8C881EEB EQ PUSH2 0x257 JUMPI DUP1 PUSH4 0x8DA5CB5B EQ PUSH2 0x26A JUMPI DUP1 PUSH4 0x93AD4ACA EQ PUSH2 0x285 JUMPI DUP1 PUSH4 0x95D89B41 EQ PUSH2 0x2A4 JUMPI DUP1 PUSH4 0x9A383DFD EQ PUSH2 0x2AC JUMPI PUSH0 DUP1 REVERT JUMPDEST DUP1 PUSH4 0x23B872DD GT PUSH2 0x105 JUMPI DUP1 PUSH4 0x23B872DD EQ PUSH2 0x1BC JUMPI DUP1 PUSH4 0x313CE567 EQ PUSH2 0x1CF JUMPI DUP1 PUSH4 0x63B6AD97 EQ PUSH2 0x1DE JUMPI DUP1 PUSH4 0x68229099 EQ PUSH2 0x208 JUMPI DUP1 PUSH4 0x70A08231 EQ PUSH2 0x227 JUMPI DUP1 PUSH4 0x715018A6 EQ PUSH2 0x24F JUMPI PUSH0 DUP1 REVERT JUMPDEST DUP1 PUSH4 0x6FDDE03 EQ PUSH2 0x141 JUMPI DUP1 PUSH4 0x95EA7B3 EQ PUSH2 0x15F JUMPI DUP1 PUSH4 0x962EF79 EQ PUSH2 0x182 JUMPI DUP1 PUSH4 0xA05B17F EQ PUSH2 0x197 JUMPI DUP1 PUSH4 0x18160DDD EQ PUSH2 0x1AA JUMPI JUMPDEST PUSH0 DUP1 REVERT JUMPDEST PUSH2 0x149 PUSH2 0x36B JUMP JUMPDEST PUSH1 0x40 MLOAD PUSH2 0x156 SWAP2 SWAP1 PUSH2 0x131A JUMP JUMPDEST PUSH1 0x40 MLOAD DUP1 SWAP2 SUB SWAP1 RETURN JUMPDEST PUSH2 0x172 PUSH2 0x16D CALLDATASIZE PUSH1 0x4 PUSH2 0x134E JUMP JUMPDEST PUSH2 0x3FB JUMP JUMPDEST PUSH1 0x40 MLOAD SWAP1 ISZERO ISZERO DUP2 MSTORE PUSH1 0x20 ADD PUSH2 0x156 JUMP JUMPDEST PUSH2 0x195 PUSH2 0x190 CALLDATASIZE PUSH1 0x4 PUSH2 0x1376 JUMP JUMPDEST PUSH2 0x414 JUMP JUMPDEST STOP JUMPDEST PUSH2 0x195 PUSH2 0x1A5 CALLDATASIZE PUSH1 0x4 PUSH2 0x142A JUMP JUMPDEST PUSH2 0x538 JUMP JUMPDEST PUSH1 0x2 SLOAD JUMPDEST PUSH1 0x40 MLOAD SWAP1 DUP2 MSTORE PUSH1 0x20 ADD PUSH2 0x156 JUMP JUMPDEST PUSH2 0x172 PUSH2 0x1CA CALLDATASIZE PUSH1 0x4 PUSH2 0x14A3 JUMP JUMPDEST PUSH2 0x837 JUMP JUMPDEST PUSH1 0x40 MLOAD PUSH1 0x12 DUP2 MSTORE PUSH1 0x20 ADD PUSH2 0x156 JUMP JUMPDEST PUSH2 0x1AE PUSH2 0x1EC CALLDATASIZE PUSH1 0x4 PUSH2 0x14DC JUMP JUMPDEST PUSH1 0x8 PUSH1 0x20 SWAP1 DUP2 MSTORE PUSH0 SWAP3 DUP4 MSTORE PUSH1 0x40 DUP1 DUP5 KECCAK256 SWAP1 SWAP2 MSTORE SWAP1 DUP3 MSTORE SWAP1 KECCAK256 SLOAD DUP2 JUMP JUMPDEST PUSH2 0x1AE PUSH2 0x216 CALLDATASIZE PUSH1 0x4 PUSH2 0x14FC JUMP JUMPDEST PUSH1 0xC PUSH1 0x20 MSTORE PUSH0 SWAP1 DUP2 MSTORE PUSH1 0x40 SWAP1 KECCAK256 SLOAD DUP2 JUMP JUMPDEST PUSH2 0x1AE PUSH2 0x235 CALLDATASIZE PUSH1 0x4 PUSH2 0x14FC JUMP JUMPDEST PUSH1 0x1 PUSH1 0x1 PUSH1 0xA0 SHL SUB AND PUSH0 SWAP1 DUP2 MSTORE PUSH1 0x20 DUP2 SWAP1 MSTORE PUSH1 0x40 SWAP1 KECCAK256 SLOAD SWAP1 JUMP JUMPDEST PUSH2 0x195 PUSH2 0x85A JUMP JUMPDEST PUSH2 0x195 PUSH2 0x265 CALLDATASIZE PUSH1 0x4 PUSH2 0x1515 JUMP JUMPDEST PUSH2 0x86D JUMP JUMPDEST PUSH1 0x5 SLOAD PUSH1 0x40 MLOAD PUSH1 0x1 PUSH1 0x1 PUSH1 0xA0 SHL SUB SWAP1 SWAP2 AND DUP2 MSTORE PUSH1 0x20 ADD PUSH2 0x156 JUMP JUMPDEST PUSH2 0x1AE PUSH2 0x293 CALLDATASIZE PUSH1 0x4 PUSH2 0x1376 JUMP JUMPDEST PUSH1 0x9 PUSH1 0x20 MSTORE PUSH0 SWAP1 DUP2 MSTORE PUSH1 0x40 SWAP1 KECCAK256 SLOAD DUP2 JUMP JUMPDEST PUSH2 0x149 PUSH2 0xB77 JUMP JUMPDEST PUSH2 0x2BF PUSH2 0x2BA CALLDATASIZE PUSH1 0x4 PUSH2 0x1376 JUMP JUMPDEST PUSH2 0xB86 JUMP JUMPDEST PUSH1 0x40 MLOAD PUSH2 0x156 SWAP7 SWAP6 SWAP5 SWAP4 SWAP3 SWAP2 SWAP1 PUSH2 0x153E JUMP JUMPDEST PUSH2 0x1AE PUSH1 0x6 SLOAD DUP2 JUMP JUMPDEST PUSH2 0x172 PUSH2 0x2E8 CALLDATASIZE PUSH1 0x4 PUSH2 0x134E JUMP JUMPDEST PUSH2 0xCE3 JUMP JUMPDEST PUSH2 0x195 PUSH2 0x2FB CALLDATASIZE PUSH1 0x4 PUSH2 0x1376 JUMP JUMPDEST PUSH2 0xCF0 JUMP JUMPDEST PUSH2 0x313 PUSH2 0x30E CALLDATASIZE PUSH1 0x4 PUSH2 0x1376 JUMP JUMPDEST PUSH2 0xCFD JUMP JUMPDEST PUSH1 0x40 MLOAD PUSH2 0x156 SWAP2 SWAP1 PUSH2 0x158C JUMP JUMPDEST PUSH2 0x1AE PUSH2 0x32E CALLDATASIZE PUSH1 0x4 PUSH2 0x1601 JUMP JUMPDEST PUSH1 0x1 PUSH1 0x1 PUSH1 0xA0 SHL SUB SWAP2 DUP3 AND PUSH0 SWAP1 DUP2 MSTORE PUSH1 0x1 PUSH1 0x20 SWAP1 DUP2 MSTORE PUSH1 0x40 DUP1 DUP4 KECCAK256 SWAP4 SWAP1 SWAP5 AND DUP3 MSTORE SWAP2 SWAP1 SWAP2 MSTORE KECCAK256 SLOAD SWAP1 JUMP JUMPDEST PUSH2 0x195 PUSH2 0x366 CALLDATASIZE PUSH1 0x4 PUSH2 0x14FC JUMP JUMPDEST PUSH2 0xED7 JUMP JUMPDEST PUSH1 0x60 PUSH1 0x3 DUP1 SLOAD PUSH2 0x37A SWAP1 PUSH2 0x1632 JUMP JUMPDEST DUP1 PUSH1 0x1F ADD PUSH1 0x20 DUP1 SWAP2 DIV MUL PUSH1 0x20 ADD PUSH1 0x40 MLOAD SWAP1 DUP2 ADD PUSH1 0x40 MSTORE DUP1 SWAP3 SWAP2 SWAP1 DUP2 DUP2 MSTORE PUSH1 0x20 ADD DUP3 DUP1 SLOAD PUSH2 0x3A6 SWAP1 PUSH2 0x1632 JUMP JUMPDEST DUP1 ISZERO PUSH2 0x3F1 JUMPI DUP1 PUSH1 0x1F LT PUSH2 0x3C8 JUMPI PUSH2 0x100 DUP1 DUP4 SLOAD DIV MUL DUP4 MSTORE SWAP2 PUSH1 0x20 ADD SWAP2 PUSH2 0x3F1 JUMP JUMPDEST DUP3 ADD SWAP2 SWAP1 PUSH0 MSTORE PUSH1 0x20 PUSH0 KECCAK256 SWAP1 JUMPDEST DUP2 SLOAD DUP2 MSTORE SWAP1 PUSH1 0x1 ADD SWAP1 PUSH1 0x20 ADD DUP1 DUP4 GT PUSH2 0x3D4 JUMPI DUP3 SWAP1 SUB PUSH1 0x1F AND DUP3 ADD SWAP2 JUMPDEST POP POP POP POP POP SWAP1 POP SWAP1 JUMP JUMPDEST PUSH0 CALLER PUSH2 0x408 DUP2 DUP6 DUP6 PUSH2 0xF11 JUMP JUMPDEST PUSH1 0x1 SWAP2 POP POP JUMPDEST SWAP3 SWAP2 POP POP JUMP JUMPDEST PUSH1 0x7 DUP2 DUP2 SLOAD DUP2 LT PUSH2 0x427 JUMPI PUSH2 0x427 PUSH2 0x166A JUMP JUMPDEST SWAP1 PUSH0 MSTORE PUSH1 0x20 PUSH0 KECCAK256 SWAP1 PUSH1 0x6 MUL ADD PUSH1 0x5 ADD SLOAD PUSH1 0x9 PUSH0 DUP4 DUP2 MSTORE PUSH1 0x20 ADD SWAP1 DUP2 MSTORE PUSH1 0x20 ADD PUSH0 KECCAK256 SLOAD LT ISZERO PUSH2 0x48B JUMPI PUSH1 0x40 MLOAD PUSH3 0x461BCD PUSH1 0xE5 SHL DUP2 MSTORE PUSH1 0x20 PUSH1 0x4 DUP3 ADD MSTORE PUSH1 0xC PUSH1 0x24 DUP3 ADD MSTORE PUSH12 0x1B9BDD08199A5B9A5CDA1959 PUSH1 0xA2 SHL PUSH1 0x44 DUP3 ADD MSTORE PUSH1 0x64 ADD JUMPDEST PUSH1 0x40 MLOAD DUP1 SWAP2 SUB SWAP1 REVERT JUMPDEST CALLER PUSH1 0x1 PUSH1 0x1 PUSH1 0xA0 SHL SUB AND PUSH1 0x7 DUP3 DUP2 SLOAD DUP2 LT PUSH2 0x4A8 JUMPI PUSH2 0x4A8 PUSH2 0x166A JUMP JUMPDEST PUSH0 SWAP2 DUP3 MSTORE PUSH1 0x20 SWAP1 SWAP2 KECCAK256 PUSH1 0x6 SWAP1 SWAP2 MUL ADD SLOAD PUSH1 0x1 PUSH1 0x1 PUSH1 0xA0 SHL SUB AND EQ PUSH2 0x4FD JUMPI PUSH1 0x40 MLOAD PUSH3 0x461BCD PUSH1 0xE5 SHL DUP2 MSTORE PUSH1 0x20 PUSH1 0x4 DUP3 ADD MSTORE PUSH1 0xC PUSH1 0x24 DUP3 ADD MSTORE PUSH12 0x37B7363C9031B932B0BA37B9 PUSH1 0xA1 SHL PUSH1 0x44 DUP3 ADD MSTORE PUSH1 0x64 ADD PUSH2 0x482 JUMP JUMPDEST PUSH2 0x535 CALLER PUSH1 0x5 PUSH1 0x7 DUP5 DUP2 SLOAD DUP2 LT PUSH2 0x516 JUMPI PUSH2 0x516 PUSH2 0x166A JUMP JUMPDEST SWAP1 PUSH0 MSTORE PUSH1 0x20 PUSH0 KECCAK256 SWAP1 PUSH1 0x6 MUL ADD PUSH1 0x4 ADD SLOAD PUSH2 0x530 SWAP2 SWAP1 PUSH2 0x1692 JUMP JUMPDEST PUSH2 0xF23 JUMP JUMPDEST POP JUMP JUMPDEST PUSH1 0xB SLOAD PUSH1 0x40 MLOAD PUSH4 0x59506B5 PUSH1 0xE3 SHL DUP2 MSTORE CALLER PUSH1 0x4 DUP3 ADD MSTORE PUSH1 0x24 DUP2 ADD DUP4 SWAP1 MSTORE PUSH1 0x1 PUSH1 0x1 PUSH1 0xA0 SHL SUB SWAP1 SWAP2 AND SWAP1 PUSH4 0x2CA835A8 SWAP1 PUSH1 0x44 ADD PUSH1 0x20 PUSH1 0x40 MLOAD DUP1 DUP4 SUB DUP2 PUSH0 DUP8 GAS CALL ISZERO DUP1 ISZERO PUSH2 0x586 JUMPI RETURNDATASIZE PUSH0 DUP1 RETURNDATACOPY RETURNDATASIZE PUSH0 REVERT JUMPDEST POP POP POP POP PUSH1 0x40 MLOAD RETURNDATASIZE PUSH1 0x1F NOT PUSH1 0x1F DUP3 ADD AND DUP3 ADD DUP1 PUSH1 0x40 MSTORE POP DUP2 ADD SWAP1 PUSH2 0x5AA SWAP2 SWAP1 PUSH2 0x16B1 JUMP JUMPDEST PUSH2 0x5E7 JUMPI PUSH1 0x40 MLOAD PUSH3 0x461BCD PUSH1 0xE5 SHL DUP2 MSTORE PUSH1 0x20 PUSH1 0x4 DUP3 ADD MSTORE PUSH1 0xE PUSH1 0x24 DUP3 ADD MSTORE PUSH14 0x1B9BDD08185D5D1A1BDC9A5E9959 PUSH1 0x92 SHL PUSH1 0x44 DUP3 ADD MSTORE PUSH1 0x64 ADD PUSH2 0x482 JUMP JUMPDEST CALLER PUSH0 SWAP1 DUP2 MSTORE PUSH1 0x20 DUP2 SWAP1 MSTORE PUSH1 0x40 SWAP1 KECCAK256 SLOAD DUP4 GT ISZERO DUP1 ISZERO PUSH2 0x61E JUMPI POP PUSH1 0xA PUSH1 0x6 SLOAD DUP4 PUSH2 0x610 SWAP2 SWAP1 PUSH2 0x16D0 JUMP JUMPDEST PUSH2 0x61A SWAP2 SWAP1 PUSH2 0x1692 JUMP JUMPDEST DUP4 LT ISZERO JUMPDEST PUSH2 0x65F JUMPI PUSH1 0x40 MLOAD PUSH3 0x461BCD PUSH1 0xE5 SHL DUP2 MSTORE PUSH1 0x20 PUSH1 0x4 DUP3 ADD MSTORE PUSH1 0x12 PUSH1 0x24 DUP3 ADD MSTORE PUSH18 0x696E73756666696369656E742066756E6473 PUSH1 0x70 SHL PUSH1 0x44 DUP3 ADD MSTORE PUSH1 0x64 ADD PUSH2 0x482 JUMP JUMPDEST PUSH0 DUP3 GT PUSH2 0x69F JUMPI PUSH1 0x40 MLOAD PUSH3 0x461BCD PUSH1 0xE5 SHL DUP2 MSTORE PUSH1 0x20 PUSH1 0x4 DUP3 ADD MSTORE PUSH1 0xE PUSH1 0x24 DUP3 ADD MSTORE PUSH14 0x696E76616C696420706172616D73 PUSH1 0x90 SHL PUSH1 0x44 DUP3 ADD MSTORE PUSH1 0x64 ADD PUSH2 0x482 JUMP JUMPDEST CALLER PUSH0 SWAP1 DUP2 MSTORE PUSH1 0xA PUSH1 0x20 MSTORE PUSH1 0x40 SWAP1 KECCAK256 SLOAD ISZERO PUSH2 0x6FB JUMPI PUSH1 0x40 MLOAD PUSH3 0x461BCD PUSH1 0xE5 SHL DUP2 MSTORE PUSH1 0x20 PUSH1 0x4 DUP3 ADD MSTORE PUSH1 0x19 PUSH1 0x24 DUP3 ADD MSTORE PUSH32 0x6F6E6C7920616C6C6F77206F6E65206C69766520746F70696300000000000000 PUSH1 0x44 DUP3 ADD MSTORE PUSH1 0x64 ADD PUSH2 0x482 JUMP JUMPDEST PUSH2 0x705 CALLER DUP5 PUSH2 0xF5B JUMP JUMPDEST PUSH1 0x40 DUP1 MLOAD PUSH1 0xC0 DUP2 ADD DUP3 MSTORE CALLER DUP2 MSTORE TIMESTAMP PUSH1 0x20 DUP3 ADD SWAP1 DUP2 MSTORE SWAP2 DUP2 ADD DUP8 DUP2 MSTORE PUSH1 0x60 DUP3 ADD DUP8 SWAP1 MSTORE PUSH1 0x80 DUP3 ADD DUP7 SWAP1 MSTORE PUSH1 0xA0 DUP3 ADD DUP6 SWAP1 MSTORE PUSH1 0x7 DUP1 SLOAD PUSH1 0x1 DUP2 ADD DUP3 SSTORE PUSH0 SWAP2 SWAP1 SWAP2 MSTORE DUP3 MLOAD PUSH32 0xA66CC928B5EDB82AF9BD49922954155AB7B0942694BEA4CE44661D9A8736C688 PUSH1 0x6 SWAP1 SWAP3 MUL SWAP2 DUP3 ADD DUP1 SLOAD PUSH1 0x1 PUSH1 0x1 PUSH1 0xA0 SHL SUB NOT AND PUSH1 0x1 PUSH1 0x1 PUSH1 0xA0 SHL SUB SWAP1 SWAP3 AND SWAP2 SWAP1 SWAP2 OR DUP2 SSTORE SWAP4 MLOAD PUSH32 0xA66CC928B5EDB82AF9BD49922954155AB7B0942694BEA4CE44661D9A8736C689 DUP3 ADD SSTORE SWAP1 MLOAD SWAP2 SWAP3 SWAP2 PUSH32 0xA66CC928B5EDB82AF9BD49922954155AB7B0942694BEA4CE44661D9A8736C68A SWAP1 SWAP2 ADD SWAP1 PUSH2 0x7E6 SWAP1 DUP3 PUSH2 0x1734 JUMP JUMPDEST POP PUSH1 0x60 DUP3 ADD MLOAD PUSH1 0x3 DUP3 ADD SWAP1 PUSH2 0x7FB SWAP1 DUP3 PUSH2 0x1734 JUMP JUMPDEST POP PUSH1 0x80 DUP3 ADD MLOAD PUSH1 0x4 DUP3 ADD SSTORE PUSH1 0xA0 SWAP1 SWAP2 ADD MLOAD PUSH1 0x5 SWAP1 SWAP2 ADD SSTORE PUSH1 0x7 SLOAD PUSH2 0x821 SWAP1 PUSH1 0x1 SWAP1 PUSH2 0x17F0 JUMP JUMPDEST CALLER PUSH0 SWAP1 DUP2 MSTORE PUSH1 0xA PUSH1 0x20 MSTORE PUSH1 0x40 SWAP1 KECCAK256 SSTORE POP POP POP POP POP JUMP JUMPDEST PUSH0 CALLER PUSH2 0x844 DUP6 DUP3 DUP6 PUSH2 0xF8F JUMP JUMPDEST PUSH2 0x84F DUP6 DUP6 DUP6 PUSH2 0x1004 JUMP JUMPDEST POP PUSH1 0x1 SWAP5 SWAP4 POP POP POP POP JUMP JUMPDEST PUSH2 0x862 PUSH2 0x1061 JUMP JUMPDEST PUSH2 0x86B PUSH0 PUSH2 0x108E JUMP JUMPDEST JUMP JUMPDEST PUSH1 0xB SLOAD PUSH1 0x40 MLOAD PUSH4 0x17AEB55D PUSH1 0xE3 SHL DUP2 MSTORE CALLER PUSH1 0x4 DUP3 ADD MSTORE PUSH1 0x24 DUP2 ADD DUP4 SWAP1 MSTORE PUSH0 SWAP2 PUSH1 0x1 PUSH1 0x1 PUSH1 0xA0 SHL SUB AND SWAP1 PUSH4 0xBD75AAE8 SWAP1 PUSH1 0x44 ADD PUSH1 0x20 PUSH1 0x40 MLOAD DUP1 DUP4 SUB DUP2 PUSH0 DUP8 GAS CALL ISZERO DUP1 ISZERO PUSH2 0x8BB JUMPI RETURNDATASIZE PUSH0 DUP1 RETURNDATACOPY RETURNDATASIZE PUSH0 REVERT JUMPDEST POP POP POP POP PUSH1 0x40 MLOAD RETURNDATASIZE PUSH1 0x1F NOT PUSH1 0x1F DUP3 ADD AND DUP3 ADD DUP1 PUSH1 0x40 MSTORE POP DUP2 ADD SWAP1 PUSH2 0x8DF SWAP2 SWAP1 PUSH2 0x1803 JUMP JUMPDEST SWAP1 POP PUSH0 DUP2 GT PUSH2 0x921 JUMPI PUSH1 0x40 MLOAD PUSH3 0x461BCD PUSH1 0xE5 SHL DUP2 MSTORE PUSH1 0x20 PUSH1 0x4 DUP3 ADD MSTORE PUSH1 0xE PUSH1 0x24 DUP3 ADD MSTORE PUSH14 0x1B9BDD08185D5D1A1BDC9A5E9959 PUSH1 0x92 SHL PUSH1 0x44 DUP3 ADD MSTORE PUSH1 0x64 ADD PUSH2 0x482 JUMP JUMPDEST PUSH1 0x7 DUP5 DUP2 SLOAD DUP2 LT PUSH2 0x934 JUMPI PUSH2 0x934 PUSH2 0x166A JUMP JUMPDEST SWAP1 PUSH0 MSTORE PUSH1 0x20 PUSH0 KECCAK256 SWAP1 PUSH1 0x6 MUL ADD PUSH1 0x5 ADD SLOAD PUSH1 0x9 PUSH0 DUP7 DUP2 MSTORE PUSH1 0x20 ADD SWAP1 DUP2 MSTORE PUSH1 0x20 ADD PUSH0 KECCAK256 SLOAD LT PUSH2 0x98E JUMPI PUSH1 0x40 MLOAD PUSH3 0x461BCD PUSH1 0xE5 SHL DUP2 MSTORE PUSH1 0x20 PUSH1 0x4 DUP3 ADD MSTORE PUSH1 0x8 PUSH1 0x24 DUP3 ADD MSTORE PUSH8 0x199A5B9A5CDA1959 PUSH1 0xC2 SHL PUSH1 0x44 DUP3 ADD MSTORE PUSH1 0x64 ADD PUSH2 0x482 JUMP JUMPDEST CALLER PUSH0 SWAP1 DUP2 MSTORE PUSH1 0xC PUSH1 0x20 MSTORE PUSH1 0x40 SWAP1 KECCAK256 SLOAD PUSH2 0x9AB SWAP1 PUSH3 0x15180 SWAP1 PUSH2 0x181A JUMP JUMPDEST TIMESTAMP LT ISZERO PUSH2 0x9E9 JUMPI PUSH1 0x40 MLOAD PUSH3 0x461BCD PUSH1 0xE5 SHL DUP2 MSTORE PUSH1 0x20 PUSH1 0x4 DUP3 ADD MSTORE PUSH1 0xC PUSH1 0x24 DUP3 ADD MSTORE PUSH12 0x6F6E63652070657220646179 PUSH1 0xA0 SHL PUSH1 0x44 DUP3 ADD MSTORE PUSH1 0x64 ADD PUSH2 0x482 JUMP JUMPDEST CALLER PUSH0 DUP2 DUP2 MSTORE PUSH1 0xC PUSH1 0x20 MSTORE PUSH1 0x40 SWAP1 KECCAK256 TIMESTAMP SWAP1 SSTORE PUSH1 0x7 DUP1 SLOAD PUSH2 0xA69 SWAP3 SWAP2 SWAP1 DUP8 SWAP1 DUP2 LT PUSH2 0xA14 JUMPI PUSH2 0xA14 PUSH2 0x166A JUMP JUMPDEST SWAP1 PUSH0 MSTORE PUSH1 0x20 PUSH0 KECCAK256 SWAP1 PUSH1 0x6 MUL ADD PUSH1 0x5 ADD SLOAD PUSH1 0x7 DUP8 DUP2 SLOAD DUP2 LT PUSH2 0xA37 JUMPI PUSH2 0xA37 PUSH2 0x166A JUMP JUMPDEST SWAP1 PUSH0 MSTORE PUSH1 0x20 PUSH0 KECCAK256 SWAP1 PUSH1 0x6 MUL ADD PUSH1 0x4 ADD SLOAD PUSH2 0xA51 SWAP2 SWAP1 PUSH2 0x1692 JUMP JUMPDEST DUP4 PUSH1 0x6 SLOAD PUSH2 0xA5F SWAP2 SWAP1 PUSH2 0x16D0 JUMP JUMPDEST PUSH2 0x530 SWAP2 SWAP1 PUSH2 0x181A JUMP JUMPDEST PUSH0 DUP5 DUP2 MSTORE PUSH1 0x9 PUSH1 0x20 MSTORE PUSH1 0x40 DUP2 KECCAK256 DUP1 SLOAD PUSH1 0x1 SWAP3 SWAP1 PUSH2 0xA87 SWAP1 DUP5 SWAP1 PUSH2 0x181A JUMP JUMPDEST SWAP1 SWAP2 SSTORE POP POP PUSH0 DUP5 DUP2 MSTORE PUSH1 0x8 PUSH1 0x20 SWAP1 DUP2 MSTORE PUSH1 0x40 DUP1 DUP4 KECCAK256 DUP7 DUP5 MSTORE SWAP1 SWAP2 MSTORE DUP2 KECCAK256 DUP1 SLOAD DUP4 SWAP3 SWAP1 PUSH2 0xAB4 SWAP1 DUP5 SWAP1 PUSH2 0x181A JUMP JUMPDEST SWAP1 SWAP2 SSTORE POP POP PUSH1 0x40 DUP1 MLOAD DUP5 DUP2 MSTORE PUSH1 0x20 DUP2 ADD DUP4 SWAP1 MSTORE DUP6 SWAP2 CALLER SWAP2 PUSH32 0x6C7EB2743EC28489909706EA440D909129004996BE657D36C6E9ADD778546ABF SWAP2 ADD PUSH1 0x40 MLOAD DUP1 SWAP2 SUB SWAP1 LOG3 PUSH1 0x7 DUP5 DUP2 SLOAD DUP2 LT PUSH2 0xB09 JUMPI PUSH2 0xB09 PUSH2 0x166A JUMP JUMPDEST SWAP1 PUSH0 MSTORE PUSH1 0x20 PUSH0 KECCAK256 SWAP1 PUSH1 0x6 MUL ADD PUSH1 0x5 ADD SLOAD PUSH1 0x9 PUSH0 DUP7 DUP2 MSTORE PUSH1 0x20 ADD SWAP1 DUP2 MSTORE PUSH1 0x20 ADD PUSH0 KECCAK256 SLOAD SUB PUSH2 0xB71 JUMPI PUSH0 PUSH1 0xA PUSH0 PUSH1 0x7 DUP8 DUP2 SLOAD DUP2 LT PUSH2 0xB47 JUMPI PUSH2 0xB47 PUSH2 0x166A JUMP JUMPDEST PUSH0 SWAP2 DUP3 MSTORE PUSH1 0x20 DUP1 DUP4 KECCAK256 PUSH1 0x6 SWAP1 SWAP3 MUL SWAP1 SWAP2 ADD SLOAD PUSH1 0x1 PUSH1 0x1 PUSH1 0xA0 SHL SUB AND DUP4 MSTORE DUP3 ADD SWAP3 SWAP1 SWAP3 MSTORE PUSH1 0x40 ADD SWAP1 KECCAK256 SSTORE JUMPDEST POP POP POP POP JUMP JUMPDEST PUSH1 0x60 PUSH1 0x4 DUP1 SLOAD PUSH2 0x37A SWAP1 PUSH2 0x1632 JUMP JUMPDEST PUSH1 0x7 DUP2 DUP2 SLOAD DUP2 LT PUSH2 0xB95 JUMPI PUSH0 DUP1 REVERT JUMPDEST PUSH0 SWAP2 DUP3 MSTORE PUSH1 0x20 SWAP1 SWAP2 KECCAK256 PUSH1 0x6 SWAP1 SWAP2 MUL ADD DUP1 SLOAD PUSH1 0x1 DUP3 ADD SLOAD PUSH1 0x2 DUP4 ADD DUP1 SLOAD PUSH1 0x1 PUSH1 0x1 PUSH1 0xA0 SHL SUB SWAP1 SWAP4 AND SWAP5 POP SWAP1 SWAP3 SWAP2 PUSH2 0xBCA SWAP1 PUSH2 0x1632 JUMP JUMPDEST DUP1 PUSH1 0x1F ADD PUSH1 0x20 DUP1 SWAP2 DIV MUL PUSH1 0x20 ADD PUSH1 0x40 MLOAD SWAP1 DUP2 ADD PUSH1 0x40 MSTORE DUP1 SWAP3 SWAP2 SWAP1 DUP2 DUP2 MSTORE PUSH1 0x20 ADD DUP3 DUP1 SLOAD PUSH2 0xBF6 SWAP1 PUSH2 0x1632 JUMP JUMPDEST DUP1 ISZERO PUSH2 0xC41 JUMPI DUP1 PUSH1 0x1F LT PUSH2 0xC18 JUMPI PUSH2 0x100 DUP1 DUP4 SLOAD DIV MUL DUP4 MSTORE SWAP2 PUSH1 0x20 ADD SWAP2 PUSH2 0xC41 JUMP JUMPDEST DUP3 ADD SWAP2 SWAP1 PUSH0 MSTORE PUSH1 0x20 PUSH0 KECCAK256 SWAP1 JUMPDEST DUP2 SLOAD DUP2 MSTORE SWAP1 PUSH1 0x1 ADD SWAP1 PUSH1 0x20 ADD DUP1 DUP4 GT PUSH2 0xC24 JUMPI DUP3 SWAP1 SUB PUSH1 0x1F AND DUP3 ADD SWAP2 JUMPDEST POP POP POP POP POP SWAP1 DUP1 PUSH1 0x3 ADD DUP1 SLOAD PUSH2 0xC56 SWAP1 PUSH2 0x1632 JUMP JUMPDEST DUP1 PUSH1 0x1F ADD PUSH1 0x20 DUP1 SWAP2 DIV MUL PUSH1 0x20 ADD PUSH1 0x40 MLOAD SWAP1 DUP2 ADD PUSH1 0x40 MSTORE DUP1 SWAP3 SWAP2 SWAP1 DUP2 DUP2 MSTORE PUSH1 0x20 ADD DUP3 DUP1 SLOAD PUSH2 0xC82 SWAP1 PUSH2 0x1632 JUMP JUMPDEST DUP1 ISZERO PUSH2 0xCCD JUMPI DUP1 PUSH1 0x1F LT PUSH2 0xCA4 JUMPI PUSH2 0x100 DUP1 DUP4 SLOAD DIV MUL DUP4 MSTORE SWAP2 PUSH1 0x20 ADD SWAP2 PUSH2 0xCCD JUMP JUMPDEST DUP3 ADD SWAP2 SWAP1 PUSH0 MSTORE PUSH1 0x20 PUSH0 KECCAK256 SWAP1 JUMPDEST DUP2 SLOAD DUP2 MSTORE SWAP1 PUSH1 0x1 ADD SWAP1 PUSH1 0x20 ADD DUP1 DUP4 GT PUSH2 0xCB0 JUMPI DUP3 SWAP1 SUB PUSH1 0x1F AND DUP3 ADD SWAP2 JUMPDEST POP POP POP POP POP SWAP1 DUP1 PUSH1 0x4 ADD SLOAD SWAP1 DUP1 PUSH1 0x5 ADD SLOAD SWAP1 POP DUP7 JUMP JUMPDEST PUSH0 CALLER PUSH2 0x408 DUP2 DUP6 DUP6 PUSH2 0x1004 JUMP JUMPDEST PUSH2 0xCF8 PUSH2 0x1061 JUMP JUMPDEST PUSH1 0x6 SSTORE JUMP JUMPDEST PUSH2 0xD3B PUSH1 0x40 MLOAD DUP1 PUSH1 0xC0 ADD PUSH1 0x40 MSTORE DUP1 PUSH0 PUSH1 0x1 PUSH1 0x1 PUSH1 0xA0 SHL SUB AND DUP2 MSTORE PUSH1 0x20 ADD PUSH0 DUP2 MSTORE PUSH1 0x20 ADD PUSH1 0x60 DUP2 MSTORE PUSH1 0x20 ADD PUSH1 0x60 DUP2 MSTORE PUSH1 0x20 ADD PUSH0 DUP2 MSTORE PUSH1 0x20 ADD PUSH0 DUP2 MSTORE POP SWAP1 JUMP JUMPDEST PUSH1 0x7 DUP3 DUP2 SLOAD DUP2 LT PUSH2 0xD4E JUMPI PUSH2 0xD4E PUSH2 0x166A JUMP JUMPDEST SWAP1 PUSH0 MSTORE PUSH1 0x20 PUSH0 KECCAK256 SWAP1 PUSH1 0x6 MUL ADD PUSH1 0x40 MLOAD DUP1 PUSH1 0xC0 ADD PUSH1 0x40 MSTORE SWAP1 DUP2 PUSH0 DUP3 ADD PUSH0 SWAP1 SLOAD SWAP1 PUSH2 0x100 EXP SWAP1 DIV PUSH1 0x1 PUSH1 0x1 PUSH1 0xA0 SHL SUB AND PUSH1 0x1 PUSH1 0x1 PUSH1 0xA0 SHL SUB AND PUSH1 0x1 PUSH1 0x1 PUSH1 0xA0 SHL SUB AND DUP2 MSTORE PUSH1 0x20 ADD PUSH1 0x1 DUP3 ADD SLOAD DUP2 MSTORE PUSH1 0x20 ADD PUSH1 0x2 DUP3 ADD DUP1 SLOAD PUSH2 0xDAC SWAP1 PUSH2 0x1632 JUMP JUMPDEST DUP1 PUSH1 0x1F ADD PUSH1 0x20 DUP1 SWAP2 DIV MUL PUSH1 0x20 ADD PUSH1 0x40 MLOAD SWAP1 DUP2 ADD PUSH1 0x40 MSTORE DUP1 SWAP3 SWAP2 SWAP1 DUP2 DUP2 MSTORE PUSH1 0x20 ADD DUP3 DUP1 SLOAD PUSH2 0xDD8 SWAP1 PUSH2 0x1632 JUMP JUMPDEST DUP1 ISZERO PUSH2 0xE23 JUMPI DUP1 PUSH1 0x1F LT PUSH2 0xDFA JUMPI PUSH2 0x100 DUP1 DUP4 SLOAD DIV MUL DUP4 MSTORE SWAP2 PUSH1 0x20 ADD SWAP2 PUSH2 0xE23 JUMP JUMPDEST DUP3 ADD SWAP2 SWAP1 PUSH0 MSTORE PUSH1 0x20 PUSH0 KECCAK256 SWAP1 JUMPDEST DUP2 SLOAD DUP2 MSTORE SWAP1 PUSH1 0x1 ADD SWAP1 PUSH1 0x20 ADD DUP1 DUP4 GT PUSH2 0xE06 JUMPI DUP3 SWAP1 SUB PUSH1 0x1F AND DUP3 ADD SWAP2 JUMPDEST POP POP POP POP POP DUP2 MSTORE PUSH1 0x20 ADD PUSH1 0x3 DUP3 ADD DUP1 SLOAD PUSH2 0xE3C SWAP1 PUSH2 0x1632 JUMP JUMPDEST DUP1 PUSH1 0x1F ADD PUSH1 0x20 DUP1 SWAP2 DIV MUL PUSH1 0x20 ADD PUSH1 0x40 MLOAD SWAP1 DUP2 ADD PUSH1 0x40 MSTORE DUP1 SWAP3 SWAP2 SWAP1 DUP2 DUP2 MSTORE PUSH1 0x20 ADD DUP3 DUP1 SLOAD PUSH2 0xE68 SWAP1 PUSH2 0x1632 JUMP JUMPDEST DUP1 ISZERO PUSH2 0xEB3 JUMPI DUP1 PUSH1 0x1F LT PUSH2 0xE8A JUMPI PUSH2 0x100 DUP1 DUP4 SLOAD DIV MUL DUP4 MSTORE SWAP2 PUSH1 0x20 ADD SWAP2 PUSH2 0xEB3 JUMP JUMPDEST DUP3 ADD SWAP2 SWAP1 PUSH0 MSTORE PUSH1 0x20 PUSH0 KECCAK256 SWAP1 JUMPDEST DUP2 SLOAD DUP2 MSTORE SWAP1 PUSH1 0x1 ADD SWAP1 PUSH1 0x20 ADD DUP1 DUP4 GT PUSH2 0xE96 JUMPI DUP3 SWAP1 SUB PUSH1 0x1F AND DUP3 ADD SWAP2 JUMPDEST POP POP POP POP POP DUP2 MSTORE PUSH1 0x20 ADD PUSH1 0x4 DUP3 ADD SLOAD DUP2 MSTORE PUSH1 0x20 ADD PUSH1 0x5 DUP3 ADD SLOAD DUP2 MSTORE POP POP SWAP1 POP SWAP2 SWAP1 POP JUMP JUMPDEST PUSH2 0xEDF PUSH2 0x1061 JUMP JUMPDEST PUSH1 0x1 PUSH1 0x1 PUSH1 0xA0 SHL SUB DUP2 AND PUSH2 0xF08 JUMPI PUSH1 0x40 MLOAD PUSH4 0x1E4FBDF7 PUSH1 0xE0 SHL DUP2 MSTORE PUSH0 PUSH1 0x4 DUP3 ADD MSTORE PUSH1 0x24 ADD PUSH2 0x482 JUMP JUMPDEST PUSH2 0x535 DUP2 PUSH2 0x108E JUMP JUMPDEST PUSH2 0xF1E DUP4 DUP4 DUP4 PUSH1 0x1 PUSH2 0x10DF JUMP JUMPDEST POP POP POP JUMP JUMPDEST PUSH1 0x1 PUSH1 0x1 PUSH1 0xA0 SHL SUB DUP3 AND PUSH2 0xF4C JUMPI PUSH1 0x40 MLOAD PUSH4 0xEC442F05 PUSH1 0xE0 SHL DUP2 MSTORE PUSH0 PUSH1 0x4 DUP3 ADD MSTORE PUSH1 0x24 ADD PUSH2 0x482 JUMP JUMPDEST PUSH2 0xF57 PUSH0 DUP4 DUP4 PUSH2 0x11B1 JUMP JUMPDEST POP POP JUMP JUMPDEST PUSH1 0x1 PUSH1 0x1 PUSH1 0xA0 SHL SUB DUP3 AND PUSH2 0xF84 JUMPI PUSH1 0x40 MLOAD PUSH4 0x4B637E8F PUSH1 0xE1 SHL DUP2 MSTORE PUSH0 PUSH1 0x4 DUP3 ADD MSTORE PUSH1 0x24 ADD PUSH2 0x482 JUMP JUMPDEST PUSH2 0xF57 DUP3 PUSH0 DUP4 PUSH2 0x11B1 JUMP JUMPDEST PUSH1 0x1 PUSH1 0x1 PUSH1 0xA0 SHL SUB DUP4 DUP2 AND PUSH0 SWAP1 DUP2 MSTORE PUSH1 0x1 PUSH1 0x20 SWAP1 DUP2 MSTORE PUSH1 0x40 DUP1 DUP4 KECCAK256 SWAP4 DUP7 AND DUP4 MSTORE SWAP3 SWAP1 MSTORE KECCAK256 SLOAD PUSH0 NOT DUP2 EQ PUSH2 0xB71 JUMPI DUP2 DUP2 LT ISZERO PUSH2 0xFF6 JUMPI PUSH1 0x40 MLOAD PUSH4 0x7DC7A0D9 PUSH1 0xE1 SHL DUP2 MSTORE PUSH1 0x1 PUSH1 0x1 PUSH1 0xA0 SHL SUB DUP5 AND PUSH1 0x4 DUP3 ADD MSTORE PUSH1 0x24 DUP2 ADD DUP3 SWAP1 MSTORE PUSH1 0x44 DUP2 ADD DUP4 SWAP1 MSTORE PUSH1 0x64 ADD PUSH2 0x482 JUMP JUMPDEST PUSH2 0xB71 DUP5 DUP5 DUP5 DUP5 SUB PUSH0 PUSH2 0x10DF JUMP JUMPDEST PUSH1 0x1 PUSH1 0x1 PUSH1 0xA0 SHL SUB DUP4 AND PUSH2 0x102D JUMPI PUSH1 0x40 MLOAD PUSH4 0x4B637E8F PUSH1 0xE1 SHL DUP2 MSTORE PUSH0 PUSH1 0x4 DUP3 ADD MSTORE PUSH1 0x24 ADD PUSH2 0x482 JUMP JUMPDEST PUSH1 0x1 PUSH1 0x1 PUSH1 0xA0 SHL SUB DUP3 AND PUSH2 0x1056 JUMPI PUSH1 0x40 MLOAD PUSH4 0xEC442F05 PUSH1 0xE0 SHL DUP2 MSTORE PUSH0 PUSH1 0x4 DUP3 ADD MSTORE PUSH1 0x24 ADD PUSH2 0x482 JUMP JUMPDEST PUSH2 0xF1E DUP4 DUP4 DUP4 PUSH2 0x11B1 JUMP JUMPDEST PUSH1 0x5 SLOAD PUSH1 0x1 PUSH1 0x1 PUSH1 0xA0 SHL SUB AND CALLER EQ PUSH2 0x86B JUMPI PUSH1 0x40 MLOAD PUSH4 0x118CDAA7 PUSH1 0xE0 SHL DUP2 MSTORE CALLER PUSH1 0x4 DUP3 ADD MSTORE PUSH1 0x24 ADD PUSH2 0x482 JUMP JUMPDEST PUSH1 0x5 DUP1 SLOAD PUSH1 0x1 PUSH1 0x1 PUSH1 0xA0 SHL SUB DUP4 DUP2 AND PUSH1 0x1 PUSH1 0x1 PUSH1 0xA0 SHL SUB NOT DUP4 AND DUP2 OR SWAP1 SWAP4 SSTORE PUSH1 0x40 MLOAD SWAP2 AND SWAP2 SWAP1 DUP3 SWAP1 PUSH32 0x8BE0079C531659141344CD1FD0A4F28419497F9722A3DAAFE3B4186F6B6457E0 SWAP1 PUSH0 SWAP1 LOG3 POP POP JUMP JUMPDEST PUSH1 0x1 PUSH1 0x1 PUSH1 0xA0 SHL SUB DUP5 AND PUSH2 0x1108 JUMPI PUSH1 0x40 MLOAD PUSH4 0xE602DF05 PUSH1 0xE0 SHL DUP2 MSTORE PUSH0 PUSH1 0x4 DUP3 ADD MSTORE PUSH1 0x24 ADD PUSH2 0x482 JUMP JUMPDEST PUSH1 0x1 PUSH1 0x1 PUSH1 0xA0 SHL SUB DUP4 AND PUSH2 0x1131 JUMPI PUSH1 0x40 MLOAD PUSH4 0x4A1406B1 PUSH1 0xE1 SHL DUP2 MSTORE PUSH0 PUSH1 0x4 DUP3 ADD MSTORE PUSH1 0x24 ADD PUSH2 0x482 JUMP JUMPDEST PUSH1 0x1 PUSH1 0x1 PUSH1 0xA0 SHL SUB DUP1 DUP6 AND PUSH0 SWAP1 DUP2 MSTORE PUSH1 0x1 PUSH1 0x20 SWAP1 DUP2 MSTORE PUSH1 0x40 DUP1 DUP4 KECCAK256 SWAP4 DUP8 AND DUP4 MSTORE SWAP3 SWAP1 MSTORE KECCAK256 DUP3 SWAP1 SSTORE DUP1 ISZERO PUSH2 0xB71 JUMPI DUP3 PUSH1 0x1 PUSH1 0x1 PUSH1 0xA0 SHL SUB AND DUP5 PUSH1 0x1 PUSH1 0x1 PUSH1 0xA0 SHL SUB AND PUSH32 0x8C5BE1E5EBEC7D5BD14F71427D1E84F3DD0314C0F7B2291E5B200AC8C7C3B925 DUP5 PUSH1 0x40 MLOAD PUSH2 0x11A3 SWAP2 DUP2 MSTORE PUSH1 0x20 ADD SWAP1 JUMP JUMPDEST PUSH1 0x40 MLOAD DUP1 SWAP2 SUB SWAP1 LOG3 POP POP POP POP JUMP JUMPDEST PUSH1 0x1 PUSH1 0x1 PUSH1 0xA0 SHL SUB DUP4 AND PUSH2 0x11DB JUMPI DUP1 PUSH1 0x2 PUSH0 DUP3 DUP3 SLOAD PUSH2 0x11D0 SWAP2 SWAP1 PUSH2 0x181A JUMP JUMPDEST SWAP1 SWAP2 SSTORE POP PUSH2 0x124B SWAP1 POP JUMP JUMPDEST PUSH1 0x1 PUSH1 0x1 PUSH1 0xA0 SHL SUB DUP4 AND PUSH0 SWAP1 DUP2 MSTORE PUSH1 0x20 DUP2 SWAP1 MSTORE PUSH1 0x40 SWAP1 KECCAK256 SLOAD DUP2 DUP2 LT ISZERO PUSH2 0x122D JUMPI PUSH1 0x40 MLOAD PUSH4 0x391434E3 PUSH1 0xE2 SHL DUP2 MSTORE PUSH1 0x1 PUSH1 0x1 PUSH1 0xA0 SHL SUB DUP6 AND PUSH1 0x4 DUP3 ADD MSTORE PUSH1 0x24 DUP2 ADD DUP3 SWAP1 MSTORE PUSH1 0x44 DUP2 ADD DUP4 SWAP1 MSTORE PUSH1 0x64 ADD PUSH2 0x482 JUMP JUMPDEST PUSH1 0x1 PUSH1 0x1 PUSH1 0xA0 SHL SUB DUP5 AND PUSH0 SWAP1 DUP2 MSTORE PUSH1 0x20 DUP2 SWAP1 MSTORE PUSH1 0x40 SWAP1 KECCAK256 SWAP1 DUP3 SWAP1 SUB SWAP1 SSTORE JUMPDEST PUSH1 0x1 PUSH1 0x1 PUSH1 0xA0 SHL SUB DUP3 AND PUSH2 0x1267 JUMPI PUSH1 0x2 DUP1 SLOAD DUP3 SWAP1 SUB SWAP1 SSTORE PUSH2 0x1285 JUMP JUMPDEST PUSH1 0x1 PUSH1 0x1 PUSH1 0xA0 SHL SUB DUP3 AND PUSH0 SWAP1 DUP2 MSTORE PUSH1 0x20 DUP2 SWAP1 MSTORE PUSH1 0x40 SWAP1 KECCAK256 DUP1 SLOAD DUP3 ADD SWAP1 SSTORE JUMPDEST DUP2 PUSH1 0x1 PUSH1 0x1 PUSH1 0xA0 SHL SUB AND DUP4 PUSH1 0x1 PUSH1 0x1 PUSH1 0xA0 SHL SUB AND PUSH32 0xDDF252AD1BE2C89B69C2B068FC378DAA952BA7F163C4A11628F55A4DF523B3EF DUP4 PUSH1 0x40 MLOAD PUSH2 0x12CA SWAP2 DUP2 MSTORE PUSH1 0x20 ADD SWAP1 JUMP JUMPDEST PUSH1 0x40 MLOAD DUP1 SWAP2 SUB SWAP1 LOG3 POP POP POP JUMP JUMPDEST PUSH0 DUP2 MLOAD DUP1 DUP5 MSTORE PUSH0 JUMPDEST DUP2 DUP2 LT ISZERO PUSH2 0x12FB JUMPI PUSH1 0x20 DUP2 DUP6 ADD DUP2 ADD MLOAD DUP7 DUP4 ADD DUP3 ADD MSTORE ADD PUSH2 0x12DF JUMP JUMPDEST POP PUSH0 PUSH1 0x20 DUP3 DUP7 ADD ADD MSTORE PUSH1 0x20 PUSH1 0x1F NOT PUSH1 0x1F DUP4 ADD AND DUP6 ADD ADD SWAP2 POP POP SWAP3 SWAP2 POP POP JUMP JUMPDEST PUSH1 0x20 DUP2 MSTORE PUSH0 PUSH2 0x132C PUSH1 0x20 DUP4 ADD DUP5 PUSH2 0x12D7 JUMP JUMPDEST SWAP4 SWAP3 POP POP POP JUMP JUMPDEST DUP1 CALLDATALOAD PUSH1 0x1 PUSH1 0x1 PUSH1 0xA0 SHL SUB DUP2 AND DUP2 EQ PUSH2 0x1349 JUMPI PUSH0 DUP1 REVERT JUMPDEST SWAP2 SWAP1 POP JUMP JUMPDEST PUSH0 DUP1 PUSH1 0x40 DUP4 DUP6 SUB SLT ISZERO PUSH2 0x135F JUMPI PUSH0 DUP1 REVERT JUMPDEST PUSH2 0x1368 DUP4 PUSH2 0x1333 JUMP JUMPDEST SWAP5 PUSH1 0x20 SWAP4 SWAP1 SWAP4 ADD CALLDATALOAD SWAP4 POP POP POP JUMP JUMPDEST PUSH0 PUSH1 0x20 DUP3 DUP5 SUB SLT ISZERO PUSH2 0x1386 JUMPI PUSH0 DUP1 REVERT JUMPDEST POP CALLDATALOAD SWAP2 SWAP1 POP JUMP JUMPDEST PUSH4 0x4E487B71 PUSH1 0xE0 SHL PUSH0 MSTORE PUSH1 0x41 PUSH1 0x4 MSTORE PUSH1 0x24 PUSH0 REVERT JUMPDEST PUSH0 DUP3 PUSH1 0x1F DUP4 ADD SLT PUSH2 0x13B0 JUMPI PUSH0 DUP1 REVERT JUMPDEST DUP2 CALLDATALOAD PUSH8 0xFFFFFFFFFFFFFFFF DUP1 DUP3 GT ISZERO PUSH2 0x13CB JUMPI PUSH2 0x13CB PUSH2 0x138D JUMP JUMPDEST PUSH1 0x40 MLOAD PUSH1 0x1F DUP4 ADD PUSH1 0x1F NOT SWAP1 DUP2 AND PUSH1 0x3F ADD AND DUP2 ADD SWAP1 DUP3 DUP3 GT DUP2 DUP4 LT OR ISZERO PUSH2 0x13F3 JUMPI PUSH2 0x13F3 PUSH2 0x138D JUMP JUMPDEST DUP2 PUSH1 0x40 MSTORE DUP4 DUP2 MSTORE DUP7 PUSH1 0x20 DUP6 DUP9 ADD ADD GT ISZERO PUSH2 0x140B JUMPI PUSH0 DUP1 REVERT JUMPDEST DUP4 PUSH1 0x20 DUP8 ADD PUSH1 0x20 DUP4 ADD CALLDATACOPY PUSH0 PUSH1 0x20 DUP6 DUP4 ADD ADD MSTORE DUP1 SWAP5 POP POP POP POP POP SWAP3 SWAP2 POP POP JUMP JUMPDEST PUSH0 DUP1 PUSH0 DUP1 PUSH0 PUSH1 0xA0 DUP7 DUP9 SUB SLT ISZERO PUSH2 0x143E JUMPI PUSH0 DUP1 REVERT JUMPDEST DUP6 CALLDATALOAD PUSH8 0xFFFFFFFFFFFFFFFF DUP1 DUP3 GT ISZERO PUSH2 0x1455 JUMPI PUSH0 DUP1 REVERT JUMPDEST PUSH2 0x1461 DUP10 DUP4 DUP11 ADD PUSH2 0x13A1 JUMP JUMPDEST SWAP7 POP PUSH1 0x20 DUP9 ADD CALLDATALOAD SWAP2 POP DUP1 DUP3 GT ISZERO PUSH2 0x1476 JUMPI PUSH0 DUP1 REVERT JUMPDEST POP PUSH2 0x1483 DUP9 DUP3 DUP10 ADD PUSH2 0x13A1 JUMP JUMPDEST SWAP6 SWAP9 SWAP6 SWAP8 POP POP POP POP PUSH1 0x40 DUP5 ADD CALLDATALOAD SWAP4 PUSH1 0x60 DUP2 ADD CALLDATALOAD SWAP4 PUSH1 0x80 SWAP1 SWAP2 ADD CALLDATALOAD SWAP3 POP SWAP1 POP JUMP JUMPDEST PUSH0 DUP1 PUSH0 PUSH1 0x60 DUP5 DUP7 SUB SLT ISZERO PUSH2 0x14B5 JUMPI PUSH0 DUP1 REVERT JUMPDEST PUSH2 0x14BE DUP5 PUSH2 0x1333 JUMP JUMPDEST SWAP3 POP PUSH2 0x14CC PUSH1 0x20 DUP6 ADD PUSH2 0x1333 JUMP JUMPDEST SWAP2 POP PUSH1 0x40 DUP5 ADD CALLDATALOAD SWAP1 POP SWAP3 POP SWAP3 POP SWAP3 JUMP JUMPDEST PUSH0 DUP1 PUSH1 0x40 DUP4 DUP6 SUB SLT ISZERO PUSH2 0x14ED JUMPI PUSH0 DUP1 REVERT JUMPDEST POP POP DUP1 CALLDATALOAD SWAP3 PUSH1 0x20 SWAP1 SWAP2 ADD CALLDATALOAD SWAP2 POP JUMP JUMPDEST PUSH0 PUSH1 0x20 DUP3 DUP5 SUB SLT ISZERO PUSH2 0x150C JUMPI PUSH0 DUP1 REVERT JUMPDEST PUSH2 0x132C DUP3 PUSH2 0x1333 JUMP JUMPDEST PUSH0 DUP1 PUSH0 PUSH1 0x60 DUP5 DUP7 SUB SLT ISZERO PUSH2 0x1527 JUMPI PUSH0 DUP1 REVERT JUMPDEST POP POP DUP2 CALLDATALOAD SWAP4 PUSH1 0x20 DUP4 ADD CALLDATALOAD SWAP4 POP PUSH1 0x40 SWAP1 SWAP3 ADD CALLDATALOAD SWAP2 SWAP1 POP JUMP JUMPDEST PUSH1 0x1 DUP1 PUSH1 0xA0 SHL SUB DUP8 AND DUP2 MSTORE DUP6 PUSH1 0x20 DUP3 ADD MSTORE PUSH1 0xC0 PUSH1 0x40 DUP3 ADD MSTORE PUSH0 PUSH2 0x1564 PUSH1 0xC0 DUP4 ADD DUP8 PUSH2 0x12D7 JUMP JUMPDEST DUP3 DUP2 SUB PUSH1 0x60 DUP5 ADD MSTORE PUSH2 0x1576 DUP2 DUP8 PUSH2 0x12D7 JUMP JUMPDEST PUSH1 0x80 DUP5 ADD SWAP6 SWAP1 SWAP6 MSTORE POP POP PUSH1 0xA0 ADD MSTORE SWAP5 SWAP4 POP POP POP POP JUMP JUMPDEST PUSH1 0x20 DUP2 MSTORE PUSH1 0x1 DUP1 PUSH1 0xA0 SHL SUB DUP3 MLOAD AND PUSH1 0x20 DUP3 ADD MSTORE PUSH1 0x20 DUP3 ADD MLOAD PUSH1 0x40 DUP3 ADD MSTORE PUSH0 PUSH1 0x40 DUP4 ADD MLOAD PUSH1 0xC0 PUSH1 0x60 DUP5 ADD MSTORE PUSH2 0x15C3 PUSH1 0xE0 DUP5 ADD DUP3 PUSH2 0x12D7 JUMP JUMPDEST SWAP1 POP PUSH1 0x60 DUP5 ADD MLOAD PUSH1 0x1F NOT DUP5 DUP4 SUB ADD PUSH1 0x80 DUP6 ADD MSTORE PUSH2 0x15E0 DUP3 DUP3 PUSH2 0x12D7 JUMP JUMPDEST SWAP2 POP POP PUSH1 0x80 DUP5 ADD MLOAD PUSH1 0xA0 DUP5 ADD MSTORE PUSH1 0xA0 DUP5 ADD MLOAD PUSH1 0xC0 DUP5 ADD MSTORE DUP1 SWAP2 POP POP SWAP3 SWAP2 POP POP JUMP JUMPDEST PUSH0 DUP1 PUSH1 0x40 DUP4 DUP6 SUB SLT ISZERO PUSH2 0x1612 JUMPI PUSH0 DUP1 REVERT JUMPDEST PUSH2 0x161B DUP4 PUSH2 0x1333 JUMP JUMPDEST SWAP2 POP PUSH2 0x1629 PUSH1 0x20 DUP5 ADD PUSH2 0x1333 JUMP JUMPDEST SWAP1 POP SWAP3 POP SWAP3 SWAP1 POP JUMP JUMPDEST PUSH1 0x1 DUP2 DUP2 SHR SWAP1 DUP3 AND DUP1 PUSH2 0x1646 JUMPI PUSH1 0x7F DUP3 AND SWAP2 POP JUMPDEST PUSH1 0x20 DUP3 LT DUP2 SUB PUSH2 0x1664 JUMPI PUSH4 0x4E487B71 PUSH1 0xE0 SHL PUSH0 MSTORE PUSH1 0x22 PUSH1 0x4 MSTORE PUSH1 0x24 PUSH0 REVERT JUMPDEST POP SWAP2 SWAP1 POP JUMP JUMPDEST PUSH4 0x4E487B71 PUSH1 0xE0 SHL PUSH0 MSTORE PUSH1 0x32 PUSH1 0x4 MSTORE PUSH1 0x24 PUSH0 REVERT JUMPDEST PUSH4 0x4E487B71 PUSH1 0xE0 SHL PUSH0 MSTORE PUSH1 0x11 PUSH1 0x4 MSTORE PUSH1 0x24 PUSH0 REVERT JUMPDEST PUSH0 DUP3 PUSH2 0x16AC JUMPI PUSH4 0x4E487B71 PUSH1 0xE0 SHL PUSH0 MSTORE PUSH1 0x12 PUSH1 0x4 MSTORE PUSH1 0x24 PUSH0 REVERT JUMPDEST POP DIV SWAP1 JUMP JUMPDEST PUSH0 PUSH1 0x20 DUP3 DUP5 SUB SLT ISZERO PUSH2 0x16C1 JUMPI PUSH0 DUP1 REVERT JUMPDEST DUP2 MLOAD DUP1 ISZERO ISZERO DUP2 EQ PUSH2 0x132C JUMPI PUSH0 DUP1 REVERT JUMPDEST DUP1 DUP3 MUL DUP2 ISZERO DUP3 DUP3 DIV DUP5 EQ OR PUSH2 0x40E JUMPI PUSH2 0x40E PUSH2 0x167E JUMP JUMPDEST PUSH1 0x1F DUP3 GT ISZERO PUSH2 0xF1E JUMPI PUSH0 DUP2 DUP2 MSTORE PUSH1 0x20 DUP2 KECCAK256 PUSH1 0x1F DUP6 ADD PUSH1 0x5 SHR DUP2 ADD PUSH1 0x20 DUP7 LT ISZERO PUSH2 0x170D JUMPI POP DUP1 JUMPDEST PUSH1 0x1F DUP6 ADD PUSH1 0x5 SHR DUP3 ADD SWAP2 POP JUMPDEST DUP2 DUP2 LT ISZERO PUSH2 0x172C JUMPI DUP3 DUP2 SSTORE PUSH1 0x1 ADD PUSH2 0x1719 JUMP JUMPDEST POP POP POP POP POP POP JUMP JUMPDEST DUP2 MLOAD PUSH8 0xFFFFFFFFFFFFFFFF DUP2 GT ISZERO PUSH2 0x174E JUMPI PUSH2 0x174E PUSH2 0x138D JUMP JUMPDEST PUSH2 0x1762 DUP2 PUSH2 0x175C DUP5 SLOAD PUSH2 0x1632 JUMP JUMPDEST DUP5 PUSH2 0x16E7 JUMP JUMPDEST PUSH1 0x20 DUP1 PUSH1 0x1F DUP4 GT PUSH1 0x1 DUP2 EQ PUSH2 0x1795 JUMPI PUSH0 DUP5 ISZERO PUSH2 0x177E JUMPI POP DUP6 DUP4 ADD MLOAD JUMPDEST PUSH0 NOT PUSH1 0x3 DUP7 SWAP1 SHL SHR NOT AND PUSH1 0x1 DUP6 SWAP1 SHL OR DUP6 SSTORE PUSH2 0x172C JUMP JUMPDEST PUSH0 DUP6 DUP2 MSTORE PUSH1 0x20 DUP2 KECCAK256 PUSH1 0x1F NOT DUP7 AND SWAP2 JUMPDEST DUP3 DUP2 LT ISZERO PUSH2 0x17C3 JUMPI DUP9 DUP7 ADD MLOAD DUP3 SSTORE SWAP5 DUP5 ADD SWAP5 PUSH1 0x1 SWAP1 SWAP2 ADD SWAP1 DUP5 ADD PUSH2 0x17A4 JUMP JUMPDEST POP DUP6 DUP3 LT ISZERO PUSH2 0x17E0 JUMPI DUP8 DUP6 ADD MLOAD PUSH0 NOT PUSH1 0x3 DUP9 SWAP1 SHL PUSH1 0xF8 AND SHR NOT AND DUP2 SSTORE JUMPDEST POP POP POP POP POP PUSH1 0x1 SWAP1 DUP2 SHL ADD SWAP1 SSTORE POP JUMP JUMPDEST DUP2 DUP2 SUB DUP2 DUP2 GT ISZERO PUSH2 0x40E JUMPI PUSH2 0x40E PUSH2 0x167E JUMP JUMPDEST PUSH0 PUSH1 0x20 DUP3 DUP5 SUB SLT ISZERO PUSH2 0x1813 JUMPI PUSH0 DUP1 REVERT JUMPDEST POP MLOAD SWAP2 SWAP1 POP JUMP JUMPDEST DUP1 DUP3 ADD DUP1 DUP3 GT ISZERO PUSH2 0x40E JUMPI PUSH2 0x40E PUSH2 0x167E JUMP INVALID LOG2 PUSH5 0x6970667358 0x22 SLT KECCAK256 0xA5 DUP12 GASLIMIT CALLDATACOPY 0xEA 0x2D 0x22 SWAP5 EXP CHAINID PUSH15 0xD9D24F15D7F78BC125301E56014598 SAR 0xCF 0xAF 0xB7 EQ STOP PUSH5 0x736F6C6343 STOP ADDMOD EQ STOP CALLER PUSH1 0x80 PUSH1 0x40 MSTORE CALLVALUE DUP1 ISZERO PUSH2 0xF JUMPI PUSH0 DUP1 REVERT JUMPDEST POP PUSH1 0x40 MLOAD PUSH2 0x35D CODESIZE SUB DUP1 PUSH2 0x35D DUP4 CODECOPY DUP2 ADD PUSH1 0x40 DUP2 SWAP1 MSTORE PUSH2 0x2E SWAP2 PUSH2 0xD1 JUMP JUMPDEST CALLER DUP1 PUSH2 0x53 JUMPI PUSH1 0x40 MLOAD PUSH4 0x1E4FBDF7 PUSH1 0xE0 SHL DUP2 MSTORE PUSH0 PUSH1 0x4 DUP3 ADD MSTORE PUSH1 0x24 ADD PUSH1 0x40 MLOAD DUP1 SWAP2 SUB SWAP1 REVERT JUMPDEST PUSH2 0x5C DUP2 PUSH2 0x82 JUMP JUMPDEST POP PUSH1 0x1 DUP1 SLOAD PUSH1 0x1 PUSH1 0x1 PUSH1 0xA0 SHL SUB NOT AND PUSH1 0x1 PUSH1 0x1 PUSH1 0xA0 SHL SUB SWAP3 SWAP1 SWAP3 AND SWAP2 SWAP1 SWAP2 OR SWAP1 SSTORE PUSH2 0xFE JUMP JUMPDEST PUSH0 DUP1 SLOAD PUSH1 0x1 PUSH1 0x1 PUSH1 0xA0 SHL SUB DUP4 DUP2 AND PUSH1 0x1 PUSH1 0x1 PUSH1 0xA0 SHL SUB NOT DUP4 AND DUP2 OR DUP5 SSTORE PUSH1 0x40 MLOAD SWAP2 SWAP1 SWAP3 AND SWAP3 DUP4 SWAP2 PUSH32 0x8BE0079C531659141344CD1FD0A4F28419497F9722A3DAAFE3B4186F6B6457E0 SWAP2 SWAP1 LOG3 POP POP JUMP JUMPDEST PUSH0 PUSH1 0x20 DUP3 DUP5 SUB SLT ISZERO PUSH2 0xE1 JUMPI PUSH0 DUP1 REVERT JUMPDEST DUP2 MLOAD PUSH1 0x1 PUSH1 0x1 PUSH1 0xA0 SHL SUB DUP2 AND DUP2 EQ PUSH2 0xF7 JUMPI PUSH0 DUP1 REVERT JUMPDEST SWAP4 SWAP3 POP POP POP JUMP JUMPDEST PUSH2 0x252 DUP1 PUSH2 0x10B PUSH0 CODECOPY PUSH0 RETURN INVALID PUSH1 0x80 PUSH1 0x40 MSTORE CALLVALUE DUP1 ISZERO PUSH2 0xF JUMPI PUSH0 DUP1 REVERT JUMPDEST POP PUSH1 0x4 CALLDATASIZE LT PUSH2 0x55 JUMPI PUSH0 CALLDATALOAD PUSH1 0xE0 SHR DUP1 PUSH4 0x2CA835A8 EQ PUSH2 0x59 JUMPI DUP1 PUSH4 0x715018A6 EQ PUSH2 0x81 JUMPI DUP1 PUSH4 0x8DA5CB5B EQ PUSH2 0x8B JUMPI DUP1 PUSH4 0xBD75AAE8 EQ PUSH2 0xA5 JUMPI DUP1 PUSH4 0xF2FDE38B EQ PUSH2 0xC6 JUMPI JUMPDEST PUSH0 DUP1 REVERT JUMPDEST PUSH2 0x6C PUSH2 0x67 CALLDATASIZE PUSH1 0x4 PUSH2 0x1D4 JUMP JUMPDEST PUSH2 0xD9 JUMP JUMPDEST PUSH1 0x40 MLOAD SWAP1 ISZERO ISZERO DUP2 MSTORE PUSH1 0x20 ADD JUMPDEST PUSH1 0x40 MLOAD DUP1 SWAP2 SUB SWAP1 RETURN JUMPDEST PUSH2 0x89 PUSH2 0xE2 JUMP JUMPDEST STOP JUMPDEST PUSH0 SLOAD PUSH1 0x40 MLOAD PUSH1 0x1 PUSH1 0x1 PUSH1 0xA0 SHL SUB SWAP1 SWAP2 AND DUP2 MSTORE PUSH1 0x20 ADD PUSH2 0x78 JUMP JUMPDEST PUSH2 0xB8 PUSH2 0xB3 CALLDATASIZE PUSH1 0x4 PUSH2 0x1D4 JUMP JUMPDEST PUSH2 0xF5 JUMP JUMPDEST PUSH1 0x40 MLOAD SWAP1 DUP2 MSTORE PUSH1 0x20 ADD PUSH2 0x78 JUMP JUMPDEST PUSH2 0x89 PUSH2 0xD4 CALLDATASIZE PUSH1 0x4 PUSH2 0x1FC JUMP JUMPDEST PUSH2 0xFC JUMP JUMPDEST PUSH1 0x1 JUMPDEST SWAP3 SWAP2 POP POP JUMP JUMPDEST PUSH2 0xEA PUSH2 0x13E JUMP JUMPDEST PUSH2 0xF3 PUSH0 PUSH2 0x16A JUMP JUMPDEST JUMP JUMPDEST PUSH1 0x1 PUSH2 0xDC JUMP JUMPDEST PUSH2 0x104 PUSH2 0x13E JUMP JUMPDEST PUSH1 0x1 PUSH1 0x1 PUSH1 0xA0 SHL SUB DUP2 AND PUSH2 0x132 JUMPI PUSH1 0x40 MLOAD PUSH4 0x1E4FBDF7 PUSH1 0xE0 SHL DUP2 MSTORE PUSH0 PUSH1 0x4 DUP3 ADD MSTORE PUSH1 0x24 ADD JUMPDEST PUSH1 0x40 MLOAD DUP1 SWAP2 SUB SWAP1 REVERT JUMPDEST PUSH2 0x13B DUP2 PUSH2 0x16A JUMP JUMPDEST POP JUMP JUMPDEST PUSH0 SLOAD PUSH1 0x1 PUSH1 0x1 PUSH1 0xA0 SHL SUB AND CALLER EQ PUSH2 0xF3 JUMPI PUSH1 0x40 MLOAD PUSH4 0x118CDAA7 PUSH1 0xE0 SHL DUP2 MSTORE CALLER PUSH1 0x4 DUP3 ADD MSTORE PUSH1 0x24 ADD PUSH2 0x129 JUMP JUMPDEST PUSH0 DUP1 SLOAD PUSH1 0x1 PUSH1 0x1 PUSH1 0xA0 SHL SUB DUP4 DUP2 AND PUSH1 0x1 PUSH1 0x1 PUSH1 0xA0 SHL SUB NOT DUP4 AND DUP2 OR DUP5 SSTORE PUSH1 0x40 MLOAD SWAP2 SWAP1 SWAP3 AND SWAP3 DUP4 SWAP2 PUSH32 0x8BE0079C531659141344CD1FD0A4F28419497F9722A3DAAFE3B4186F6B6457E0 SWAP2 SWAP1 LOG3 POP POP JUMP JUMPDEST DUP1 CALLDATALOAD PUSH1 0x1 PUSH1 0x1 PUSH1 0xA0 SHL SUB DUP2 AND DUP2 EQ PUSH2 0x1CF JUMPI PUSH0 DUP1 REVERT JUMPDEST SWAP2 SWAP1 POP JUMP JUMPDEST PUSH0 DUP1 PUSH1 0x40 DUP4 DUP6 SUB SLT ISZERO PUSH2 0x1E5 JUMPI PUSH0 DUP1 REVERT JUMPDEST PUSH2 0x1EE DUP4 PUSH2 0x1B9 JUMP JUMPDEST SWAP5 PUSH1 0x20 SWAP4 SWAP1 SWAP4 ADD CALLDATALOAD SWAP4 POP POP POP JUMP JUMPDEST PUSH0 PUSH1 0x20 DUP3 DUP5 SUB SLT ISZERO PUSH2 0x20C JUMPI PUSH0 DUP1 REVERT JUMPDEST PUSH2 0x215 DUP3 PUSH2 0x1B9 JUMP JUMPDEST SWAP4 SWAP3 POP POP POP JUMP INVALID LOG2 PUSH5 0x6970667358 0x22 SLT KECCAK256 PUSH1 0xB7 CODECOPY PUSH17 0x6BC2FFE4187C03F614CD620B154157954B CALLDATALOAD 0x4E 0x29 SWAP1 0xD1 0xD9 CALLCODE PUSH6 0x4D9FB864736F PUSH13 0x63430008140033000000000000 "
				},
				"gasEstimates": {
					"creation": {
						"codeDepositCost": "1248600",
						"executionCost": "infinite",
						"totalCost": "infinite"
					},
					"external": {
						"_lastJoinTime(address)": "2605",
						"_rewards()": "2316",
						"_topics(uint256)": "infinite",
						"_voterCounts(uint256)": "2502",
						"_votes(uint256,uint256)": "2597",
						"allowance(address,address)": "infinite",
						"approve(address,uint256)": "24758",
						"balanceOf(address)": "2648",
						"claimRewards(uint256)": "66158",
						"create(string,string,uint256,uint256,bytes32)": "infinite",
						"decimals()": "221",
						"name()": "infinite",
						"owner()": "2345",
						"renounceOwnership()": "infinite",
						"symbol()": "infinite",
						"topicAt(uint256)": "infinite",
						"totalSupply()": "2392",
						"transfer(address,uint256)": "51260",
						"transferFrom(address,address,uint256)": "infinite",
						"transferOwnership(address)": "28465",
						"updateRewards(uint256)": "24552",
						"vote(uint256,uint256,bytes32)": "infinite"
					}
				},
				"methodIdentifiers": {
					"_lastJoinTime(address)": "68229099",
					"_rewards()": "a6c2da4c",
					"_topics(uint256)": "9a383dfd",
					"_voterCounts(uint256)": "93ad4aca",
					"_votes(uint256,uint256)": "63b6ad97",
					"allowance(address,address)": "dd62ed3e",
					"approve(address,uint256)": "095ea7b3",
					"balanceOf(address)": "70a08231",
					"claimRewards(uint256)": "0962ef79",
					"create(string,string,uint256,uint256,bytes32)": "0a05b17f",
					"decimals()": "313ce567",
					"name()": "06fdde03",
					"owner()": "8da5cb5b",
					"renounceOwnership()": "715018a6",
					"symbol()": "95d89b41",
					"topicAt(uint256)": "cda411be",
					"totalSupply()": "18160ddd",
					"transfer(address,uint256)": "a9059cbb",
					"transferFrom(address,address,uint256)": "23b872dd",
					"transferOwnership(address)": "f2fde38b",
					"updateRewards(uint256)": "b1e95e94",
					"vote(uint256,uint256,bytes32)": "8c881eeb"
				}
			},
			"storageLayout": {
				"storage": [
					{
						"astId": 307,
						"contract": "contracts/Bias.sol:BiasProtocol",
						"label": "_balances",
						"offset": 0,
						"slot": "0",
						"type": "t_mapping(t_address,t_uint256)"
					},
					{
						"astId": 313,
						"contract": "contracts/Bias.sol:BiasProtocol",
						"label": "_allowances",
						"offset": 0,
						"slot": "1",
						"type": "t_mapping(t_address,t_mapping(t_address,t_uint256))"
					},
					{
						"astId": 315,
						"contract": "contracts/Bias.sol:BiasProtocol",
						"label": "_totalSupply",
						"offset": 0,
						"slot": "2",
						"type": "t_uint256"
					},
					{
						"astId": 317,
						"contract": "contracts/Bias.sol:BiasProtocol",
						"label": "_name",
						"offset": 0,
						"slot": "3",
						"type": "t_string_storage"
					},
					{
						"astId": 319,
						"contract": "contracts/Bias.sol:BiasProtocol",
						"label": "_symbol",
						"offset": 0,
						"slot": "4",
						"type": "t_string_storage"
					},
					{
						"astId": 8,
						"contract": "contracts/Bias.sol:BiasProtocol",
						"label": "_owner",
						"offset": 0,
						"slot": "5",
						"type": "t_address"
					},
					{
						"astId": 964,
						"contract": "contracts/Bias.sol:BiasProtocol",
						"label": "_rewards",
						"offset": 0,
						"slot": "6",
						"type": "t_uint256"
					},
					{
						"astId": 968,
						"contract": "contracts/Bias.sol:BiasProtocol",
						"label": "_topics",
						"offset": 0,
						"slot": "7",
						"type": "t_array(t_struct(Topic)958_storage)dyn_storage"
					},
					{
						"astId": 975,
						"contract": "contracts/Bias.sol:BiasProtocol",
						"label": "_votes",
						"offset": 0,
						"slot": "8",
						"type": "t_mapping(t_uint256,t_mapping(t_uint256,t_uint256))"
					},
					{
						"astId": 980,
						"contract": "contracts/Bias.sol:BiasProtocol",
						"label": "_voterCounts",
						"offset": 0,
						"slot": "9",
						"type": "t_mapping(t_uint256,t_uint256)"
					},
					{
						"astId": 985,
						"contract": "contracts/Bias.sol:BiasProtocol",
						"label": "_living",
						"offset": 0,
						"slot": "10",
						"type": "t_mapping(t_address,t_uint256)"
					},
					{
						"astId": 988,
						"contract": "contracts/Bias.sol:BiasProtocol",
						"label": "_credentialVerifier",
						"offset": 0,
						"slot": "11",
						"type": "t_contract(CredentialVerifier)1350"
					},
					{
						"astId": 992,
						"contract": "contracts/Bias.sol:BiasProtocol",
						"label": "_lastJoinTime",
						"offset": 0,
						"slot": "12",
						"type": "t_mapping(t_address,t_uint256)"
					}
				],
				"types": {
					"t_address": {
						"encoding": "inplace",
						"label": "address",
						"numberOfBytes": "20"
					},
					"t_array(t_struct(Topic)958_storage)dyn_storage": {
						"base": "t_struct(Topic)958_storage",
						"encoding": "dynamic_array",
						"label": "struct BiasProtocol.Topic[]",
						"numberOfBytes": "32"
					},
					"t_contract(CredentialVerifier)1350": {
						"encoding": "inplace",
						"label": "contract CredentialVerifier",
						"numberOfBytes": "20"
					},
					"t_mapping(t_address,t_mapping(t_address,t_uint256))": {
						"encoding": "mapping",
						"key": "t_address",
						"label": "mapping(address => mapping(address => uint256))",
						"numberOfBytes": "32",
						"value": "t_mapping(t_address,t_uint256)"
					},
					"t_mapping(t_address,t_uint256)": {
						"encoding": "mapping",
						"key": "t_address",
						"label": "mapping(address => uint256)",
						"numberOfBytes": "32",
						"value": "t_uint256"
					},
					"t_mapping(t_uint256,t_mapping(t_uint256,t_uint256))": {
						"encoding": "mapping",
						"key": "t_uint256",
						"label": "mapping(uint256 => mapping(uint256 => uint256))",
						"numberOfBytes": "32",
						"value": "t_mapping(t_uint256,t_uint256)"
					},
					"t_mapping(t_uint256,t_uint256)": {
						"encoding": "mapping",
						"key": "t_uint256",
						"label": "mapping(uint256 => uint256)",
						"numberOfBytes": "32",
						"value": "t_uint256"
					},
					"t_string_storage": {
						"encoding": "bytes",
						"label": "string",
						"numberOfBytes": "32"
					},
					"t_struct(Topic)958_storage": {
						"encoding": "inplace",
						"label": "struct BiasProtocol.Topic",
						"members": [
							{
								"astId": 946,
								"contract": "contracts/Bias.sol:BiasProtocol",
								"label": "creator",
								"offset": 0,
								"slot": "0",
								"type": "t_address"
							},
							{
								"astId": 948,
								"contract": "contracts/Bias.sol:BiasProtocol",
								"label": "createdAt",
								"offset": 0,
								"slot": "1",
								"type": "t_uint256"
							},
							{
								"astId": 950,
								"contract": "contracts/Bias.sol:BiasProtocol",
								"label": "title",
								"offset": 0,
								"slot": "2",
								"type": "t_string_storage"
							},
							{
								"astId": 952,
								"contract": "contracts/Bias.sol:BiasProtocol",
								"label": "content",
								"offset": 0,
								"slot": "3",
								"type": "t_string_storage"
							},
							{
								"astId": 954,
								"contract": "contracts/Bias.sol:BiasProtocol",
								"label": "funds",
								"offset": 0,
								"slot": "4",
								"type": "t_uint256"
							},
							{
								"astId": 957,
								"contract": "contracts/Bias.sol:BiasProtocol",
								"label": "max",
								"offset": 0,
								"slot": "5",
								"type": "t_uint256"
							}
						],
						"numberOfBytes": "192"
					},
					"t_uint256": {
						"encoding": "inplace",
						"label": "uint256",
						"numberOfBytes": "32"
					}
				}
			},
			"userdoc": {
				"kind": "user",
				"methods": {},
				"version": 1
			}
		}
	}
}